:1000000002C100002EC100002CC100002AC1000066
:1000100028C1000026C1000024C1000022C1000048
:1000200020C100001EC100001CC100001AC1000058
:1000300018C1000016C1000014C1000012C1000068
:1000400010C1000019C500000CC100000AC1000069
:1000500008C1000006C1000004C1000099C30000EF
:1000600000C100005FC3000034C30000FAC00000FC
:10007000F8C00000F6C00000F4C00000F2C00000AC
:100080008BC40000EEC00000ECC00000EAC000001D
:10009000E8C00000E6C00000E4C00000E2C00000CC
:1000A000E0C00000DEC0000015C40000DAC000009F
:1000B000D8C00000D6C00000D4C00000B3C3000008
:1000C000D0C00000CEC00000CCC00000CAC00000FC
:1000D000C8C00000C6C00000C4C00000C2C000000C
:1000E000C0C0000000002100240027002A002D00CD
:1000F0003000330001010000040107010A01000083
:100100002200250028002B002E00310034000201BF
:100110000000050108010B0100002000230026005B
:1001200029002C002F00320000010000030106010D
:10013000090105050505070508080808020202026D
:100140000A0A080804040404010101010101010173
:100150000303030303030303040707070C0C0C0C3E
:100160000C0C0C0C02020202060606060606060627
:100170000B0B0B0B0B0B0B0B0102102020080810B4
:100180002040102040800201020108040201010207
:1001900004081020408080402010080402018004E0
:1001A000020180402010080402010804020101023B
:1001B0000408102040800102040810204080000044
:1001C0000A0B02090C0D0E080703040100000000D1
:1001D000000000000000000000000000000000001F
:1001E00000000000000000000000121110000000DC
:1001F00000000000000000000000000000000000FF
:1002000000000000AC0511241FBECFEFD1E2DEBF1D
:10021000CDBF00E00CBF12E0A0E0B2E0E4E3FFE0FD
:1002200000E00BBF02C007900D92A033B107D9F7D1
:1002300022E0A0E3B2E001C01D92AA3EB207E1F7BE
:1002400011E0C3E0D1E000E005C021970109802F53
:10025000FE0166D6C230D10780E00807B1F7A9D405
:1002600067C6CECEAF92BF92CF92DF92EF92FF924F
:100270000F931F93CF93DF936C017B018B01040FCE
:10028000151FEB015E01AE18BF08C017D10759F06A
:100290006991D601ED91FC910190F081E02DC601AC
:1002A0001995892B79F7C501DF91CF911F910F9196
:1002B000FF90EF90DF90CF90BF90AF900895FC013A
:1002C000538D448D252F30E0842F90E0821B930BBB
:1002D000541710F0CF96089501970895FC01918D61
:1002E000828D981761F0A28DAE0FBF2FB11D5D9664
:1002F0008C91928D9F5F9F73928F90E008958FEF06
:100300009FEF0895FC01918D828D981731F0828DB9
:10031000E80FF11D858D90E008958FEF9FEF089510
:10032000FC01918D228D892F90E0805C9F4F821B74
:1003300091098F73992708958DE492E0F1DF21E010
:10034000892B09F420E0822F0895FC01A48DA80FC9
:10035000B92FB11DA35ABF4F2C91848D90E0019607
:100360008F739927848FA689B7892C93A089B18927
:100370008C91837080648C93938D848D981306C0C8
:100380000288F389E02D80818F7D80830895EF922C
:10039000FF920F931F93CF93DF93EC0181E0888F3F
:1003A0009B8D8C8D98131AC0E889F989808185FF0F
:1003B00015C09FB7F894EE89FF896083E889F989B1
:1003C00080818370806480839FBF81E090E0DF91B3
:1003D000CF911F910F91FF90EF900895F62E0B8D06
:1003E00010E00F5F1F4F0F731127E02E8C8D8E11C1
:1003F0000BC00FB607FCFACFE889F989808185FF29
:10040000F5CFCE01A2DFF2CFEB8DEC0FFD2FF11D6A
:10041000E35AFF4FF0829FB7F8940B8FEA89FB896C
:1004200080818062D0CFCF93DF93EC01888D8823C9
:10043000B1F0AA89BB89E889F9898C9185FD03C04F
:10044000808186FD0CC00FB607FCF7CF8C9185FF2D
:10045000F2CF808185FFEDCFCE0177DFEACFDF914C
:10046000CF91089580E090E0892B21F065DF811124
:100470000E94000080E090E0892B49F080E090E04D
:10048000892B29F00E94000081110E94000080E069
:1004900090E0892B49F080E090E0892B29F00E94C0
:1004A000000081110E94000080E090E0892B49F05B
:1004B00080E090E0892B29F00E94000081110C94CB
:1004C000000008958150823108F059C0E82FF0E013
:1004D0008827E359FD4F8F4F23C58D0291027F027C
:1004E00085028902BF0294029A029E02A402A80217
:1004F000AC02B202B602BF02BA02C002C4028091CC
:1005000080008F77809380000895809180008F7D98
:10051000F9CF80918000877FF5CF84B58F7784BD38
:10052000089584B58F7DFBCF8091B0008F77809345
:10053000B00008958091B0008F7DF9CF8091900038
:100540008F77809390000895809190008F7DF9CFF0
:1005500080919000877FF5CF8091A0008F77809366
:10056000A00008958091A0008F7DF9CF8091A00018
:10057000877FF5CF809120018F77809320010895A8
:10058000809120018F7DF9CF80912001877FF5CF69
:10059000CF93DF93282F30E0F901E254FE4F84918E
:1005A000F901E858FE4FD491F901EE5CFE4FC49179
:1005B000CC2399F0811186DFEC2FF0E0EE0FFF1FC6
:1005C000E85EFE4FA591B491EC91ED2381E090E0BF
:1005D00009F480E0DF91CF91089580E090E0FACFB8
:1005E0001F93CF93DF93282F30E0F901E254FE4FA1
:1005F0008491F901E858FE4FD491F901EE5CFE4F69
:10060000C491CC23A1F0162F81115CDFEC2FF0E018
:10061000EE0FFF1FE250FF4FA591B4918FB7F894F2
:10062000EC91111108C0D095DE23DC938FBFDF91D0
:10063000CF911F910895DE2BF8CFCF93DF9390E0F9
:10064000FC01E858FE4F24918E5C9E4FFC01849182
:100650008823D1F090E0880F991FFC01EC51FF4FE7
:10066000A591B491FC01E250FF4FC591D491623045
:1006700071F49FB7F8943C91822F809583238C93DB
:10068000E8812E2B28839FBFDF91CF9108958FB7EC
:10069000F894EC912E2B2C938FBFF6CFCF93DF9352
:1006A000FC0101900020E9F73197AF01481B590B7D
:1006B000BC018DE492E0D6DDEC0142E050E060E266
:1006C00072E08DE492E0CEDD8C0F9D1FDF91CF9123
:1006D00008951F920F920FB60F9211240BB60F922E
:1006E0002F933F934F935F936F937F938F939F933A
:1006F000AF93BF93EF93FF938DE492E026DEFF91DB
:10070000EF91BF91AF919F918F917F916F915F9189
:100710004F913F912F910F900BBE0F900FBE0F90F6
:100720001F9018951F920F920FB60F9211240BB6BF
:100730000F922F938F939F93EF93FF93E0915D021E
:10074000F0915E028081E0916302F091640282FD8B
:100750001DC09081809166028F5F8F732091670228
:10076000821741F0E0916602F0E0E35BFD4F958F68
:1007700080936602FF91EF919F918F912F910F903F
:100780000BBE0F900FBE0F901F9018958081F2CF77
:100790001F920F920FB60F9211242F933F938F93B6
:1007A0009F93AF93BF938091410290914202A09199
:1007B0004302B09144023091400223E0230F2D37D1
:1007C00058F50196A11DB11D20934002809341026E
:1007D00090934202A0934302B093440280913C0262
:1007E00090913D02A0913E02B0913F020196A11D61
:1007F000B11D80933C0290933D02A0933E02B093C2
:100800003F02BF91AF919F918F913F912F910F9098
:100810000FBE0F901F90189526E8230F0296A11D7A
:10082000B11DD2CF1F920F920FB60F9211240BB6AB
:100830000F92CF92DF92EF92FF922F933F934F93BD
:100840005F936F937F938F939F93AF93BF93CF9358
:10085000EF93FF93C0903802D0903902E0903A02B3
:10086000F0903B02C114D104E104F10481F1C09184
:10087000080281E0C827C09308026C2F8AE1B0DE2D
:10088000CC2369F08FEFC81AD80AE80AF80AC09298
:100890003802D0923902E0923A02F0923B02FF9184
:1008A000EF91CF91BF91AF919F918F917F916F9178
:1008B0005F914F913F912F91FF90EF90DF90CF90FC
:1008C0000F900BBE0F900FBE0F901F9018951092B7
:1008D0007300E5CF1F920F920FB60F9211240BB643
:1008E0000F92CF92DF92EF92FF922F933F934F930D
:1008F0005F936F937F938F939F93AF93BF93CF93A8
:10090000EF93FF93C0903002D0903102E09032021A
:10091000F09033028091340290913502A09136021A
:10092000B09137028C159D05AE05BF0591F182E1AE
:100930002FDEC0910B0281E0C827C0930B026C2F01
:1009400084E24EDECC2369F08FEFC81AD80AE80A99
:10095000F80AC0923002D0923102E0923202F09254
:100960003302FF91EF91CF91BF91AF919F918F9102
:100970007F916F915F914F913F912F91FF90EF90F9
:10098000DF90CF900F900BBE0F900FBE0F901F9077
:10099000189510927200E5CF1F920F920FB60F922A
:1009A00011240BB60F928F929F92AF92BF92CF926B
:1009B000DF92EF92FF922F933F934F935F936F934A
:1009C0007F938F939F93AF93BF93EF93FF93809009
:1009D000450290904602A0904702B0904802C09015
:1009E0000402D0900502E0900602F09007028C14F9
:1009F0009D04AE04BF04D9F160910C0281E0682728
:100A000060930C028CE3ECDDC814D904EA04FB0407
:100A100044F58FEFC81AD80AE80AF80AC09204020F
:100A2000D0920502E0920602F0920702FF91EF9148
:100A3000BF91AF919F918F917F916F915F914F91F6
:100A40003F912F91FF90EF90DF90CF90BF90AF90AC
:100A50009F908F900F900BBE0F900FBE0F901F9026
:100A6000189581E0C81AD108E108F108D7CF109293
:100A7000090210927100DACF1F920F920FB60F92F7
:100A800011240BB60F928F929F92AF92BF92CF928A
:100A9000DF92EF92FF922F933F934F935F936F9369
:100AA0007F938F939F93AF93BF93EF93FF93809028
:100AB000490290904A02A0904B02B0904C02C09024
:100AC0000002D0900102E0900202F09003028C1428
:100AD0009D04AE04BF04D9F160910D0281E0682746
:100AE00060930D0286E37CDDC814D904EA04FB049C
:100AF00044F58FEFC81AD80AE80AF80AC092000233
:100B0000D0920102E0920202F0920302FF91EF9173
:100B1000BF91AF919F918F917F916F915F914F9115
:100B20003F912F91FF90EF90DF90CF90BF90AF90CB
:100B30009F908F900F900BBE0F900FBE0F901F9045
:100B4000189581E0C81AD108E108F108D7CF1092B2
:100B50000A0210926F00DACFEDE4F2E01382128203
:100B600088EE93E0A0E0B0E084839583A683B7830A
:100B700082E192E09183808385EC90E09587848781
:100B800084EC90E09787868780EC90E0918B808B57
:100B900081EC90E0938B828B82EC90E0958B848B40
:100BA00086EC90E0978B868B118E128E138E148EAE
:100BB0000895789484B5826084BD84B5816084BDD5
:100BC00085B5826085BD85B5816085BD80916E00EB
:100BD000816080936E00109281008091810082601C
:100BE0008093810080918100816080938100809159
:100BF00080008160809380008091B1008460809348
:100C0000B1008091B00081608093B000809191002C
:100C10008260809391008091910081608093910027
:100C2000809190008160809390008091A10082600B
:100C30008093A1008091A10081608093A1008091A8
:100C4000A00081608093A000809121018260809348
:100C500021018091210181608093210180912001F7
:100C600081608093200180917A00846080937A0073
:100C700080917A00826080937A0080917A0081600E
:100C800080937A0080917A00806880937A00109235
:100C9000C10062E083E0D1DC62E08EE0CEDC62E0A5
:100CA00082E1CBDC61E086E3C8DC61E087E3C5DCA0
:100CB00061E086E2C2DC10928000CAE0C09381004D
:100CC0001092820000E911E01093890000938800DF
:100CD00061E08CE3B2DC61E08DE3AFDC61E088E3EE
:100CE000ACDC10929000C09391001092920010938F
:100CF00099000093980061E08EE29FDC61E08DE353
:100D00009CDC61E088E399DC61E084E296DC61E0F0
:100D100082E293DC61E08EE190DC1092A000C0934F
:100D2000A1001092A2001093A9000093A80061E016
:100D30008AE183DC61E08CE180DC61E088E17DDCDC
:100D400010922001C09321011092220180E293E0D1
:100D50009093290180932801E0915D02F0915E0259
:100D600082E08083E0915902F0915A021082E09172
:100D70005B02F0915C028FEC808310926502E0913F
:100D80006102F091620286E08083E0915F02F0915F
:100D90006002808180618083E0915F02F091600257
:100DA000808188608083E0915F02F09160028081A1
:100DB00080688083E0915F02F091600280818F7D86
:100DC0008083C1E00BE316E083E0E2DB892BC9F00E
:100DD000C1E00BE316E08EE0DBDB892BE9F0C1E03C
:100DE0000BE316E082E1D4DB892B09F560910B025D
:100DF0006C2760930B0284E2F3DBC8010197F1F7E3
:100E0000F1CF60910D026C2760930D0286E3E8DB61
:100E1000C8010197F1F7D8CF60910C026C2760935D
:100E20000C028CE3DDDBC8010197F1F7D4CF83E23C
:100E300092E034DC82E080936F008093710061E087
:100E400087E3CEDB61E08DE3CBDB80E090E0DC018B
:100E500021E032E08093490290934A02A0934B0232
:100E6000B0934C028093450290934602A0934702B0
:100E7000B09348022093090220930A0230936F0036
:100E80003093710040910A02442321F040910902FD
:100E90004111F8CF0296A11DB11D823345E7940799
:100EA000A105B105B9F687E292E0F8DB60E087E3DF
:100EB00097DB60E08DE394DB80E395E7A0E0B0E0B2
:100EC00021E032E08093490290934A02A0934B02C2
:100ED000B0934C028093450290934602A093470240
:100EE000B09348022093090220930A0230936F00C6
:100EF0003093710040910A02442321F0409109028D
:100F00004111F8CF0296A11DB11D82344CE994071E
:100F1000A105B105B9F68BE292E0C0DBA3DAFECF02
:100F2000EE0FFF1F881F8BBF0790F691E02D1994DD
:040F3000F894FFCF63
:100F340001000000010000000101010101010000A5
:100F44000000C70132015F01130290016E018201AA
:100F54000D0A0072756E006F6B31006F6B3200000A
:00000001FF
