:1000000051C100007FC100007DC100007BC1000024
:1000100079C1000077C1000075C1000073C1000004
:1000200071C100006FC100006DC100006BC1000014
:1000300069C1000067C1000065C1000063C1000024
:1000400061C10000E4C500005DC100005BC10000AB
:1000500059C1000057C1000055C1000066C700002B
:1000600051C10000E9C60000BEC600004BC100003F
:1000700049C1000047C1000045C1000043C1000064
:1000800061C500003FC100003DC100003BC1000050
:1000900039C1000037C1000035C1000033C1000084
:1000A00031C100002FC10000EEC400002BC10000D0
:1000B00029C1000027C1000025C100009AC400002A
:1000C00021C100001FC100001DC100001BC10000B4
:1000D00019C1000017C1000015C1000013C10000C4
:1000E00011C1000004020702F601FA0100023E02FB
:1000F0000B020F02150219021D02230227022B0216
:100100003E02310235023902D509330A330AE209C7
:10011000330A140A1B0A330A330A020A290A0C0A90
:10012000330A330A330A2F0A330A330AEE09330A31
:10013000FA09330ACB09084AD73B3BCE016E84BC8F
:10014000BFFDC12F3D6C74319ABD56833DDA3D0031
:10015000C77F11BED9E4BB4C3E916BAAAABE00007A
:1001600000803F05A84CCDB2D44EB93836A9020C58
:1001700050B9918688083CA6AAAA2ABE0000008031
:100180003F0000002100240027002A002D0030003D
:10019000330001010000040107010A0100002200F0
:1001A000250028002B002E00310034000201000041
:1001B000050108010B010000200023002600290092
:1001C0002C002F003200000100000301060109018C
:1001D00005050505070508080808020202020A0AC3
:1001E00008080404040401010101010101010303E1
:1001F000030303030303040707070C0C0C0C0C0C8C
:100200000C0C0202020206060606060606060B0B88
:100210000B0B0B0B0B0B01021020200808102040C9
:1002200010204080020102010804020101020408BA
:100230001020408080402010080402018004020148
:100240008040201008040201080402010102040891
:1002500010204080010204081020408000000A0B9A
:1002600002090C0D0E080703040100000000000045
:10027000000000000000000000000000000000007E
:10028000000000000000000012111000000000003B
:10029000000000000000000000000000000000005E
:1002A00000003B0A11241FBECFEFD1E2DEBFCDBF5D
:1002B00000E00CBF18E1A0E0B2E0E6E0FBE100E006
:1002C0000BBF02C007900D92A23CB107D9F729E1FC
:1002D000A2ECB8E101C01D92AA37B207E1F711E024
:1002E000C2E5D1E000E006C021970109802FFE01A0
:1002F0000E94750DC135D10780E00807A9F75FD6C8
:100300000C94810D7DCEFC01918D828D981761F04A
:10031000828DDF01A80FB11D5D968C91928D9F5F3C
:100320009F73928F90E008958FEF9FEF0895FC01E7
:10033000918D828D981731F0828DE80FF11D858D9A
:1003400090E008958FEF9FEF0895FC01918D228D2D
:10035000892F90E0805C9F4F821B91098F739927B2
:10036000089580E090E0892B19F0C7D4811125C051
:1003700080E090E0892B41F080E090E0892B21F033
:100380000E94000081111CC080E090E0892B41F0A8
:1003900080E090E0892B21F00E940000811113C0C1
:1003A00080E090E0892BA1F080E090E0892B81F043
:1003B0000E94000081110AC008950E940000D8CF59
:1003C0000E940000E1CF0E940000EACF0C940000E0
:1003D000089590E0FC013197E231F10508F04EC03C
:1003E0008827EE58FF4F8F4F0C94750D8091800039
:1003F0008F7703C0809180008F7D80938000089567
:1004000080918000877FF9CF84B58F7702C084B553
:100410008F7D84BD08958091B0008F7703C0809157
:10042000B0008F7D8093B0000895809190008F7709
:1004300007C0809190008F7D03C080919000877FDE
:100440008093900008958091A0008F7707C08091DD
:10045000A0008F7D03C08091A000877F8093A000C3
:100460000895809120018F7707C0809120018F7DB2
:1004700003C080912001877F809320010895CF934E
:10048000DF93282F30E0F901E45AFD4F8491F90100
:10049000EA5EFD4FD491F901E053FE4FC491CC23A5
:1004A00089F0811196DFEC2FF0E0EE0FFF1FEA5488
:1004B000FE4FA591B491EC91ED2381E090E021F401
:1004C00080E002C080E090E0DF91CF910895CF926C
:1004D000DF92EF92FF92CB01BA0120E030E048ECCE
:1004E00052E40E94EA0C6B017C0120E030E0A9019B
:1004F0000E94DF0C181644F420E030E040E05FE397
:10050000C701B601E6D707C0A701960160E070E019
:1005100080E09FE3DDD70E949E0BCB01FF90EF9020
:10052000DF90CF900895FC01848DDF01A80FB11DED
:10053000A35ABF4F2C91848D90E001968F73992719
:10054000848FA689B7892C93A089B1898C918370F7
:1005500080648C93938D848D981306C00288F389F0
:10056000E02D80818F7D808308951F93CF93DF934B
:10057000282F30E0F901E45AFD4F8491F901EA5E39
:10058000FD4FD491F901E053FE4FC491CC23B9F053
:10059000162F81111EDFEC2FF0E0EE0FFF1FE45647
:1005A000FE4FA591B4919FB7F894111104C08C919E
:1005B000D095D82302C0EC91DE2BDC939FBFDF9156
:1005C000CF911F910895CF93DF9390E0FC01EA5EF5
:1005D000FD4F2491FC01E053FE4F8491882361F18B
:1005E00090E0880F991FFC01EE57FE4FC591D49102
:1005F000FC01E456FE4FA591B491611109C09FB76B
:10060000F8948881209582238883EC912E230BC057
:10061000623061F49FB7F8948881322F309583233C
:100620008883EC912E2B2C939FBF06C08FB7F89434
:10063000E8812E2B28838FBFDF91CF9108954F92B1
:100640005F926F927F928F929F92AF92BF92CF9262
:10065000DF92EF92FF920F931F93CF93DF93CDB76B
:10066000DEB72A970FB6F894DEBF0FBECDBF698301
:100670007A838B839C8329013A01ED82FE820F836A
:10068000188720E030E0A901EAD720910E023091CE
:100690000F023A87298710911002882309F4ACC011
:1006A00020E030E0A901C301B201D9D7882309F4C1
:1006B000A3C0A301920169817A818B819C817CD73F
:1006C0004B015C01D0D76B017C0129853A85B901CA
:1006D000330F880B990B0E94D10BA70196010E9442
:1006E000EA0C6B017C0120E030E0A9010E94DF0CE4
:1006F00018161CF4C701B60103C0C701B601905813
:100700000E949E0B7B011092D1181092D01820E00D
:1007100030E0A90169817A818B819C81A0D787FF14
:1007200003C01092080203C081E080930802609128
:10073000080287E31ADF49815A816B817C8188E74F
:10074000C6DE9093CF188093CE1810920D02F092CF
:100750008900E092880082E080936F00C501B401B7
:100760000E944D0D6B017C0160910E0270910F0291
:10077000072E000C880B990B0E94D10BA701960144
:100780000E94EA0C6B017C0120E030E0A9010E948C
:10079000DF0C18161CF4C701B60103C0C701B6016F
:1007A0009058CCD77A8369831092CD181092CC18C8
:1007B00020E030E0A901C301B20151D787FF02C098
:1007C00081E0182710930702609107028DE3CDDEC8
:1007D000B301A20189E77BDE9093CB188093CA18FE
:1007E00010920C0289819A819093990080939800CD
:1007F00082E080937100B8C01092D1181092D01886
:1008000020E030E0A90169817A818B819C8127D722
:1008100087FF03C01092080203C081E080930802A2
:100820006091080287E3A1DE49815A816B817C8156
:1008300088E74DDE9093CF188093CE1810920D026A
:1008400029853A85309389002093880082E080933F
:100850006F0080910E0290910F029A83898310920B
:10086000CD181092CC1820E030E0A901C301B201EC
:10087000F6D687FF02C081E0182710930702609127
:1008800007028DE372DEB301A20189E720DE9093B7
:10089000CB188093CA1810920C0229813A813093A8
:1008A00099002093980082E08093710080910E025D
:1008B00090910F029A8389831092C9181092C818D8
:1008C00020E030E0A9016D817E818F819885C7D6B7
:1008D0009091100287FF05C081E08927809306026E
:1008E00002C0909306026091060282E23EDE4D81D4
:1008F0005E816F8178858AE7EADD9093C7188093DF
:10090000C61829813A813093A9002093A80082E07B
:10091000809372001092C5181092C41820E030E045
:10092000A901C601B5019BD69091100287FF05C0B1
:1009300081E089278093050202C0909305026091AF
:1009400005028CE112DEB601A50185E6C0DD9093BB
:10095000C3188093C21880E099E190932901809395
:10096000280182E0809373002A960FB6F894DEBFC8
:100970000FBECDBFDF91CF911F910F91FF90EF90F0
:10098000DF90CF90BF90AF909F908F907F906F90AF
:100990005F904F900895CF93DF93C62FD1E0CD277E
:1009A0008837A1F03CF48136C9F08536F9F46C2F14
:1009B00088E111C0893769F08A37C1F4C093040215
:1009C0006C2F8EE3D2DD6C2F8EE105C06C2F86E29A
:1009D00002C06C2F88E3DF91CF91C7CD6C2F88E7E1
:1009E000DADF6C2F89E7D7DF85E6D9CFDF91CF91AA
:1009F00008951F920F920FB60F9211240BB60F920B
:100A00002F933F934F935F936F937F938F939F9316
:100A1000AF93BF93CF93EF93FF932091C218309180
:100A2000C3188091C4189091C51828173907A9F0E8
:100A3000C091030281E0C827C09303026C2F8AE1B2
:100A400094DDCC2361F08091C4189091C518019673
:100A50009093C5188093C41802C010927300FF9140
:100A6000EF91CF91BF91AF919F918F917F916F91B6
:100A70005F914F913F912F910F900BBE0F900FBE42
:100A80000F901F9018951F920F920FB60F9211247E
:100A90000BB60F922F933F934F935F936F937F9378
:100AA0008F939F93AF93BF93CF93EF93FF93209137
:100AB000C6183091C7188091C8189091C918281786
:100AC0003907A9F082E1DBDC892BA1F090910602C5
:100AD00080911002981771F0109272001092C7184E
:100AE0001092C6181092C9181092C81817C0109208
:100AF000720014C0C091020281E0C827C0930202B4
:100B00006C2F84E232DDCC2349F08091C81890919B
:100B1000C91801969093C9188093C818FF91EF9156
:100B2000CF91BF91AF919F918F917F916F915F9185
:100B30004F913F912F910F900BBE0F900FBE0F90D2
:100B40001F9018951F920F920FB60F9211240BB69B
:100B50000F922F933F934F935F936F937F938F9356
:100B60009F93AF93BF93CF93EF93FF932091CA18B6
:100B70003091CB188091CC189091CD182817390757
:100B8000C1F08EE07CDC892BD1F09091070280913E
:100B900010029817A1F081E080930C02109271006E
:100BA0001092CB181092CA181092CD181092CC182F
:100BB0001AC01092710081E080930C0214C0C091A1
:100BC000010281E0C827C09301026C2F8CE3CDDCC9
:100BD000CC2349F08091CC189091CD180196909338
:100BE000CD188093CC18FF91EF91CF91BF91AF9129
:100BF0009F918F917F916F915F914F913F912F9135
:100C00000F900BBE0F900FBE0F901F9018951F9264
:100C10000F920FB60F9211240BB60F922F933F93A2
:100C20004F935F936F937F938F939F93AF93BF93F4
:100C3000CF93EF93FF932091CE183091CF188091EE
:100C4000D0189091D11828173907B1F083E017DC3C
:100C5000892BC1F080910802811114C081E080933A
:100C60000D0210926F001092CF181092CE181092B1
:100C7000D1181092D0181AC010926F0081E08093A2
:100C80000D0214C0C091000281E0C827C093000289
:100C90006C2F86E36ADCCC2349F08091D0189091C8
:100CA000D11801969093D1188093D018FF91EF91AD
:100CB000CF91BF91AF919F918F917F916F915F91F4
:100CC0004F913F912F910F900BBE0F900FBE0F9041
:100CD0001F901895089580E090E00895FC01538DD1
:100CE000448D252F30E0842F90E0821B930B541706
:100CF00010F0CF9608950197089584ED98E125DBD3
:100D000021E0892B09F420E0822F0895EF92FF92D1
:100D10000F931F93CF93DF93EC0181E0888F9B8D1E
:100D20008C8D981305C0E889F989808185FD25C0DF
:100D3000F62E0B8D10E00F5F1F4F0F731127E02E63
:100D40008C8DE8120BC00FB607FCFACFE889F98941
:100D5000808185FFF5CFCE01E6DBF2CF8B8DFE01E2
:100D6000E80FF11DE35AFF4FF0829FB7F8940B8F05
:100D7000EA89FB89808180620AC09FB7F894EE8976
:100D8000FF896083E889F98980818370806480832A
:100D90009FBF81E090E0DF91CF911F910F91FF9075
:100DA000EF900895CF93DF93EC01888D8823C1F0F5
:100DB000EA89FB89808185FD05C0A889B9898C9164
:100DC00086FD0EC00FB607FCF5CF808185FFF2CF00
:100DD000A889B9898C9185FFEDCFCE01A4DBE8CF3E
:100DE000DF91CF9108951F920F920FB60F921124A9
:100DF0000BB60F922F933F934F935F936F937F9315
:100E00008F939F93AF93BF93EF93FF9384ED98E1FC
:100E10008ADBFF91EF91BF91AF919F918F917F916D
:100E20006F915F914F913F912F910F900BBE0F905B
:100E30000FBE0F901F9018951F920F920FB60F9232
:100E400011240BB60F922F938F939F93EF93FF93E1
:100E5000E091E418F091E5188081E091EA18F091B2
:100E6000EB1882FD12C090818091ED188F5F8F7317
:100E70002091EE18821751F0E091ED18F0E0EC525D
:100E8000F74E958F8093ED1801C08081FF91EF910F
:100E90009F918F912F910F900BBE0F900FBE0F90CF
:100EA0001F901895CF92DF92EF92FF920F931F93AE
:100EB000CF93DF936C017A018B01C0E0D0E0CE15B7
:100EC000DF0581F0D8016D918D01D601ED91FC9186
:100ED0000190F081E02DC6011995892B11F0219622
:100EE000EECF7E01C701DF91CF911F910F91FF904F
:100EF000EF90DF90CF90089500D680917B008860BE
:100F000080937B0085E480937C0080917A008064EC
:100F100080937A0080917A0086FDFCCF80917800E2
:100F20002091790090E0922B08951F920F920FB6B6
:100F30000F9211242F933F938F939F93AF93BF935F
:100F40008091761990917719A0917819B0917919BB
:100F50003091751923E0230F2D3720F40196A11D40
:100F6000B11D05C026E8230F0296A11DB11D2093D7
:100F700075198093761990937719A0937819B09387
:100F800079198091711990917219A0917319B0918A
:100F900074190196A11DB11D809371199093721956
:100FA000A0937319B0937419BF91AF919F918F91D2
:100FB0003F912F910F900FBE0F901F90189578942E
:100FC00084B5826084BD84B5816084BD85B582604E
:100FD00085BD85B5816085BD80916E0081608093FF
:100FE0006E00109281008091810082608093810068
:100FF0008091810081608093810080918000816078
:10100000809380008091B10084608093B1008091D2
:10101000B00081608093B0008091910082608093E5
:101020009100809191008160809391008091900067
:101030008160809390008091A10082608093A100E4
:101040008091A10081608093A1008091A0008160C7
:101050008093A00080912101826080932101809182
:101060002101816080932101809120018160809322
:10107000200180917A00846080937A0080917A00C8
:10108000826080937A0080917A00816080937A00F8
:1010900080917A00806880937A001092C100E0917C
:1010A000E418F091E51882E08083E091E018F09177
:1010B000E1181082E091E218F091E3188FEC808340
:1010C0001092EC18E091E818F091E91886E080831E
:1010D000E091E618F091E718808180618083E091CB
:1010E000E618F091E718808188608083E091E61827
:1010F000F091E718808180688083E091E618F09194
:10110000E71880818F7D808361E08AE05CDA61E0AE
:1011100084E059DA62E083E056DA62E08EE053DA86
:1011200062E082E150DA61E086E34DDA61E087E374
:101130004ADA61E086E247DA10928000CAE0C093A2
:1011400081001092820000E911E010938900009361
:10115000880061E08CE337DA61E08DE334DA61E046
:1011600088E331DA10929000C093910010929200BF
:10117000109399000093980061E08EE224DA61E018
:101180008DE321DA61E088E31EDA61E084E21BDAB4
:1011900061E082E218DA61E08EE115DA1092A000D7
:1011A000C093A1001092A2001093A9000093A80080
:1011B00061E08AE108DA61E08CE105DA61E088E16A
:1011C00002DA10922001C093210110922201C0E2A4
:1011D000D3E0D0932901C093280142E050E06BEBAB
:1011E00078E184ED98E15EDE42E050E06EEB78E17C
:1011F00084ED98E157DED0930F02C0930E0299243C
:1012000093944CE0842E22242394312C8091D31883
:101210008823C1F01092C5181092C418909205024C
:1012200061E08CE1A2D928EE33E03093C31820931B
:10123000C21880E099E1909329018093280192E0FF
:10124000909373008091D218882309F47CC0809118
:101250000D02882309F477C080910C02882309F4D9
:1012600072C0C0910A02D0910B028C9EF0018D9E3B
:10127000F00D1124EF5EFD4F40845184628473842D
:1012800020E030E040E85FE3C301B20198D31816D4
:10129000C4F420E030E040E752E4C301B201E6D1FB
:1012A00020E030E048EC52E495D39B01AC0160E0D3
:1012B00074E284E799E4DAD141D270930F0260932B
:1012C0000E029E01215031098C9E80018D9E100DD1
:1012D00011240F5E1D4F829EC001839E900D11242C
:1012E000FC01EF5EFD4F7F012481358146815781EE
:1012F000F8016481758186819781EAD02B013C01D8
:10130000F7012081318142815381F801608171812F
:1013100082819381DDD0A12CB12C650186017501FC
:10132000A30192018CD92196C03EF1E0DF0729F09C
:10133000D0930B02C0930A0206C030920B02209297
:101340000A021092D218D9DD8E972CF061E08AE063
:101350000CD961E007C0D1DD889734F460E08AE001
:1013600004D960E084E001D984ED98E10E94A501F0
:10137000892B09F47DC084ED98E10E948301FC0172
:10138000E156F109E731F10508F06DC08827EC5707
:10139000FF4F8F4FAAC3A12CB12C650186017501A7
:1013A00020E030E040E251EC22C0A12CB12C6501DC
:1013B00086017501A601950160E070E080E291EC84
:1013C0003ED956C0A12CB12C650186017501A6013C
:1013D000950160E070E080E291E4F2CFA12CB12CA5
:1013E00065018601750120E030E040E251E4C6016C
:1013F000B501E6CFA12CB12C6501E12CF12C00E266
:1014000011E407C0A12CB12C6501E12CF12C00E204
:1014100011ECA6019501EBCF60910902692560935B
:10142000090284E0A2D824C0A12CB12C90E2C92EDC
:1014300091E4D92E06C0A12CB12C80E2C82E81ECFB
:10144000D82EE12CF12C8701A8019701C801B70122
:10145000B7CF8091D31889258093D31809C061E054
:1014600081E699DA05C08091D21889258093D21837
:101470000E94B101CBCEE4EDF8E11382128288EE36
:1014800093E0A0E0B0E084839583A683B7838DEAE0
:1014900098E19183808385EC90E09587848784EC44
:1014A00090E09787868780EC90E0918B808B81EC31
:1014B00090E0938B828B82EC90E0958B848B86EC12
:1014C00090E0978B868B118E128E138E148E08955A
:1014D0005058BB27AA270ED027C2F0D130F0F5D143
:1014E00020F031F49F3F11F41EF4C0C10EF4E095DA
:1014F000E7FBB6C1E92F3AD280F3BA176207730748
:101500008407950718F071F49EF552C20EF4E09529
:101510000B2EBA2FA02D0B01B90190010C01CA01AD
:10152000A0011124FF27591B99F0593F50F4503E58
:1015300068F11A16F040A22F232F342F4427585F4A
:10154000F3CF469537952795A795F0405395C9F762
:101550007EF41F16BA0B620B730B840BBAF091501A
:10156000A1F0FF0FBB1F661F771F881FC2F70EC0B9
:10157000BA0F621F731F841F48F48795779567958C
:10158000B795F7959E3F08F0B3CF9395880F08F075
:101590009927EE0F97958795089590D158F080E898
:1015A00091E009F49EEF91D128F040E851E059F420
:1015B0005EEF09C05BC1FCC1E92FE078D7D168F3C9
:1015C000092E052AC1F3261737074807590738F0AF
:1015D0000E2E07F8E02569F0E025E0640AC0EF630D
:1015E00007F8009407FADB01B9019D01DC01CA018B
:1015F000AD01EF934AD098D10AD05F91552331F0D5
:101600002BED3FE049E450FD49EC63CF0895DF93B3
:10161000DD27B92FBF7740E85FE3161617064807A6
:101620005B0710F4D92FCFD19F938F937F936F9344
:101630003AD2E6E3F1E01DD177D12F913F914F915E
:101640005F91D4D1DD2349F09058A2EA2AED3FE022
:1016500049EC5FE3D0785D274DDFDF9165C1DCD0D9
:1016600008F481E0089539D1E3956FC10CD05CC1D5
:101670002CD140F023D130F021F45F3F19F0F0C0BD
:10168000511197C1F3C072D198F39923C9F355232F
:10169000B1F3951B550BBB27AA2762177307840765
:1016A00038F09F5F5F4F220F331F441FAA1FA9F31B
:1016B00033D00E2E3AF0E0E830D091505040E6950D
:1016C000001CCAF729D0FE2F27D0660F771F881F6E
:1016D000BB1F261737074807AB07B0E809F0BB0B5D
:1016E000802DBF01FF2793585F4F2AF09E3F510581
:1016F00068F0B6C05EC15F3FECF3983EDCF38695C0
:1017000077956795B795F7959F5FC9F7880F911DF6
:101710009695879597F90895E1E0660F771F881FE2
:10172000BB1F621773078407BA0720F0621B730B95
:10173000840BBA0BEE1F88F7E095089504D06894E7
:10174000B11137C108951AD188F09F5790F0B92F81
:101750009927B751A0F0D1F0660F771F881F991F06
:101760001AF0BA95C9F712C0B13081F021D1B1E0B9
:1017700008951EC1672F782F8827B85F39F0B93FC9
:10178000CCF3869577956795B395D9F73EF4909508
:101790008095709561957F4F8F4F9F4F0895E89486
:1017A00009C097FB3EF490958095709561957F4FA9
:1017B0008F4F9F4F9923A9F0F92F96E9BB27939557
:1017C000F695879577956795B795F111F8CFFAF467
:1017D000BB0F11F460FF1BC06F5F7F4F8F4F9F4F98
:1017E00016C0882311F096E911C0772321F09EE8F6
:1017F000872F762F05C0662371F096E8862F70E05C
:1018000060E02AF09A95660F771F881FDAF7880F35
:101810009695879597F90895990F0008550FAA0B8B
:10182000E0E8FEEF16161706E807F907C0F01216F3
:101830001306E407F50798F0621B730B840B950BF6
:1018400039F40A2661F0232B242B252B21F408954B
:101850000A2609F4A140A6958FEF811D811D0895E8
:1018600097F99F6780E870E060E008959FEF80EC53
:101870000895DF93CF931F930F93FF92EF92DF9220
:101880007B018C01689405C0DA2EEF01AFD0FE0118
:10189000E894A5912591359145915591AEF3EF01CD
:1018A00029DEFE019701A801DA9479F7DF90EF9025
:1018B000FF900F911F91CF91DF91089500240A941A
:1018C0001616170618060906089500240A9412161B
:1018D0001306140605060895C9CF50D0E8F3E8941E
:1018E000E0E0BB279F57F0F02AED3FE049EC06C04F
:1018F000EE0FBB0F661F771F881F28F0B23A6207F2
:101900007307840728F0B25A620B730B840BE395BC
:101910009A9572F7803830F49A95BB0F661F771F3F
:10192000881FD2F79048C4C0092E0394000C11F40C
:10193000882352F0BB0F40F4BF2B11F460FF04C0AA
:101940006F5F7F4F8F4F9F4F0895EF93E0FF06C06B
:10195000A2EA2AED3FE049EC5FEBCCDDE5DF0F903A
:10196000039401FC9058E3E6F1E0AEC057FD9058B7
:10197000440F551F59F05F3F71F04795880F97FB53
:10198000991F61F09F3F79F087950895121613060D
:101990001406551FF2CF4695F1DF08C0161617063C
:1019A0001806991FF1CF8695710561050894089571
:1019B000E894BB2766277727CB0197F908952CDF9A
:1019C00008F48FEF08959B01AC0160E070E080E8BF
:1019D0009FE34CCE0BD0A8CF71DF28F076DF18F054
:1019E000952309F03DCF42CF1124E3CFBFDFA0F311
:1019F000959FD1F3950F50E0551F629FF001729FA4
:101A0000BB27F00DB11D639FAA27F00DB11DAA1FC2
:101A1000649F6627B00DA11D661F829F2227B00D0F
:101A2000A11D621F739FB00DA11D621F839FA00D9A
:101A3000611D221F749F3327A00D611D231F849FEA
:101A4000600D211D822F762F6A2F11249F57504041
:101A50008AF0E1F088234AF0EE0FFF1FBB1F661FDC
:101A6000771F881F91505040A9F79E3F510570F095
:101A7000F7CE9FCF5F3FECF3983EDCF386957795EA
:101A80006795B795F795E7959F5FC1F7FE2B880F90
:101A9000911D9695879597F908959F931EDF0F9056
:101AA00007FCEE5F52CF9B01AC0194CF9F3F31F01A
:101AB000915020F4879577956795B795880F911D7C
:101AC0009695879597F908959F938F937F936F933A
:101AD000FF93EF939B01AC017DDFEF91FF91C9DE96
:101AE0002F913F914F915F9175CFEE0FFF1F881F90
:101AF0008BBF0790F691E02D199481E090E0F89467
:061B000000C0F894FFCFC5
:101B06000101010101010101010101000101900131
:101B1600013789844206C1A44200A08C44D30D85B6
:101B2600421B6FA442000000008D9785426025A4E9
:101B36004200000000DD2486425AE4A34200000071
:101B46000046B6864208ACA34200000000444B871C
:101B5600426A7CA342000000004EE287428756A3F9
:101B66004200000000647B8842DB39A3420000008B
:101B76000087168942E926A342000000002DB2899B
:101B8600422F1DA34200000000E92603432F1DA398
:101B96004200000000BC740343E926A34200000093
:101BA600004EC20343DB39A34200000000D90E04F5
:101BB600438756A342000000005E5A04436A7CA392
:101BC6004200000000DDA4044308ACA3420000006C
:101BD6000091ED04435AE4A34200000000393405A5
:101BE600436025A44200000000177905431B6FA43B
:101BF600420000000064BB054306C1A44200000089
:101C060000E1FA0543231BA54200000000CF37067A
:101C160043EE7CA542000000006871064366E6A517
:101C26004200000000AEA706430456A6420000008C
:101C3600005EDA0643CDCCA6420000000037090755
:101C4600433749A742000000007B34074344CBA733
:101C56004200000000645B0743EC51A8420000000C
:101C660000357E0743B2DDA842000000006A9C07EB
:101C760043916DA9420000000087B607438300AA7E
:101C86004200000000C7CB07438796AA4200000027
:101C9600006ADC0743982EAB420000000073E80799
:101CA60043B4C8AB42000000009EEF07435A64AC41
:101CB6004200000000ECF107430000AD42000000C6
:101CC600009EEF0743A69BAD420000000073E807A5
:101CD600434C37AE42000000006ADC074368D1AED1
:101CE6004200000000C7CB07437969AF42000000FD
:101CF6000087B607437DFFAF42000000006A9C07DD
:101D0600436F92B04200000000357E07434E22B179
:101D16004200000000645B074314AEB142000000BD
:101D2600007B340743BC34B2420000000037090789
:101D360043C9B6B242000000005EDA06433333B34D
:101D46004200000000FCA906435AA4B3420000006A
:101D5600009A3906438380B442000000003974CEED
:101D660042FA7EEA4200000000C3F5CD425AE4EA98
:101D76004200000000C976CD42773EEB42000000EB
:101D8600002DF2CC42E590EB42000000007368CCD7
:101D960042A0DAEB420000000023DBCB42A61BEC9C
:101DA6004200000000BA49CB42F853EC4200000062
:101DB60000BCB4CA429683EC4200000000B21DCAC1
:101DC6004279A9EC42000000009C84C94225C6EC79
:101DD600420000000079E9C84217D9EC4200000031
:101DE60000D34DC842D1E2EC42000000002DB2C73C
:101DF60042D1E2EC42000000008716C74217D9EC38
:101E06004200000000647BC64225C6EC420000008A
:101E1600004EE2C54279A9EC4200000000444BC5E1
:101E2600429683EC420000000046B6C442F853ECEA
:101E36004200000000DD24C442A61BEC4200000064
:101E4600008D97C342A0DAEB4200000000D30DC319
:101E560042E590EB42000000003789C242773EEB34
:101E66004200000000C10AC242DDE4EA420000006E
:101E7600005879C1421B6FEA4200000000CD8C83F6
:101E8600428380B4420000000008AC82425AA4B3E8
:101E96004200000000444B82423333B3420000004C
:101EA6000091ED8142C9B6B242000000000A978156
:101EB60042BC34B242000000003749814214AEB140
:101EC6004200000000960381424E22B1420000000B
:101ED600002BC780426F92B04200000000F2928051
:101EE600427DFFAF4200000000736880427969AF0F
:101EF60042000000002B47804268D1AE420000003D
:101F0600001B2F80424C37AE4200000000C52080E7
:101F160042A69BAD4200000000291C80420000AD95
:101F26004200000000C52080425A64AC4200000016
:101F3600001B2F8042B4C8AB42000000002B478034
:101F460042982EAB4200000000736880428796AA32
:101F56004200000000F29280428300AA4200000084
:101F6600002BC78042916DA94200000000960381B4
:101F760042B2DDA8420000000037498142EC51A878
:101F860042000000000A97814244CBA742000000AD
:101F96000091ED81423749A74200000000444B8280
:101FA60042CDCCA64200000000A4B082420456A650
:101FB60042000000002F1D834266E6A54200000095
:101FC6000062908342717DA542000000003D0A84B4
:101FD60042231BA54200000000082C83423FF5A3C4
:101FE600420000964571BD8342D38DA34200803BDB
:101FF60044815584429E2FA3420000000033F3849F
:102006004223DBA24200000000819585426290A235
:102016004200000000E73B8642DF4FA2420000007C
:1020260000E3E586421D1AA2420000000075938770
:102036004214EEA142000000001243884250CDA196
:10204600420000000039F488424CB7A1420000006B
:1020560000E9A689428BACA142000000008B2C034C
:10206600438BACA14200000000E38503434CB7A1BB
:10207600420000000077DE034350CDA1420000007D
:10208600004636044314EEA142000000000E8D0403
:10209600431D1AA242000000000CE20443DF4FA2D7
:1020A60042000000003F3505436290A24200000056
:1020B600006686054323DBA242000000003FD505EB
:1020C600439E2FA3420000000048210643D38DA360
:1020D6004200000000FC6906433FF5A342000000F1
:1020E600009EAF0643DD64A44200000000AAF1068C
:1020F60043B2DDA44200000000DF2F0743B25DA516
:102106004200000000FC69074360E5A542000000AC
:1021160000BE9F07433974A6420000000027D1077E
:1021260043B408A74200000000F4FD0743D7A3A765
:102136004200000000A22508439643A84200000082
:102146000073480843F0E7A842000000002566082F
:10215600436290A94200000000B87E08436A3CAA88
:102166004200000000AA91084302EBAA42000000C8
:10217600007D9F0843A69BAB4200000000AEA70867
:1021860043504DAC42000000007FAA08430000AD5A
:102196004200000000AEA70843B0B2AD4200000006
:1021A600007D9F08435A64AE4200000000AA9108D1
:1021B60043FE14AF4200000000B87E084396C3AF4A
:1021C6004200000000256608439E6FB042000000F2
:1021D60000734808431018B14200000000A2250809
:1021E600436ABCB14200000000F4FD0743295CB21B
:1021F600420000000027D107434CF7B2420000001E
:1022060000BE9F0743C78BB34200000000FC69076E
:1022160043A01AB44200000000A430074342A0B411
:102226004200000000C9B606435C8FB542000000BC
:1022360000C560CF429A99EB4200000000F8D3CE69
:1022460042C10AEC42000000008F42CE422D72ECE1
:1022560042000000007FAACD4262D0EC420000009E
:1022660000CD0CCD42DD24ED42000000007F6ACC9B
:10227600429E6FED420000000019C4CB4221B0ED32
:1022860042000000001D1ACB42E3E5ED42000000CB
:10229600008B6CCA42EC11EE4200000000EEBCC995
:1022A60042B032EE4200000000C70BC942B448EE0D
:1022B60042000000001759C8427553EE4200000064
:1022C60000E9A6C7427553EE420000000039F4C685
:1022D60042B448EE42000000001243C642B032EE5D
:1022E60042000000007593C542EC11EE420000006A
:1022F60000E3E5C442E3E5ED4200000000E73BC42D
:102306004221B0ED42000000008195C3429E6FED70
:10231600420000000033F3C242DD24ED420000001B
:10232600008155C24262D0EC420000000071BDC17E
:10233600422D72EC4200000000082CC142440BEC16
:1023460042000000004A8CC042BA89EB42000000FD
:10235600006F9282425C8FB54200000000B89E81F9
:102366004242A0B44200000000082C8142A01AB4E8
:10237600420000000083C08042C78BB342000000C9
:1023860000B25D80424CF7B24200000000190480A2
:1023960042295CB2420000000079697F426ABCB102
:1023A600420000000035DE7E421018B142000000F7
:1023B600006D677E429E6FB042000000001F057EE2
:1023C6004296C3AF420000000058B97D42FE14AFEA
:1023D60042000000000C827D425A64AE42000000BA
:1023E6000048617D42B0B2AD420000000004567D57
:1023F600420000AD420000000048617D42504DACF5
:1024060042000000000C827D42A69BAB4200000009
:102416000058B97D4202EBAA42000000001F057E6B
:10242600426A3CAA42000000006D677E426290A9A3
:10243600420000000035DE7E42F0E7A842000000C0
:102446000079697F429643A8420000000019048083
:1024560042D7A3A74200000000B25D8042B408A79D
:10246600420000000083C080423974A6420000008A
:1024760000082C814260E5A5420000000042A081D0
:1024860042B25DA54200000000AC1C8242B2DDA44F
:102496004200000000C5A08242DD64A442000000A4
:1024A60000082C83423FF5A34200000000A69B884B
:1024B60042AC5CAA4200009645F2128842EC11AB8F
:1024C6004200A08C44AAB18742FED4AB4200000071
:1024D6000046768742E9A6AC4200000000CB618741
:1024E600420080AD4200000000467687421759AE92
:1024F6004200000000AAB18742022BAF4200000052
:1025060000F212884214EEAF4200000000A69B883B
:102516004254A3B04200000000856B89428155B148
:10252600420000000033338A4283C0B142000000FB
:102536000012038B428F02B24200000000C1CA8B18
:1025460042A61BB24200000000A01A0243A61BB21C
:102556004200000000777E02438F02B24200000074
:102566000066E6024383C0B14200000000664603EF
:10257600439A59B14200000000649B034362D0B005
:1025860042000000004EE20343022BB0420000006E
:1025960000D5180443146EAF42000000002F3D041E
:1025A6004342A0AE4200000000D34D0443B4C8AD80
:1025B60042000000007F4A044398EEAC420000004F
:1025C600002D3204436811AC420000000017F903E5
:1025D600439318AB4200000000BCB40343D763AA80
:1025E600420000000019640343E5D0A94200000040
:1025F600006D070343B25DA94200000000CBA102B3
:1026060043D90EA94200000000FA3E0243FCE9A8A5
:1026160042000000002D1202435AE4A842000000C6
:1026260000C1CA8B425AE4A8420000000012038B84
:102636004271FDA8420000000033338A427D3FA963
:102646004200000000856B89427FAAA94200000073
:1026560000A69B8842AC5CAA4200000000FCA98947
:1026660042A05AAB4200009645D34D89427BD4AB7B
:102676004200803B44C10A8942A05AAC4200000095
:1026860000CBE1884202EBAC4200000000F8D388A0
:10269600420080AD4200000000CBE18842FE14AE4D
:1026A6004200000000C10A894260A5AE4200000057
:1026B60000D34D8942852BAF4200000000FCA9895A
:1026C6004260A5AF4200000000EE3C8A425423B0AF
:1026D600420000000096C38A42856BB042000000AB
:1026E600006F528B421799B0420000000048E18B00
:1026F6004202ABB042000000005C0F024302ABB0E6
:102706004200000000C95602431799B0420000007B
:1027160000359E0243856BB0420000000042E00295
:1027260043DD24B04200000000A01A0343A8C6AF50
:102736004200000000444B0343FE54AF4200000039
:1027460000A470034375D3AE4200000000BA8903AB
:10275600432546AE42000000003F9503432DB2AD2F
:102766004200000000F2920343291CAD4200000023
:10277600008F8203432B87AC42000000001D5A03E2
:10278600430AD7AB4200000000082C03432F5DAB81
:102796004200000000BCF4024352F8AA42000000C6
:1027A60000FEB4024379A9AA42000000001B6F0292
:1027B600433373AA4200000000312802439358AA0B
:1027C60042000000008B0C0243FE54AA42000000A7
:1027D6000048E18B42FE54AA42000000006F528B73
:1027E60042E966AA420000000096C38A427B94AA88
:1027F6004200000000EE3C8A42ACDCAA4200000027
:1028060000FCA98942A05AAB4200000000D9CEB90B
:1028160042C560CA4200000000B25DB9421944CB0D
:1028260042000000005EFAB842142ECC42000000BE
:1028360000E3A5B842B21DCD4200000000C560B855
:1028460042EC11CE42000000007F2AB8423D0ACF7A
:1028560042000000001203B8421F05D042000000EB
:102866000008ECB7420C02D14200000000D7E3B7E3
:10287600420000D2420000000008ECB742F4FDD24C
:1028860042000000001203B842E1FAD34200000001
:10289600007F2AB842C3F5D44200000000C560B8E4
:1028A6004214EED54200000000E3A5B8424EE2D63F
:1028B60042000000005EFAB842ECD1D742000000A8
:1028C60000B25DB942E7BBD84200000000D9CEB9DC
:1028D600423B9FD94200000000D34DBA42E17ADA6A
:1028E60042000000001DDABA42D94EDB4200000069
:1028F600003373BB429A19DC42000000009318BCF7
:10290600421DDADC420000000037C9BC42E590DD1A
:1029160042000000001F85BD42E73BDE420000008A
:1029260000C14ABE4223DBDE42000000001D1ABF82
:1029360042916DDF42000000002DF2BF4233F3DF0B
:102946004200000000ECD1C042856BE0420000006E
:102956000052B8C14204D6E0420000000060A5C2A1
:1029660042AA31E142000000008D97C342777EE122
:102976004200000000D38DC4426ABCE14200000060
:1029860000AE87C54202EBE142000000009683C616
:10299600423D0AE242000000000681C7421D1AE2DB
:1029A6004200000000FA7EC8421D1AE24200000002
:1029B600006A7CC9423D0AE242000000005278CA21
:1029C6004202EBE142000000002D72CB426ABCE1FC
:1029D60042000000007368CC42777EE142000000AE
:1029E60000A05ACD42AA31E14200000000AE47CE17
:1029F6004204D6E04200000000142ECF42856BE070
:102A06004200000000D30DD04233F3DF4200000045
:102A160000E3E5D042916DDF42000000003FB5D1F2
:102A26004223DBDE4200000000E17AD242E73BDED1
:102A36004200000000C936D342E590DD42000000A6
:102A4600006DE7D3421DDADC4200000000CD8CD4D5
:102A5600429A19DC4200000000E325D542D94EDB3C
:102A660042000000002DB2D542E17ADA42000000B1
:102A7600002731D6423B9FD942000000004EA2D625
:102A860042E7BBD84200000000A205D742ECD1D7EE
:102A960042000000001D5AD7424EE2D64200000016
:102AA600003B9FD74214EED5420000000081D5D7E7
:102AB60042C3F5D44200000000EEFCD742E1FAD34F
:102AC6004200000000F813D842F4FDD24200000094
:102AD60000291CD8420000D24200000000F813D89A
:102AE600420C02D14200000000EEFCD7421F05D086
:102AF600420000000081D5D7423D0ACF42000000C7
:102B0600003B9FD742EC11CE42000000001D5AD771
:102B160042B21DCD4200000000A205D742142ECCC1
:102B260042000000004EA2D6421944CB42000000EB
:102B3600002731D642C560CA42000000002DB2D53A
:102B4600421F85C94200000000E325D54227B1C8CF
:102B56004200000000CD8CD44266E6C74200000069
:102B6600006DE7D342E325C74200000000C936D313
:102B7600421B6FC64200000000E17AD24219C4C56A
:102B860042000000003FB5D142DD24C542000000EE
:102B960000E3E5D0426F92C44200000000D30DD09E
:102BA60042CD0CC44200000000142ECF427B94C3D9
:102BB6004200000000AE47CE42FC29C3420000009E
:102BC60000A05ACD4256CEC242000000007368CC27
:102BD600428981C242000000002D72CB429643C258
:102BE60042000000005278CA42FE14C242000000B1
:102BF600006A7CC942C3F5C14200000000FA7EC8E3
:102C060042E3E5C142000000000681C742E3E5C198
:102C160042000000009683C642C3F5C14200000090
:102C260000AE87C542FE14C24200000000D38DC428
:102C3600429643C242000000008D97C3428981C27A
:102C4600420000000060A5C24256CEC2420000000B
:102C56000052B8C142FC29C34200000000ECD1C0BA
:102C6600427B94C342000000002DF2BF42CD0CC44B
:102C760042000000001D1ABF426F92C442000000CD
:102C860000C14ABE42DD24C542000000001F85BDCA
:102C96004219C4C5420000000037C9BC421B6FC6BA
:102CA60042000000009318BC42E325C74200000022
:102CB600003373BB4266E6C742000000001DDABA65
:102CC6004227B1C84200000000D34DBA421F85C951
:102CD60042000000007513BB425C0FCB4200803BF4
:102CE600448BACBA42B8DECB42000000006F52BA49
:102CF60042B6B3CC4200000000A205BA42D38DCD45
:102D0600420000000025C6B942086CCE4200000011
:102D160000FE94B942D34DCF42000000002771B99E
:102D260042B032D04200000000295CB9429318D16B
:102D36004200000000FE54B9420000D242000000EA
:102D460000295CB942E9E6D242000000002771B9C9
:102D56004250CDD34200000000FE94B9422DB2D4B9
:102D6600420000000025C6B942F893D54200000093
:102D760000A205BA422D72D642000000006F52BA78
:102D8600424A4CD742000000008BACBA424821D8D8
:102D960042000000007513BB42A4F0D842000000B8
:102DA600002B87BB42D5B8D942000000002B07BCD8
:102DB60042DB79DA42000000006F92BC422D32DB22
:102DC6004200000000F628BD42CBE1DB42000000D5
:102DD60000BAC9BD42AE87DC4200000000BC74BE2A
:102DE60042D723DD4200000000F628BF42BCB4DD16
:102DF6004200000000E3E5BF425E3ADE420000000A
:102E0600007FAAC04239B4DE42000000004676C107
:102E1600424821DF42000000003148C2420C82DFF6
:102E26004200000000BE1FC34281D5DF4200000001
:102E3600006AFCC342A61BE04200000000ACDCC4F2
:102E460042F853E0420000000000C0C542777EE031
:102E5600420000000060A5C642239BE0420000003D
:102E6600004A8CC74279A9E04200000000B673C848
:102E76004279A9E04200000000A05AC942239BE023
:102E860042000000000040CA42777EE04200000097
:102E9600005423CB42F853E042000000009603CCD6
:102EA60042A61BE0420000000042E0CC4281D5DF92
:102EB6004200000000CFB7CD420C82DF4200000086
:102EC60000BA89CE424821DF42000000008155CF7A
:102ED6004239B4DE42000000001D1AD0425E3ADEDE
:102EE60042000000000AD7D042BCB4DD4200000018
:102EF60000448BD142D723DD42000000004636D283
:102F060042AE87DC42000000000AD7D242CBE1DBAA
:102F16004200000000916DD3422D32DB42000000DA
:102F260000D5F8D342DB79DA4200000000D578D428
:102F360042D5B8D942000000008BECD442A4F0D8A8
:102F460042000000007553D5424821D842000000D7
:102F56000091ADD5424A4CD742000000005EFAD53A
:102F6600422D72D64200000000DB39D642F893D5D6
:102F76004200000000026BD6422DB2D4420000008F
:102F860000D98ED64250CDD34200000000D7A3D63A
:102F960042E9E6D2420000000002ABD6420000D26F
:102FA6004200000000D7A3D6429318D14200000089
:102FB60000D98ED642B032D04200000000026BD655
:102FC60042D34DCF4200000000DB39D642086CCE1A
:102FD60042000000005EFAD542D38DCD42000000CB
:102FE6000091ADD542B6B3CC42000000007553D572
:102FF60042B8DECB42000000008BECD4425C0FCB23
:103006004200000000D578D4422B47CA4200000097
:1030160000D5F8D3422586C94200000000916DD341
:1030260042D3CDC842000000000AD7D242351EC89E
:1030360042000000004636D2425278C742000000E5
:1030460000448BD14229DCC642000000000AD7D0DA
:1030560042444BC642000000001D1AD042A2C5C51C
:1030660042000000008155CF42C74BC54200000018
:1030760000BA89CE42B8DEC44200000000CFB7CD08
:1030860042F47DC4420000000042E0CC427F2AC4E4
:1030960042000000009603CC425AE4C342000000FE
:1030A600005423CB4208ACC342000000000040CAD3
:1030B600420681C34200000000A05AC942DD64C333
:1030C6004200000000B673C8428756C342000000A3
:1030D600004A8CC7428756C3420000000060A5C65E
:1030E60042DD64C3420000000000C0C5420681C341
:1030F6004200000000ACDCC44208ACC34200000041
:10310600006AFCC3425AE4C34200000000BE1FC36B
:10311600427F2AC442000000003148C242F47DC406
:1031260042000000004676C142B8DEC442000000FC
:10313600007FAAC042C74BC54200000000E3E5BFBE
:1031460042A2C5C54200000000F628BF42444BC655
:103156004200000000BC74BE4229DCC642000000EA
:1031660000BAC9BD425278C74200000000F628BD29
:1031760042351EC842000000006F92BC42D3CDC843
:1031860042000000002B07BC422586C94200000011
:10319600002B87BB422B47CA42000000002B87BB8F
:1031A600422B47CA4200000000000000008606527B
:1031B600076E06D206A501830197016F6B000D0A03
:0231C600000007
:00000001FF
