:1000000007C1000033C1000031C100002FC1000052
:100010002DC100002BC1000029C1000027C1000034
:1000200025C1000023C1000021C100001FC1000044
:100030001DC100001BC1000019C1000017C1000054
:1000400015C1000013C1000011C100000FC1000064
:100050000DC100002DC3000009C1000080C20000D6
:1000600005C10000EFC20000C4C20000FFC00000D4
:10007000FDC00000FBC00000F9C00000F7C0000098
:10008000F5C00000F3C00000F1C00000EFC00000A8
:10009000EDC00000EBC00000E9C00000E7C00000B8
:1000A000E5C00000E3C00000E1C00000DFC00000C8
:1000B000DDC00000DBC00000D9C00000D7C00000D8
:1000C000D5C00000D3C00000D1C00000CFC00000E8
:1000D000CDC00000CBC00000C9C00000C7C00000F8
:1000E000C5C00000A603A90398039C03A003E00376
:1000F000AD03B103B703BB03BF03C503C903CD03FE
:10010000E003D303D703DB0300000A0B02090C0D45
:100110000E080703040100000000000000000000BA
:1001200000000000000000000000000000000000CF
:10013000000000001211100000000000000000008C
:1001400000000000000000000000000000000000AF
:100150002200250028002B002E003100340002016F
:100160000000050108010B01000021002400270008
:100170002A002D00300033000101000004010701B6
:100180000A0105050505070508080808020202021C
:100190000A0A080804040404010101010101010123
:1001A0000303030303030303040707070C0C0C0CEE
:1001B0000C0C0C0C020202020606060606060606D7
:1001C0000B0B0B0B0B0B0B0B010210202008081064
:1001D00020401020408002010201080402010102B7
:1001E0000408102040808040201008040201800490
:1001F00002018040201008040201080402010102EB
:1002000004081020408001020408102040800105ED
:1002100011241FBECFEFD1E2DEBFCDBF00E00CBF87
:1002200012E0A0E0B2E0E8E7FAE000E00BBF02C0B5
:1002300007900D92A831B107D9F722E0A8E1B2E00A
:1002400001C01D92AE3BB207E1F711E0C8E0D1E07A
:1002500000E005C021970109802FFE01FFD3C730C0
:10026000D10780E00807B1F7DFD204C4C9CECF922E
:10027000DF92EF92FF920F931F93CF93DF936C0166
:100280007A018B01C0E0D0E0CE15DF0581F0D80106
:100290006D918D01D601ED91FC910190F081E02DE1
:1002A000C6011995892B11F02196EECF7E01C70169
:1002B000DF91CF911F910F91FF90EF90DF90CF9042
:1002C0000895089580E090E00895FC01538D448DD9
:1002D000252F30E0842F90E0821B930B541710F0F1
:1002E000CF96089501970895FC01918D828D9817FE
:1002F00061F0828DDF01A80FB11D5D968C91928D0A
:100300009F5F9F73928F90E008958FEF9FEF089506
:10031000FC01918D828D981731F0828DE80FF11DCF
:10032000858D90E008958FEF9FEF0895FC01918DEA
:10033000228D892F90E0805C9F4F821B91098F73E3
:100340009927089588E192E0F1DF21E0892B09F4F3
:1003500020E0822F0895FC01848DDF01A80FB11DDC
:10036000A35ABF4F2C91848D90E001968F739927EB
:10037000848FA689B7892C93A089B1898C918370C9
:1003800080648C93938D848D981306C00288F389C2
:10039000E02D80818F7D80830895EF92FF920F93EF
:1003A0001F93CF93DF93EC0181E0888F9B8D8C8D21
:1003B000981305C0E889F989808185FD25C0F62E4E
:1003C0000B8D10E00F5F1F4F0F731127E02E8C8DE8
:1003D000E8120BC00FB607FCFACFE889F9898081D3
:1003E00085FFF5CFCE01B7DFF2CF8B8DFE01E80F91
:1003F000F11DE35AFF4FF0829FB7F8940B8FEA8903
:10040000FB89808180620AC09FB7F894EE89FF89DA
:100410006083E889F98980818370806480839FBFCD
:1004200081E090E0DF91CF911F910F91FF90EF90CD
:100430000895CF93DF93EC01888D8823C1F0EA897A
:10044000FB89808185FD05C0A889B9898C9186FDCD
:100450000EC00FB607FCF5CF808185FFF2CFA889CB
:10046000B9898C9185FFEDCFCE0175DFE8CFDF91A3
:10047000CF91089580E090E0892B19F063DF81111E
:1004800025C080E090E0892B41F080E090E0892B4E
:1004900021F00E94000081111CC080E090E0892BB7
:1004A00041F080E090E0892B21F00E940000811152
:1004B00013C080E090E0892BA1F080E090E0892BD0
:1004C00081F00E94000081110AC008950E9400007E
:1004D000D8CF0E940000E1CF0E940000EACF0C9428
:1004E00000000895CF93DF9390E0FC01E853FE4FA6
:1004F0002491FC01EE57FE4F8491882361F190E036
:10050000880F991FFC01E859FE4FC591D491FC0159
:10051000E25BFE4FA591B491611109C09FB7F894B9
:100520008881209582238883EC912E230BC0623032
:1005300061F49FB7F8948881322F309583238883A4
:10054000EC912E2B2C939FBF06C08FB7F894E881B7
:100550002E2B28838FBFDF91CF91089587D21F92D2
:100560000F920FB60F9211242F933F938F939F9367
:10057000AF93BF938091BA029091BB02A091BC024D
:10058000B091BD023091B90223E0230F2D3720F442
:100590000196A11DB11D05C026E8230F0296A11DDD
:1005A000B11D2093B9028093BA029093BB02A0932D
:1005B000BC02B093BD028091B5029091B602A091A9
:1005C000B702B091B8020196A11DB11D8093B5028A
:1005D0009093B602A093B702B093B802BF91AF91C7
:1005E0009F918F913F912F910F900FBE0F901F9071
:1005F00018951F920F920FB60F9211240BB60F92FF
:100600002F933F934F935F936F937F938F939F931A
:10061000AF93BF93EF93FF9388E192E09CDEFF914D
:10062000EF91BF91AF919F918F917F916F915F916A
:100630004F913F912F910F900BBE0F900FBE0F90D7
:100640001F9018951F920F920FB60F9211240BB6A0
:100650000F922F938F939F93EF93FF93E091280234
:10066000F09129028081E0912E02F0912F0282FD0B
:1006700012C09081809131028F5F8F73209132027E
:10068000821751F0E0913102F0E0E85EFD4F958F66
:100690008093310201C08081FF91EF919F918F91F2
:1006A0002F910F900BBE0F900FBE0F901F901895BB
:1006B0001F920F920FB60F9211240BB60F922F9329
:1006C0003F934F935F936F937F938F939F93AF93DA
:1006D000BF93EF93FF932091030230910402809126
:1006E0000102909102022817390709F48AC030915B
:1006F000000281E0382730930002EEE3F1E04491FC
:10070000EEEFF1E02491E8EBF1E09491992309F404
:100710006BC0442309F454C050E0FA013197E23130
:10072000F10508F04DC08827EE58FF4F8F4F96C156
:10073000809180008F7707C0809180008F7D03C0FB
:1007400080918000877F809380003AC084B58F7746
:1007500002C084B58F7D84BD33C08091B0008F7797
:1007600003C08091B0008F7D8093B00029C080913C
:1007700090008F7707C0809190008F7D03C080919B
:100780009000877F809390001BC08091A0008F779E
:1007900007C08091A0008F7D03C08091A000877F5B
:1007A0008093A0000DC0809120018F7707C08091B9
:1007B00020018F7D03C080912001877F80932001DD
:1007C000E92FF0E0EE0FFF1FE25BFE4FA591B49121
:1007D0009FB7F894311104C08C912095282302C052
:1007E000EC912E2B2C939FBF80910002882349F01F
:1007F00080910102909102020196909302028093EF
:100800000102FF91EF91BF91AF919F918F917F91E5
:100810006F915F914F913F912F910F900BBE0F9071
:100820000FBE0F901F901895789484B5826084BD98
:1008300084B5816084BD85B5826085BD85B58160E4
:1008400085BD80916E00816080936E001092810062
:10085000809181008260809381008091810081601D
:1008600080938100809180008160809380008091DE
:10087000B10084608093B1008091B000816080936A
:10088000B0008091910082608093910080919100EE
:1008900081608093910080919000816080939000AE
:1008A0008091A10082608093A1008091A10081606D
:1008B0008093A1008091A00081608093A00080912E
:1008C00021018260809321018091210181608093C8
:1008D00021018091200181608093200180917A0024
:1008E000846080937A0080917A00826080937A009D
:1008F00080917A00816080937A0080917A0080688C
:1009000080937A001092C100E0912802F0912902B0
:10091000C2E0C083E0912402F09125021082E091B0
:100920002602F09127028FEC808310923002E09132
:100930002C02F0912D0286E08083E0912A02F09152
:100940002B02808180618083E0912A02F0912B024A
:10095000808188608083E0912A02F0912B0280815F
:1009600080688083E0912A02F0912B0280818F7D44
:10097000808361E08AE0B6DD62E083E0B3DD62E0BF
:100980008EE0B0DD62E082E1ADDD61E086E3AADD0C
:1009900061E087E3A7DD61E086E2A4DDC4BD83E01A
:1009A00085BD82E387BDC0936E0061E08CE39ADD74
:1009B00061E08DE397DD61E088E394DD61E08EE244
:1009C00091DD61E08DE38EDD61E088E38BDD61E048
:1009D00084E288DD61E082E285DD61E08EE182DD36
:1009E00061E08AE17FDD61E08CE17CDD61E088E14E
:1009F00079DD80EA96E890930402809303023ADD61
:100A0000FECFE8E1F2E01382128288EE93E0A0E0EC
:100A1000B0E084839583A683B78389E092E09183D5
:100A2000808385EC90E09587848784EC90E09787BD
:100A3000868780EC90E0918B808B81EC90E0938BAB
:100A4000828B82EC90E0958B848B86EC90E0978B88
:100A5000868B118E128E138E148E0895EE0FFF1F4B
:100A6000881F8BBF0790F691E02D199481E090E0EC
:080A7000F89400C0F894FFCFD8
:100A7800010100010000000000CD013701650119E6
:080A88000296017401880100CF
:00000001FF
