:1000000014C1000040C100003EC100003CC100001E
:100010003AC1000038C1000036C1000034C1000000
:1000200032C1000030C100002EC100002CC1000010
:100030002AC1000028C1000026C1000024C1000020
:1000400022C1000064C400001EC100001CC10000E9
:100050001AC1000018C1000016C1000058C30000FA
:1000600012C10000C7C300009CC300000CC1000007
:100070000AC1000008C1000006C1000004C1000060
:10008000EFC3000000C10000FEC00000FCC0000083
:10009000FAC00000F8C00000F6C00000F4C0000084
:1000A000F2C00000F0C00000EEC00000ECC0000094
:1000B000EAC00000E8C00000E6C00000E4C00000A4
:1000C000E2C00000E0C00000DEC00000DCC00000B4
:1000D000DAC00000D8C00000D6C00000D4C00000C4
:1000E000D2C0000099029C028B028F029502D302BB
:1000F000A002A402AA02AE02B202B802BC02C0026E
:10010000D302C602CA02CE0200002100240027004A
:100110002A002D0030003300010100000401070116
:100120000A0100002200250028002B002E003100CB
:10013000340002010000050108010B01000020004D
:100140002300260029002C002F00320000010000AF
:10015000030106010901050505050705080808084A
:10016000020202020A0A080804040404010101014F
:10017000010101010303030303030303040707074A
:100180000C0C0C0C0C0C0C0C0202020206060606EF
:10019000060606060B0B0B0B0B0B0B0B01021020BC
:1001A00020080810204010204080020102010804AD
:1001B0000201010204081020408080402010080441
:1001C000020180040201804020100804020108049A
:1001D00002010102040810204080010204081020DE
:1001E000408000000A0B02090C0D0E0807030401F1
:1001F00000000000000000000000000000000000FF
:1002000000000000000000000000000000001211CB
:1002100010000000000000000000000000000000CE
:1002200000000000000000008D0611241FBECFEF6B
:10023000D1E2DEBFCDBF00E00CBF12E0A0E0B2E033
:10024000E0E9FDE000E00BBF02C007900D92A03393
:10025000B107D9F722E0A0E3B2E001C01D92A13EB0
:10026000B207E1F711E0C5E1D1E000E005C0219758
:100270000109802FFE017ED5C431D10780E0080737
:10028000B1F79CD383C5BCCECF92DF92EF92FF92A1
:100290000F931F93CF93DF936C017A018B01C0E022
:1002A000D0E0CE15DF0581F0D8016D918D01D6012A
:1002B000ED91FC910190F081E02DC6011995892BFB
:1002C00011F02196EECF7E01C701DF91CF911F91F2
:1002D0000F91FF90EF90DF90CF900895089580E008
:1002E00090E00895FC01538D448D252F30E0842F3C
:1002F00090E0821B930B541710F0CF96089501974E
:100300000895FC01918D828D981761F0828DDF0137
:10031000A80FB11D5D968C91928D9F5F9F73928FF8
:1003200090E008958FEF9FEF0895FC01918D828DED
:10033000981731F0828DE80FF11D858D90E00895BA
:100340008FEF9FEF0895FC01918D228D892F90E012
:10035000805C9F4F821B91098F739927089584E4D5
:1003600092E0F1DF21E0892B09F420E0822F08954B
:10037000FC01848DDF01A80FB11DA35ABF4F2C9142
:10038000848D90E001968F739927848FA689B78911
:100390002C93A089B1898C91837080648C93938D08
:1003A000848D981306C00288F389E02D80818F7DAB
:1003B00080830895EF92FF920F931F93CF93DF9363
:1003C000EC0181E0888F9B8D8C8D981305C0E889A6
:1003D000F989808185FD25C0F62E0B8D10E00F5F19
:1003E0001F4F0F731127E02E8C8DE8120BC00FB634
:1003F00007FCFACFE889F989808185FFF5CFCE0126
:10040000B7DFF2CF8B8DFE01E80FF11DE35AFF4FEE
:10041000F0829FB7F8940B8FEA89FB898081806214
:100420000AC09FB7F894EE89FF896083E889F9894B
:1004300080818370806480839FBF81E090E0DF9142
:10044000CF911F910F91FF90EF900895CF93DF937D
:10045000EC01888D8823C1F0EA89FB89808185FDC4
:1004600005C0A889B9898C9186FD0EC00FB607FC1E
:10047000F5CF808185FFF2CFA889B9898C9185FF5E
:10048000EDCFCE0175DFE8CFDF91CF91089580E009
:1004900090E0892B19F063DF811125C080E090E0A6
:1004A000892B41F080E090E0892B21F00E94000030
:1004B00081111CC080E090E0892B41F080E090E049
:1004C000892B21F00E940000811113C080E090E090
:1004D000892BA1F080E090E0892B81F00E94000040
:1004E00081110AC008950E940000D8CF0E94000028
:1004F000E1CF0E940000EACF0C940000089590E044
:10050000FC013197E231F10508F04DC08827EE5823
:10051000FF4F8F4F2FC4809180008F7703C0809151
:1005200080008F7D80938000089580918000877F78
:10053000F9CF84B58F7702C084B58F7D84BD0895CF
:100540008091B0008F7703C08091B0008F7D809341
:10055000B0000895809190008F7707C0809190003F
:100560008F7D03C080919000877F809390000895D5
:100570008091A0008F7707C08091A0008F7D03C07D
:100580008091A000877F8093A00008958091200132
:100590008F7707C0809120018F7D03C0809120015B
:1005A000877F809320010895CF93DF93282F30E039
:1005B000F901EE51FE4F8491F901E456FE4FD491BA
:1005C000F901EA5AFE4FC491CC2389F0811197DFDB
:1005D000EC2FF0E0EE0FFF1FE45CFE4FA591B4910D
:1005E000EC91ED2381E090E021F480E002C080E016
:1005F00090E0DF91CF9108951F93CF93DF93282F41
:1006000030E0F901EE51FE4F8491F901E456FE4FBE
:10061000D491F901EA5AFE4FC491CC23B9F0162FB8
:1006200081116DDFEC2FF0E0EE0FFF1FEE5DFE4F4E
:10063000A591B4919FB7F894111104C08C91D095F5
:10064000D82302C0EC91DE2BDC939FBFDF91CF91CA
:100650001F910895CF93DF9390E0FC01E456FE4F85
:100660002491FC01EA5AFE4F8491882361F190E0C5
:10067000880F991FFC01E85FFE4FC591D491FC01E2
:10068000EE5DFE4FA591B491611109C09FB7F8943A
:100690008881209582238883EC912E230BC06230C1
:1006A00061F49FB7F8948881322F30958323888333
:1006B000EC912E2B2C939FBF06C08FB7F894E88146
:1006C0002E2B28838FBFDF91CF910895CF93DF9397
:1006D000009771F0FC0101900020E9F73197AF011C
:1006E000481B590BBC0184E492E0CEDDEC0102C052
:1006F000C0E0D0E042E050E068E272E084E492E0E2
:10070000C3DD8C0F9D1FDF91CF9108953BD31F92C6
:100710000F920FB60F9211242F933F938F939F93B5
:10072000AF93BF938091400290914102A091420209
:10073000B091430230913F0223E0230F2D3720F484
:100740000196A11DB11D05C026E8230F0296A11D2B
:10075000B11D20933F028093400290934102A093E9
:100760004202B093430280913B0290913C02A091DF
:100770003D02B0913E020196A11DB11D80933B0246
:1007800090933C02A0933D02B0933E02BF91AF9183
:100790009F918F913F912F910F900FBE0F901F90BF
:1007A00018951F920F920FB60F9211240BB60F924D
:1007B0002F933F934F935F936F937F938F939F9369
:1007C000AF93BF93EF93FF9384E492E0D1DDFF9169
:1007D000EF91BF91AF919F918F917F916F915F91B9
:1007E0004F913F912F910F900BBE0F900FBE0F9026
:1007F0001F9018951F920F920FB60F9211240BB6EF
:100800000F922F938F939F93EF93FF93E091540256
:10081000F09155028081E0915A02F0915B0282FDD5
:1008200012C0908180915D028F5F8F7320915E0274
:10083000821751F0E0915D02F0E0EC5BFD4F958F87
:1008400080935D0201C08081FF91EF919F918F9114
:100850002F910F900BBE0F900FBE0F901F90189509
:100860001F920F920FB60F9211240BB60F920F9397
:100870001F932F933F934F935F936F937F938F9328
:100880009F93AF93BF93CF93EF93FF930091360263
:1008900010913702809134029091350280179107B0
:1008A00049F08EE081DE892B59F080910302882384
:1008B00019F006C01092710081E08093040211C00B
:1008C000C091010281E0C827C09301026C2F8CE324
:1008D00093DECC2331F00F5F1F4F1093370200934C
:1008E0003602FF91EF91CF91BF91AF919F918F9180
:1008F0007F916F915F914F913F912F911F910F9138
:100900000F900BBE0F900FBE0F901F9018951F9267
:100910000F920FB60F9211240BB60F920F931F93E5
:100920002F933F934F935F936F937F938F939F93F7
:10093000AF93BF93CF93EF93FF9300913202109147
:10094000330280913002909131028017910749F073
:1009500083E02ADE892B59F080910202882319F066
:1009600006C010926F0081E08093050211C0C09113
:10097000000281E0C827C09300026C2F86E33CDEB2
:10098000CC2331F00F5F1F4F1093330200933202DC
:10099000FF91EF91CF91BF91AF919F918F917F91F7
:1009A0006F915F914F913F912F911F910F910F90F8
:1009B0000BBE0F900FBE0F901F901895789484B5C2
:1009C000826084BD84B5816084BD85B5826085BD4B
:1009D00085B5816085BD80916E00816080936E00D9
:1009E00010928100809181008260809381008091CB
:1009F000810081608093810080918000816080937C
:100A000080008091B10084608093B1008091B0003B
:100A100081608093B000809191008260809391000A
:100A2000809191008160809391008091900081601D
:100A3000809390008091A10082608093A1008091BA
:100A4000A10081608093A1008091A00081608093CB
:100A5000A000809121018260809321018091210179
:100A60008160809321018091200181608093200129
:100A700080917A00846080937A0080917A0082600D
:100A800080937A0080917A00816080937A008091CF
:100A90007A00806880937A001092C100E09154023D
:100AA000F0915502C2E0C083E0915002F0915102F2
:100AB0001082E0915202F09153028FEC80831092E9
:100AC0005C02E0915802F091590286E08083E09147
:100AD0005602F0915702808180618083E091560236
:100AE000F0915702808188608083E0915602F091F6
:100AF0005702808180688083E0915602F09157020E
:100B000080818F7D808361E08AE0A4DD62E083E004
:100B1000A1DD62E08EE09EDD62E082E19BDD61E0CE
:100B200086E398DD61E087E395DD61E086E292DDB2
:100B300010928000DAE0D09381001092820000E9E8
:100B400011E0109389000093880061E08CE382DD5E
:100B500061E08DE37FDD61E088E37CDD1092900051
:100B6000D0939100109292001093990000939800F6
:100B700061E08EE26FDD61E08DE36CDD61E088E3D2
:100B800069DD61E084E266DD61E082E263DD61E00F
:100B90008EE160DD61E08AE15DDD61E08CE15ADDDE
:100BA00061E088E157DD1092330210923202109218
:100BB000020260E087E320DD00E412E410933102DA
:100BC0000093300210923702109236021092030204
:100BD00060E08DE311DD1093350200933402109232
:100BE000050210920402C0936F00C09371008BE263
:100BF00092E06CDD92E0E92E24E6D22EFF24F394FD
:100C000080913A02882309F479C0809105028823F3
:100C100009F474C080910402882309F46FC0E09144
:100C20003802F0913902EE0FFF1FEE0FFF1FE85E52
:100C3000FD4F02811381C081D18110923302109245
:100C40003202D7FF03C01092020202C0F0920202E9
:100C50006091020287E3D0DC1C161D0634F4DC9E92
:100C6000C001DD9E900D112407C04CE99E01420396
:100C7000C001439F900D1124909331028093300264
:100C8000109237021092360217FF03C0109203022F
:100C900002C0F0920302609103028DE3ADDC1016F6
:100CA000110634F4D09EC001D19E900D112406C0CF
:100CB0002CE92003C001219F900D1124909335024F
:100CC000809334021092050210920402E0926F00A9
:100CD000E09271008EE292E0F9DC8091380290910E
:100CE000390201968430910529F09093390280935E
:100CF000380204C0109239021092380284E492E063
:100D000022DB892B41F084E492E0FBDA80913A0205
:100D10008F2580933A02BBDB73CFE4E4F2E01382C9
:100D2000128288EE93E0A0E0B0E084839583A683EE
:100D3000B7838AE092E09183808385EC90E0958789
:100D4000848784EC90E09787868780EC90E0918B95
:100D5000808B81EC90E0938B828B82EC90E0958B82
:100D6000848B86EC90E0978B868B118E128E138E7F
:100D7000148E0895EE0FFF1F881F8BBF0790F6910A
:100D8000E02D199481E090E0F89400C0F894FFCF32
:100D900001010101010100000000DA0144017201BA
:100DA0002602A301810195010000320032000000FB
:100DB0000000CEFFCEFF00000D0A006F6B00310077
:00000001FF
