:1000000007C1000033C1000031C100002FC1000052
:100010002DC100002BC1000029C1000027C1000034
:1000200025C1000023C1000021C100001FC1000044
:100030001DC100001BC1000019C1000017C1000054
:1000400015C1000013C1000011C100000FC1000064
:100050000DC100000BC1000009C1000081C30000F8
:1000600005C1000047C300001CC30000FFC0000022
:10007000FDC00000FBC00000F9C00000F7C0000098
:10008000F5C00000F3C00000F1C00000EFC00000A8
:10009000EDC00000EBC00000E9C00000E7C00000B8
:1000A000E5C00000E3C00000E1C00000DFC00000C8
:1000B000DDC00000DBC00000D9C00000D7C00000D8
:1000C000D5C00000D3C00000D1C00000CFC00000E8
:1000D000CDC00000CBC00000C9C00000C7C00000F8
:1000E000C5C00000A002A302920296029A02DA02A0
:1000F000A702AB02B102B502B902BF02C302C70236
:10010000DA02CD02D102D50200002100240027002E
:100110002A002D0030003300010100000401070116
:100120000A0100002200250028002B002E003100CB
:10013000340002010000050108010B010505050559
:10014000070508080808020202020A0A080804044F
:10015000040401010101010101010303030303037D
:100160000303040707070C0C0C0C0C0C0C0C02020C
:10017000020206060606060606060B0B0B0B0B0B09
:100180000B0B010210202008081020401020408096
:10019000020102010804020101020408102040804B
:1001A00080402010080402018004020180402010D9
:1001B0000804020108040201010204081020408022
:1001C000010204081020408000000A0B02090C0DF7
:1001D0000E080703040100000000000000000000FA
:1001E000000000000000000000000000000000000F
:1001F00000000000121110000000000000000000CC
:1002000000000000000000000000000000001405D5
:1002100011241FBECFEFD1E2DEBFCDBF00E00CBF87
:1002200012E0A0E0B2E0EEE9FAE000E00BBF02C0AD
:1002300007900D92A631B107D9F722E0A6E1B2E00E
:1002400001C01D92AC3BB207E1F711E0C8E0D1E07C
:1002500000E005C021970109802FFE0112D4C730AC
:10026000D10780E00807B1F7C5D217C4C9CECF9235
:10027000DF92EF92FF920F931F93CF93DF936C0166
:100280007A018B01C0E0D0E0CE15DF0581F0D80106
:100290006D918D01D601ED91FC910190F081E02DE1
:1002A000C6011995892B11F02196EECF7E01C70169
:1002B000DF91CF911F910F91FF90EF90DF90CF9042
:1002C0000895089580E090E00895FC01538D448DD9
:1002D000252F30E0842F90E0821B930B541710F0F1
:1002E000CF96089501970895FC01918D828D9817FE
:1002F00061F0828DDF01A80FB11D5D968C91928D0A
:100300009F5F9F73928F90E008958FEF9FEF089506
:10031000FC01918D828D981731F0828DE80FF11DCF
:10032000858D90E008958FEF9FEF0895FC01918DEA
:10033000228D892F90E0805C9F4F821B91098F73E3
:10034000992708958FE192E0F1DF21E0892B09F4EC
:1003500020E0822F0895FC01848DDF01A80FB11DDC
:10036000A35ABF4F2C91848D90E001968F739927EB
:10037000848FA689B7892C93A089B1898C918370C9
:1003800080648C93938D848D981306C00288F389C2
:10039000E02D80818F7D80830895EF92FF920F93EF
:1003A0001F93CF93DF93EC0181E0888F9B8D8C8D21
:1003B000981305C0E889F989808185FD25C0F62E4E
:1003C0000B8D10E00F5F1F4F0F731127E02E8C8DE8
:1003D000E8120BC00FB607FCFACFE889F9898081D3
:1003E00085FFF5CFCE01B7DFF2CF8B8DFE01E80F91
:1003F000F11DE35AFF4FF0829FB7F8940B8FEA8903
:10040000FB89808180620AC09FB7F894EE89FF89DA
:100410006083E889F98980818370806480839FBFCD
:1004200081E090E0DF91CF911F910F91FF90EF90CD
:100430000895CF93DF93EC01888D8823C1F0EA897A
:10044000FB89808185FD05C0A889B9898C9186FDCD
:100450000EC00FB607FCF5CF808185FFF2CFA889CB
:10046000B9898C9185FFEDCFCE0175DFE8CFDF91A3
:10047000CF91089580E090E0892B19F063DF81111E
:1004800025C080E090E0892B41F080E090E0892B4E
:1004900021F00E94000081111CC080E090E0892BB7
:1004A00041F080E090E0892B21F00E940000811152
:1004B00013C080E090E0892BA1F080E090E0892BD0
:1004C00081F00E94000081110AC008950E9400007E
:1004D000D8CF0E940000E1CF0E940000EACF0C9428
:1004E00000000895362F90E0FC01E853FE4F449140
:1004F000FC01EE57FE4F2491FC01E45CFE4F949109
:10050000992309F46BC0442309F454C050E0FA0164
:100510003197E231F10508F04DC08827EE58FF4FC2
:100520008F4FAFC2809180008F7707C0809180008D
:100530008F7D03C080918000877F809380003AC0C8
:1005400084B58F7702C084B58F7D84BD33C0809120
:10055000B0008F7703C08091B0008F7D8093B00092
:1005600029C0809190008F7707C0809190008F7D87
:1005700003C080919000877F809390001BC0809182
:10058000A0008F7707C08091A0008F7D03C080916D
:10059000A000877F8093A0000DC0809120018F77FD
:1005A00007C0809120018F7D03C080912001877F4B
:1005B00080932001E92FF0E0EE0FFF1FEE5DFE4F6C
:1005C000A591B4919FB7F894311104C08C912095F6
:1005D000282302C0EC912E2B2C939FBF0895CF931C
:1005E000DF9390E0FC01EE57FE4F2491FC01E45CA8
:1005F000FE4F8491882361F190E0880F991FFC01E0
:10060000E85FFE4FC591D491FC01EE5DFE4FA591D0
:10061000B491611109C09FB7F89488812095822315
:100620008883EC912E230BC0623061F49FB7F8945D
:100630008881322F309583238883EC912E2B2C9345
:100640009FBF06C08FB7F894E8812E2B28838FBFF9
:10065000DF91CF9108953FB7F89480911B0290915C
:100660001C02A0911D02B0911E0226B5A89B05C0D8
:100670002F3F19F00196A11DB11D3FBFBA2FA92F21
:10068000982F8827820F911DA11DB11DBC01CD019E
:1006900042E0660F771F881F991F4A95D1F708958A
:1006A000F8D11F920F920FB60F9211240BB60F9232
:1006B0002F933F934F935F936F937F938F939F936A
:1006C000AF93BF93EF93FF938FE192E044DEFF91EE
:1006D000EF91BF91AF919F918F917F916F915F91BA
:1006E0004F913F912F910F900BBE0F900FBE0F9027
:1006F0001F9018951F920F920FB60F9211240BB6F0
:100700000F922F938F939F93EF93FF93E0912F027C
:10071000F09130028081E0913502F091360282FD45
:1007200012C09081809138028F5F8F7320913902BF
:10073000821751F0E0913802F0E0E15EFD4F958FB5
:100740008093380201C08081FF91EF919F918F913A
:100750002F910F900BBE0F900FBE0F901F9018950A
:100760001F920F920FB60F9211242F933F938F93E6
:100770009F93AF93BF938091170290911802A0911D
:100780001902B0911A023091160223E0230F2D377F
:1007900020F40196A11DB11D05C026E8230F029685
:1007A000A11DB11D20931602809317029093180289
:1007B000A0931902B0931A0280911B0290911C021F
:1007C000A0911D02B0911E020196A11DB11D809342
:1007D0001B0290931C02A0931D02B0931E02BF91B6
:1007E000AF919F918F913F912F910F900FBE0F90DE
:1007F0001F901895789484B5826084BD84B581601B
:1008000084BD85B5826085BD85B5816085BD8091DB
:100810006E00816080936E00109281008091810053
:10082000826080938100809181008160809381004B
:10083000809180008160809380008091B10084600D
:100840008093B1008091B00081608093B00080916E
:1008500091008260809391008091910081608093EB
:100860009100809190008160809390008091A10020
:1008700082608093A1008091A10081608093A1009B
:100880008091A00081608093A0008091210182600E
:1008900080932101809121018160809321018091C9
:1008A000200181608093200180917A008460809390
:1008B0007A0080917A00826080937A0080917A0039
:1008C000816080937A0080917A00806880937A00BA
:1008D0001092C100E0912F02F091300282E08083FB
:1008E000E0912B02F0912C021082E0912D02F09108
:1008F0002E028FEC808310923702E0913302F09148
:10090000340286E08083E0913102F09132028081EE
:1009100080618083E0913102F091320280818860B1
:100920008083E0913102F09132028081806880837F
:10093000E0913102F091320280818F7D808361E00D
:100940008AE04DDE62E083E04ADE62E08EE047DE70
:1009500062E082E144DE61E086E341DE61E087E35C
:100960003EDE61E086E23BDE61E08CE338DE61E0A2
:100970008DE335DE61E088E332DE61E08EE22FDE7A
:1009800061E08DE32CDE61E088E329DE61E084E252
:1009900026DE61E082E223DE61E08EE120DE61E0BE
:1009A0008AE11DDE61E08CE11ADE61E088E117DE9C
:1009B00052DE6B017C0184EF882E99249394A12C44
:1009C000B12C49DEDC01CB018C199D09AE09BF09B0
:1009D000883E9340A105B105A0F321E0821A910859
:1009E000A108B10888EEC80E83E0D81EE11CF11CF6
:1009F00081149104A104B10421F710920202109213
:100A000001021092000260E086E26CDD60E088E3A3
:100A100069DD60E08EE366DD60E08EE163DD60E06D
:100A200088E160DD27DDC4CFEFE1F2E013821282BE
:100A300088EE93E0A0E0B0E084839583A683B7833B
:100A400087E092E09183808385EC90E095878487AE
:100A500084EC90E09787868780EC90E0918B808B88
:100A600081EC90E0938B828B82EC90E0958B848B71
:100A700086EC90E0978B868B118E128E138E148EDF
:100A80000895EE0FFF1F881F8BBF0790F691E02D92
:0E0A9000199481E090E0F89400C0F894FFCF34
:100A9E0001010100000000CD013701650119029628
:060AAE0001740188010043
:00000001FF
