:100000000C9435010C9466010C9466010C94660105
:100010000C9466010C9466010C9466010C946601C4
:100020000C9466010C9466010C9466010C946601B4
:100030000C9466010C9466010C9466010C946601A4
:100040000C9466010C9466010C9466010C94660194
:100050000C9466010C9466010C9466010C94820465
:100060000C9466010C94F6040C94CC040C94660178
:100070000C9466010C9466010C9466010C94660164
:100080000C9466010C9466010C9466010C94660154
:100090000C9466010C9466010C9466010C94660144
:1000A0000C9466010C9466010C9466010C94660134
:1000B0000C9466010C9466010C9466010C94660124
:1000C0000C9466010C9466010C9466010C94660114
:1000D0000C9466010C9466010C9466010C94660104
:1000E0000C9466010C94B3010C94BD010C945C0358
:1000F0000C942B030C94C6010C9498010C94AB0146
:100100000C94A1010C94E1030C94B9010C94940398
:100110000C94FE020C94C1010C94C7010C94900144
:100120000C94CB010C942C050C948C010C94AF0115
:100130000C94A5010C9494010C944E030C9486012C
:100140000C949B010C943A0300002100240027002A
:100150002A002D00300033000101000004010701D6
:100160000A0100002200250028002B002E0031008B
:10017000340002010000050108010B01000020000D
:100180002300260029002C002F003200000100006F
:10019000030106010901050505050705080808080A
:1001A000020202020A0A080804040404010101010F
:1001B000010101010303030303030303040707070A
:1001C0000C0C0C0C0C0C0C0C0202020206060606AF
:1001D000060606060B0B0B0B0B0B0B0B010210207C
:1001E000200808102040102040800201020108046D
:1001F0000201010204081020408080402010080401
:100200000201800402018040201008040201080459
:10021000020101020408102040800102040810209D
:10022000408000000A0B02090C0D0E0807030401B0
:1002300000000000000000000000000000000000BE
:10024000000000000000000000000000000012118B
:10025000100000000000000000000000000000008E
:1002600000000000000000002C0511241FBECFEF8D
:10027000D1E2DEBFCDBF00E00CBF14E0A0E0B2E0F1
:10028000ECECF3E100E00BBF02C007900D92AA3343
:10029000B107D9F725E0AAE3B4E001C01D92AB3D58
:1002A000B207E1F711E0C5E3D1E000E006C0219715
:1002B0000109802FFE010E94C809C433D10780E0E4
:1002C0000807A9F70E94E7050C94E4090C940000C4
:1002D0008150823108F05AC0E82FF0E08827EC58AE
:1002E000FE4F8F4F0C94C8099401980186018C0130
:1002F0009001C6019B01A101A501AB01AF01B301B2
:10030000B901BD01C601C101C701CB0180918000C7
:100310008F77809380000895809180008F7DF9CF42
:1003200080918000877FF5CF84B58F7784BD089555
:1003300084B58F7DFBCF8091B0008F778093B00024
:1003400008958091B0008F7DF9CF809190008F77D4
:10035000809390000895809190008F7DF9CF8091D7
:100360009000877FF5CF8091A0008F778093A000C9
:1003700008958091A0008F7DF9CF8091A000877FA4
:10038000F5CF809120018F7780932001089580918F
:1003900020018F7DF9CF80912001877FF5CFCF930A
:1003A000DF93282F30E0F901EE5DFD4F8491F901D4
:1003B000E452FE4FD491F901EA56FE4FC491CC238A
:1003C000A1F081110E946801EC2FF0E0EE0FFF1FF9
:1003D000E458FE4FA591B491EC91ED2381E090E0BB
:1003E00009F480E0DF91CF91089580E090E0FACFAA
:1003F0001F93CF93DF93282F30E0F901EE5DFD4F7F
:100400008491F901E452FE4FD491F901EA56FE4F6E
:10041000C491CC23A9F0162F81110E946801EC2F02
:10042000F0E0EE0FFF1FEE59FE4FA591B4918FB78C
:10043000F894EC91111108C0D095DE23DC938FBFA6
:10044000DF91CF911F910895DE2BF8CFAF92BF922D
:10045000CF92DF92EF92FF920F931F93CF93DF9390
:10046000D62F22E0C22ED12C00E810E0E82EF12C8D
:1004700033ECA32EB12C61E0D11101C060E082E029
:100480000E94F801CDE0C7018023912361E0892B10
:1004900009F460E08C2F0E94F80115950795C15072
:1004A000C93089F761E084E00E94F80160E084E0EF
:1004B0000E94F80161E082E00E94F801C501019705
:1004C000F1F7CA94CD2859F4DF91CF911F910F9184
:1004D000FF90EF90DF90CF90BF90AF900895CC2425
:1004E000C394D12CC8CFCF93DF9390E0FC01E452AA
:1004F000FE4F24918A569E4FFC0184918823D1F0AF
:1005000090E0880F991FFC01E85BFE4FA591B49124
:10051000FC01EE59FE4FC591D49161110EC09FB7F9
:10052000F8948C91E22FE0958E238C932881E2231E
:10053000E8839FBFDF91CF9108958FB7F894EC9136
:10054000E22BEC938FBFF6CF3FB7F89480913F0436
:1005500090914004A0914104B091420426B5A89B1B
:1005600005C02F3F19F00196A11DB11D3FBFBA2F45
:10057000A92F982F8827BC01CD01620F711D811D05
:10058000911D42E0660F771F881F991F4A95D1F78A
:1005900008958F929F92AF92BF92CF92DF92EF9287
:1005A000FF920E94A4024B015C018AE0C82ED12C6C
:1005B000E12CF12C0E94A402681979098A099B098F
:1005C000683E734081059105A8F321E0C21AD10865
:1005D000E108F10888EE880E83E0981EA11CB11C8A
:1005E000C114D104E104F10429F7FF90EF90DF90EA
:1005F000CF90BF90AF909F908F900895AF92BF9291
:10060000CF92DF92EF92FF920F931F93CF93DF93DE
:100610006C017B018B01040F151FEB015E01AE180D
:10062000BF08C017D10759F06991D601ED91FC912F
:100630000190F081E02DC6011995892B79F7C5014C
:10064000DF91CF911F910F91FF90EF90DF90CF90AE
:10065000BF90AF900895FC01538D448D252F30E05D
:10066000842F90E0821B930B541710F0CF960895BF
:1006700001970895FC01918D828D981761F0A28DEC
:10068000AE0FBF2FB11D5D968C91928D9F5F9F73B2
:10069000928F90E008958FEF9FEF0895FC01918D68
:1006A000828D981731F0828DE80FF11D858D90E0D5
:1006B00008958FEF9FEF0895FC01918D228D892F72
:1006C00090E0805C9F4F821B91098F73992708955A
:1006D00083E494E00E945C0321E0892B09F420E08C
:1006E000822F0895FC01A48DA80FB92FB11DA35A24
:1006F000BF4F2C91848D90E001968F739927848F42
:10070000A689B7892C93A089B1898C918370806464
:100710008C93938D848D981306C00288F389E02D05
:1007200080818F7D80830895EF92FF920F931F93B6
:10073000CF93DF93EC0181E0888F9B8D8C8D981394
:100740001AC0E889F989808185FF15C09FB7F894A0
:10075000EE89FF896083E889F989808183708064EC
:1007600080839FBF81E090E0DF91CF911F910F9137
:10077000FF90EF900895F62E0B8D10E00F5F1F4F46
:100780000F731127E02E8C8D8E110CC00FB607FC55
:10079000FACFE889F989808185FFF5CFCE010E94E3
:1007A0007203F1CFEB8DEC0FFD2FF11DE35AFF4FDC
:1007B000F0829FB7F8940B8FEA89FB898081806271
:1007C000CFCFCF93DF93EC01888D8823B9F0AA892E
:1007D000BB89E889F9898C9185FD03C0808186FDFC
:1007E0000DC00FB607FCF7CF8C9185FFF2CF80814B
:1007F00085FFEDCFCE010E947203E9CFDF91CF914B
:10080000089580E090E0892B29F00E94680381110F
:100810000E94000080E090E0892B49F080E090E0A9
:10082000892B29F00E94000081110E94000080E0C5
:1008300090E0892B49F080E090E0892B29F00E941C
:10084000000081110E94000080E090E0892B49F0B7
:1008500080E090E0892B29F00E94000081110C9427
:1008600000000895EF92FF920F931F93CF93E82E0D
:1008700060E082E00E94F801CDE000E810E0F12C99
:10088000C7018023912361E0892B09F460E08C2F5C
:100890000E94F80115950795C150C93089F761E0AC
:1008A00084E00E94F80160E084E00E94F80161E0C9
:1008B00082E00E94F80183EC90E00197F1F7CF917C
:1008C0001F910F91FF90EF900895CF93DF93FC015C
:1008D00001900020E9F73197AF01481B590BBC018B
:1008E00083E494E00E94FE02EC0142E050E062EBFF
:1008F00072E083E494E00E94FE028C0F9D1FDF9162
:10090000CF9108951F920F920FB60F9211242F933B
:100910003F938F939F93AF93BF9380913B049091AC
:100920003C04A0913D04B0913E0430913A0423E090
:10093000230F2D3758F50196A11DB11D20933A04C0
:1009400080933B0490933C04A0933D04B0933E04F9
:1009500080913F0490914004A0914104B0914204E1
:100960000196A11DB11D80933F0490934004A09374
:100970004104B0934204BF91AF919F918F913F91F9
:100980002F910F900FBE0F901F90189526E8230F00
:100990000296A11DB11DD2CF1F920F920FB60F92DA
:1009A00011240BB60F922F933F934F935F936F9346
:1009B0007F938F939F93AF93BF93EF93FF9383E4C2
:1009C00094E00E947203FF91EF91BF91AF919F91CC
:1009D0008F917F916F915F914F913F912F910F90E8
:1009E0000BBE0F900FBE0F901F9018951F920F9285
:1009F0000FB60F9211240BB60F922F938F939F93E4
:100A0000EF93FF93E0915304F09154048081E091BF
:100A10005904F0915A0482FD1DC0908180915C04BC
:100A20008F5F8F7320915D04821741F0E0915C0429
:100A3000F0E0ED5BFB4F958F80935C04FF91EF91AD
:100A40009F918F912F910F900BBE0F900FBE0F9023
:100A50001F9018958081F2CFE3E4F4E013821282B4
:100A600088EE93E0A0E0B0E084839583A683B7830B
:100A700084EA92E09183808385EC90E09587848777
:100A800084EC90E09787868780EC90E0918B808B58
:100A900081EC90E0938B828B82EC90E0958B848B41
:100AA00086EC90E0978B868B118E128E138E148EAF
:100AB00080EAE0E0F2E0AFEFB4E001900D928A95B9
:100AC000E1F7E7EAF5E084E3DF011D928A95E9F7B3
:100AD00085EB92E09093A00580939F0589EC92E0CE
:100AE0009093A2058093A1058DED92E09093A405CB
:100AF0008093A30581EF92E09093A6058093A505CE
:100B000085E093E09093AC058093AB0589E193E099
:100B10009093AE058093AD058DE293E09093B00580
:100B20008093AF0581E493E09093B2058093B10583
:100B300085E593E09093B4058093B30589E693E04F
:100B40009093B6058093B5058DE793E09093B80533
:100B50008093B70581E993E09093BA058093B90536
:100B600085EA93E09093BC058093BB0529EB33E0C5
:100B70003093BE052093BD052EEC33E03093C405C1
:100B80002093C30522EE33E03093C6052093C505BC
:100B90009093C8058093C70526EF33E03093CA05CC
:100BA0002093C9054AE054E05093D0054093CF0507
:100BB0004EE154E05093D2054093D1059093D40573
:100BC0008093D3053093D6052093D5050895CF9310
:100BD000DF9300D01F92CDB7DEB7789484B58260E2
:100BE00084BD84B5816084BD85B5826085BD85B5D1
:100BF000816085BD80916E00816080936E0010924F
:100C000081008091810082608093810080918100C9
:100C1000816080938100809180008160809380005A
:100C20008091B10084608093B1008091B0008160B8
:100C30008093B000809191008260809391008091B8
:100C400091008160809391008091900081608093F9
:100C500090008091A10082608093A1008091A1000A
:100C600081608093A1008091A00081608093A000AA
:100C70008091210182608093210180912101816016
:100C800080932101809120018160809320018091D7
:100C90007A00846080937A0080917A0082608093E9
:100CA0007A0080917A00816080937A0080917A0046
:100CB000806880937A001092C100E0915304F09113
:100CC000540482E08083E0914F04F091500410823C
:100CD000E0915104F09152048FEC808310925B04F8
:100CE000E0915704F091580486E08083E091550428
:100CF000F0915604808180618083E0915504F091E9
:100D00005604808188608083E0915504F0915604F8
:100D1000808180688083E0915504F0915604808141
:100D20008F7D808322E0298361E089810E947302A4
:100D300039813F5F39833E30B9F760E083E00E943C
:100D4000730260E086E00E94730260E087E00E9428
:100D5000730261E086E00E94F80161E087E00E9492
:100D6000F80161E083E00E94F80180E30E94320410
:100D700080E30E94320480E30E94320480E20E94F9
:100D8000320460E088E20E94260260E086E00E9471
:100D9000260260E08CE00E94260260E080E80E946B
:100DA000260260E081E00E9426020E94C90281E0E2
:100DB0008093EC045524539401E010E094E0E92E74
:100DC000F12C22E0C22ED12C33E0A32EB12C48E22C
:100DD000442E55E0252E312C2FB7F89480913B04FA
:100DE00090913C04A0913D04B0913E042FBF8093AC
:100DF000E0049093E104A093E204B093E3046090D4
:100E0000E4047090E5048090E6049090E7049C016F
:100E1000AD01261937094809590922303105410524
:100E2000510508F456C18093E4049093E504A0931F
:100E3000E604B093E70487E00E94CF013C0186E01E
:100E40000E94CF014C018091EF049091F004892B16
:100E500079F48114910409F078C21093F00400939E
:100E6000EF046114710421F4F092F004E092EF04B5
:100E70008091EF049091F004019779F4611471046A
:100E800009F068C2D092F004C092EF04811491047A
:100E900021F01092F0041092EF048091EF049091F1
:100EA000F004029761F48114910409F463C06114A1
:100EB000710409F05FC0B092F004A092EF04809139
:100EC000EF049091F004039709F054C08114910449
:100ED00009F450C06114710409F44CC08091FB0402
:100EE0009091FC04181619060CF040C082E394E0BF
:100EF0000E9465042091F7043091F8048091F90470
:100F00009091FA042230310509F47EC183309105B5
:100F10000CF47AC14091ED04411176C12F5F3F4F2F
:100F20003093F8042093F7045092EC048091FD0470
:100F30009091FE0401969093FE048093FD0461E07D
:100F400080E20E9426028091F9049091FA04489E62
:100F5000F001499EF00D1124E052FB4F60E0878DB7
:100F60000E94260261E08EE30E9426021092F004A5
:100F70001092EF048091EF049091F004049779F4BB
:100F80008114910409F0EBC13092F0042092EF0437
:100F90006114710421F01092F0041092EF0480911A
:100FA000EF049091F004059771F48114910409F015
:100FB00063C06114710409F45FC046E050E05093CF
:100FC000F0044093EF048091EF049091F0040697B1
:100FD00009F052C0892809F44FC0672809F44CC0B1
:100FE0008091FB049091FC04181619060CF040C087
:100FF00085E394E00E9465042091F7043091F804A1
:101000008091F9049091FA042115310509F413C176
:10101000181619060CF40FC14091ED0441110BC1D3
:10102000215031093093F8042093F7045092EC04D6
:101030008091FD049091FE0401979093FE048093AB
:10104000FD0461E080E20E9426028091F904909103
:10105000FA04489EF001499EF00D1124E052FB4F26
:1010600060E0878D0E94260261E08EE30E942602E6
:101070001092F0041092EF0483E00E94CF01892BBC
:1010800009F040C18091EE04882319F18090FB049F
:101090009090FC0460E081E00E9426020E94C90258
:1010A0001092F8041092F7041092FA041092F904C6
:1010B0001092EE0452E08516910409F4DBC00CF0A6
:1010C000D0C08114910409F4DCC08A94892809F401
:1010D000E5C00E94A4022091EC04222309F491C0EF
:1010E0006090E8047090E9048090EA049090EB042A
:1010F0009B01AC01261937094809590925363105E4
:101100004105510508F47DC06093E8047093E9043B
:101110008093EA049093EB048091F1049091F2049F
:10112000892BE1F48091F3049091F404892BB1F4BC
:101130008091F9049091FA0460E0892B09F0E5C0F0
:101140008091FB049091FC04892B09F4DEC080E8B7
:101150000E94260261E08EE30E9426028091FB0439
:101160009091FC0426E0289FF001299FF00D1124A6
:101170008091F3049091F404E80FF91F8091F70433
:101180009091F804E80FF91FEE0FFF1FE156FA4F98
:101190000190F081E02D8091F1049091F204E80F2C
:1011A000F91F61E080810E9426022091F1043091B4
:1011B000F2042F5F3F4FC90163E170E00E94B40960
:1011C000892B09F4A4C03093F2042093F104809198
:1011D000F5049091F60401969093F6048093F5043B
:1011E0008C34910571F41092F4041092F30410926F
:1011F000F2041092F1041092F6041092F504109289
:10120000EC040E940104E8CD8330910509F497CEE7
:101210009C012F5F3F4F3093FA042093F904489EBE
:10122000F001499EF00D1124E052FB4F60E0878DE4
:101230000E9426027BCE009709F403CF9C01215027
:1012400031093093FA042093F904489EF001499E35
:10125000F00D1124E052FB4F60E0878D0E942602C2
:10126000E7CE23E08216910429F034E0831691043E
:1012700009F02FCF8091FD049091FE04039708F0B0
:1012800028CF1092ED045092EC041093FC040093CC
:10129000FB041092FE041092FD041BCF8091FD040C
:1012A0009091FE048230910521F174F40097C1F011
:1012B000019709F00ECF1092ED045092EC04B09219
:1012C000FC04A092FB04E5CF06970CF002CF10922D
:1012D000ED045092EC041092FC041092FB04D9CF60
:1012E0001092ED045092EC04D092FC04C092FB04E6
:1012F000F0CE1092ED045092EC04F092FC04E092D7
:10130000FB04C7CF5092EE04E4CE81E825CF1092C3
:10131000F2041092F1048091F3049091F404019688
:10132000489EF001499EF00D1124E052FB4F60E011
:1013300081A10E9426028091F3049091F404019609
:101340009093F4048093F30442CF6114710409F084
:10135000B6CD8ACD8114910409F09BCD0BCE6114DA
:10136000710409F018CE88CE97FB072E16F400946E
:1013700007D077FD09D00E94D00907FC05D03EF4C4
:10138000909581959F4F0895709561957F4F089531
:10139000EE0FFF1F881F8BBF0790F691E02D199469
:1013A000AA1BBB1B51E107C0AA1FBB1FA617B7078B
:1013B00010F0A61BB70B881F991F5A95A9F78095A7
:0C13C0009095BC01CD010895F894FFCF7A
:1013CC0080008100820083008400850086008700F5
:1013DC00880089008A008B008C008D008E008F00A5
:1013EC009000910092009300C000C100C200C300A5
:1013FC00C400C500C600C700C800C900CA00CB00A5
:10140C00CC00CD00CE00CF00D000D100D200D30054
:10141C009400950096009700980099009A009B0004
:10142C009C009D009E009F00A000A100A200A300B4
:10143C00A400A500A600A700D400D500D600D700B4
:10144C00D800D900DA00DB00DC00DD00DE00DF00B4
:10145C00E000E100E200E300E400E500E600E70064
:10146C00000000009403FE022B03E1035C033A032B
:10147C004E030D0A0054656D703A313943202062D9
:10148C0065643A32323043200058202030202059F5
:10149C0020203020205A30302E3030200020534471
:1014AC00383125202020202D2D2D313030252020A5
:1014BC000047656E6945617274682076312052650B
:1014CC0061647920002058206D6F746F72207370E6
:1014DC00656564202020207C002059206D6F746F7E
:1014EC0072207370656564202020207C00205A20B7
:1014FC006D6F746F72207370656564202020207C82
:10150C0000204665656472617465207365742020E3
:10151C002020207C0020486561746265642074651D
:10152C006D7020202020207C002053746174757312
:10153C0020202020202020202020207C002058202B
:10154C007370656564202020202020202020207CC2
:10155C0000205820706F736974696F6E20202020F2
:10156C002020207C00206261636B20202020202022
:10157C00202020202020207C00205F5F5F5F5F5FA9
:10158C005F5F5F5F5F5F5F5F5F5F5F7C2000205925
:10159C0020737065656420202020202020202020CE
:1015AC007C00205920706F736974696F6E20202045
:1015BC00202020207C00205F5F5F5F5F5F5F5F5FAC
:1015CC005F5F5F5F5F5F5F5F7C00205A20737065B9
:1015DC006564202020202020202020207C00205A00
:1015EC0020706F736974696F6E202020202020207A
:0A15FC007C00757000646F776E00CC
:00000001FF
