:1000000029C1000057C1000055C1000053C10000C4
:1000100051C100004FC100004DC100004BC10000A4
:1000200049C1000047C1000045C1000043C10000B4
:1000300041C100003FC100003DC100003BC10000C4
:1000400039C10000D0C5000035C1000033C1000037
:1000500031C100002FC100002DC100000FC40000FD
:1000600029C100007EC4000053C4000023C1000069
:1000700021C100001FC100001DC100001BC1000004
:1000800065C5000017C1000015C1000013C10000C4
:1000900011C100000FC100000DC100000BC1000024
:1000A00009C1000007C10000DDC4000003C1000059
:1000B00001C10000FFC00000FDC0000088C40000B6
:1000C000F9C00000F7C00000F5C00000F3C0000058
:1000D000F1C00000EFC00000EDC00000EBC0000068
:1000E000E9C00000084AD73B3BCE016E84BCBFFD8F
:1000F000C12F3D6C74319ABD56833DDA3D00C77FF8
:1001000011BED9E4BB4C3E916BAAAABE0000008090
:100110003F05A84CCDB2D44EB93836A9020C50B91F
:10012000918688083CA6AAAA2ABE000000803F004B
:10013000000020002300260029002C002F003200A0
:100140000001000003010601090100000A0B020979
:100150000C0D0E0807030401000000000000000061
:10016000000000000000000000000000000000008F
:10017000000000000000121110000000000000004C
:10018000000000000000000000000000000000006F
:1001900000002200250028002B002E003100340032
:1001A00002010000050108010B01000021002400EC
:1001B00027002A002D003000330001010000040157
:1001C00007010A01050505050705080808080202D8
:1001D00002020A0A080804040404010101010101E1
:1001E00001010303030303030303040707070C0CC4
:1001F0000C0C0C0C0C0C020202020606060606068B
:1002000006060B0B0B0B0B0B0B0B0102102020082F
:100210000810204010204080020102010804020161
:1002200001020408102040808040201008040201D0
:100230008004020180402010080402010804020129
:1002400001020408102040800102040810204080B0
:100250004006570911241FBECFEFD1E2DEBFCDBF4C
:1002600000E00CBF16E0A0E0B2E0E2EEFAE100E050
:100270000BBF02C007900D92A434B107D9F727E055
:10028000A4E4B6E001C01D92A232B207E1F711E08A
:10029000C9E2D1E000E006C021970109802FFE01EC
:1002A0000E942A0CC832D10780E00807A9F73ED582
:1002B0000C94600DA5CE90E0FC01E65FFD4F24910B
:1002C0008C539E4FFC018491882399F090E0880F15
:1002D000991FFC01E655FE4FA591B491FC01E05732
:1002E000FE4F859194918FB7F894EC91E22BEC93AB
:1002F0008FBF0895AF92BF92CF92DF92EF92FF929D
:100300000F931F93CF93DF936C017B018B01040F3D
:10031000151FEB015E01AE18BF08C017D10759F0D9
:100320006991D601ED91FC910190F081E02DC6011B
:100330001995892B79F7C501DF91CF911F910F9105
:10034000FF90EF90DF90CF90BF90AF900895FC01A9
:10035000538D448D252F30E0842F90E0821B930B2A
:10036000541710F0CF96089501970895FC01918DD0
:10037000828D981761F0A28DAE0FBF2FB11D5D96D3
:100380008C91928D9F5F9F73928F90E008958FEF75
:100390009FEF0895FC01918D828D981731F0828D29
:1003A000E80FF11D858D90E008958FEF9FEF089580
:1003B000FC01918D228D892F90E0805C9F4F821BE4
:1003C00091098F73992708958DE596E0F1DF21E07B
:1003D000892B09F420E0822F0895FC01A48DA80F39
:1003E000B92FB11DA35ABF4F2C91848D90E0019677
:1003F0008F739927848FA689B7892C93A089B18997
:100400008C91837080648C93938D848D981306C037
:100410000288F389E02D80818F7D80830895EF929B
:10042000FF920F931F93CF93DF93EC0181E0888FAE
:100430009B8D8C8D98131AC0E889F989808185FF7E
:1004400015C09FB7F894EE89FF896083E889F98920
:1004500080818370806480839FBF81E090E0DF9122
:10046000CF911F910F91FF90EF900895F62E0B8D75
:1004700010E00F5F1F4F0F731127E02E8C8D8E1130
:100480000BC00FB607FCFACFE889F989808185FF98
:10049000F5CFCE01A2DFF2CFEB8DEC0FFD2FF11DDA
:1004A000E35AFF4FF0829FB7F8940B8FEA89FB89DC
:1004B00080818062D0CFCF93DF93EC01888D882339
:1004C000B1F0AA89BB89E889F9898C9185FD03C0BF
:1004D000808186FD0CC00FB607FCF7CF8C9185FF9D
:1004E000F2CF808185FFEDCFCE0177DFEACFDF91BC
:1004F000CF91089580E090E0892B21F065DF811194
:100500000E94000080E090E0892B49F080E090E0BC
:10051000892B29F00E94000081110E94000080E0D8
:1005200090E0892B49F080E090E0892B29F00E942F
:10053000000081110E94000080E090E0892B49F0CA
:1005400080E090E0892B29F00E94000081110C943A
:10055000000008958150823108F05AC0E82FF0E081
:100560008827EA54FD4F8F4F0C942A0CD602DA02EA
:10057000C802CE02D2020803DD02E302E702ED0266
:10058000F102F502FB02FF020803030309030D0356
:10059000809180008F778093800008958091800003
:1005A0008F7DF9CF80918000877FF5CF84B58F77DD
:1005B00084BD089584B58F7DFBCF8091B0008F7787
:1005C0008093B00008958091B0008F7DF9CF809125
:1005D00090008F77809390000895809190008F7D98
:1005E000F9CF80919000877FF5CF8091A0008F7721
:1005F0008093A00008958091A0008F7DF9CF809115
:10060000A000877FF5CF809120018F778093200114
:100610000895809120018F7DF9CF80912001877FFF
:10062000F5CF1F93CF93DF93282F30E0F901E65BDE
:10063000FE4F8491F901E65FFD4FD491F901EC532F
:10064000FE4FC491CC23A1F0162F811183DFEC2F34
:10065000F0E0EE0FFF1FE057FE4FA591B4918FB76A
:10066000F894EC91111108C0D095DE23DC938FBF74
:10067000DF91CF911F910895DE2BF8CFFF920F935A
:100680001F93CF93DF9380910302882309F4ABC0BB
:1006900080910502882309F4A6C0809100079091FB
:1006A0000107019609F49FC0E091FC06F091FD0658
:1006B00080819181880F991F909347068093460609
:1006C00085819681880F991F90934B0680934A06E7
:1006D00082859385880F991F90934F0680934E06CD
:1006E00087859089880F991F9093530680935206AF
:1006F0006281F780F092020204850093080211895A
:1007000010930102C381D481D0931D07C0931C07AD
:100710008085918590931B0780931A078585968520
:1007200090931907809318078289938990931707EC
:100730008093160787E375DF6F2D8DE372DF602FDF
:1007400080E36FDF612F82E26CDFD0938900C0937A
:10075000880080911A0790911B07909399008093CD
:10076000980080911807909119079093A9008093A1
:10077000A800809116079091170790932901809304
:100780002801109203021092050244E150E030E08B
:1007900020E0809100079091010782179307ACF049
:1007A0002F5F3F4F8217930784F0E091FC06F09192
:1007B000FD06E40FF51FDF01549784E101900D92CF
:1007C0008A95E1F74C5E5F4FE4CF01979093010764
:1007D0008093000782E080936F0080937100809384
:1007E000720080937300DF91CF911F910F91FF9062
:1007F0000895CF93883789F0C62F893744F481361E
:10080000F9F0853641F461E06C2788E109C0893749
:1008100049F08A3759F0CF910895C1E06C2786E2FC
:10082000CF91FFCE61E06C2788E3FACF61E0C62765
:10083000C09300026C2F8EE3F4DE6C2F8EE1F0CFBC
:1008400088E7D7DF6C2F89E7D4DF6C2F8AE7D1DF09
:10085000DACF28E336E0FC01318320838281938163
:10086000009711F00C94CE0C0895CF93DF93EC0118
:10087000F0DFCE01DF91CF910C94CE0C1F920F923E
:100880000FB60F9211242F933F938F939F93AF93A3
:10089000BF938091590690915A06A0915B06B09142
:1008A0005C063091580623E0230F2D3758F501964A
:1008B000A11DB11D209358068093590690935A06A6
:1008C000A0935B06B0935C06809154069091550608
:1008D000A0915606B09157060196A11DB11D8093B7
:1008E000540690935506A0935606B0935706BF91B1
:1008F000AF919F918F913F912F910F900FBE0F90CD
:100900001F90189526E8230F0296A11DB11DD2CF86
:100910001F920F920FB60F9211240BB60F922F93C6
:100920003F934F935F936F937F938F939F93AF9377
:10093000BF93EF93FF938DE596E04FDDFF91EF912D
:10094000BF91AF919F918F917F916F915F914F91E7
:100950003F912F910F900BBE0F900FBE0F901F90E5
:1009600018951F920F920FB60F9211240BB60F928B
:100970002F938F939F93EF93FF93E0916D06F091E8
:100980006E068081E0917306F091740682FD1DC0B1
:100990009081809176068F5F8F7320917706821702
:1009A00041F0E0917606F0E0E35AF94F958F80939D
:1009B0007606FF91EF919F918F912F910F900BBE33
:1009C0000F900FBE0F901F9018958081F2CF1F924D
:1009D0000F920FB60F9211240BB60F920F931F9325
:1009E0002F933F934F935F936F937F938F939F9337
:1009F000AF93BF93CF93EF93FF9300915006109165
:100A0000510680915206909153068017910739F153
:100A1000C091090281E0C827C09309026C2F8AE1C6
:100A200000DECC2331F00F5F1F4F1093510600936F
:100A30005006FF91EF91CF91BF91AF919F918F9110
:100A40007F916F915F914F913F912F911F910F91E6
:100A50000F900BBE0F900FBE0F901F901895109225
:100A60007300E7CF1F920F920FB60F9211240BB6AF
:100A70000F920F931F932F933F934F935F936F9317
:100A80007F938F939F93AF93BF93CF93DF93EF9316
:100A9000FF93C0914C06D0914D0680914E069091E7
:100AA0004F068C179D0709F44EC0ECE5F1E08491E8
:100AB000ECE1F2E00491E6EDF1E01491112391F103
:100AC000811148DDE12FF0E0EE0FFF1FE05DFE4FEA
:100AD000A591B491EC91E02329F180910802811154
:100AE00021C01092720010924F0610924E06109282
:100AF0004D0610924C06FF91EF91DF91CF91BF917F
:100B0000AF919F918F917F916F915F914F913F91A5
:100B10002F911F910F910F900BBE0F900FBE0F9052
:100B20001F9018951091070281E018271093070273
:100B3000612F84E276DD1123F1F22196D0934D06E8
:100B4000C0934C06D8CF10927200D5CF1F920F924F
:100B50000FB60F9211240BB60F922F933F934F9322
:100B60005F936F937F938F939F93AF93BF93CF9335
:100B7000DF93EF93FF93C0914806D091490680918F
:100B80004A0690914B068C179D0711F16091060261
:100B900081E06827609306028CE343DD2196D093C1
:100BA0004906C0934806FF91EF91DF91CF91BF9125
:100BB000AF919F918F917F916F915F914F913F91F5
:100BC0002F910F900BBE0F900FBE0F901F90189596
:100BD0001092710081E080930502109249061092F4
:100BE00048064CDDE0CF1F920F920FB60F921124F2
:100BF0000BB60F922F933F934F935F936F937F9317
:100C00008F939F93AF93BF93CF93DF93EF93FF9314
:100C1000C0914406D09145068091460690914706C2
:100C20008C179D0711F16091040281E068276093A1
:100C3000040286E3F6DC2196D0934506C093440671
:100C4000FF91EF91DF91CF91BF91AF919F918F91E4
:100C50007F916F915F914F913F912F910F900BBEBC
:100C60000F900FBE0F901F90189510926F0081E0AB
:100C7000809303021092450610924406FFDCE0CFF9
:100C8000CF93DF93EDE5F6E01382128288EE93E0D6
:100C9000A0E0B0E084839583A683B78386E296E0E4
:100CA0009183808385EC90E09587848784EC90E045
:100CB0009787868780EC90E0918B808B81EC90E029
:100CC000938B828B82EC90E0958B848B86EC90E00A
:100CD000978B868B118E128E138E148E80910A0242
:100CE00090910B0290931D0780931C0790931B0714
:100CF00080931A079093190780931807909317070A
:100D000080931607CAEFD6E088E396E0998388833C
:100D100090E080E0A7D59B838A832FEF3FEF3F834E
:100D20002E839D838C83DF91CF910895CF93DF93A2
:100D3000CDB7DEB766970FB6F894DEBF0FBECDBF56
:100D4000789484B5826084BD84B5816084BD85B5A6
:100D5000826085BD85B5816085BD80916E008160B2
:100D600080936E0010928100809181008260809358
:100D7000810080918100816080938100809180005A
:100D80008160809380008091B10084608093B10085
:100D90008091B00081608093B0008091910082606A
:100DA0008093910080919100816080939100809167
:100DB00090008160809390008091A1008260809378
:100DC000A1008091A10081608093A1008091A0008A
:100DD00081608093A0008091210182608093210135
:100DE00080912101816080932101809120018160A7
:100DF0008093200180917A00846080937A008091B2
:100E00007A00826080937A0080917A00816080937A
:100E10007A0080917A00806880937A001092C100F5
:100E200086E349DA87E347DA86E245DA1092800002
:100E30001AE01093810010928200F0E9EF2EFF2457
:100E4000F394F0928900E09288008CE334DA8DE329
:100E500032DA88E330DA1092900010939100109209
:100E60009200F0929900E09298008EE224DA8DE3ED
:100E700022DA88E320DA84E21EDA82E21CDA8EE1EA
:100E80001ADA1092A0001093A1001092A200F09222
:100E9000A900E092A8008AE10EDA8CE10CDA88E180
:100EA0000ADA10922001109321011092220180E2AF
:100EB00093E0909329018093280161E081E699DC19
:100EC000E0916D06F0916E0682E08083E091690604
:100ED000F0916A061082E0916B06F0916C068FEC3F
:100EE000808310927506E0917106F091720686E09B
:100EF0008083E0916F06F09170068081806180832D
:100F0000E0916F06F0917006808188608083E091A7
:100F10006F06F0917006808180688083E0916F0693
:100F2000F091700680818F7D8083A2E12A2EA2E05D
:100F30003A2EF1012481358146815781648575857A
:100F400086859785B7D12B013C01F1012081318144
:100F5000428153816085718582859385ABD14B0138
:100F60005C0120E030E048EC52E4E7D36B017C0107
:100F700020E030E0A901D6D318160CF0F4C020E030
:100F800030E040E05FE3C701B60195D1C7D27E8B68
:100F90006D8B20E030E048EC52E4C301B201CDD3C8
:100FA0006B017C0120E030E0A901BCD318160CF0E5
:100FB000E2C020E030E040E05FE3C701B6017BD152
:100FC000ADD26B0120E030E0A901C501B40139D2F6
:100FD000881F8827881FEE24E394E82620E030E06D
:100FE000A901C301B2012DD2881F8827881FFF24C1
:100FF000F394F82665E172E070930B0260930A02A5
:1010000020E030E0A901C501B4011BD2882309F416
:10101000C2C020E030E0A901C301B20112D288238E
:1010200009F4B9C0A3019201C501B401B7D14B01C4
:101030005C010BD220E030E445E054E47ED32B0188
:101040003C0120E030E0A9016DD318160CF09BC0E4
:10105000C301B20163D28B01C501B401D1D320E039
:1010600030E445E054E469D34B015C0120E030E01A
:10107000A90158D318160CF08AC0C501B4014ED28C
:101080008D899E899A838983EB821D830C83DF82FD
:10109000CE82F8867A8769871C861B8691E09D87B9
:1010A000E5E1F2E0FF87EE87198A188A9A8BFC8BBC
:1010B000EB8B2091000730910107A9014E5F5F4F34
:1010C000C090FC06D090FD068091FE069091FF0630
:1010D0008C199D099595879595958795EDECFCEC78
:1010E0008E9FB0018F9F700D9E9F700D112464170D
:1010F00075070CF068C0C9010196880F991F841705
:1011000095070CF4CA01281739073CF09C012150BF
:1011100031093093010720930007F4E1F89F800123
:10112000F99F100D112487369640D0F18FEF9FEF75
:1011300099D35C01080F191F809000079090010758
:10114000960150E040E08416950664F164E1F901EF
:10115000DC0101900D926A95E1F74F5F5F4F2C5EC5
:101160003F4F4496F0CFA701960160E070E080E029
:101170009FE3A0D00BCFA701960160E070E080E074
:101180009FE398D01DCFC301B201905863CFC50132
:10119000B401905874CF65E172E005E112E070CFC0
:1011A000C801C6CFC114D10411F0C601F7D3B09263
:1011B000FD06A092FC061093FF060093FE06909297
:1011C0000107809200078091FC069091FD064091F6
:1011D0000007509101072091FE063091FF06281B61
:1011E000390B35952795359527956DEC7CEC269F29
:1011F0008001279F100D369F100D1124041B150B25
:10120000023011050CF050C00150110974E1709FBB
:101210006001719FD00C11244F5F5F4F749F90014C
:10122000759F300D1124A601BE016F5F7F4F820FA5
:10123000931F3DD481E090E0801B910BE4E1E89F97
:10124000A001E99F500D112461E070E06C0F7D1F3B
:101250006C0D7D1D8091FC069091FD0628D4809137
:101260000007909101070196909301078093000772
:10127000F8E02F0E311C6AE775E06215730509F07E
:1012800058CE43E050E06CE376E08DE596E032D84E
:1012900042E050E060E476E08DE596E02BD882E015
:1012A00080936F0027D9FECF01E010E0AFCF8AEF27
:1012B00096E0CFCA5058BB27AA270ED0E8C1B1D1BB
:1012C00030F0B6D120F031F49F3F11F41EF481C10B
:1012D0000EF4E095E7FB77C1E92FFBD180F3BA1755
:1012E000620773078407950718F071F49EF513C21F
:1012F0000EF4E0950B2EBA2FA02D0B01B901900131
:101300000C01CA01A0011124FF27591B99F0593F74
:1013100050F4503E68F11A16F040A22F232F342FBC
:101320004427585FF3CF469537952795A795F0400A
:101330005395C9F77EF41F16BA0B620B730B840B1F
:10134000BAF09150A1F0FF0FBB1F661F771F881FD7
:10135000C2F70EC0BA0F621F731F841F48F487952F
:1013600077956795B795F7959E3F08F0B3CF93951E
:10137000880F08F09927EE0F97958795089551D11A
:1013800058F080E891E009F49EEF52D128F040E84F
:1013900051E059F45EEF09C01CC1BDC1E92FE078EE
:1013A00098D168F3092E052AC1F326173707480795
:1013B000590738F00E2E07F8E02569F0E025E064C3
:1013C0000AC0EF6307F8009407FADB01B9019D0139
:1013D000DC01CA01AD01EF9348D059D10AD05F9129
:1013E000552331F02BED3FE049E450FD49EC63CF4C
:1013F0000895DF93DD27B92FBF7740E85FE3161626
:10140000170648075B0710F4D92F90D19F938F934D
:101410007F936F93FBD1E4EEF0E0DED038D12F91D3
:101420003F914F915F9195D1DD2349F09058A2EA09
:101430002AED3FE049EC5FE3D0785D274DDFDF9197
:1014400026C19DD008F481E00895FAD0E39530C11B
:10145000EFD040F0E6D030F021F45F3F19F0B3C098
:1014600051115AC1B6C035D198F39923C9F3552308
:10147000B1F3951B550BBB27AA2762177307840787
:1014800038F09F5F5F4F220F331F441FAA1FA9F33D
:1014900033D00E2E3AF0E0E830D091505040E6952F
:1014A000001CCAF729D0FE2F27D0660F771F881F90
:1014B000BB1F261737074807AB07B0E809F0BB0B7F
:1014C000802DBF01FF2793585F4F2AF09E3F5105A3
:1014D00068F079C021C15F3FECF3983EDCF386955C
:1014E00077956795B795F7959F5FC9F7880F911D19
:1014F0009695879597F90895E1E0660F771F881F05
:10150000BB1F621773078407BA0720F0621B730BB7
:10151000840BBA0BEE1F88F7E095089504D0689409
:10152000B111FAC00895DDD088F09F5790F0B92F1F
:101530009927B751A0F0D1F0660F771F881F991F28
:101540001AF0BA95C9F712C0B13081F0E4D0B1E019
:101550000895E1C0672F782F8827B85F39F0B93F29
:10156000CCF3869577956795B395D9F73EF490952A
:101570008095709561957F4F8F4F9F4F0895990F7C
:101580000008550FAA0BE0E8FEEF16161706E8074D
:10159000F907C0F012161306E407F50798F0621B6E
:1015A000730B840B950B39F40A2661F0232B242B43
:1015B000252B21F408950A2609F4A140A6958FEF62
:1015C000811D811D089597F99F6780E870E060E0B4
:1015D00008959FEF80EC0895DF93CF931F930F93AF
:1015E000FF92EF92DF927B018C01689405C0DA2EA6
:1015F000EF01AFD0FE01E894A59125913591459179
:101600005591AEF3EF0168DEFE019701A801DA946F
:1016100079F7DF90EF90FF900F911F91CF91DF91BD
:10162000089500240A941616170618060906089548
:1016300000240A9412161306140605060895C9CF4D
:1016400050D0E8F3E894E0E0BB279F57F0F02AED94
:101650003FE049EC06C0EE0FBB0F661F771F881FE7
:1016600028F0B23A62077307840728F0B25A620B77
:10167000730B840BE3959A9572F7803830F49A9542
:10168000BB0F661F771F881FD2F79048C6C0092E70
:101690000394000C11F4882352F0BB0F40F4BF2BCD
:1016A00011F460FF04C06F5F7F4F8F4F9F4F08950D
:1016B000EF93E0FF06C0A2EA2AED3FE049EC5FEBC2
:1016C0000BDEE5DF0F90039401FC9058E1E1F1E0BF
:1016D000B0C057FD9058440F551F59F05F3F71F04F
:1016E0004795880F97FB991F61F09F3F79F0879589
:1016F0000895121613061406551FF2CF4695F1DF12
:1017000008C0161617061806991FF1CF86957105A1
:10171000610508940895E894BB2766277727CB01D5
:1017200097F908952CDF08F48FEF08959B01AC0121
:1017300060E070E080E89FE36CC00BD0A8CF71DF61
:1017400028F076DF18F0952309F03DCF42CF112421
:10175000E3CFBFDFA0F3959FD1F3950F50E0551F66
:10176000629FF001729FBB27F00DB11D639FAA27F6
:10177000F00DB11DAA1F649F6627B00DA11D661F45
:10178000829F2227B00DA11D621F739FB00DA11D66
:10179000621F839FA00D611D221F749F3327A00D20
:1017A000611D231F849F600D211D822F762F6A2FBC
:1017B00011249F5750408AF0E1F088234AF0EE0F41
:1017C000FF1FBB1F661F771F881F91505040A9F74E
:1017D0009E3F510570F0F7CE9FCF5F3FECF3983EF0
:1017E000DCF3869577956795B795F795E7959F5FB5
:1017F000C1F7FE2B880F911D9695879597F908954F
:101800009F931EDF0F9007FCEE5F52CF9B01AC0150
:1018100094CF29DE3CCF9F3F31F0915020F4879543
:1018200077956795B795880F911D9695879597F948
:1018300008959F938F937F936F93FF93EF939B01F3
:10184000AC017BDFEF91FF91C7DE2F913F914F916C
:101850005F9173CFEE0FFF1F881F8BBF0790F6912C
:10186000E02D19940F931F93CF93DF93823091054E
:1018700010F482E090E0E0912007F091210730E041
:1018800020E0B0E0A0E0309799F42115310509F48B
:101890004AC0281B390B24303105D8F58A819B8139
:1018A0006115710589F1FB0193838283FE0111C0EB
:1018B000408151810281138148175907E0F0481790
:1018C000590799F4109761F012960C93129713969A
:1018D0001C933296CF01DF91CF911F910F91089504
:1018E0000093200710932107F4CF2115310551F003
:1018F0004217530738F0A901DB019A01BD01DF014E
:10190000F801C1CFEF01F9CF909321078093200711
:10191000CDCFFE01E20FF31F819391932250310945
:1019200039832883D7CF20911E0730911F07232B9F
:1019300041F420910E0230910F0230931F07209343
:101940001E0720910C0230910D022115310541F442
:101950002DB73EB74091100250911102241B350B58
:10196000E0911E07F0911F07E217F307A0F42E1B6A
:101970003F0B2817390778F0AC014E5F5F4F2417F3
:10198000350748F04E0F5F1F50931F0740931E0707
:10199000819391939FCFF0E0E0E09CCFCF93DF93D2
:1019A0000097E9F0FC01329713821282A091200780
:1019B000B0912107ED0130E020E01097A1F42081E3
:1019C0003181820F931F20911E0730911F07281726
:1019D000390709F061C0F0931F07E0931E07DF91FC
:1019E000CF910895EA01CE17DF07E8F54A815B81C0
:1019F0009E0141155105B1F7E901FB83EA83499145
:101A00005991C40FD51FEC17FD0761F480819181B6
:101A10000296840F951FE9019983888382819381BF
:101A20009B838A83F0E0E0E012968D919C9113975E
:101A30000097B9F52D913C911197CD010296820F37
:101A4000931F20911E0730911F072817390739F679
:101A5000309751F51092210710922007B0931F077D
:101A6000A0931E07BCCFD383C28340815181840FD2
:101A7000951FC817D90761F44E5F5F4F8881998120
:101A8000480F591F518340838A819B8193838283AE
:101A90002115310509F0B0CFF0932107E09320071D
:101AA0009ECFFD01DC01C0CF13821282D7CFFB0194
:101AB000DC0102C001900D9241505040D8F70895CA
:101AC00011E0C9E2D1E000E005C0802FFE01C2DED6
:101AD0002196011DCA32D10780E00807B1F7F894BA
:021AE000FFCF36
:101AE20001010101010101010101BC020000220703
:101AF20080003789844206C1A442D30D85421B6F00
:101B0200A4428D9785426025A442DD2486425AE490
:101B1200A34246B6864208ACA342444B87426A7C43
:101B2200A3424EE287428756A342647B8842DB3956
:101B3200A34287168942E926A3422DB289422F1D6C
:101B4200A342E92603432F1DA342BC740343E926A3
:101B5200A3424EC20343DB39A342D90E0443875644
:101B6200A3425E5A04436A7CA342DDA4044308AC48
:101B7200A34291ED04435AE4A3423934054360255C
:101B8200A442177905431B6FA44264BB054306C1F7
:101B9200A442E1FA0543231BA542CF370643EE7C5C
:101BA200A5426871064366E6A542AEA706430456FF
:101BB200A6425EDA0643CDCCA6423709074337492F
:101BC200A7427B34074344CBA742645B0743EC51F3
:101BD200A842357E0743B2DDA8426A9C0743916D55
:101BE200A94287B607438300AA42C7CB0743879619
:101BF200AA426ADC0743982EAB4273E80743B4C893
:101C0200AB429EEF07435A64AC42ECF1074300003B
:101C1200AD429EEF0743A69BAD4273E807434C37A4
:101C2200AE426ADC074368D1AE42C7CB074379694B
:101C3200AF4287B607437DFFAF426A9C07436F926C
:101C4200B042357E07434E22B142645B074314AE75
:101C5200B1427B340743BC34B24237090743C9B6A9
:101C6200B2425EDA06433333B342FCA906435AA4B6
:101C7200B3429A3906438380B4423974CE42FA7E23
:101C8200EA42C3F5CD425AE4EA42C976CD42773EF2
:101C9200EB422DF2CC42E590EB427368CC42A0DAE3
:101CA200EB4223DBCB42A61BEC42BA49CB42F853B0
:101CB200EC42BCB4CA429683EC42B21DCA4279A934
:101CC200EC429C84C94225C6EC4279E9C84217D944
:101CD200EC42D34DC842D1E2EC422DB2C742D1E22E
:101CE200EC428716C74217D9EC42647BC64225C62E
:101CF200EC424EE2C54279A9EC42444BC54296837E
:101D0200EC4246B6C442F853EC42DD24C442A61B60
:101D1200EC428D97C342A0DAEB42D30DC342E59069
:101D2200EB423789C242773EEB42C10AC242DDE44E
:101D3200EA425879C1421B6FEA42CD8C83428380CA
:101D4200B44208AC82425AA4B342444B8242333377
:101D5200B34291ED8142C9B6B2420A978142BC3484
:101D6200B2423749814214AEB142960381424E22B9
:101D7200B1422BC780426F92B042F29280427DFF05
:101D8200AF42736880427969AF422B47804268D183
:101D9200AE421B2F80424C37AE42C5208042A69BEA
:101DA200AD42291C80420000AD42C52080425A64E7
:101DB200AC421B2F8042B4C8AB422B478042982EC4
:101DC200AB42736880428796AA42F29280428300B5
:101DD200AA422BC78042916DA94296038142B2DD8D
:101DE200A84237498142EC51A8420A97814244CB2A
:101DF200A74291ED81423749A742444B8242CDCC62
:101E0200A642A4B082420456A6422F1D834266E631
:101E1200A54262908342717DA5423D0A8442231B02
:101E2200A542082C83423FF5A34271BD8342D38D64
:101E3200A342815584429E2FA34233F3844223DB83
:101E4200A242819585426290A242E73B8642DF4FE1
:101E5200A242E3E586421D1AA2427593874214EE1E
:101E6200A14200000000000000000000000000008D
:101E72000000000000000000000000000000000060
:101E82000000000000000000000000000000000050
:101E92000000000000000000000000000000000040
:101EA2000000000000000000000000000000000030
:101EB2000000000000000000000000000000000020
:101EC2000000000000000000000000000000000010
:101ED2000000000000000000000000000000000000
:101EE20000000000000000000000000000000000F0
:101EF20000000000000000000000000000000000E0
:101F02000000000000000F027A01A7015B02D80165
:101F1200B601CA01000000002904350472756E0082
:041F22000D0A0000A4
:020000023000CC
:10E000000D9489F10D94B2F10D94B2F10D94B2F129
:10E010000D94B2F10D94B2F10D94B2F10D94B2F1F0
:10E020000D94B2F10D94B2F10D94B2F10D94B2F1E0
:10E030000D94B2F10D94B2F10D94B2F10D94B2F1D0
:10E040000D94B2F10D94B2F10D94B2F10D94B2F1C0
:10E050000D94B2F10D94B2F10D94B2F10D94B2F1B0
:10E060000D94B2F10D94B2F10D94B2F10D94B2F1A0
:10E070000D94B2F10D94B2F10D94B2F10D94B2F190
:10E080000D94B2F10D94B2F10D94B2F10D94B2F180
:10E090000D94B2F10D94B2F10D94B2F10D94B2F170
:10E0A0000D94B2F10D94B2F10D94B2F10D94B2F160
:10E0B0000D94B2F10D94B2F10D94B2F10D94B2F150
:10E0C0000D94B2F10D94B2F10D94B2F10D94B2F140
:10E0D0000D94B2F10D94B2F10D94B2F10D94B2F130
:10E0E0000D94B2F141546D656761323536300041AF
:10E0F000726475696E6F206578706C6F72657220DE
:10E1000073746B3530305632206279204D4C530099
:10E11000426F6F746C6F616465723E004875683F52
:10E1200000436F6D70696C6564206F6E203D200048
:10E130004350552054797065202020203D20005FF9
:10E140005F4156525F415243485F5F3D2000415658
:10E1500052204C696243205665723D20004743437C
:10E160002056657273696F6E203D20004350552024
:10E1700049442020202020203D20004C6F7720663D
:10E18000757365202020203D20004869676820665F
:10E190007573652020203D200045787420667573D6
:10E1A00065202020203D20004C6F636B2066757336
:10E1B000652020203D20004D617220203720323024
:10E1C000313300312E362E3800342E332E350056A2
:10E1D00023202020414444522020206F7020636F70
:10E1E00064652020202020696E73747275637469E1
:10E1F0006F6E2061646472202020496E74657272B3
:10E20000757074006E6F20766563746F7200726A49
:10E210006D702020006A6D70200057686174207056
:10E220006F72743A00506F7274206E6F7420737541
:10E2300070706F72746564004D7573742062652030
:10E2400061206C6574746572002000577269747483
:10E25000696E672045450052656164696E672045B7
:10E26000450045452065727220636E743D00504F35
:10E27000525400303D5A65726F2061646472003FF1
:10E280003D43505520737461747300403D454550C3
:10E29000524F4D207465737400423D426C696E6B41
:10E2A000204C454400453D44756D70204545505215
:10E2B0004F4D00463D44756D7020464C415348001B
:10E2C000483D48656C70004C3D4C69737420492F83
:10E2D0004F20506F72747300513D51756974005234
:10E2E0003D44756D702052414D00563D73686F7707
:10E2F00020696E7465727275707420566563746FF0
:10E30000727300593D506F727420626C696E6B00BD
:10E310002A0011241FBECFEFD1E2DEBFCDBF01E046
:10E320000CBF12E0A0E0B2E0EEE1FDEF03E00BBFB6
:10E3300002C007900D92A030B107D9F712E0A0E01B
:10E34000B2E001C01D92AE30B107E1F70F9460F367
:10E350000D948DFE01E20EBF0FEF0DBF11241FBE05
:10E360000D9460F30D9400F020E030E040ED57E0B4
:10E3700005C0FA013197F1F72F5F3F4F2817390792
:10E38000C0F308959C01260F311DC901A0E0B0E043
:10E390002F5F3F4FABBFFC018791882361F08093D3
:10E3A000C6008091C00086FFFCCF8091C0008064D1
:10E3B0008093C000EACF08958DE08093C6008091DD
:10E3C000C00086FFFCCF8091C00080648093C000B5
:10E3D0008AE08093C6008091C00086FFFCCF8091C8
:10E3E000C00080648093C00008950F94C2F10F9420
:10E3F000DCF10895FC019081992359F09093C600B7
:10E400008091C00086FFFCCF8091C0008064809323
:10E41000C0003196992379F70895282F982F929567
:10E420009F70892F805D8A3308F0895F8093C600D2
:10E430008091C00086FFFCCF8091C00080648093F3
:10E44000C000822F8F70982F905D9A3308F0995FEB
:10E450009093C6008091C00086FFFCCF8091C000E1
:10E4600080648093C00008959C01FB01853691056E
:10E470001CF46330710594F0C90164E670E00F94F8
:10E480002EFE605D7F4F6093C6008091C00086FFC6
:10E49000FCCF8091C00080648093C0002B30310598
:10E4A00014F43297B4F0C90164E670E00F942EFEC4
:10E4B0006AE070E00F942EFE605D7F4F6093C600AF
:10E4C0008091C00086FFFCCF8091C0008064809363
:10E4D000C000C9016AE070E00F942EFEC0968093E0
:10E4E000C6008091C00086FFFCCF8091C000806490
:10E4F0008093C00008951F93182F8EE692EE60E07F
:10E500000F94C2F11093C6008091C00086FFFCCF2B
:10E510008091C00080648093C0000F94DCF11F9153
:10E5200008952F923F924F925F926F927F928F92B7
:10E530009F92AF92BF92CF92DF92EF92FF920F9392
:10E540001F93DF93CF93CDB7DEB762970FB6F894E2
:10E55000DEBF0FBECDBF382E622ECA01DB015C01CB
:10E560006D01772420E2222E2E010894411C511CBB
:10E570008BC081E0A81680E0B80681E0C80680E084
:10E58000D80628F0C601AA27BB270F940DF2BB2797
:10E59000AD2D9C2D8B2D0F940DF28A2D0F940DF225
:10E5A0002092C6008091C00086FFFCCF8091C00001
:10E5B00080648093C0009DE29093C6008091C0006B
:10E5C00086FFFCCF8091C00080648093C0002092C1
:10E5D000C6008091C00086FFFCCF8091C00080649F
:10E5E0008093C00019828601750188249924A1E0D6
:10E5F0003A1651F03A1620F0B2E03B1661F409C029
:10E600000BBFF701779007C0C7010F9477FE782EF4
:10E6100002C0F7017080872D0F940DF22092C60082
:10E620008091C00086FFFCCF8091C0008064809301
:10E63000C000872D8052F401EF70F0708F3520F408
:10E64000E40DF51D708204C0E40DF51D8EE280839B
:10E650000894E11CF11C011D111D0894811C911CE2
:10E6600090E18916910409F0C2CF80E190E0A0E02A
:10E67000B0E0A80EB91ECA1EDB1E198AC2010F9493
:10E68000FAF10F94DCF16A94662009F072CF629679
:10E690000FB6F894DEBF0FBECDBFCF91DF911F91B3
:10E6A0000F91FF90EF90DF90CF90BF90AF909F9031
:10E6B0008F907F906F905F904F903F902F90089534
:10E6C0002F923F924F925F926F927F928F929F9282
:10E6D000AF92BF92CF92DF92EF92FF920F931F9370
:10E6E000DF93CF93CDB7DEB7CD53D1400FB6F894BB
:10E6F000DEBF0FBECDBF01E20EBF0FEF0DBF94B75F
:10E70000F894A89514BE80916000886180936000A1
:10E7100010926000789493FF05C0E0910002F091A0
:10E7200001021995279A2F9A8091C00082608093E8
:10E73000C00080E18093C40088E18093C1000000A4
:10E74000EE24FF24870144E0A42EB12CCC24DD2448
:10E7500024C0C5010197F1F70894E11CF11C011DCB
:10E76000111D21E2E2162EE4F20620E0020720E06D
:10E77000120718F031E0C32ED12CC801B70127ECE5
:10E780003BE140E050E00F9441FE611571058105C9
:10E79000910519F485B1805885B98091C00087FD35
:10E7A00003C0C114D104A9F2A6014F5F5F4FC25E3E
:10E7B000DE4F59834883CE51D140C25EDE4F8881FF
:10E7C0009981CE51D140019711F00D9410FEC05D9A
:10E7D000DE4F19821882C053D14060E0C15DDE4F28
:10E7E0001882CF52D14088249924C35DDE4F19820C
:10E7F0001882CD52D140C05EDE4F188219821A8233
:10E800001B82C052D140CE5CDE4F188219821A8220
:10E810001B82C253D140EE24FF2487010BBFF701B6
:10E8200007911691C45CDE4F19830883CC53D14005
:10E830000D940BFEC25EDE4F28813981CE51D1404E
:10E840002130310509F52091C600C25EDE4F1982E4
:10E850001882CE51D14022C02F5F3F4F4F4F5F4FA4
:10E86000213082E138078AE7480780E0580780F0C6
:10E87000C45CDE4FE881F981CC53D140EF5FFF4F9C
:10E8800019F0EE27FF27099420E030E040E050E047
:10E890008091C00087FFE0CF2091C600C35DDE4FAE
:10E8A00048815981CD52D1404F5F5F4FC35DDE4FEC
:10E8B00059834883CD52D140213209F063C64A3092
:10E8C000510508F05FC60894811C911C53E0851621
:10E8D000910409F059C600E010E018C081E280936D
:10E8E000C6008091C00086FFFCCF8091C00080648C
:10E8F0008093C0002F5F3F4F2931310579F70F9486
:10E90000DCF10F5F1F4F0530110519F020E030E0FA
:10E91000E5CF10920A0210920B0210920C02109294
:10E920000D02109206021092070210920802109235
:10E930000902109202021092030210920402109235
:10E9400005028FEE90EE60E00F94F5F180E191EE1C
:10E9500060E00F94C2F18091C00087FFFCCF9091DE
:10E96000C600903608F09F759032B8F09093C600BC
:10E970008091C00086FFFCCF8091C00080648093AE
:10E98000C000A0E2A093C6008091C00086FFFCCF2B
:10E990008091C00080648093C000983409F4D7C18E
:10E9A0009934B8F4923409F459C1933458F490333B
:10E9B00019F1903308F4E3C59F33A1F1903409F0C5
:10E9C000DEC5BDC0953409F470C1963409F0D7C5D1
:10E9D00098C1923509F42BC2933538F49C3409F46C
:10E9E000F5C1913509F0CBC518C2963509F445C279
:10E9F000993509F0C4C567C483E792EE62E00F94CD
:10EA0000F5F110920602109207021092080210927D
:10EA1000090210920A0210920B0210920C0210923C
:10EA20000D0213C18FE792EE62E00F94F5F18FEEC5
:10EA300090EE60E00F94F5F181E291EE60E00F94CA
:10EA4000C2F187EB91EE60E00F94F5F180E391EE77
:10EA500060E00F94C2F184EE90EE60E00F94F5F167
:10EA60008FE391EE60E00F94C2F186E090E061E008
:10EA700070E00F9434F20F94DCF18DE591EE60E0DC
:10EA80000F94C2F189EC91EE60E00F94F5F18EE401
:10EA900091EE60E00F94C2F183EC91EE60E00F9490
:10EAA000F5F18CE691EE60E00F94C2F18EE10F94E7
:10EAB0000DF288E90F940DF281E00F940DF20F949E
:10EAC000DCF18BE791EE60E00F94C2F119E0E0E039
:10EAD000F0E010935700E4918E2F0F940DF20F94F5
:10EAE000DCF18AE891EE60E00F94C2F1E3E0F0E03F
:10EAF00010935700E4918E2F0F940DF20F94DCF1D8
:10EB000089E991EE60E00F94C2F1E2E0F0E0109349
:10EB10005700E4918E2F0F940DF20F94DCF188EAE8
:10EB200091EE60E00F94C2F1E1E0F0E01093570045
:10EB30001491812F0F940DF20F94DCF107CF8BE825
:10EB400092EE62E00F94F5F18BE492EE60E00F94A8
:10EB5000F5F10F94DCF100E010E019C0C8016F2D51
:10EB60000F947FFEFF2031F489E492EE60E00F9471
:10EB7000C2F10BC0F092C6008091C00086FFFCCFAE
:10EB80008091C00080648093C0000F5F1F4FC80158
:10EB900081519F41A0E0B0E0ABBFFC01F790BAE229
:10EBA000FB1621F0E2E000301E07C1F60F94DCF105
:10EBB0000F94DCF187E592EE60E00F94F5F10F948D
:10EBC000DCF1CC24DD2400E010E01EC0C8010F946D
:10EBD00077FEF82E882331F489E492EE60E00F94FA
:10EBE000C2F10BC08093C6008091C00086FFFCCFAD
:10EBF0008091C00080648093C000FE1419F00894D6
:10EC0000C11CD11C0F5F1F4FC80181519F41A0E063
:10EC1000B0E0ABBFFC01E790FAE2EF1621F022E092
:10EC20000030120799F60F94DCF10F94DCF182E6C4
:10EC300092EE60E00F94C2F1C60161E070E00F94C3
:10EC400034F20F94DCF10F94DCF110920202109276
:10EC50000302109204021092050278CE89E992EE26
:10EC600062E00F94F5F1279A2F9A16C02F9880E052
:10EC700090E0E0EDF7E03197F1F7019684369105E9
:10EC8000C1F72F9A80E090E0E0EDF7E03197F1F7DF
:10EC9000019684369105C1F78091C00087FFE6CFC9
:10ECA0008091C00087FFFCCF64C485EA92EE62E0E9
:10ECB0000F94F5F140910202509103026091040219
:10ECC0007091050281E020E10F9491F2809102029F
:10ECD00090910302A0910402B091050280509F4FD1
:10ECE000AF4FBF4F8093020290930302A0930402A0
:10ECF000B093050280509041A040B04008F426CE69
:10ED0000A4CF83EB92EE62E00F94F5F140910602FE
:10ED100050910702609108027091090280E020E1A1
:10ED20000F9491F28091060290910702A09108023F
:10ED3000B091090280509F4FAF4FBF4F80930602A2
:10ED400090930702A0930802B0930902FFCD80ECD4
:10ED500092EE62E00F94F5F183E792EE60E00F949B
:10ED6000F5F18FE792EE60E00F94F5F18BE892EE0B
:10ED700060E00F94F5F189E992EE60E00F94F5F10F
:10ED800085EA92EE60E00F94F5F183EB92EE60E09D
:10ED90000F94F5F180EC92EE60E00F94F5F187ECC2
:10EDA00092EE60E00F94F5F188ED92EE60E00F9442
:10EDB000F5F18FED92EE60E00F94F5F18AEE92EEB0
:10EDC00060E00F94F5F183E093EEBDCD87EC92EE19
:10EDD00062E00F94F5F181E40F947BF282E40F94EA
:10EDE0007BF283E40F947BF284E40F947BF285E45E
:10EDF0000F947BF286E40F947BF287E40F947BF20E
:10EE000088E40F947BF28AE40F947BF28BE40F94F6
:10EE10007BF28CE40F947BF299CD88ED92EE62E068
:10EE20000F94F5F1772473948824992409C48FED05
:10EE300092EE62E00F94F5F140910A0250910B02BC
:10EE400060910C0270910D0282E020E10F9491F22A
:10EE500080910A0290910B02A0910C02B0910D02D8
:10EE600080509F4FAF4FBF4F80930A0290930B0289
:10EE7000A0930C02B0930D0269CD8AEE92EE62E08F
:10EE80000F94F5F184EE90EE60E00F94F5F18FECC5
:10EE900091EE60E00F94F5F1662477244301CC5D98
:10EEA000DE4F19821882C452D140D401C301B695F5
:10EEB000A79597958795CA5DDE4F88839983AA8326
:10EEC000BB83C652D140CC5DDE4FA881B981C4520C
:10EED000D1401196CC5DDE4FB983A883C452D14096
:10EEE000CD0162E070E00F9434F2B0E2B093C6005E
:10EEF0008091C00086FFFCCF8091C0008064809329
:10EF0000C000EDE2E093C6008091C00086FFFCCF18
:10EF10008091C00080648093C000F0E2F093C6004E
:10EF20008091C00086FFFCCF8091C00080648093F8
:10EF3000C000CA5DDE4FE880F9800A811B81C6529D
:10EF4000D140BB27A12F902F8F2D0F940DF2CA5DBA
:10EF5000DE4F8881C652D1400F940DF2B0E2FB2EF5
:10EF6000F092C6008091C00086FFFCCF8091C00067
:10EF700080648093C0000DE30093C6008091C000C0
:10EF800086FFFCCF8091C00080648093C00010E2B7
:10EF90001093C6008091C00086FFFCCF8091C00016
:10EFA00080648093C0008BBEF3012791C65DDE4F65
:10EFB0002883CA52D140A22EBB24CC24DD2408943D
:10EFC000611C711C811C911C8BBEF3018791282E42
:10EFD0003324442455240894611C711C811C911C09
:10EFE0008BBEF3013791C55DDE4F3883CB52D140E4
:10EFF0000894611C711C811C911C8BBEF30147910C
:10F00000C45DDE4F4883CC52D140ADEFEA2EAFEF66
:10F01000FA2EAFEF0A2FAFEF1A2F6E0C7F1C801E57
:10F02000911E142D032DF22CEE24EA0CFB1C0C1D5A
:10F030001D1D0F940DF220E22093C6008091C000A8
:10F0400086FFFCCF8091C00080648093C000C65DC5
:10F05000DE4F8881CA52D1400F940DF230E23093D6
:10F06000C6008091C00086FFFCCF8091C000806404
:10F070008093C000C45DDE4F8881CC52D1400F9494
:10F080000DF240E24093C6008091C00086FFFCCFA5
:10F090008091C00080648093C000C55DDE4F888190
:10F0A000CB52D1400F940DF250E25093C6008091A4
:10F0B000C00086FFFCCF8091C00080648093C000B8
:10F0C0008FEFE8168FEFF80680E0080780E018075A
:10F0D00031F484E092EE60E00F94C2F1DFC0D80119
:10F0E000C7018070907CA070B0708050904CA040A0
:10F0F000B040D1F52FEF3FE340E050E0E222F322B1
:10F1000004231523CA5DDE4FA880B980CA80DB8046
:10F11000C652D140AE0CBF1CC01ED11EAA0CBB1CD7
:10F12000CC1CDD1C8EE092EE60E00F94C2F1BB2798
:10F13000A12F902F8F2D0F940DF28E2D0F940DF285
:10F1400030E23093C6008091C00086FFFCCF8091F2
:10F15000C00080648093C0004EE34093C60080915D
:10F16000C00086FFFCCF87C08EE09EEFA0E0B0E03D
:10F17000E822F9220A231B239CE0E91694E9F90608
:10F1800090E0090790E0190709F088C0C45DDE4FE0
:10F19000A881CC52D140EA2EFF2400E010E0102FCD
:10F1A0000F2DFE2CEE24C55DDE4FB881CB52D14031
:10F1B000EB0EF11C011D111DD601C501817090706F
:10F1C000A070B070DC0199278827E80EF91E0A1F8D
:10F1D0001B1F20EF30E040E050E0A222B322C42207
:10F1E000D52241E1AA0CBB1CCC1CDD1C4A95D1F7F1
:10F1F000EA0CFB1C0C1D1D1D81E090E0A0E0B0E0BE
:10F20000282239224A225B2235E1220C331C441C7D
:10F21000551C3A95D1F7E20CF31C041D151D57013E
:10F220006801AA0CBB1CCC1CDD1C85E192EE60E0E1
:10F230000F94C2F1C801AA27BB270F940DF2BB2778
:10F24000A12F902F8F2D0F940DF28E2D0F940DF274
:10F2500090E29093C6008091C00086FFFCCF809121
:10F26000C00080648093C000AEE3A093C60080918C
:10F27000C00086FFFCCF8091C00080648093C000F6
:10F28000C601AA27BB270F940DF2BB27AD2D9C2DDD
:10F290008B2D0F940DF28A2D0F940DF20F94DCF14B
:10F2A000CC5DDE4FE881F981C452D140F99709F471
:10F2B0004DCBF4E0EF2EF12C012D112D6E0C7F1CA7
:10F2C000801E911EF2CD83E093EE62E00F94F5F183
:10F2D0008AE192EE60E00F94C2F18091C00087FF56
:10F2E000FCCF1091C6001F751093C6008091C0001E
:10F2F00086FFFCCF8091C00080648093C0000F9493
:10F30000DCF1812F81548A3108F036C1163409F4BA
:10F3100095C0173490F4133409F44EC0143430F40B
:10F320001134F1F0123409F01DC130C0143409F465
:10F3300059C0153409F016C16BC01A3409F4C4C0A1
:10F340001B3438F4173409F48FC0183409F00AC19B
:10F35000A1C01B3409F4D2C01C3409F003C1E8C0B9
:10F360008FEF81B90DC082B1809582B980E090E0C5
:10F37000E0EDF7E03197F1F70196883C9105C1F790
:10F380008091C00087FFEFCF12B8EFC08FEF84B934
:10F390000DC085B1809585B980E090E0E0EDF7E0A3
:10F3A0003197F1F70196883C9105C1F78091C00033
:10F3B00087FFEFCF15B8D9C08FEF87B90DC088B1DF
:10F3C000809588B980E090E0E0EDF7E03197F1F7C3
:10F3D0000196883C9105C1F78091C00087FFEFCF6F
:10F3E00018B8C3C08FEF8AB90DC08BB180958BB9A7
:10F3F00080E090E0E0EDF7E03197F1F70196883C8E
:10F400009105C1F78091C00087FFEFCF1BB8ADC059
:10F410008FEF8DB90DC08EB180958EB980E090E0F0
:10F42000E0EDF7E03197F1F70196883C9105C1F7DF
:10F430008091C00087FFEFCF1EB897C08FEF80BBD1
:10F440000DC081B3809581BB80E090E0E0EDF7E0F6
:10F450003197F1F70196883C9105C1F78091C00082
:10F4600087FFEFCF11BA81C08FEF83BB0DC084B38C
:10F47000809584BB80E090E0E0EDF7E03197F1F714
:10F480000196883C9105C1F78091C00087FFEFCFBE
:10F4900014BA6BC08FEF809301010FC080910201FD
:10F4A00080958093020180E090E0E0EDF7E03197F5
:10F4B000F1F70196883C9105C1F78091C00087FF64
:10F4C000EDCF1092020151C08FEF809304010FC065
:10F4D0008091050180958093050180E090E0E0ED4A
:10F4E000F7E03197F1F70196883C9105C1F78091DB
:10F4F000C00087FFEDCF1092050137C08FEF8093DA
:10F5000007010FC08091080180958093080180E079
:10F5100090E0E0EDF7E03197F1F70196883C910536
:10F52000C1F78091C00087FFEDCF109208011DC088
:10F530008FEF80930A010FC080910B01809580931B
:10F540000B0180E090E0E0EDF7E03197F1F70196F4
:10F55000883C9105C1F78091C00087FFEDCF1092E4
:10F560000B0103C085E292EEEEC98091C00087FFD7
:10F57000FCCF8091C600EAC988E392EEE4C98CE131
:10F5800091EEE1C988249924933011F1943028F444
:10F59000913089F09230B8F408C0953061F195301F
:10F5A000F0F0963009F048C043C02B3109F042C951
:10F5B00091E06BE13FC96227C15DDE4F2883CF52E6
:10F5C000D14092E037C9B22FA0E0622793E032C960
:10F5D000822F90E0A82BB92B622794E02BC92E3004
:10F5E00009F039C3622795E0C05DDE4F19821882A9
:10F5F000C053D1401FC9E1E0F0E0EC0FFD1FC05D3A
:10F60000DE4F08811981C053D140E00FF11F2083E4
:10F610000F5F1F4FC05DDE4F19830883C053D14079
:10F6200062270A171B0709F005C9D80196E002C92D
:10F63000261709F010C303C0973009F0FBC87724E0
:10F640009981933109F412C19431C8F4963009F4C8
:10F65000D8C0973050F4923009F406C1933009F4C1
:10F660006DC0913009F059C253C0913109F477C08F
:10F67000923108F0BBC0903109F04FC2F5C098310B
:10F6800009F487C0993150F4953109F4EFC09531F0
:10F6900008F4C6C1963109F040C2C2C19A3109F4DA
:10F6A0006CC09A3108F491C09B3109F45BC09D3164
:10F6B00009F033C29D81903359F48F81882311F46E
:10F6C0009EE11CC0813011F091E018C098E916C08D
:10F6D000892F807591F0903539F4E0E0F0E089E011
:10F6E0008093570094910AC0983539F4E3E0F0E034
:10F6F00089E080935700949101C090E01A821B82A8
:10F700008D818C831D829E831F8227E030E009C299
:10F710001A8288E08B8381E48C8386E58D8382E581
:10F720008E8389E48F8383E5888780E589878FE5E9
:10F730008A8782E38B872BE030E0F3C18A818139AD
:10F7400041F0823941F0803911F48FE005C080E04A
:10F7500003C082E001C08AE01A828B8344C0772410
:10F76000739482C08D81882311F48EE12CC0813086
:10F7700011F081E028C088E926C01A82E1E0F0E0BB
:10F7800089E08093570084918B831C8224E030E0D1
:10F79000C8C18B81803589F48C81883039F4E2E0EE
:10F7A000F0E089E08093570084910DC0E0E0F0E044
:10F7B00089E080935700849106C0E3E0F0E089E09F
:10F7C0008093570084911A82DFCF8D81836C99E0FA
:10F7D000E1E0F0E0082E90935700E89507B600FCB2
:10F7E000FDCF1A821B8223E030E09BC180EC8A832C
:10F7F000CE5CDE4F188219821A821B82C253D1401E
:10F800008EC18A8190E0A0E0B0E0582F44273327D2
:10F8100022278B8190E0A0E0B0E0DC0199278827C7
:10F82000282B392B4A2B5B2B8D8190E0A0E0B0E098
:10F83000282B392B4A2B5B2B8C8190E0A0E0B0E089
:10F84000BA2FA92F982F8827282B392B4A2B5B2BCF
:10F85000220F331F441F551FC05EDE4F288339839C
:10F860004A835B83C052D1401A8259C13A81C95C34
:10F87000DE4F3883C753D140CA5CDE4F1882C6536F
:10F88000D1408B81C82EDD24CA5CDE4F488159816E
:10F89000C653D140C42AD52A933109F082C0CE5C28
:10F8A000DE4F88819981AA81BB81C253D1408050AB
:10F8B000904CA340B04030F583E0CE5CDE4FE88052
:10F8C000F9800A811B81C253D140F70100935B008C
:10F8D00080935700E89507B600FCFDCFCE5CDE4F65
:10F8E000088119812A813B81C253D14000501F4FAA
:10F8F0002F4F3F4FCE5CDE4F088319832A833B8313
:10F90000C253D140C05EDE4F488159816A817B81FC
:10F91000C052D140DE011B9631E08C9111962C91A2
:10F9200011971296C75CDE4F2883C953D140C85C3B
:10F93000DE4F1882C853D14090E0C85CDE4FE881AA
:10F94000F981C853D1408E2B9F2B0C01FA01609393
:10F950005B0030935700E89511244E5F5F4F6F4F67
:10F960007F4F0EEFE02E0FEFF02ECE0CDF1CC114F8
:10F97000D10499F685E0C05EDE4F088119812A81A5
:10F980003B81C052D140F80120935B008093570027
:10F99000E89507B600FCFDCF81E180935700E8951C
:10F9A00035C0C05EDE4F88819981AA81BB81C0527B
:10F9B000D140B695A795979587957C018601ABE0D8
:10F9C000AA2EB12CAC0EBD1E0BC0D5016D915D01F0
:10F9D000C7010F947FFE0894E11CF11C01501040F8
:10F9E0000115110591F7A60160E070E0440F551F65
:10F9F000661F771FC05EDE4FE880F9800A811B8199
:10FA0000C052D1404E0D5F1D601F711F1A82C05E33
:10FA1000DE4F488359836A837B83C052D1407FC0C5
:10FA2000FA80C55CDE4FF882CB53D140C65CDE4F16
:10FA30001882CA53D1408B81C82EDD24C65CDE4FAC
:10FA400008811981CA53D140C02AD12A1A828981DA
:10FA5000BE016D5F7F4F843121F59601C05EDE4FA0
:10FA6000E880F9800A811B81C052D1400BBFF701A9
:10FA700087919691DB018C9311969C936E5F7F4FDB
:10FA8000D801C7010296A11DB11DC05EDE4F88835B
:10FA90009983AA83BB83C052D14022503040F1F6F3
:10FAA00036C0C05EDE4F288139814A815B81C052F9
:10FAB000D1400894C108D108760100E010E0089414
:10FAC000C11CD11C0894E11CF11C011D111DE20E8A
:10FAD000F31E041F151F21BDBB27A52F942F832FB5
:10FAE00082BD2F5F3F4F4F4F5F4FF89A80B5DB01CC
:10FAF0008D93BD012E153F054007510761F7C05E8C
:10FB0000DE4F288339834A835B83C052D1409601FC
:10FB10002D5F3F4FFB01108204C080EC8A8322E0FE
:10FB200030E08BE18093C6008091C00086FFFCCF5F
:10FB30008091C00080648093C000C15DDE4FF88179
:10FB4000CF52D140F093C6008091C00086FFFCCF19
:10FB50008091C00080648093C000432F3093C60022
:10FB60008091C00086FFFCCF8091C00080648093AC
:10FB7000C000922F2093C6008091C00086FFFCCF6A
:10FB80008091C00080648093C0008EE08093C600A6
:10FB90008091C00086FFFCCF8091C000806480937C
:10FBA000C00065E1C15DDE4FE880CF52D1406E25D7
:10FBB00069276427FE01319610C090819093C6009A
:10FBC0008091C00086FFFCCF31968091C000806498
:10FBD0008093C0006927215030402115310569F715
:10FBE0006093C6008091C00086FFFCCF8091C0006A
:10FBF00080648093C00085B1805885B9772081F4F6
:10FC0000C15DDE4F0881CF52D1400F5FC15DDE4F35
:10FC10000883CF52D14090E0A0E0B0E00D941AF4F8
:10FC200027982F9880E090E020ED37E0F901319798
:10FC3000F1F7019684369105C9F700008091C00064
:10FC40008D7F8093C00081E180935700E895EE2777
:10FC5000FF270994FFCF90E00D941AF497FB092E2B
:10FC600007260AD077FD04D02ED006D000201AF443
:10FC7000709561957F4F0895F6F7909581959F4F08
:10FC80000895A1E21A2EAA1BBB1BFD010DC0AA1FDD
:10FC9000BB1FEE1FFF1FA217B307E407F50720F0F5
:10FCA000A21BB30BE40BF50B661F771F881F991F70
:10FCB0001A9469F760957095809590959B01AC01B9
:10FCC000BD01CF010895AA1BBB1B51E107C0AA1FAC
:10FCD000BB1FA617B70710F0A61BB70B881F991FED
:10FCE0005A95A9F780959095BC01CD010895F99991
:10FCF000FECF92BD81BDF89A992780B50895262F31
:10FD0000F999FECF1FBA92BD81BD20BD0FB6F89400
:0EFD1000FA9AF99A0FBE01960895F894FFCF63
:040000033000E000E9
:00000001FF