:10000000C9C10000F8C10000F6C10000F4C1000041
:10001000F2C10000F0C10000EEC10000ECC1000020
:10002000EAC10000E8C10000E6C10000E4C1000030
:10003000E2C10000E0C10000DEC10000DCC1000040
:10004000DAC100000C941D19D6C10000D4C1000013
:10005000D2C10000D0C10000CEC100000C94E41752
:10006000CAC100000C94AE170C948417C4C10000E0
:10007000C2C10000C0C10000BEC10000BCC1000080
:100080000C94CE18B8C10000B6C10000B4C1000085
:10009000B2C10000B0C10000AEC10000ACC10000A0
:1000A000AAC10000A8C100000C947D18A4C10000E2
:1000B000A2C10000A0C100009EC100000C942E1837
:1000C0009AC1000098C1000096C1000094C10000D0
:1000D00092C1000090C100008EC100008CC10000E0
:1000E0008AC10000084AD73B3BCE016E84BCBFFDED
:1000F000C12F3D6C74319ABD56833DDA3D00C77FF8
:1001000011BED9E4BB4C3E916BAAAABE0000008090
:100110003F05A84CCDB2D44EB93836A9020C50B91F
:10012000918688083CA6AAAA2ABE000000803F004B
:100130004E414E494E495459494E46CDCCCC3D0ACC
:10014000D7233C17B7D13877CC2B329595E6241FAF
:10015000B14F0A000020410000C84200401C462068
:10016000BCBE4CCA1B0E5AAEC59D7458012C017101
:100170000127018D012201AC011D01CD011801F201
:100180000113011A020E014602090176020401ABB5
:1001900002FF00E502FA002503F5006B03F000B949
:1001A00003EB000E04E6006C04E100D404DC00471D
:1001B00005D700C505D2005106CD00EB06C8009555
:1001C00007C3005008BE001F09B900020AB400FBB3
:1001D0000AAF000D0CAA00380DA5007F0EA000E2AA
:1001E0000F9B006311960002139100C0148C009BBA
:1001F00016870092188200A41A7D00CD1C78000991
:100200001F730053216E00A5236900FA2564004A7C
:10021000285F008F2A5A00C22C5500DE2E5000DDC8
:10022000304B00BB3246007434410008363C007548
:10023000373700BB383200DB392D00D83A2800B4FC
:100240003B2300703C1E00113D1900993D14000B2A
:100250003E0F006A3E0A00B93E0500F93E0000006C
:10026000002200250028002B002E0031003400025F
:10027000010000050108010B0100002000230026F9
:100280000029002C002F00320000010000030106AD
:1002900001090100000A0B02090C0D0E08070304F6
:1002A000010000000000000000000000000000004D
:1002B000000000000000000000000000000000122C
:1002C000111000000000000000000000000000000D
:1002D00000000000000000000000002100240027B2
:1002E000002A002D00300033000101000004010746
:1002F000010A0101021020200808102040102040AF
:1003000080020102010804020101020408102040D9
:1003100080804020100804020180040201804020F7
:100320001008040201080402010102040810204020
:100330008001020408102040800505050507050816
:10034000080808020202020A0A0808040404040158
:10035000010101010101010303030303030303047A
:100360000707070C0C0C0C0C0C0C0C02020202060A
:10037000060606060606060B0B0B0B0B0B0B0B7C7F
:100380003C3E5E2B3D3F2F5B5D3B2C2A225C0000F8
:100390006C19D71D11241FBECFEFD1E2DEBFCDBF38
:1003A00000E00CBF25E0A0EAB2E001C01D92AF3F23
:1003B000B207E1F712E0A0E0B2E0ECEFF9E400E010
:1003C0000BBF02C007900D92A03AB107D9F711E018
:1003D000C9ECD1E000E006C021970109802FFE01A1
:1003E0000E949E22C83CD10780E00807A9F70E941E
:1003F000011A0C94ED2404CEAF92BF92CF92DF92FB
:10040000EF92FF920F931F93CF93DF936C017B01C9
:100410008B01040F151FEB015E01AE18BF08C0175A
:10042000D10759F06991D601ED91FC910190F081CD
:10043000E02DC6011995892B79F7C501DF91CF9180
:100440001F910F91FF90EF90DF90CF90BF90AF90F2
:100450000895FC01538D448D252F30E0842F90E0CA
:10046000821B930B541710F0CF96089501970895AF
:10047000FC01918D828D981761F0A28DAE0FBF2F78
:10048000B11D5D968C91928D9F5F9F73928F90E0CE
:1004900008958FEF9FEF0895FC01918D828D98173D
:1004A00031F0828DE80FF11D858D90E008958FEF7A
:1004B0009FEF0895FC01918D228D892F90E0805C43
:1004C0009F4F821B91098F739927089580ED94E0C7
:1004D000F1DF21E0892B09F420E0822F0895FC014F
:1004E000A48DA80FB92FB11DA35ABF4F2C91848D95
:1004F00090E001968F739927848FA689B7892C93F2
:10050000A089B1898C91837080648C93938D848D44
:10051000981306C00288F389E02D80818F7D808347
:100520000895EF92FF920F931F93CF93DF93EC0107
:1005300081E0888F9B8D8C8D98131AC0E889F9898A
:10054000808185FF15C09FB7F894EE89FF8960838D
:10055000E889F98980818370806480839FBF81E00E
:1005600090E0DF91CF911F910F91FF90EF90089550
:10057000F62E0B8D10E00F5F1F4F0F731127E02E2B
:100580008C8D8E110BC00FB607FCFACFE889F98964
:10059000808185FFF5CFCE01A2DFF2CFEB8DEC0F8E
:1005A000FD2FF11DE35AFF4FF0829FB7F8940B8F98
:1005B000EA89FB8980818062D0CFCF93DF93EC0101
:1005C000888D8823B1F0AA89BB89E889F9898C9143
:1005D00085FD03C0808186FD0CC00FB607FCF7CFF8
:1005E0008C9185FFF2CF808185FFEDCFCE0177DF43
:1005F000EACFDF91CF91089580E090E0892B21F040
:1006000065DF81110E94000080E090E0892B49F0B5
:1006100080E090E0892B29F00E94000081110E9467
:10062000000080E090E0892B49F080E090E0892B89
:1006300029F00E94000081110E94000080E090E0FB
:10064000892B49F080E090E0892B29F00E9400007E
:1006500081110C94000008958150823108F05AC035
:10066000E82FF0E08827E85CFC4F8F4F0C949E2227
:1006700058035C034A03500354038A035F03650372
:1006800069036F03730377037D0381038A03850383
:100690008B038F03809180008F7780938000089573
:1006A000809180008F7DF9CF80918000877FF5CF8A
:1006B00084B58F7784BD089584B58F7DFBCF8091FD
:1006C000B0008F778093B00008958091B0008F7D47
:1006D000F9CF809190008F7780939000089580915A
:1006E00090008F7DF9CF80919000877FF5CF80912A
:1006F000A0008F778093A00008958091A0008F7D47
:10070000F9CF8091A000877FF5CF809120018F776E
:10071000809320010895809120018F7DF9CF8091F1
:100720002001877FF5CFCF93DF93282F30E0F901A9
:10073000ED56FD4F8491F901ED50FD4FD491F90133
:10074000E75CFC4FC491CC2399F0811185DFEC2F3D
:10075000F0E0EE0FFF1FE758FD4FA591B491EC912B
:10076000ED2381E090E009F480E0DF91CF910895DE
:1007700080E090E0FACF1F93CF93DF93282F30E0F3
:10078000F901ED56FD4F8491F901ED50FD4FD491E3
:10079000F901E75CFC4FC491CC23A1F0162F811125
:1007A0005BDFEC2FF0E0EE0FFF1FE15AFD4FA5914C
:1007B000B4918FB7F894EC91111108C0D095DE2355
:1007C000DC938FBFDF91CF911F910895DE2BF8CF7F
:1007D000CF93DF9390E0FC01ED50FD4F2491875CB7
:1007E0009C4FFC0184918823C9F090E0880F991FE9
:1007F000FC01E752FD4FA591B491FC01E15AFD4F78
:10080000C591D49161110DC09FB7F8948C9120953A
:1008100082238C938881282328839FBFDF91CF91E7
:100820000895623051F49FB7F8943C91822F8095DF
:1008300083238C93E8812E2BEFCF8FB7F894EC9124
:100840002E2B2C938FBFEACF863308F0865320914E
:100850007B00982F9870277F922B90937B00877056
:10086000806480937C0080917A00806480937A0019
:1008700080917A0086FDFCCF80917800909179007C
:1008800008952FB7F8946091C8027091C9028091C1
:10089000CA029091CB022FBF08958FB7F894809130
:1008A000BE028FBF089561E0FC01848164DF809106
:1008B000BD0281111092BD0208958EBD00000DB4DD
:1008C00007FEFDCF8EB508958FEFF7CF0F931F93DF
:1008D000CF93DF93EC01D5DF8B01F6DF8F3F61F023
:1008E000D0DF601B710B6C177D07B8F380E0DF91E0
:1008F000CF911F910F91089581E0F9CF8CBD9DBDDF
:100900000895CF93DF93EC018091BD02811108C05F
:1009100081E08093BD0280916D0590916E05EEDFC0
:1009200060E08C81DF91CF9126CF8F929F92AF9222
:10093000BF92FF920F931F93CF93DF93EC01F62E9C
:1009400049015A018E81882379F08F8198859C0115
:100950002F5F3F4F38872F838230924010F4B4DFEF
:10096000F4CFCE01A0DF1E82CE01CBDF8CE291E07E
:10097000ADDF8F2D8064A1DF08E110E0D501C40157
:10098000002E04C0B695A795979587950A94D2F73F
:1009900094DF08501109083F8FEF180779F785E9B0
:1009A000FF2021F028E087E8F2128FEF86DF10E0C9
:1009B0008BDF8A8787FF04C01F3F11F01F5FF8CFCE
:1009C000DF91CF911F910F91FF90BF90AF909F90BB
:1009D0008F900895AF92BF92CF92DF92EF92FF92E5
:1009E0000F931F93CF93DF93EC016901C801820F2E
:1009F000931F8130924048F58E81882379F0888159
:100A00009981AA81BB8184179507A607B70731F49E
:100A10008F819885C816D90608F03CC04883598351
:100A20006A837B838B85833039F089E0440F551FBF
:100A3000661F771F8A95D1F79A01AB0161E1CE015C
:100A400074DF882381F083E08D83CE012CDF80E08A
:100A5000DF91CF911F910F91FF90EF90DF90CF909A
:100A6000BF90AF9008950DDF5B012EDF8A878F3F27
:100A700059F407DF6A197B096D327140B0F38FE0DA
:100A80008D83CE0110DFE1CF8E3F81F418861F8267
:100A900081E08E838F8198858C159D0548F414DF45
:100AA0008F819885019698878F83F4CF8DE0E8CF6A
:100AB0006701E00EF11E08DFF60181936F01EE156C
:100AC000FF05C9F78F819885080F191F18870F83B5
:100AD0008985882319F00115124090F08E818823B2
:100AE00079F08F8198859C012F5F3F4F38872F8346
:100AF0008230924010F4E8DEF4CFCE01D4DE1E82C4
:100B000081E0A6CFEF92FF920F931F93CF93DF93D5
:100B1000EC01790182E1411551056105710591F002
:100B20008B85833039F089E0440F551F661F771F8E
:100B30008A95D1F79A01AB0168E1CE01F6DE8823F0
:100B400019F084E08D8328C08EEFB7DE87018EEF29
:100B5000F81AF80181918F01B0DE0E151F05C9F753
:100B60008FEFABDE8FEFA9DEAFDE8A878F71853026
:100B700079F488E592E0AADE882391F020E030E065
:100B8000A9016DE0CE01D1DE882361F084E1DACFE6
:100B900081E18D83CE0187DECE0185DE80E008C055
:100BA00085E1D0CF91DE8111F1CFCE017CDE81E0F5
:100BB000DF91CF911F910F91FF90EF900895CF9308
:100BC000DF938091CD02882399F1C091CE04D0911A
:100BD000CF0440910D0250910E0260910F0270916E
:100BE00010022EEC32E0CE018DDF811104C080E0D6
:100BF000DF91CF9108954091BF025091C002609162
:100C0000C1027091C202411551056105710571F073
:100C10002EEC32E0CE0176DF882349F31092BF023A
:100C20001092C0021092C1021092C2021092CD0224
:100C300081E0DECF8F929F92AF92BF92EF92FF92B0
:100C40000F931F93CF934B015C01C42F80910D0232
:100C500090910E02A0910F02B09110028815990593
:100C6000AA05BB0539F1ABDF81110BC080E0CF9144
:100C70001F910F91FF90EF90BF90AF909F908F903A
:100C800008958EECE82E82E0F82E00E012E030E0CD
:100C900020E0B501A4018091CE049091CF049ADEAA
:100CA000882321F380920D0290920E02A0920F02EF
:100CB000B09210024091CD024C2B4093CD0281E0C6
:100CC000D6CF8F929F92AF92BF92CF92DF92EF9248
:100CD000FF92CF932FE635E03093CF042093CE04DC
:100CE000882309F46BC040E060E070E0CB01A2DF34
:100CF00081110BC080E0CF91FF90EF90DF90CF90FB
:100D0000BF90AF909F908F90089580918C048F77C3
:100D100089F78091980490919904A0919A04B091D8
:100D20009B0484369105A105B10520F3C09094047D
:100D3000D0909504E0909604F0909704C114D104EB
:100D4000E104F104B9F240E0C701B60173DF882382
:100D500089F28091D9029091DA028115924051F680
:100D6000A091DE02AA2331F26091DC027091DD02D3
:100D70006115710509F4BECF2091DB02222309F42D
:100D8000B9CFA0938D0520937F0590E080E030E0FF
:100D9000E1E0F0E0C82FAF01082E02C0440F551F5C
:100DA0000A94E2F72417350769F041E0480F0196ED
:100DB0008930910579F7409388059CCFC12CD12CBF
:100DC0007601C1CF809388052091E4023091E5023D
:100DD00050E040E02115310541F42091F2023091BC
:100DE000F3024091F4025091F50220938005309374
:100DF0008105409382055093830546015701860E75
:100E0000971EA11CB11C80928E0590928F05A09216
:100E10009005B0929105E091DF02F091E002F0932D
:100E20009405E0939305B0E00E946F20DC01CB01B4
:100E3000880D991DAA1DBB1D80939505909396055D
:100E4000A0939705B093980525E0EE0FFF1F2A9514
:100E5000E1F7E150FE4FEF2FFF27E6958E0F9F1F22
:100E6000A11DB11D8093890590938A05A0938B05E0
:100E7000B0938C058090E1029090E202B12CA12CFD
:100E80008114910441F48090EE029090EF02A090C2
:100E9000F002B090F102C81AD90AEA0AFB0AC80C9B
:100EA000D91CEA1CFB1C04C0F694E794D794C794A1
:100EB000CA95D2F7C0928405D0928505E092860546
:100EC000F092870585EFC8168FE0D806E104F1049B
:100ED00028F48CE08093920581E00DCF80E125EF2E
:100EE000C2162FEFD206E104F104A0F38091FA02BA
:100EF0009091FB02A091FC02B091FD0280939505B8
:100F000090939605A0939705B093980580E2E2CF61
:100F10004F925F926F927F928F929F92AF92BF9209
:100F2000CF92DF92EF92FF920F931F93CF93DF93B5
:100F3000EC01423051056105710590F480E0DF91CC
:100F4000CF911F910F91FF90EF90DF90CF90BF90C6
:100F5000AF909F908F907F906F905F904F9008958B
:100F600089859A85AB85BC850196A11DB11D841725
:100F70009507A607B70710F3CB88DC88ED88FE88B5
:100F80008F89803109F042C0BB27A72F962F852F6C
:100F9000480159012A013B01C80ED91EEA1EFB1E59
:100FA00080910D0290910E02A0910F02B09110025B
:100FB000C816D906EA06FB0699F58F898031B9F57E
:100FC000B301A201552766277727440F551F4253C7
:100FD0005D4FFA01918280828091CD028160809381
:100FE000CD028A89823080F08D819E81AF81B88563
:100FF0008C0D9D1DAE1DBF1D8093BF029093C0023E
:10100000A093C102B093C20281E099CFDB01CA0173
:10101000E7E0B695A79597958795EA95D1F7B8CF6C
:1010200040E0C701B60106DE8111C7CF87CFB3010B
:10103000A2014F77552766277727440F551F440F86
:10104000551F42535D4FFA0180829182A282B38282
:10105000C3CF8F929F92AF92BF92CF92DF92EF92C7
:10106000FF920F931F93CF93DF93FC0181859285AD
:10107000A385B4850196A11DB11D84179507A60708
:10108000B70770F480E0DF91CF911F910F91FF902F
:10109000EF90DF90CF90BF90AF909F908F9008958A
:1010A00083889488A588B6888789803189F5BB278D
:1010B000A72F962F852FE9016A017B018F01BC01C3
:1010C000CD01680D791D8A1D9B1D80900D029090A9
:1010D0000E02A0900F02B090100286169706A80686
:1010E000B90601F5F8018789803109F5DD24EE2480
:1010F000FF24F601EE0FFF1FE253FD4F8081918127
:10110000B0E0A0E088839983AA83BB8381E0BBCF52
:10111000DB01CA01C7E0B695A79597958795CA9553
:10112000D1F7C9CF40E086DD8111DCCFABCFE894A9
:10113000C7F8DD24EE24FF24F601EE0FFF1FEE0FAB
:10114000FF1FE253FD4F80819181A281B381BF7067
:10115000D9CF4F925F926F927F92AF92BF92CF9210
:10116000DF92EF92FF920F931F93CF93DF9300D004
:101170001F92CDB7DEB78C0149835A836B837C8382
:101180005901C12CD12C7601412C82E0582E612CC2
:10119000712C49815A816B817C819E012F5F3F4F69
:1011A000C80157DF882339F1F8018585A301920131
:1011B00004C0220F331F441F551F8A95D2F7DA014E
:1011C000C901C80ED91EEA1EFB1E49815A816B81D6
:1011D0007C818789803111F188EF9FEFAFEFBFE00D
:1011E000481759076A077B07A0F2F501C082D18230
:1011F000E282F38281E00F900F900F900F90DF91C9
:10120000CF911F910F91FF90EF90DF90CF90BF9003
:10121000AF907F906F905F904F90089588EF9FEF11
:10122000A0E0B0E0DDCFCF93DF93FC012581222346
:1012300021F080E0DF91CF910895EC01809192053B
:10124000803159F582E08583178A108E118E128EB7
:101250008091930590919405B0E0A0E025E0880F7F
:10126000991FAA1FBB1F2A95D1F7838B948BA58B3F
:10127000B68B8BE795E09C8F8B8F81E08C831E82F1
:101280001F82188619861A861B861C861D861E8656
:101290001F86188A198A1A8ACDCF803251F683E0C8
:1012A00085834091950550919605609197057091C1
:1012B0009805478B508F618F728F9F012D5E3F4F36
:1012C0008BE795E046DF8111D4CFB3CF8F929F9209
:1012D000AF92BF92CF92DF92EF92FF920F931F9344
:1012E000CF93DF93EC018D8181110EC080E0DF91FF
:1012F000CF911F910F91FF90EF90DF90CF90BF9013
:10130000AF909F908F9008950B891C892D893E89FD
:10131000041715072607370748F34A015B01823097
:1013200031F48A869B86AC86BD8681E0E0CF81144D
:101330009104A104B10449F41E821F821886198603
:101340001A861B861C861D86F0CF0A851B852C8578
:101350003D85EB8DFC8D858590E00996B901A8014E
:101360004150510961097109082E04C076956795AD
:10137000579547950A94D2F775016401E1E0CE1ABA
:10138000D108E108F10804C0F694E794D794C79413
:101390008A95D2F7C416D506E606F70620F0012B8B
:1013A000022B032B09F58F89988DA98DBA8D8E8319
:1013B0009F83A887B9878E010A5F1F4FC114D1048C
:1013C000E104F10409F4ADCF4E815F816885798530
:1013D00098018B8D9C8D3DDE91E0C91AD108E10802
:1013E000F1088111EBCF82CFC41AD50AE60AF70AB9
:1013F000E2CF3F924F925F926F927F928F929F9235
:10140000AF92BF92CF92DF92EF92FF920F931F9312
:10141000CF93DF93CDB7DEB72C970FB6F894DEBF2E
:101420000FBECDBF5C01DC015B968D909C905C97FC
:1014300016964D905D906D907C90199741145104D3
:101440006104710409F467C0BFEF4B1A5B0A6B0AB1
:101450007B0A312CF40181859285A385B4859C019A
:10146000AD012F5F3F4F4F4F5F4F29873A874B8723
:101470005C87730162011D821E821F821886F4013F
:1014800081859285A385B4852D813E814F815885C4
:10149000281739074A075B0708F054C089859A85E1
:1014A000AB85BC858C159D05AE05BF0550F482E06B
:1014B000C82ED12CE12CF12C92E0492E512C612C1C
:1014C000712C9E012F5F3F4FB701A601C401C1DD02
:1014D0008823C1F189819A81AB81BC81892B8A2BB8
:1014E0008B2B09F1260137019FEF491A590A690A26
:1014F000790A2D813E814F8158852F5F3F4F4F4F95
:101500005F4F2D833E834F8358873FEFC31AD30A23
:10151000E30AF30AB4CFF401408051806280738003
:101520003324339497CFC414D504E604F70409F7A1
:101530000FEF1FEF2FEF3FE0B701A601C401E8DC7A
:10154000811119C080E02C960FB6F894DEBF0FBE53
:10155000CDBFDF91CF911F910F91FF90EF90DF9062
:10156000CF90BF90AF909F908F907F906F905F9043
:101570004F903F900895F5014681578160857185B0
:10158000411551056105710531F097018601C401CE
:10159000BFDC8823B9F2D5011696CD92DD92ED928B
:1015A000FC921997332051F0D701C6010196A11D75
:1015B000B11DF40180839183A283B383F5018789F0
:1015C000908DA18DB28D892B8A2B8B2B39F4C78AF4
:1015D000D08EE18EF28E84818068848381E0B3CFE7
:1015E000CF93DF93EC018D81882379F18C8187FF84
:1015F00029C06E857F858889998941E01BDB882316
:1016000021F1EA8980E2E89FF0011124E253FD4FC5
:101610003097D9F08D81823040F48B899C89AD89D7
:10162000BE89848F958FA68FB78F8F89988D938F62
:10163000828F8F89988DA98DBA8DB58BA48B8C8163
:101640008F778C83DF91CF91BACA80E0DF91CF9101
:101650000895CF93DF93EC01C3DF882311F01D823F
:1016600081E0DF91CF9108952F923F924F925F9248
:101670006F927F928F929F92AF92BF92CF92DF92A2
:10168000EF92FF920F931F93CF93DF9300D01F929F
:10169000CDB7DEB78C015B011A01DC0115968C9188
:1016A0001597813009F0C5C014968C9181FFC1C097
:1016B00082FDACC06101D8011A964D915D916D918A
:1016C0007C911D97C114D10409F423C15B968D91BF
:1016D0009C915C97FC0174802FEF270D2A013B0140
:1016E00039E076946794579447943A95D1F7722EDF
:1016F00074207A01F1E0FF2271101FC0E114F1049F
:10170000E1F416964D915D916D917C91199741157B
:1017100051056105710509F095C057968D919D9110
:101720000D90BC91A02D0097A105B10509F0ABC0AB
:10173000C8015FDE882309F47CC080E092E08E1946
:101740009F0946018C159D0508F44C01D8015B9654
:101750004D915C915C9716968D919D910D90BC91E9
:10176000A02D0297A109B109FA01258504C0880FAF
:10177000991FAA1FBB1F2A95D2F7468557856089F6
:101780007189840F951FA61FB71F9C01AD01270DFE
:10179000311D411D511D29013A01811432E093068A
:1017A00009F077C080910D0290910E02A0910F0276
:1017B000B091100284159505A605B70559F48FEF71
:1017C0009FEFDC0180930D0290930E02A0930F0215
:1017D000B09310029501B301A2018091CE049091C3
:1017E000CF0490D9882329F19EEFB91AC818D908D7
:1017F000F80182859385A485B585880D991DA11D65
:10180000B11D82879387A487B58755CFF801438997
:1018100054896589768982859385A485B58548171D
:1018200059076A077B0709F445CFC8014FDD8111CD
:1018300041CF81E090E0D80113969C938E9312974C
:1018400080E006C09E012F5F3F4F03DC811102C084
:1018500090E075C089819A81AB81BC81F801238DAC
:10186000348DF901278948EF5FEF60E070E02031A7
:1018700021F048EF5FEF6FEF7FE084179507A60731
:10188000B70708F055CFF80186839783A087B18703
:1018900054CFE114F10489F5D8011A964D915D9168
:1018A0006D917C911D9753968D919D910D90BC915A
:1018B000A02D481759076A077B07F8F080D98823BD
:1018C00009F4B7CF40920D0250920E0260920F02BF
:1018D000709210028091CD0281608093CD029701B9
:1018E00022533D4FD501C901880D991DF9018E176D
:1018F0009F0751F04D914193FACF41E0C301B201EE
:1019000099D98111ECCF95CF821B930BA80EB91EEC
:101910006DCFF80183899489A589B68984179507C5
:10192000A607B70738F48481438B548B658B768B7D
:1019300080688483F801848183FD18C0C1010F9001
:101940000F900F900F90DF91CF911F910F91FF900B
:10195000EF90DF90CF90BF90AF909F908F907F904F
:101960006F905F904F903F902F900895C80138DEA0
:10197000882309F45ECFE2CFCF93DF931F92CDB7D8
:10198000DEB7698341E050E0BE016F5F7F4F6CDEE0
:101990000F90DF91CF910895FC01DB0112968D919C
:1019A0009C911397938382838FE292E0918380834B
:1019B00014968C911497848315968C911597858332
:1019C00016964D915D916D917C9119974683578341
:1019D000608771871A964D915D916D917C911D97ED
:1019E00042875387648775871E964D915D916D91EF
:1019F0007C91519746875787608B718B52968C915B
:101A00005297828B53964D915D916D917C91569733
:101A1000438B548B658B768B57964D915D916D9171
:101A20007C915A97478B508F618F728F5B968D9107
:101A30009C91948F838F08950895FC01818D928DE0
:101A4000009709F0CDCD0895DC015996ED91FC91F8
:101A50003097B9F083899489A589B68942855385E1
:101A600064857585841B950BA60BB70B811520E843
:101A70009207A105B10538F08FEF9FE7A0E0B0E035
:101A8000089590E080E00895CF93DF93EC01E98D15
:101A9000FA8D309749F481E090E09B838A8390E04F
:101AA00080E0DF91CF91089513821282898D9A8D03
:101AB000DBDDE98DFA8D22813381232B61F7F1CFB4
:101AC000CF93DF931F92CDB7DEB76983DC01ED9131
:101AD000FC910280F381E02D41E050E0BE016F5F98
:101AE0007F4F19950F90DF91CF9108952F923F92DC
:101AF0004F925F926F927F928F929F92AF92BF921E
:101B0000CF92DF92EF92FF920F931F93CF93DF93C9
:101B100000D0CDB7DEB7FC018581811118C08FEFF1
:101B20009FEF0F900F900F90DF91CF911F910F912A
:101B3000FF90EF90DF90CF90BF90AF909F908F90ED
:101B40007F906F905F904F903F902F900895848189
:101B500080FFE5CF4389548965897689828593859D
:101B6000A485B585312C212C481759076A077B07B6
:101B700019F022242394312C6F012101CE0101960A
:101B80003C01DF011696BB83AA834114510409F47A
:101B9000C3C0F60142855385648575854A01F1E02D
:101BA0009F22D6015B968D919C915C978A019B0147
:101BB000E9E03695279517950795EA95D1F715969B
:101BC000EC91E230E1F5FC01628D738D848D958D91
:101BD000600F711F821F931FA12C22E0B22EA81844
:101BE000B9084A145B0408F45201F601248126FD69
:101BF00004C0A114F2E0BF0671F400910D0210912F
:101C00000E0220910F0230911002061717072807C5
:101C1000390709F05CC040E00DD8882309F47FCF74
:101C2000C40182539D4FD3019C012A0D3B1DFC0131
:101C30002E173F0709F46BC041914D93F9CFDC019A
:101C40001496BC90BA94B0228114910479F4B11026
:101C50000DC0452B462B472B69F5F6018789908DE2
:101C6000A18DB28D86839783A087B187D6015B96BD
:101C7000ED91FC915C9716966D917D918D919C9163
:101C800019976250710981099109258504C0660F71
:101C9000771F881F991F2A95D2F7068517852089F7
:101CA0003189600F711F821F931F6B0D711D811D84
:101CB000911D92CFD60116964D915D916D917C91BB
:101CC00019972A813B81C5D98111D0CF28CF7301C3
:101CD00085019401AB01BC018091CE049091CF04A9
:101CE0000E94EA04882309F41ACF6A0C7B1CF601CF
:101CF00082859385A485B5858A0D9B1DA11DB11D87
:101D000082879387A487B5874A185B083ECF281B34
:101D1000390B620E731EEBCF2A94232809F0FFCEF5
:101D2000898190E0FECEFC01818D928D009709F0B3
:101D3000DDCE8FEF9FEF08950F931F930E94410414
:101D40006093C4057093C5058093C6059093C7053D
:101D50008CEB95E0E8DF97FF1DC00E9441040091E5
:101D6000C4051091C5052091C6053091C705601BBB
:101D7000710B820B930B0091C0051091C10520914E
:101D8000C2053091C305601771078207930700F3FE
:101D90008FEF9FEF1F910F9108950F931F93CF9394
:101DA000DF93EC01898D9A8D10E000E0009789F0B7
:101DB0009DDE8C010F3F100761F0898D9A8DFC012B
:101DC00042855385648575854150510961097109C2
:101DD0007DDAC801DF91CF911F910F91089590E0B6
:101DE00080E00895CF93883789F0C62F893744F46F
:101DF000813609F1853641F461E06C2788E109C03C
:101E0000893751F08A3761F0CF910895C1E06C278E
:101E100086E2CF910C94BB0361E06C2788E3F9CF95
:101E200061E0C627C09300026C2F8EE30E94BB03C3
:101E30006C2F8EE1EECF88E7D5DF6C2F89E7D2DFFC
:101E40006C2F8AE7CFDFD8CF0F931F93CF93DF9309
:101E5000EC0180E2689FF0011124E253FD4F6A8B90
:101E600080910D0290910E02A0910F02B09110028C
:101E70008E879F87A88BB98B0489158930E020E075
:101E80009801112700270F8B188F298F3A8F828D89
:101E9000938DB0E0A0E0AC01BD01402B512B622B33
:101EA000732B4F8B588F698F7A8F83858871A9F434
:101EB000848D958DA68DB78D8B8B9C8BAD8BBE8BBA
:101EC00081E08D8381E08C831E821F8218861986B3
:101ED0001A861B861C861D8603C0803131F080E087
:101EE000DF91CF911F910F9108959E012D5E3F4F7D
:101EF0008B8D9C8D2ED9882391F384E0E2CFFC0159
:101F000001900020E9F73197AF01481B590BBC0144
:101F100080ED94E00C94FC01CF93DF93F0DFEC01B3
:101F200081E592E0ECDF8C0F9D1FDF91CF9108954A
:101F30008F929F92AF92BF92CF92DF92EF92FF92D9
:101F40000F931F93CF93DF93CDB7DEB7A1970FB653
:101F5000F894DEBF0FBECDBF6C01990FEE08FF08ED
:101F6000F7FE45C06DE280ED94E00E9491028C0185
:101F700022273327A9012C193D094E095F0919A20F
:101F8000CE0181967C019AE0892E912CA12CB12C56
:101F9000CA01B901A50194010E947C22605DF7018C
:101FA00062937F01211531054105510589F790E0C4
:101FB00080E0309711F0CF01A2DF080F191F81E5F3
:101FC00092E09DDF800F911FA1960FB6F894DEBFBF
:101FD0000FBECDBFDF91CF911F910F91FF90EF907A
:101FE000DF90CF90BF90AF909F908F900895A70102
:101FF000960119A28E010F5D1F4F8AE0C82ED12CC9
:10200000E12CF12CCA01B901A70196010E947C22A2
:10201000605DF80162938F0121153105410551057D
:1020200089F7309721F0CF016ADF8C01C8CF10E02B
:1020300000E0C5CFFF920F931F93CF93DF93809162
:102040000302882309F4ACC080910402882309F4B8
:10205000A7C080910702882309F4A2C08091DD0502
:102060009091DE05019609F49BC084E592E047DF7C
:102070008091F3059091F4055BDFE091D905F09133
:10208000DA0580819181880F991F9093A302809334
:10209000A20285819681880F991F9093A702809351
:1020A000A60282859385880F991F9093AB02809337
:1020B000AA0287859089880F991F9093AF02809319
:1020C000AE026281F780F09202020485009306025C
:1020D000118910930102C381D481D093F805C09374
:1020E000F705808591859093F6058093F5058289A3
:1020F00093899093F4058093F30587E30E94BB03D3
:102100006F2D8DE30E94BB03602F80E30E94BB0311
:10211000612F82E20E94BB03D0938900C0938800A4
:102120008091F5059091F605909399008093980021
:102130008091F3059091F4059093290180932801F3
:10214000109203021092040244E150E030E020E0DB
:102150008091DD059091DE0582179307ACF02F5F2B
:102160003F4F8217930784F0E091D905F091DA058B
:10217000E40FF51FDF01549784E101900D928A95D9
:10218000E1F74C5E5F4FE4CF01979093DE058093BB
:10219000DD0582E080936F0080937100809373006F
:1021A000DF91CF911F910F91FF900895AF92BF9251
:1021B000CF92DF92EF92FF920F931F93CF93DF9313
:1021C00000D000D000D01F921F92CDB7DEB76C01B7
:1021D000FE013196CE010C967F0120E22193E81793
:1021E000F907E1F7DA0120E037E09D91B92E992354
:1021F000A9F19E32B9F43A3091F480E02B960FB6F3
:10220000F894DEBF0FBECDBFDF91CF911F910F912C
:10221000FF90EF90DF90CF90BF90AF90089528E0AF
:102220003AE0E3CFEFE7F3E08491882321F03196A1
:102230009813FACFE2CF321700F38FED890F8E3566
:10224000E0F68FE9890F8A3118F440EEB42EB90E0A
:10225000F701E20FF11DB0822F5FC7CF8981803275
:1022600061F28B01FB01838D948DF601948F838F36
:10227000FB01168217821086118612861386148639
:102280001586F80182859385A485B585438954898F
:102290006589768984179507A607B70708F0ADCF3B
:1022A00025E0B695A795979587952A95D1F7F82FAC
:1022B000FF70AF2EF8018581823008F49ECFC801EF
:1022C00015DC97FD9ACFF80182859385A485B585A5
:1022D0004F96A11DB11D82879387A487B587F0E231
:1022E000AF9EB001112462537D4F6115710509F451
:1022F00084CFFB018081882301F1853E19F4B11060
:1023000031C01DC04BE050E0C7010E94A724892BBB
:1023100009F0B7CF6A2DC6012B960FB6F894DEBF31
:102320000FBECDBFDF91CF911F910F91FF90EF9026
:10233000DF90CF90BF90AF9087CDB1105ECFF60108
:10234000A28A80910D0290910E02A0910F02B0918D
:10235000100286879787A08BB18BFB018081882331
:1023600009F44BCFBB24B3948CCFFC0180819181C5
:102370000C9442232DE432E0FC01318320838281DE
:102380009381009711F00C9442230895CF93DF932B
:10239000EC01F0DFCE01DF91CF910C9442230F933B
:1023A0001F93CF93DF93EC0188819981009759F0B7
:1023B0002A813B812617370730F081E0DF91CF91EA
:1023C0001F910F9108958B016F5F7F4F0E94CB2368
:1023D000009759F0998388831B830A832C813D8160
:1023E000232B59F7FC011082E8CF80E0E7CFEF9272
:1023F000FF920F931F93CF93DF93EC017B018A0130
:10240000BA01CDDF28813981811114C02115310530
:1024100019F0C9010E944223198218821D821C8270
:102420001B821A82CE01DF91CF911F910F91FF90F5
:10243000EF9008951D830C83B701C9010E94BD244C
:10244000F1CFFB01DC0111961C921E9213961C9297
:102450001E92129715961C921E9214978617970734
:1024600041F0608171816115710519F044815581D8
:10247000BECF0895FC011182108213821282158250
:102480001482FB0101900020E9F73197AF01461B50
:10249000570BADCFEF92FF920F931F93CF93DF9324
:1024A000EC017B018A011B821A8288EE93E0A0E096
:1024B000B0E08C839D83AE83BF838BE392E09983EE
:1024C00088838DE190E00E94A6229A8F898F0097E1
:1024D00079F02DE1F701DC0101900D922A95E1F7E9
:1024E0004CE050E0B801CE010C960E94C424188E36
:1024F000DF91CF911F910F91FF90EF9008956F9210
:102500007F928F929F92AF92BF92CF92DF92EF9283
:10251000FF920F931F93CF93DF9300D000D0CDB7DE
:10252000DEB7FC01848095808114910409F499C080
:10253000FB013C01A080B180FC01E080F180B5018D
:10254000C7010E94D324009709F48BC08C010E1997
:102550001F090F3F100709F484C068010815190509
:1025600008F083C0F701E00FF11FE114F10421F43A
:102570001092B002E0EBF2E08081803209F475C085
:102580000F5F1F4FEACF8E199F097C012FEFE21AD0
:10259000F20A0E151F0528F49E2D8F2D7801C92EE5
:1025A000D82E63E572E0CE01019664DFF301048169
:1025B0001581E016F10618F5C016D10608F486015B
:1025C000F30160817181FB01E00FF11FD080108267
:1025D0006E0D7F1D61157105B9F1FB0101900020A1
:1025E000E9F73197AF01461B570BCE010196FFDE8D
:1025F000F30180819181080F191FF801D082898130
:102600009A81C12CD12C7601009721F00E94DB1D0C
:102610006B017C01CE010196A8DEC701B6012696AA
:102620000FB6F894DEBF0FBECDBFDF91CF911F91E3
:102630000F91FF90EF90DF90CF90BF90AF909F9061
:102640008F907F906F90089589819A81009711F003
:102650000E9442231A8219821E821D821C821B82C2
:10266000C7CFC12CD12C7601D8CFB501C7010E94AC
:10267000D324009709F087CF8FEF9FEF86CF2F925B
:102680003F924F925F926F927F928F929F92AF9202
:10269000BF92CF92DF92EF92FF920F931F93CF934F
:1026A000DF93CDB7DEB7E9970FB6F894DEBF0FBE64
:1026B000CDBF63E572E0CE014B96DCDE3DDB97FDDE
:1026C0001DC08A309105D1F089831A820F8D18A11F
:1026D0000F5F1F4FB801CE014B9661DE882371F367
:1026E0002B8D3C8D8F8D98A1BE016F5F7F4F820F28
:1026F000931F0E94BD2418A30F8FE0CF68E572E0FE
:10270000CE014596B7DEBE01655E7F4FCE010196D4
:1027100098DEBE016B5E7F4FCE010196F0DE0E9417
:10272000BA211B01CE01019620DECE0145961DDEA9
:1027300021E02216310409F0DAC36AE572E0CE0125
:10274000459698DEBE01655E7F4FCE01019679DE2B
:10275000BE016B5E7F4FCE010196D1DE4B015C0165
:10276000CE01019602DECE014596FFDD6CE572E0FA
:10277000CE0145967FDEBE01655E7F4FCE0101969C
:1027800060DEBE016B5E7F4FCE010196B8DE69A3AD
:102790007AA38BA39CA3CE010196E7DDCE014596DB
:1027A000E4DD6EE572E0CE01459664DEBE01655E55
:1027B0007F4FCE01019645DEBE016B5E7F4FCE019D
:1027C00001969DDECE010196D0DDCE014596CDDD90
:1027D00060E672E0CE0145964DDEBE01655E7F4F3C
:1027E000CE0101962EDEBE016B5E7F4FCE010196BB
:1027F00086DE6B017C01CE010196B7DDCE014596E8
:10280000B4DD62E672E0CE01459634DEBE01655E5F
:102810007F4FCE01019615DEBE016B5E7F4FCE016C
:1028200001966DDE2B013C01CE0101969EDDCE01AD
:1028300045969BDDC301B2010E94BA2169AB7AAB18
:102840008BAB9CAB49A95AA95EAB4DAB20E030E005
:10285000A901C501B4010E94531F8823B1F0209142
:10286000B9023091BA024091BB025091BC02C5013D
:10287000B4010E9488208092B9029092BA02A0927C
:10288000BB02B092BC024B015C0120E030E0A90128
:1028900069A17AA18BA19CA10E94531F882319F1E1
:1028A0002091B5023091B6024091B7025091B80222
:1028B00069A17AA18BA19CA10E948820362F272F85
:1028C00049A15AA16BA17CA14093B5025093B602D5
:1028D0006093B7027093B802432F522FBC0149A3F3
:1028E0005AA36BA37CA320E030E0A901C701B60185
:1028F0000E94531F8823B1F02091B1023091B2029F
:102900004091B3025091B402C701B6010E948820E1
:10291000C092B102D092B202E092B302F092B4023D
:102920006B017C0120E030E048EC52E4C501B401C9
:102930000E94B81F2B013C0120E030E0A9010E9459
:10294000492218160CF07BC120E030E040E05FE344
:10295000C301B2010E9489200E94BA2178AB6FA7FF
:1029600020E030E048EC52E469A17AA18BA19CA15F
:102970000E94B81F2B013C0120E030E0A9010E9419
:10298000492218160CF064C120E030E040E05FE31B
:10299000C301B2010E9489200E94BA217EA76DA7BF
:1029A00020E030E04CED52E4C701B6010E94B81FB0
:1029B0002B013C0120E030E0A9010E9449221816B9
:1029C0000CF04FC120E030E040E05FE3C301B20112
:1029D0000E9489200E94BA217CA76BA720E030E0EA
:1029E000A901C501B4010E94531F881F8827881FB1
:1029F00011E0812789AF20E030E0A90169A17AA127
:102A00008BA19CA10E94531F881F8827881F8127A4
:102A100088AF20E030E0A901C701B6010E94531F32
:102A2000881F8827881F81278FAB6DA97EA96230F8
:102A3000710544F1A9A9BAA9BD01BB0F880B990B77
:102A40000E94591F20E030E040E752E40E945221EA
:102A500020E030E048EC52E40E94B81F9B01AC013A
:102A600060E074E284E799E40E9452219B01AC018A
:102A70000E9489200E94BA21709312026093110271
:102A8000CB0156DA20E030E0A901C501B4010E9473
:102A9000531F882309F446C10091110210911202BC
:102AA00020E030E0A90169A17AA18BA19CA10E943C
:102AB000531F882309F4E6C029A13AA14BA15CA1C8
:102AC000C501B4010E94FC206B017C010E944F21D2
:102AD0004B015C01B801110F880B990B0E94591F23
:102AE0002B013C01AC019B01C501B4010E94B81F40
:102AF0004B015C0120E030E0A9010E944922181638
:102B00000CF0B8C0C501B4010E94BA217EA36DA328
:102B1000C701B6010E9454229B01AC01C301B2015E
:102B20000E94B81F6B017C0120E030E0A9010E94E7
:102B3000492218160CF0A2C0C701B6010E94BA21A2
:102B400078A76FA31AA619A64FA558A95A83498337
:102B500059AD5B836DA17EA17D836C838DA59EA500
:102B60009F838E8398AD9887AFA1B8A5BA87A987B0
:102B70002BA53CA5398B288B3FA93A8B49A55AA593
:102B80005C8B4B8B2091DD053091DE05A9014E5FFA
:102B90005F4FE090D905F090DA058091DB059091C8
:102BA000DC058E199F099595879595958795EDEC90
:102BB000FCEC8E9FB0018F9F700D9E9F700D1124B5
:102BC000641775070CF01FC1C9010196880F991F82
:102BD000841795070CF4CA01281739073CF09C01AB
:102BE000215031093093DE052093DD0524E1289F33
:102BF0008001299F100D11248736964008F4EFC0FC
:102C00008FEF9FEF0E94A6226C01080F191FA09062
:102C1000DD05B090DE05970150E040E0A416B50652
:102C20000CF4DFC064E1F901DC0101900D926A95BA
:102C3000E1F74F5F5F4F2C5E3F4F4496EFCFA3010C
:102C4000920160E070E080E09FE30E94882084CEE3
:102C5000A301920160E070E080E09FE30E94882081
:102C60009BCEA301920160E070E080E09FE30E94B0
:102C70008820B0CEC501B401905846CFC701B60137
:102C800090585CCF9801220F331F3EA32DA320E064
:102C900030E0A901C701B6010E94531F882309F43F
:102CA00053CF4DA15EA1BA01550F880B990B0E941D
:102CB000591F69A37AA38BA39CA320E030E0A9014C
:102CC000C701B6010E944922181624F0F7FAF094C1
:102CD000F7F8F094A701960169A17AA18BA19CA1B4
:102CE0000E94B81F20E030E04CED52E40E94B81F73
:102CF0006B017C0120E030E0A901C501B4010E9414
:102D00004922181624F0B7FAB094B7F8B094A50188
:102D10009401C701B6010E9452210E94BA217AA7EC
:102D200069A712CF20E030E0A90169A17AA18BA1A7
:102D30009CA10E94531F882309F406CF60911102C1
:102D400070911202CB01880F991F98A78FA320E0E2
:102D500030E0A901C701B6010E94531F882309F47E
:102D6000F3CEAFA1B8A5BD01BB0F880B990B0E9494
:102D7000591F4B015C0120E030E0A901C701B601F9
:102D80000E944922181624F0F7FAF094F7F8F0940C
:102D9000A7019601C501B4010E94B81F20E030E0F0
:102DA0004CED52E40E94B81F6B017C0120E030E042
:102DB000A90169A17AA18BA19CA10E9449221816A0
:102DC0004CF029A13AA14BA15CA1505829A33AA3E8
:102DD0004BA35CA329A13AA14BA15CA19ACFC80146
:102DE00011CFE114F10419F0C7010E944223D092DF
:102DF000DA05C092D9051093DC050093DB05B0928B
:102E0000DE05A092DD058091D9059091DA0540910B
:102E1000DD055091DE052091DB053091DC05281B96
:102E2000390B3595279535952795EDECFCEC2E9FC4
:102E3000B0012F9F700D3E9F700D1124641B750B08
:102E40006230710524F41B01A1E02A1A310824E143
:102E5000F22EF29C8001F39C100D11244F5F5F4F06
:102E6000F49E9001F59E300D1124A801BE016F5F04
:102E70007F4F820F931F0E94B42481E090E082195B
:102E80009309F89EA001F99E500D112461E070E0B5
:102E90006C0F7D1F600F711F8091D9059091DA052D
:102EA0000E94B4248091DD059091DE0501969093F7
:102EB000DE058093DD05CE014B9657DAE9960FB615
:102EC000F894DEBF0FBECDBFDF91CF911F910F9160
:102ED000FF90EF90DF90CF90BF90AF909F908F903A
:102EE0007F906F905F904F903F902F9008954F8DFF
:102EF00058A16B8D7C8D80ED94E00E94FC0181E5F2
:102F000092E00E947F0FD7CF1F920F920FB60F92C1
:102F100011240BB60F922F933F934F935F936F93B0
:102F20007F938F939F93AF93BF93EF93FF9380ED26
:102F300094E00E946F02FF91EF91BF91AF919F913A
:102F40008F917F916F915F914F913F912F910F9052
:102F50000BBE0F900FBE0F901F9018951F920F92EF
:102F60000FB60F9211240BB60F922F938F939F934E
:102F7000EF93FF93E091E004F091E1048081E09110
:102F8000E604F091E70482FD1DC090818091E90480
:102F90008F5F8F732091EA04821741F0E091E9047A
:102FA000F0E0E053FB4F958F8093E904FF91EF91A0
:102FB0009F918F912F910F900BBE0F900FBE0F908E
:102FC0001F9018958081F2CF1F920F920FB60F922B
:102FD00011242F933F938F939F93AF93BF9380912F
:102FE000C8029091C902A091CA02B091CB0230915F
:102FF000C70223E0230F2D3758F50196A11DB11DFF
:103000002093C7028093C8029093C902A093CA027A
:10301000B093CB028091C3029091C402A091C502EB
:10302000B091C6020196A11DB11D8093C302909379
:10303000C402A093C502B093C602BF91AF919F9105
:103040008F913F912F910F900FBE0F901F90189569
:1030500026E8230F0296A11DB11DD2CF1F920F9219
:103060000FB60F9211240BB60F922F933F934F93ED
:103070005F936F937F938F939F93AF93BF93CF9300
:10308000DF93EF93FF93C091AC02D091AD0280919A
:10309000AE029091AF028C179D0719F16091080262
:1030A00081E06827609308028AE10E94BB032196B1
:1030B000D093AD02C093AC02FF91EF91DF91CF911D
:1030C000BF91AF919F918F917F916F915F914F9140
:1030D0003F912F910F900BBE0F900FBE0F901F903E
:1030E00018951092730081E0809307021092AD0250
:1030F0001092AC020E941A10DFCF1F920F920FB6EF
:103100000F9211240BB60F922F933F934F935F931F
:103110006F937F938F939F93AF93BF93EF93FF939F
:103120002091AA023091AB028091A8029091A9024D
:103130002817390781F182E10E949303892B09F155
:103140008091060281111DC0109272001092AB0294
:103150001092AA021092A9021092A802FF91EF9178
:10316000BF91AF919F918F917F916F915F914F919F
:103170003F912F910F900BBE0F900FBE0F901F909D
:1031800018956091050281E068276093050284E24A
:103190000E94BB03E3CF10927200E0CF1F920F9208
:1031A0000FB60F9211240BB60F922F933F934F93AC
:1031B0005F936F937F938F939F93AF93BF93CF93BF
:1031C000DF93EF93FF93C091A402D091A502809169
:1031D000A6029091A7028C179D0719F160910B022E
:1031E00081E0682760930B028CE30E94BB03219669
:1031F000D093A502C093A402FF91EF91DF91CF91EC
:10320000BF91AF919F918F917F916F915F914F91FE
:103210003F912F910F900BBE0F900FBE0F901F90FC
:1032200018951092710081E0809304021092A5021B
:103230001092A4020E941A10DFCF1F920F920FB6B5
:103240000F9211240BB60F922F933F934F935F93DE
:103250006F937F938F939F93AF93BF93CF93DF939E
:10326000EF93FF93C091A002D091A1028091A2029E
:103270009091A3028C179D0719F160910C0281E0D7
:10328000682760930C0286E30E94BB032196D093CB
:10329000A102C093A002FF91EF91DF91CF91BF9166
:1032A000AF919F918F917F916F915F914F913F91DE
:1032B0002F910F900BBE0F900FBE0F901F9018957F
:1032C00010926F0081E0809303021092A10210928D
:1032D000A0020E941A10DFCFCF92DF92EF92FF92EE
:1032E000CF93DF93E0EDF4E01382128288EEC82ED4
:1032F00083E0D82EE12CF12CC482D582E682F782BD
:103300008DE192E09183808385EC90E095878487BE
:1033100084EC90E09787868780EC90E0918B808B9F
:1033200081EC90E0938B828B82EC90E0958B848B88
:1033300086EC90E0978B868B118E128E138E148EF6
:10334000EDE6F5E080E580831182EFE6F5E0158299
:1033500016821186138682E090E0A0E0B0E08487B8
:103360009587A687B78713A215A614A68FE292E0C9
:1033700093A782A717A680911102909112029093B1
:10338000F8058093F7059093F6058093F5059093E3
:10339000F4058093F305C7EDD5E08DE492E09983C1
:1033A000888390E080E00E94A6229B838A832FEF8F
:1033B0003FEF3F832E839D838C83ECEBF5E01382FC
:1033C0001282C482D582E682F7828BE392E09183F7
:1033D0008083128E118E148660E08DE00E94E803D7
:1033E000E8EBF5E08DE090E09183808386E490E067
:1033F00093838283DF91CF91FF90EF90DF90CF9006
:103400000895CF93DF93CDB7DEB7C357D1090FB679
:10341000F894DEBF0FBECDBF789484B5826084BDC2
:1034200084B5816084BD85B5826085BD85B58160C8
:1034300085BD80916E00816080936E001092810046
:103440008091810082608093810080918100816001
:1034500080938100809180008160809380008091C2
:10346000B10084608093B1008091B000816080934E
:10347000B0008091910082608093910080919100D2
:103480008160809391008091900081608093900092
:103490008091A10082608093A1008091A100816051
:1034A0008093A1008091A00081608093A000809112
:1034B00021018260809321018091210181608093AC
:1034C00021018091200181608093200180917A0008
:1034D000846080937A0080917A00826080937A0081
:1034E00080917A00816080937A0080917A00806870
:1034F00080937A001092C10061E086E30E94E803A5
:1035000061E087E30E94E80361E086E20E94E8034D
:10351000109280001AE01093810010928200B0E9AE
:10352000EB2EFF24F394F0928900E092880061E092
:103530008CE30E94E80361E08DE30E94E80361E010
:1035400088E30E94E803109290001093910010927B
:103550009200F0929900E092980061E08EE20E9461
:10356000E80361E08DE30E94E80361E088E30E94E4
:10357000E80361E084E20E94E80361E082E20E94E5
:10358000E80361E08EE10E94E8031092A00010932E
:10359000A1001092A200F092A900E092A80061E0C0
:1035A0008AE10E94E80361E08CE10E94E80361E0A7
:1035B00088E10E94E80361E08CE10E94BB03109265
:1035C000200110932101109222018CEA90E0909347
:1035D00029018093280162E083E00E94E80362E011
:1035E0008EE00E94E80362E082E10E94E80361E06D
:1035F0008AE00E94E80361E089E00E94E80361E05C
:1036000089E00E94BB0361E08AE00E94BB0361E0A5
:1036100081E60E94F20E61E085E30E94E80380915A
:103620009E05882321F089E995E00E94290B1092DC
:103630007A0510927805109275051092740584E051
:10364000809373050E9441048B0161E080917305B2
:103650000E94E80361E0809173050E94BB03FFB6FE
:10366000F8948091CC02811127C0EEE6F3E08491BA
:10367000E8E2F3E09491E82FF0E0EE0FFF1FE7524D
:10368000FD4FA591B491EC91E92321F461E085E32C
:103690000E94BB0361E085E30E94E8038CB5806172
:1036A0008CBD8CB580648CBD61E084E30E94E8032E
:1036B00061E083E30E94E8038091CC028F5F8093F6
:1036C000CC02FFBE82E580936D0510926E0580915D
:1036D0006D0590916E050E947E04FAE0FF2E8FEF3B
:1036E0000E945D04FA94F110FACF8FE695E00E94F3
:1036F000810420E030E0A90160E08FE695E00E94BF
:103700009504F82E8093790521E0821789F00E94B4
:103710004104601B710B613D774058F381E0809359
:1037200074058FE695E00E94530489E792E07CC01F
:103730002AEA31E040E050E068E08FE695E00E9440
:10374000950482FF2AC0F0927A0580917A05C12CF7
:10375000D12CE12C70E4F72E823019F0C12CD12C41
:10376000760120E030E0A90167E38FE695E00E9452
:103770009504A701960169E28FE695E00E94950401
:10378000809379058823D1F00E944104601B710B5E
:10379000613D774030F388E0C2CFE4E0FE2E0E9426
:1037A000640480937905FA94F110F9CF8A3A11F004
:1037B00082E0B5CF82E080937A05C7CF80917A0509
:1037C0008230D1F420E030E0A9016AE38FE695E091
:1037D0000E949504882311F086E0A1CF0E94640422
:1037E000807C803C19F483E080937A050E94640415
:1037F0000E9464040E9464048FE695E00E945304D2
:1038000080E580936D0510926E0581E00E9461064F
:10381000882309F4D0C089E995E00E941309882320
:1038200009F483CF84E692E00E948C0FE091E004DB
:10383000F091E10482E08083E091DC04F091DD040A
:103840001082E091DE04F091DF048FEC808310920F
:10385000E804E091E404F091E50486E08083E091DF
:10386000E204F091E304808180618083E091E204CE
:10387000F091E304808188608083E091E204F0911C
:10388000E304808180688083E091E204F091E304A6
:1038900080818F7D80831C821B820FE212E01A835D
:1038A00009831E82CE0101960E941309BE016F5F3B
:1038B0007F4FCE01CB960E94CC0C19A218A21F8F6D
:1038C0000E8F1BA221968FAD219781117BC06C9624
:1038D0001FAE1EAE6C9788EE93E0A0E0B0E0A0961D
:1038E0008CAF9DAFAEAFBFAFA0978BE392E06A966F
:1038F0009FAF8EAF6A97E3961FAE1EAEE397A59675
:103900001FAEA5976C968EAD9FAD6C979093BF053B
:103910008093BE05A0968CAD9DADAEADBFADA0971A
:103920008093C0059093C105A093C205B093C305D1
:10393000A4968CAD9DADAEADBFADA4978093C405EC
:103940009093C505A093C605B093C705A8E5B0E060
:10395000AC0FBD1F1C96E8ECF5E08D91819385E0DE
:10396000E53DF807D1F7E3968EAD9FADE3979093D1
:10397000D6058093D505FF24F3940BE316E083E08E
:103980000E949303892B09F43FC0FF24F3940BE3B7
:1039900016E08EE00E949303892B09F041C06091EC
:1039A0000B026F2560930B028CE30E94BB03C801DE
:1039B0000197F1F7EECF80E00E946106882309F4B9
:1039C000B4CE29CF40E952E0BE01655C7F4FCE0105
:1039D0004E960E94D610882309F479CFCE01CB965B
:1039E0000E94290BBE01625E7F4FCE0101960E94AC
:1039F000CC0C40E952E0BE016F5F7F4FCE01885A88
:103A00009F4F0E944A127ECF60910C026F256093F7
:103A10000C0286E30E94BB03C8010197F1F7AFCF08
:103A200010920A02109209028091090290910A02F2
:103A3000449764F40E943F138091090290910A0216
:103A4000019690930A0280930902EECF8BE992E0EF
:103A50000E948C0F60E1E62EF12C10E000E08091D6
:103A6000B8050E942404080F191F21E0E21AF1088A
:103A7000B1F781E0E4968FAFE497E4962FADE49739
:103A8000822F90E021E08B36920708F08CC0DC0199
:103A9000AA0FBB1FAA0FBB1F9D0125593E4FF9015D
:103AA00045915491041715070CF078C00197880FC1
:103AB000991F880F991FBC0163597E4FFB016590C8
:103AC000749085599E4FFC0145915491FD01E35935
:103AD000FE4F25903490FB0185909490F90145901C
:103AE0005490FC01A590B490B801641B750B072E8F
:103AF000000C880B990BDDD16B017C01B1016819B9
:103B00007909072E000C880B990BD3D19B01AC01CE
:103B1000C701B6012DD26B017C01B2016A197B0984
:103B2000072E000C880B990BC4D19B01AC01C70177
:103B3000B601B8D36B017C01B301770C880B990BEC
:103B4000B8D19B01AC01C701B601E3D2E4962FAD19
:103B5000E4972D3349F4EDE5F2E065917491072E79
:103B6000000C880B990BA5D105D48B018091DD0544
:103B70009091DE054D9714F40E943F1361E00A3FD7
:103B800011050CF060E08AE00E94BB038AE00E940D
:103B900024040E94980F0E94FC025CCFE4968FAD33
:103BA000E4978F5F67CF60E070E0CB01CFCF87ED08
:103BB00095E00C94BA116627772700C08F929F92E8
:103BC000AF92BF92CF92DF92EF92FF920F931F932B
:103BD000CF93DF935C017B016115710519F0DB0167
:103BE0008D939C9385010F5F1F4FF501D0818D2F21
:103BF00090E039D16C01892BA9F5DD32A9F50F5F71
:103C00001F4FD5011196DC91C1E05801F1E0AF1AC8
:103C1000B10843E050E068E371E0C5012CD1892B85
:103C200061F5680182E0C80ED11C45E050E063E315
:103C300071E0C60120D1892B21F4680197E0C90EFB
:103C4000D11CE114F10419F0D701CD92DC9260E0AF
:103C500070E080E89FEFC111F9C060E070E080E89B
:103C60009FE7F4C05801BECFDB3229F485010E5F17
:103C70001F4FF501D181C0E0C8CF43E050E060E3C1
:103C800071E0C501F8D0892BE9F0F80110E000E0FF
:103C900020E030E0A9015F01B0ED8B2E8D0E89E0B0
:103CA0008815C0F19C2E689491F88C2F8870C2FF03
:103CB00016C0811102C00F5F1F4F3196D501DC91F4
:103CC000C92DE9CFE114F10429F00E5F1F4FF70170
:103CD0001183008360E070E080EC9FE7B7C0882329
:103CE00011F001501109A5E0B0E0F9D19B01AC0140
:103CF000220F331F441F551F280D311D411D511D1B
:103D0000283999E93907490799E15907B0F2C6609E
:103D10009C2ED3CFAEEF8A1206C0C3FD3CC09C2EB2
:103D2000689493F8CACFDF7DD534A9F580818D32B0
:103D300039F4C061DF011296818162E070E006C053
:103D4000DF018B32C1F3119661E070E080535D01B9
:103D5000A61AB70A8A30F8F4E0E8CE16ECE0DE06E0
:103D60005CF4B601660F771F660F771FC60ED71E6D
:103D7000CC0CDD1CC80ED11C5D01FFEFAF1ABF0AD1
:103D80008C9180538A3098F1C4FF03C0D194C194C0
:103D9000D1080C0D1D1DC1FF09C0E114F10431F063
:103DA00081E0A81AB108D701AD92BC92CA01B9014D
:103DB0007ED0C370C33009F490584B015C0120E001
:103DC00030E0A90170D0882309F43EC0C7E6D1E0F5
:103DD00017FF05C0119501951109CFE4D1E06E01DF
:103DE000B8E1CB1AD10880E2E82EF12C0EC0D50143
:103DF000B3CFFE0125913591459154910E191F09BC
:103E0000C501B401B5D04B015C01D501C4010E154B
:103E10001F057CF72497F594E794CC16DD06A9F7E7
:103E20008A2F880F8B2F881F8F3F41F020E030E0D2
:103E3000A901C501B40137D0811106C082E290E02A
:103E40009093FA058093F905C501B401DF91CF91F4
:103E50001F910F91FF90EF90DF90CF90BF90AF90A8
:103E60009F908F9008959111E6C0803219F089508B
:103E70008550D0F70895FB01DC014150504088F097
:103E80008D9181341CF08B350CF4805E659161342A
:103E90001CF06B350CF4605E861B611171F3990B9D
:103EA0000895881BFCCF40D008F481E00895E89481
:103EB00009C097FB3EF490958095709561957F4F72
:103EC0008F4F9F4F9923A9F0F92F96E9BB27939520
:103ED000F695879577956795B795F111F8CFFAF430
:103EE000BB0F11F460FF1BC06F5F7F4F8F4F9F4F61
:103EF00016C0882311F096E911C0772321F09EE8BF
:103F0000872F762F05C0662371F096E8862F70E024
:103F100060E02AF09A95660F771F881FDAF7880FFE
:103F20009695879597F90895990F0008550FAA0B54
:103F3000E0E8FEEF16161706E807F907C0F01216BC
:103F40001306E407F50798F0621B730B840B950BBF
:103F500039F40A2661F0232B242B252B21F4089514
:103F60000A2609F4A140A6958FEF811D811D0895B1
:103F70000BD07BC06CD028F071D018F0952309F0DD
:103F80005DC062C01124A5C081D0A0F3959FD1F37C
:103F9000950F50E0551F629FF001729FBB27F00DF7
:103FA000B11D639FAA27F00DB11DAA1F649F66274C
:103FB000B00DA11D661F829F2227B00DA11D621F9B
:103FC000739FB00DA11D621F839FA00D611D221F55
:103FD000749F3327A00D611D231F849F600D211D39
:103FE000822F762F6A2F11249F5750408AF0E1F0DC
:103FF00088234AF0EE0FFF1FBB1F661F771F881F25
:1040000091505040A9F79E3F510570F017C061C014
:104010005F3FECF3983EDCF3869577956795B7950F
:10402000F795E7959F5FC1F7FE2B880F911D969539
:10403000879597F9089599278827089597F99F6795
:1040400080E870E060E008959FEF80EC0895002420
:104050000A941616170618060906089500240A94ED
:1040600012161306140605060895092E0394000C73
:1040700011F4882352F0BB0F40F4BF2B11F460FF02
:1040800004C06F5F7F4F8F4F9F4F089557FD90582B
:10409000440F551F59F05F3F71F04795880F97FB0C
:1040A000991F61F09F3F79F08795089512161306C6
:1040B0001406551FF2CF4695F1DF08C016161706F5
:1040C0001806991FF1CF869571056105089408952A
:1040D000E894BB2766277727CB0197F9089509D085
:1040E000A59F900DB49F900DA49F800D911D11244C
:1040F0000895A29FB001B39FC001A39F700D811DC1
:104100001124911DB29F700D811D1124911D0895E0
:104110005058BB27AA270ED0A8CF99DF30F09EDFDA
:1041200020F031F49F3F11F41EF48ECF0EF4E09591
:10413000E7FB84CFE92FAADF80F3BA176207730782
:104140008407950718F071F49EF5C2CF0EF4E09540
:104150000B2EBA2FA02D0B01B90190010C01CA0141
:10416000A0011124FF27591B99F0593F50F4503EEC
:1041700068F11A16F040A22F232F342F4427585FDE
:10418000F3CF469537952795A795F0405395C9F7F6
:104190007EF41F16BA0B620B730B840BBAF09150AE
:1041A000A1F0FF0FBB1F661F771F881FC2F70EC04D
:1041B000BA0F621F731F841F48F487957795679520
:1041C000B795F7959E3F08F0B3CF9395880F08F009
:1041D0009927EE0F97958795089539DF58F080E875
:1041E00091E009F49EEF3ADF28F040E851E059F4FD
:1041F0005EEF09C029CF6CCFE92FE07847DF68F385
:10420000092E052AC1F3261737074807590738F042
:104210000E2E07F8E02569F0E025E0640AC0EF63A0
:1042200007F8009407FADB01B9019D01DC01CA011E
:10423000AD01EF9346D019DF0AD05F91552331F0DD
:104240002BED3FE049E450FD49EC63CF0895DF9347
:10425000DD27B92FBF7740E85FE31616170648073A
:104260005B0710F4D92F19D19F938F937F936F938E
:1042700021D1E4EEF0E0AFD0F8DE2F913F914F91E5
:104280005F9182DEDD2349F09058A2EA2AED3FE0FB
:1042900049EC5FE3D0785D274DDFDF91E6CEC1D0FA
:1042A000E395E6C00CD0E1CED9DE40F0D0DE30F0B0
:1042B00021F45F3F19F0C2CE51110BCFC5CEE6DE1F
:1042C00098F39923C9F35523B1F3951B550BBB27DD
:1042D000AA2762177307840738F09F5F5F4F220F8A
:1042E000331F441FAA1FA9F333D00E2E3AF0E0E883
:1042F00030D091505040E695001CCAF729D0FE2FCF
:1043000027D0660F771F881FBB1F26173707480760
:10431000AB07B0E809F0BB0B802DBF01FF27935816
:104320005F4F2AF09E3F510568F088CED2CE5F3FA6
:10433000ECF3983EDCF3869577956795B795F795FE
:104340009F5FC9F7880F911D9695879597F90895F6
:10435000E1E0660F771F881FBB1F62177307840792
:10436000BA0720F0621B730B840BBA0BEE1F88F7A1
:10437000E095089504D06894B111ABCE08958EDE17
:1043800088F09F5790F0B92F9927B751A0F0D1F03E
:10439000660F771F881F991F1AF0BA95C9F712C0C8
:1043A000B13081F095DEB1E0089592CE672F782F7D
:1043B0008827B85F39F0B93FCCF386957795679534
:1043C000B395D9F73EF490958095709561957F4FA0
:1043D0008F4F9F4F0895DF93CF931F930F93FF92BB
:1043E000EF92DF927B018C01689405C0DA2EEF0119
:1043F000CBDDFE01E894A59125913591459155912C
:10440000AEF3EF0197DEFE019701A801DA9479F788
:10441000DF90EF90FF900F911F91CF91DF91089562
:1044200013CE3CDEE8F3E894E0E0BB279F57F0F0C2
:104430002AED3FE049EC06C0EE0FBB0F661F771F69
:10444000881F28F0B23A62077307840728F0B25A2F
:10445000620B730B840BE3959A9572F7803830F4F6
:104460009A95BB0F661F771F881FD2F7904827C009
:10447000EF93E0FF06C0A2EA2AED3FE049EC5FEBD4
:1044800059DEF3DD0F90039401FC9058E1E1F1E077
:1044900022C04ADD08F48FEF08959B01AC0160E073
:1044A00070E080E89FE3FECE9F93BBDF0F9007FC98
:1044B000EE5FDECF9B01AC015BCD9F3F31F09150B1
:1044C00020F4879577956795B795880F911D9695F8
:1044D000879597F908959F938F937F936F93FF9399
:1044E000EF939B01AC0144DDEF91FF9174DF2F91BD
:1044F0003F914F915F913CCDA1E21A2EAA1BBB1BAD
:10450000FD010DC0AA1FBB1FEE1FFF1FA217B3079F
:10451000E407F50720F0A21BB30BE40BF50B661FB5
:10452000771F881F991F1A9469F760957095809579
:1045300090959B01AC01BD01CF010895EE0FFF1FC7
:10454000881F8BBF0790F691E02D19940F931F934E
:10455000CF93DF938230910510F482E090E0E091F8
:10456000FD05F091FE0530E020E0B0E0A0E03097DE
:1045700099F42115310509F44AC0281B390B243060
:104580003105D8F58A819B816115710589F1FB019F
:1045900093838283FE0111C0408151810281138186
:1045A00048175907E0F04817590799F4109761F038
:1045B00012960C93129713961C933296CF01DF91AB
:1045C000CF911F910F9108950093FD051093FE0563
:1045D000F4CF2115310551F04217530738F0A901E6
:1045E000DB019A01BD01DF01F801C1CFEF01F9CF75
:1045F0009093FE058093FD05CDCFFE01E20FF31FE2
:10460000819391932250310939832883D7CF209108
:10461000FB053091FC05232B41F4209115023091CC
:1046200016023093FC052093FB0520911302309174
:1046300014022115310541F42DB73EB74091170200
:1046400050911802241B350BE091FB05F091FC05FD
:10465000E217F307A0F42E1B3F0B2817390778F059
:10466000AC014E5F5F4F2417350748F04E0F5F1FB8
:104670005093FC054093FB05819391939FCFF0E00D
:10468000E0E09CCFCF93DF930097E9F0FC013297F5
:1046900013821282A091FD05B091FE05ED0130E07C
:1046A00020E01097A1F420813181820F931F209187
:1046B000FB053091FC052817390709F061C0F0931C
:1046C000FC05E093FB05DF91CF910895EA01CE1739
:1046D000DF07E8F54A815B819E0141155105B1F77D
:1046E000E901FB83EA8349915991C40FD51FEC1767
:1046F000FD0761F4808191810296840F951FE90185
:1047000099838883828193819B838A83F0E0E0E0B0
:1047100012968D919C9113970097B9F52D913C912C
:104720001197CD010296820F931F2091FB053091C6
:10473000FC052817390739F6309751F51092FE0518
:104740001092FD05B093FC05A093FB05BCCFD3836D
:10475000C28340815181840F951FC817D90761F426
:104760004E5F5F4F88819981480F591F5183408365
:104770008A819B81938382832115310509F0B0CF13
:10478000F093FE05E093FD059ECFFD01DC01C0CF57
:1047900013821282D7CF4F925F926F927F928F9245
:1047A0009F92AF92BF92CF92DF92EF92FF920F93C0
:1047B0001F93CF93DF938C01009791F4CB01DF918E
:1047C000CF911F910F91FF90EF90DF90CF90BF900E
:1047D000AF909F908F907F906F905F904F90B6CEEC
:1047E000FC01E60FF71F9C0122503109E217F30785
:1047F00008F4AAC0D901CD91DC911197C617D7074B
:1048000018F1C530D10570F0CE01049786179707CF
:1048100048F0C61BD70B2297C193D1936D937C931D
:10482000CF0130DFC801DF91CF911F910F91FF9031
:10483000EF90DF90CF90BF90AF909F908F907F9040
:104840006F905F904F9008955B01AC1ABD0A4C01C8
:104850008C0E9D1EA091FD05B091FE05512C412CA2
:10486000F12CE12C109731F58091FB059091FC051E
:104870008815990509F05CC04616570608F058C01F
:104880008091130290911402009741F48DB79EB766
:104890004091170250911802841B950BE817F907F5
:1048A00008F052C0F093FC05E093FB05F901718319
:1048B0006083B8CF8D919C91119712966C9012974E
:1048C00013967C901397A815B90559F56C0142E031
:1048D000C40ED11CCA14DB0420F1AC014A195B09D7
:1048E000DA011296159780F06282738251834083B9
:1048F000D9016D937C93E114F10471F0D701139603
:10490000FC93EE9312978ECF22968C0F9D1FF90188
:1049100091838083F301EFCFF093FE05E093FD05D3
:1049200081CF4816590608F42C017D01D3019ACF96
:10493000CB010CDE7C01009739F0AE01B80114D038
:10494000C801A0DE87016ECF10E000E06BCFFB0155
:10495000DC0104C08D910190801921F44150504038
:10496000C8F7881B990B0895FB01DC0102C0019078
:104970000D9241505040D8F70895FB01DC010190A1
:104980000D920020E1F70895FB01DC0141505040F9
:1049900048F001900D920020C9F701C01D924150CE
:1049A0005040E0F70895FB0151915523A9F0BF0154
:1049B000DC014D9145174111E1F759F4CD0101900A
:1049C000002049F04D9140154111C9F3FB014111FF
:1049D000EFCF81E090E00197089511E0C9ECD1E0BC
:1049E00000E005C0802FFE01A9DD2196011DCA3C13
:0C49F000D10780E00807B1F7F894FFCF72
:1049FC0001010101010101010101000101FFFFFFA2
:104A0C00FFBC020000FF058000000000009102FCCA
:104A1C00012902DD025A0238024C0200000000BCDF
:104A2C000CFC01EF0E1C0D00000000600D440DEF9E
:104A3C000E1D0D240D930ECD0E00000000BA11C6F4
:104A4C00110D0A00453A20004700580059005A0041
:104A5C0045004600696E697469616C697A617469B4
:104A6C006F6E20646F6E652E00696E697469616C7F
:104A7C00697A6174696F6E206661696C6564210086
:104A8C0073616D706C652E7478740072756E0000B5
:020000023000CC
:10E000000D9489F10D94B2F10D94B2F10D94B2F129
:10E010000D94B2F10D94B2F10D94B2F10D94B2F1F0
:10E020000D94B2F10D94B2F10D94B2F10D94B2F1E0
:10E030000D94B2F10D94B2F10D94B2F10D94B2F1D0
:10E040000D94B2F10D94B2F10D94B2F10D94B2F1C0
:10E050000D94B2F10D94B2F10D94B2F10D94B2F1B0
:10E060000D94B2F10D94B2F10D94B2F10D94B2F1A0
:10E070000D94B2F10D94B2F10D94B2F10D94B2F190
:10E080000D94B2F10D94B2F10D94B2F10D94B2F180
:10E090000D94B2F10D94B2F10D94B2F10D94B2F170
:10E0A0000D94B2F10D94B2F10D94B2F10D94B2F160
:10E0B0000D94B2F10D94B2F10D94B2F10D94B2F150
:10E0C0000D94B2F10D94B2F10D94B2F10D94B2F140
:10E0D0000D94B2F10D94B2F10D94B2F10D94B2F130
:10E0E0000D94B2F141546D656761323536300041AF
:10E0F000726475696E6F206578706C6F72657220DE
:10E1000073746B3530305632206279204D4C530099
:10E11000426F6F746C6F616465723E004875683F52
:10E1200000436F6D70696C6564206F6E203D200048
:10E130004350552054797065202020203D20005FF9
:10E140005F4156525F415243485F5F3D2000415658
:10E1500052204C696243205665723D20004743437C
:10E160002056657273696F6E203D20004350552024
:10E1700049442020202020203D20004C6F7720663D
:10E18000757365202020203D20004869676820665F
:10E190007573652020203D200045787420667573D6
:10E1A00065202020203D20004C6F636B2066757336
:10E1B000652020203D20004D617220203720323024
:10E1C000313300312E362E3800342E332E350056A2
:10E1D00023202020414444522020206F7020636F70
:10E1E00064652020202020696E73747275637469E1
:10E1F0006F6E2061646472202020496E74657272B3
:10E20000757074006E6F20766563746F7200726A49
:10E210006D702020006A6D70200057686174207056
:10E220006F72743A00506F7274206E6F7420737541
:10E2300070706F72746564004D7573742062652030
:10E2400061206C6574746572002000577269747483
:10E25000696E672045450052656164696E672045B7
:10E26000450045452065727220636E743D00504F35
:10E27000525400303D5A65726F2061646472003FF1
:10E280003D43505520737461747300403D454550C3
:10E29000524F4D207465737400423D426C696E6B41
:10E2A000204C454400453D44756D70204545505215
:10E2B0004F4D00463D44756D7020464C415348001B
:10E2C000483D48656C70004C3D4C69737420492F83
:10E2D0004F20506F72747300513D51756974005234
:10E2E0003D44756D702052414D00563D73686F7707
:10E2F00020696E7465727275707420566563746FF0
:10E30000727300593D506F727420626C696E6B00BD
:10E310002A0011241FBECFEFD1E2DEBFCDBF01E046
:10E320000CBF12E0A0E0B2E0EEE1FDEF03E00BBFB6
:10E3300002C007900D92A030B107D9F712E0A0E01B
:10E34000B2E001C01D92AE30B107E1F70F9460F367
:10E350000D948DFE01E20EBF0FEF0DBF11241FBE05
:10E360000D9460F30D9400F020E030E040ED57E0B4
:10E3700005C0FA013197F1F72F5F3F4F2817390792
:10E38000C0F308959C01260F311DC901A0E0B0E043
:10E390002F5F3F4FABBFFC018791882361F08093D3
:10E3A000C6008091C00086FFFCCF8091C0008064D1
:10E3B0008093C000EACF08958DE08093C6008091DD
:10E3C000C00086FFFCCF8091C00080648093C000B5
:10E3D0008AE08093C6008091C00086FFFCCF8091C8
:10E3E000C00080648093C00008950F94C2F10F9420
:10E3F000DCF10895FC019081992359F09093C600B7
:10E400008091C00086FFFCCF8091C0008064809323
:10E41000C0003196992379F70895282F982F929567
:10E420009F70892F805D8A3308F0895F8093C600D2
:10E430008091C00086FFFCCF8091C00080648093F3
:10E44000C000822F8F70982F905D9A3308F0995FEB
:10E450009093C6008091C00086FFFCCF8091C000E1
:10E4600080648093C00008959C01FB01853691056E
:10E470001CF46330710594F0C90164E670E00F94F8
:10E480002EFE605D7F4F6093C6008091C00086FFC6
:10E49000FCCF8091C00080648093C0002B30310598
:10E4A00014F43297B4F0C90164E670E00F942EFEC4
:10E4B0006AE070E00F942EFE605D7F4F6093C600AF
:10E4C0008091C00086FFFCCF8091C0008064809363
:10E4D000C000C9016AE070E00F942EFEC0968093E0
:10E4E000C6008091C00086FFFCCF8091C000806490
:10E4F0008093C00008951F93182F8EE692EE60E07F
:10E500000F94C2F11093C6008091C00086FFFCCF2B
:10E510008091C00080648093C0000F94DCF11F9153
:10E5200008952F923F924F925F926F927F928F92B7
:10E530009F92AF92BF92CF92DF92EF92FF920F9392
:10E540001F93DF93CF93CDB7DEB762970FB6F894E2
:10E55000DEBF0FBECDBF382E622ECA01DB015C01CB
:10E560006D01772420E2222E2E010894411C511CBB
:10E570008BC081E0A81680E0B80681E0C80680E084
:10E58000D80628F0C601AA27BB270F940DF2BB2797
:10E59000AD2D9C2D8B2D0F940DF28A2D0F940DF225
:10E5A0002092C6008091C00086FFFCCF8091C00001
:10E5B00080648093C0009DE29093C6008091C0006B
:10E5C00086FFFCCF8091C00080648093C0002092C1
:10E5D000C6008091C00086FFFCCF8091C00080649F
:10E5E0008093C00019828601750188249924A1E0D6
:10E5F0003A1651F03A1620F0B2E03B1661F409C029
:10E600000BBFF701779007C0C7010F9477FE782EF4
:10E6100002C0F7017080872D0F940DF22092C60082
:10E620008091C00086FFFCCF8091C0008064809301
:10E63000C000872D8052F401EF70F0708F3520F408
:10E64000E40DF51D708204C0E40DF51D8EE280839B
:10E650000894E11CF11C011D111D0894811C911CE2
:10E6600090E18916910409F0C2CF80E190E0A0E02A
:10E67000B0E0A80EB91ECA1EDB1E198AC2010F9493
:10E68000FAF10F94DCF16A94662009F072CF629679
:10E690000FB6F894DEBF0FBECDBFCF91DF911F91B3
:10E6A0000F91FF90EF90DF90CF90BF90AF909F9031
:10E6B0008F907F906F905F904F903F902F90089534
:10E6C0002F923F924F925F926F927F928F929F9282
:10E6D000AF92BF92CF92DF92EF92FF920F931F9370
:10E6E000DF93CF93CDB7DEB7CD53D1400FB6F894BB
:10E6F000DEBF0FBECDBF01E20EBF0FEF0DBF94B75F
:10E70000F894A89514BE80916000886180936000A1
:10E7100010926000789493FF05C0E0910002F091A0
:10E7200001021995279A2F9A8091C00082608093E8
:10E73000C00080E18093C40088E18093C1000000A4
:10E74000EE24FF24870144E0A42EB12CCC24DD2448
:10E7500024C0C5010197F1F70894E11CF11C011DCB
:10E76000111D21E2E2162EE4F20620E0020720E06D
:10E77000120718F031E0C32ED12CC801B70127ECE5
:10E780003BE140E050E00F9441FE611571058105C9
:10E79000910519F485B1805885B98091C00087FD35
:10E7A00003C0C114D104A9F2A6014F5F5F4FC25E3E
:10E7B000DE4F59834883CE51D140C25EDE4F8881FF
:10E7C0009981CE51D140019711F00D9410FEC05D9A
:10E7D000DE4F19821882C053D14060E0C15DDE4F28
:10E7E0001882CF52D14088249924C35DDE4F19820C
:10E7F0001882CD52D140C05EDE4F188219821A8233
:10E800001B82C052D140CE5CDE4F188219821A8220
:10E810001B82C253D140EE24FF2487010BBFF701B6
:10E8200007911691C45CDE4F19830883CC53D14005
:10E830000D940BFEC25EDE4F28813981CE51D1404E
:10E840002130310509F52091C600C25EDE4F1982E4
:10E850001882CE51D14022C02F5F3F4F4F4F5F4FA4
:10E86000213082E138078AE7480780E0580780F0C6
:10E87000C45CDE4FE881F981CC53D140EF5FFF4F9C
:10E8800019F0EE27FF27099420E030E040E050E047
:10E890008091C00087FFE0CF2091C600C35DDE4FAE
:10E8A00048815981CD52D1404F5F5F4FC35DDE4FEC
:10E8B00059834883CD52D140213209F063C64A3092
:10E8C000510508F05FC60894811C911C53E0851621
:10E8D000910409F059C600E010E018C081E280936D
:10E8E000C6008091C00086FFFCCF8091C00080648C
:10E8F0008093C0002F5F3F4F2931310579F70F9486
:10E90000DCF10F5F1F4F0530110519F020E030E0FA
:10E91000E5CF10920A0210920B0210920C02109294
:10E920000D02109206021092070210920802109235
:10E930000902109202021092030210920402109235
:10E9400005028FEE90EE60E00F94F5F180E191EE1C
:10E9500060E00F94C2F18091C00087FFFCCF9091DE
:10E96000C600903608F09F759032B8F09093C600BC
:10E970008091C00086FFFCCF8091C00080648093AE
:10E98000C000A0E2A093C6008091C00086FFFCCF2B
:10E990008091C00080648093C000983409F4D7C18E
:10E9A0009934B8F4923409F459C1933458F490333B
:10E9B00019F1903308F4E3C59F33A1F1903409F0C5
:10E9C000DEC5BDC0953409F470C1963409F0D7C5D1
:10E9D00098C1923509F42BC2933538F49C3409F46C
:10E9E000F5C1913509F0CBC518C2963509F445C279
:10E9F000993509F0C4C567C483E792EE62E00F94CD
:10EA0000F5F110920602109207021092080210927D
:10EA1000090210920A0210920B0210920C0210923C
:10EA20000D0213C18FE792EE62E00F94F5F18FEEC5
:10EA300090EE60E00F94F5F181E291EE60E00F94CA
:10EA4000C2F187EB91EE60E00F94F5F180E391EE77
:10EA500060E00F94C2F184EE90EE60E00F94F5F167
:10EA60008FE391EE60E00F94C2F186E090E061E008
:10EA700070E00F9434F20F94DCF18DE591EE60E0DC
:10EA80000F94C2F189EC91EE60E00F94F5F18EE401
:10EA900091EE60E00F94C2F183EC91EE60E00F9490
:10EAA000F5F18CE691EE60E00F94C2F18EE10F94E7
:10EAB0000DF288E90F940DF281E00F940DF20F949E
:10EAC000DCF18BE791EE60E00F94C2F119E0E0E039
:10EAD000F0E010935700E4918E2F0F940DF20F94F5
:10EAE000DCF18AE891EE60E00F94C2F1E3E0F0E03F
:10EAF00010935700E4918E2F0F940DF20F94DCF1D8
:10EB000089E991EE60E00F94C2F1E2E0F0E0109349
:10EB10005700E4918E2F0F940DF20F94DCF188EAE8
:10EB200091EE60E00F94C2F1E1E0F0E01093570045
:10EB30001491812F0F940DF20F94DCF107CF8BE825
:10EB400092EE62E00F94F5F18BE492EE60E00F94A8
:10EB5000F5F10F94DCF100E010E019C0C8016F2D51
:10EB60000F947FFEFF2031F489E492EE60E00F9471
:10EB7000C2F10BC0F092C6008091C00086FFFCCFAE
:10EB80008091C00080648093C0000F5F1F4FC80158
:10EB900081519F41A0E0B0E0ABBFFC01F790BAE229
:10EBA000FB1621F0E2E000301E07C1F60F94DCF105
:10EBB0000F94DCF187E592EE60E00F94F5F10F948D
:10EBC000DCF1CC24DD2400E010E01EC0C8010F946D
:10EBD00077FEF82E882331F489E492EE60E00F94FA
:10EBE000C2F10BC08093C6008091C00086FFFCCFAD
:10EBF0008091C00080648093C000FE1419F00894D6
:10EC0000C11CD11C0F5F1F4FC80181519F41A0E063
:10EC1000B0E0ABBFFC01E790FAE2EF1621F022E092
:10EC20000030120799F60F94DCF10F94DCF182E6C4
:10EC300092EE60E00F94C2F1C60161E070E00F94C3
:10EC400034F20F94DCF10F94DCF110920202109276
:10EC50000302109204021092050278CE89E992EE26
:10EC600062E00F94F5F1279A2F9A16C02F9880E052
:10EC700090E0E0EDF7E03197F1F7019684369105E9
:10EC8000C1F72F9A80E090E0E0EDF7E03197F1F7DF
:10EC9000019684369105C1F78091C00087FFE6CFC9
:10ECA0008091C00087FFFCCF64C485EA92EE62E0E9
:10ECB0000F94F5F140910202509103026091040219
:10ECC0007091050281E020E10F9491F2809102029F
:10ECD00090910302A0910402B091050280509F4FD1
:10ECE000AF4FBF4F8093020290930302A0930402A0
:10ECF000B093050280509041A040B04008F426CE69
:10ED0000A4CF83EB92EE62E00F94F5F140910602FE
:10ED100050910702609108027091090280E020E1A1
:10ED20000F9491F28091060290910702A09108023F
:10ED3000B091090280509F4FAF4FBF4F80930602A2
:10ED400090930702A0930802B0930902FFCD80ECD4
:10ED500092EE62E00F94F5F183E792EE60E00F949B
:10ED6000F5F18FE792EE60E00F94F5F18BE892EE0B
:10ED700060E00F94F5F189E992EE60E00F94F5F10F
:10ED800085EA92EE60E00F94F5F183EB92EE60E09D
:10ED90000F94F5F180EC92EE60E00F94F5F187ECC2
:10EDA00092EE60E00F94F5F188ED92EE60E00F9442
:10EDB000F5F18FED92EE60E00F94F5F18AEE92EEB0
:10EDC00060E00F94F5F183E093EEBDCD87EC92EE19
:10EDD00062E00F94F5F181E40F947BF282E40F94EA
:10EDE0007BF283E40F947BF284E40F947BF285E45E
:10EDF0000F947BF286E40F947BF287E40F947BF20E
:10EE000088E40F947BF28AE40F947BF28BE40F94F6
:10EE10007BF28CE40F947BF299CD88ED92EE62E068
:10EE20000F94F5F1772473948824992409C48FED05
:10EE300092EE62E00F94F5F140910A0250910B02BC
:10EE400060910C0270910D0282E020E10F9491F22A
:10EE500080910A0290910B02A0910C02B0910D02D8
:10EE600080509F4FAF4FBF4F80930A0290930B0289
:10EE7000A0930C02B0930D0269CD8AEE92EE62E08F
:10EE80000F94F5F184EE90EE60E00F94F5F18FECC5
:10EE900091EE60E00F94F5F1662477244301CC5D98
:10EEA000DE4F19821882C452D140D401C301B695F5
:10EEB000A79597958795CA5DDE4F88839983AA8326
:10EEC000BB83C652D140CC5DDE4FA881B981C4520C
:10EED000D1401196CC5DDE4FB983A883C452D14096
:10EEE000CD0162E070E00F9434F2B0E2B093C6005E
:10EEF0008091C00086FFFCCF8091C0008064809329
:10EF0000C000EDE2E093C6008091C00086FFFCCF18
:10EF10008091C00080648093C000F0E2F093C6004E
:10EF20008091C00086FFFCCF8091C00080648093F8
:10EF3000C000CA5DDE4FE880F9800A811B81C6529D
:10EF4000D140BB27A12F902F8F2D0F940DF2CA5DBA
:10EF5000DE4F8881C652D1400F940DF2B0E2FB2EF5
:10EF6000F092C6008091C00086FFFCCF8091C00067
:10EF700080648093C0000DE30093C6008091C000C0
:10EF800086FFFCCF8091C00080648093C00010E2B7
:10EF90001093C6008091C00086FFFCCF8091C00016
:10EFA00080648093C0008BBEF3012791C65DDE4F65
:10EFB0002883CA52D140A22EBB24CC24DD2408943D
:10EFC000611C711C811C911C8BBEF3018791282E42
:10EFD0003324442455240894611C711C811C911C09
:10EFE0008BBEF3013791C55DDE4F3883CB52D140E4
:10EFF0000894611C711C811C911C8BBEF30147910C
:10F00000C45DDE4F4883CC52D140ADEFEA2EAFEF66
:10F01000FA2EAFEF0A2FAFEF1A2F6E0C7F1C801E57
:10F02000911E142D032DF22CEE24EA0CFB1C0C1D5A
:10F030001D1D0F940DF220E22093C6008091C000A8
