:1000000029C1000058C1000056C1000054C10000C1
:1000100052C1000050C100004EC100004CC10000A0
:100020004AC1000048C1000046C1000044C10000B0
:1000300042C1000040C100003EC100003CC10000C0
:100040003AC100000C94BF1A36C1000034C1000050
:1000500032C1000030C100002EC100000C943519DF
:100060002AC100000C94FF180C94D51824C100007C
:1000700022C1000020C100001EC100001CC1000000
:100080000C941E1A18C1000016C1000014C1000013
:1000900012C1000010C100000EC100000CC1000020
:1000A0000AC1000008C1000006C1000004C1000030
:1000B00002C1000000C10000FEC000000C947F19C6
:1000C000FAC00000F8C00000F6C00000F4C0000054
:1000D000F2C00000F0C00000EEC00000ECC0000064
:1000E000EAC000004E414E494E495459494E46CD52
:1000F000CCCC3D0AD7233C17B7D13877CC2B3295DF
:1001000095E6241FB14F0A000020410000C84200BC
:10011000401C4620BCBE4CCA1B0E5AAEC59D740086
:10012000002200250028002B002E003100340002A0
:10013000010000050108010B01000020002300263A
:100140000029002C002F00320000010000030106EE
:1001500001090100000A0B02090C0D0E0807030437
:10016000010000000000000000000000000000008E
:10017000000000000000000000000000000000126D
:10018000111000000000000000000000000000004E
:1001900000000000000000000000002100240027F3
:1001A000002A002D00300033000101000004010787
:1001B000010A0101021020200808102040102040F0
:1001C000800201020108040201010204081020401B
:1001D0008080402010080402018004020180402039
:1001E0001008040201080402010102040810204062
:1001F0008001020408102040800505050507050858
:10020000080808020202020A0A0808040404040199
:1002100001010101010101030303030303030304BB
:100220000707070C0C0C0C0C0C0C0C02020202064B
:10023000060606060606060B0B0B0B0B0B0B0B7CC0
:100240003C3E5E2B3D3F2F5B5D3B2C2A225C000039
:10025000601B5D1F11241FBECFEFD1E2DEBFCDBFFB
:1002600000E00CBF26E0ACE9B2E001C01D92A33172
:10027000B207E1F712E0A0E0B2E0E8EAFAE400E059
:100280000BBF02C007900D92AC39B107D9F711E04E
:10029000C9E2D1E000E006C021970109802FFE01EC
:1002A0000E94D222C832D10780E00807A9F70E9435
:1002B000D61B0C944325A4CEFF920F931F93CF938C
:1002C000DF9322E1269FE001279FD00D1124289F74
:1002D0008001299F100D112450E040E030E020E023
:1002E000E091F905F091FA05DF011196A81BB90B11
:1002F0002A173B07F4F4D901A60FB71FEA17FB072B
:10030000C4F0E091F505F091F605E40FF51FDF016B
:10031000A00FB11FEC0FFD1F0F2EF2E1FF2EF02DED
:1003200001900D92FA94E1F72F5F3F4F4E5E5F4FC1
:10033000D7CF681B790BE61BF70BF093FA05E09318
:10034000F905DF91CF911F910F91FF900895809152
:100350007B00886080937B0085E480937C008091A3
:100360007A00806480937A0080917A0086FDFCCFC9
:1003700080917800909179000895AF92BF92CF92CA
:10038000DF92EF92FF920F931F93CF93DF936C0155
:100390007B018B01040F151FEB015E01AE18BF0836
:1003A000C017D10759F06991D601ED91FC910190E8
:1003B000F081E02DC6011995892B79F7C501DF91F0
:1003C000CF911F910F91FF90EF90DF90CF90BF9052
:1003D000AF900895FC01538D448D252F30E0842F7C
:1003E00090E0821B930B541710F0CF96089501975D
:1003F0000895FC01918D828D981761F0A28DAE0F4A
:10040000BF2FB11D5D968C91928D9F5F9F73928FD0
:1004100090E008958FEF9FEF0895FC01918D828DFC
:10042000981731F0828DE80FF11D858D90E00895C9
:100430008FEF9FEF0895FC01918D228D892F90E021
:10044000805C9F4F821B91098F739927089580EFDD
:1004500094E0F1DF21E0892B09F420E0822F089558
:10046000FC01A48DA80FB92FB11DA35ABF4F2C9129
:10047000848D90E001968F739927848FA689B78920
:100480002C93A089B1898C91837080648C93938D17
:10049000848D981306C00288F389E02D80818F7DBA
:1004A00080830895EF92FF920F931F93CF93DF9372
:1004B000EC0181E0888F9B8D8C8D98131AC0E889A0
:1004C000F989808185FF15C09FB7F894EE89FF896F
:1004D0006083E889F98980818370806480839FBF0D
:1004E00081E090E0DF91CF911F910F91FF90EF900D
:1004F0000895F62E0B8D10E00F5F1F4F0F7311271D
:10050000E02E8C8D8E110BC00FB607FCFACFE88958
:10051000F989808185FFF5CFCE01A2DFF2CFEB8D87
:10052000EC0FFD2FF11DE35AFF4FF0829FB7F894B7
:100530000B8FEA89FB8980818062D0CFCF93DF93D4
:10054000EC01888D8823B1F0AA89BB89E889F989F3
:100550008C9185FD03C0808186FD0CC00FB607FC21
:10056000F7CF8C9185FFF2CF808185FFEDCFCE0153
:1005700077DFEACFDF91CF91089580E090E0892B7B
:1005800021F065DF81110E94000080E090E0892B5E
:1005900049F080E090E0892B29F00E940000811151
:1005A0000E94000080E090E0892B49F080E090E01C
:1005B000892B29F00E94000081110E94000080E038
:1005C00090E0892B49F080E090E0892B29F00E948F
:1005D000000081110C94000008958150823108F0D0
:1005E0005AC0E82FF0E08827E750FD4F8F4F0C945A
:1005F000D22219031D030B03110315034B03200320
:1006000026032A033003340338033E0342034B031B
:1006100046034C035003809180008F7780938000C5
:100620000895809180008F7DF9CF80918000877F31
:10063000F5CF84B58F7784BD089584B58F7DFBCFCA
:100640008091B0008F778093B00008958091B000C2
:100650008F7DF9CF809190008F77809390000895DF
:10066000809190008F7DF9CF80919000877FF5CFAA
:100670008091A0008F778093A00008958091A000C2
:100680008F7DF9CF8091A000877FF5CF80912001E9
:100690008F77809320010895809120018F7DF9CF7D
:1006A00080912001877FF5CFCF93DF93282F30E013
:1006B000F901ED5AFE4F8491F901ED54FE4FD491AA
:1006C000F901E750FE4FC491CC2399F0811185DFE9
:1006D000EC2FF0E0EE0FFF1FE75CFE4FA591B49109
:1006E000EC91ED2381E090E009F480E0DF91CF917F
:1006F000089580E090E0FACF1F93CF93DF93282FE7
:1007000030E0F901ED5AFE4F8491F901ED54FE4FAE
:10071000D491F901E750FE4FC491CC23A1F0162FDC
:1007200081115BDFEC2FF0E0EE0FFF1FE15EFE4F6B
:10073000A591B4918FB7F894EC91111108C0D095A0
:10074000DE23DC938FBFDF91CF911F910895DE2BC5
:10075000F8CFCF93DF9390E0FC01ED54FE4F24914E
:1007600087509E4FFC0184918823C9F090E0880F48
:10077000991FFC01E756FE4FA591B491FC01E15E83
:10078000FE4FC591D49161110DC09FB7F8948C9123
:10079000209582238C938881282328839FBFDF9113
:1007A000CF910895623051F49FB7F8943C91822F15
:1007B000809583238C93E8812E2BEFCF8FB7F8940D
:1007C000EC912E2B2C938FBFEACF2FB7F89460912A
:1007D000E4027091E5028091E6029091E7022FBF5A
:1007E00008958FB7F8948091DA028FBF089561E081
:1007F000FC01848181DF8091D90281111092D9029C
:1008000008958EBD00000DB407FEFDCF8EB508958E
:100810008FEFF7CF0F931F93CF93DF93EC01D5DFCB
:100820008B01F6DF8F3F61F0D0DF601B710B6C171F
:100830007D07B8F380E0DF91CF911F910F9108956C
:1008400081E0F9CF8CBD9DBD0895CF93DF93EC017E
:100850008091D902811108C081E08093D9028091F2
:100860008D0590918E05EEDF60E08C81DF91CF9158
:1008700043CF8F929F92AF92BF92FF920F931F939D
:10088000CF93DF93EC01F62E49015A018E81882324
:1008900079F08F8198859C012F5F3F4F38872F8398
:1008A0008230924010F4B4DFF4CFCE01A0DF1E827C
:1008B000CE01CBDF8CE291E0ADDF8F2D8064A1DF34
:1008C00008E110E0D501C401002E04C0B695A7953B
:1008D000979587950A94D2F794DF08501109083F3D
:1008E0008FEF180779F785E9FF2021F028E087E8E6
:1008F000F2128FEF86DF10E08BDF8A8787FF04C05C
:100900001F3F11F01F5FF8CFDF91CF911F910F9123
:10091000FF90BF90AF909F908F900895AF92BF923D
:10092000CF92DF92EF92FF920F931F93CF93DF93BB
:10093000EC016901C801820F931F8130924048F594
:100940008E81882379F088819981AA81BB8184175F
:100950009507A607B70731F48F819885C816D90681
:1009600008F03CC0488359836A837B838B8583303E
:1009700039F089E0440F551F661F771F8A95D1F71C
:100980009A01AB0161E1CE0174DF882381F083E03D
:100990008D83CE012CDF80E0DF91CF911F910F91ED
:1009A000FF90EF90DF90CF90BF90AF9008950DDF54
:1009B0005B012EDF8A878F3F59F407DF6A197B09B5
:1009C0006D327140B0F38FE08D83CE0110DFE1CF47
:1009D0008E3F81F418861F8281E08E838F819885F7
:1009E0008C159D0548F414DF8F81988501969887B2
:1009F0008F83F4CF8DE0E8CF6701E00EF11E08DFB2
:100A0000F60181936F01EE15FF05C9F78F81988577
:100A1000080F191F18870F838985882319F001157E
:100A2000124090F08E81882379F08F8198859C0107
:100A30002F5F3F4F38872F838230924010F4E8DEDB
:100A4000F4CFCE01D4DE1E8281E0A6CFEF92FF92DA
:100A50000F931F93CF93DF93EC01790182E141154E
:100A600051056105710591F08B85833039F089E07E
:100A7000440F551F661F771F8A95D1F79A01AB0166
:100A800068E1CE01F6DE882319F084E08D8328C06A
:100A90008EEFB7DE87018EEFF81AF80181918F0192
:100AA000B0DE0E151F05C9F78FEFABDE8FEFA9DEA5
:100AB000AFDE8A878F71853079F488E592E0AADE0F
:100AC000882391F020E030E0A9016DE0CE01D1DE75
:100AD000882361F084E1DACF81E18D83CE0187DE66
:100AE000CE0185DE80E008C085E1D0CF91DE8111A6
:100AF000F1CFCE017CDE81E0DF91CF911F910F918C
:100B0000FF90EF900895CF93DF938091ED028823BB
:100B100099F1C091EE04D091EF0440910B025091F5
:100B20000C0260910D0270910E022EEE32E0CE01A9
:100B30008DDF811104C080E0DF91CF910895409155
:100B4000DB025091DC026091DD027091DE02411502
:100B500051056105710571F02EEE32E0CE0176DFB0
:100B6000882349F31092DB021092DC021092DD021E
:100B70001092DE021092ED0281E0DECF8F929F9202
:100B8000AF92BF92EF92FF920F931F93CF934B01BF
:100B90005C01C42F80910B0290910C02A0910D0278
:100BA000B0910E0288159905AA05BB0539F1ABDF96
:100BB00081110BC080E0CF911F910F91FF90EF90BA
:100BC000BF90AF909F908F9008958EEEE82E82E0B8
:100BD000F82E00E012E030E020E0B501A4018091A1
:100BE000EE049091EF049ADE882321F380920B02A9
:100BF00090920C02A0920D02B0920E024091ED0272
:100C00004C2B4093ED0281E0D6CF8F929F92AF9212
:100C1000BF92CF92DF92EF92FF92CF932FE835E011
:100C20003093EF042093EE04882309F46BC040E076
:100C300060E070E0CB01A2DF81110BC080E0CF91BA
:100C4000FF90EF90DF90CF90BF90AF909F908F90EC
:100C500008958091AC048F7789F78091B8049091C2
:100C6000B904A091BA04B091BB0484369105A105E2
:100C7000B10520F3C090B404D090B504E090B60460
:100C8000F090B704C114D104E104F104B9F240E0DA
:100C9000C701B60173DF882389F28091F902909130
:100CA000FA028115924051F6A091FE02AA2331F278
:100CB0006091FC027091FD026115710509F4BECFCF
:100CC0002091FB02222309F4B9CFA093AD05209314
:100CD0009F0590E080E030E0E1E0F0E0C82FAF0158
:100CE000082E02C0440F551F0A94E2F72417350757
:100CF00069F041E0480F01968930910579F74093FA
:100D0000A8059CCFC12CD12C7601C1CF8093A8051A
:100D1000209104033091050350E040E02115310596
:100D200041F4209112033091130340911403509128
:100D300015032093A0053093A1054093A20550937D
:100D4000A30546015701860E971EA11CB11C809277
:100D5000AE059092AF05A092B005B092B105E091BA
:100D6000FF02F0910003F093B405E093B305B0E007
:100D70000E94F521DC01CB01880D991DAA1DBB1D28
:100D80008093B5059093B605A093B705B093B805C9
:100D900025E0EE0FFF1F2A95E1F7E150FE4FEF2F00
:100DA000FF27E6958E0F9F1FA11DB11D8093A905FA
:100DB0009093AA05A093AB05B093AC058090010376
:100DC00090900203B12CA12C8114910441F48090E5
:100DD0000E0390900F03A0901003B0901103C81A57
:100DE000D90AEA0AFB0AC80CD91CEA1CFB1C04C07D
:100DF000F694E794D794C794CA95D2F7C092A40505
:100E0000D092A505E092A605F092A70585EFC81639
:100E10008FE0D806E104F10428F48CE08093B20559
:100E200081E00DCF80E125EFC2162FEFD206E1045D
:100E3000F104A0F380911A0390911B03A0911C036D
:100E4000B0911D038093B5059093B605A093B705A7
:100E5000B093B80580E2E2CF4F925F926F927F929B
:100E60008F929F92AF92BF92CF92DF92EF92FF92BA
:100E70000F931F93CF93DF93EC014230510561052F
:100E8000710590F480E0DF91CF911F910F91FF9059
:100E9000EF90DF90CF90BF90AF909F908F907F901A
:100EA0006F905F904F90089589859A85AB85BC853A
:100EB0000196A11DB11D84179507A607B70710F36A
:100EC000CB88DC88ED88FE888F89803109F042C0AC
:100ED000BB27A72F962F852F480159012A013B01D7
:100EE000C80ED91EEA1EFB1E80910B0290910C02C7
:100EF000A0910D02B0910E02C816D906EA06FB06B3
:100F000099F58F898031B9F5B301A201552766277C
:100F10007727440F551F42515D4FFA01918280821D
:100F20008091ED0281608093ED028A89823080F0A9
:100F30008D819E81AF81B8858C0D9D1DAE1DBF1D1D
:100F40008093DB029093DC02A093DD02B093DE027B
:100F500081E099CFDB01CA01E7E0B695A7959795A7
:100F60008795EA95D1F7B8CF40E0C701B60106DE14
:100F70008111C7CF87CFB301A2014F7755276627CD
:100F80007727440F551F440F551F42515D4FFA01FB
:100F900080829182A282B382C3CF8F929F92AF92BE
:100FA000BF92CF92DF92EF92FF920F931F93CF9356
:100FB000DF93FC0181859285A385B4850196A11DEF
:100FC000B11D84179507A607B70770F480E0DF917D
:100FD000CF911F910F91FF90EF90DF90CF90BF9036
:100FE000AF909F908F90089583889488A588B68845
:100FF0008789803189F5BB27A72F962F852FE90197
:101000006A017B018F01BC01CD01680D791D8A1D2C
:101010009B1D80900B0290900C02A0900D02B0904E
:101020000E0286169706A806B90601F5F80187890B
:10103000803109F5DD24EE24FF24F601EE0FFF1FB9
:10104000E251FD4F80819181B0E0A0E088839983D7
:10105000AA83BB8381E0BBCFDB01CA01C7E0B695A1
:10106000A79597958795CA95D1F7C9CF40E086DDBA
:101070008111DCCFABCFE894C7F8DD24EE24FF2448
:10108000F601EE0FFF1FEE0FFF1FE251FD4F8081B3
:101090009181A281B381BF70D9CF4F925F926F923D
:1010A0007F92AF92BF92CF92DF92EF92FF920F9317
:1010B0001F93CF93DF9300D01F92CDB7DEB78C0183
:1010C00049835A836B837C835901C12CD12C7601CF
:1010D000412C82E0582E612C712C49815A816B8100
:1010E0007C819E012F5F3F4FC80157DF882339F174
:1010F000F8018585A301920104C0220F331F441F0C
:10110000551F8A95D2F7DA01C901C80ED91EEA1E09
:10111000FB1E49815A816B817C818789803111F165
:1011200088EF9FEFAFEFBFE0481759076A077B07CB
:10113000A0F2F501C082D182E282F38281E00F90B9
:101140000F900F900F90DF91CF911F910F91FF9013
:10115000EF90DF90CF90BF90AF907F906F905F90B7
:101160004F90089588EF9FEFA0E0B0E0DDCFCF93E0
:10117000DF93FC012581222321F080E0DF91CF91D4
:101180000895EC018091B205803159F582E08583A4
:10119000178A108E118E128E8091B3059091B4052E
:1011A000B0E0A0E025E0880F991FAA1FBB1F2A9579
:1011B000D1F7838B948BA58BB68B8BE995E09C8FB5
:1011C0008B8F81E08C831E821F82188619861A8677
:1011D0001B861C861D861E861F86188A198A1A8AF7
:1011E000CDCF803251F683E085834091B505509193
:1011F000B6056091B7057091B805478B508F618F28
:10120000728F9F012D5E3F4F8BE995E046DF811184
:10121000D4CFB3CF8F929F92AF92BF92CF92DF92F3
:10122000EF92FF920F931F93CF93DF93EC018D8189
:1012300081110EC080E0DF91CF911F910F91FF903F
:10124000EF90DF90CF90BF90AF909F908F900895D8
:101250000B891C892D893E89041715072607370736
:1012600048F34A015B01823031F48A869B86AC8662
:10127000BD8681E0E0CF81149104A104B10449F45A
:101280001E821F82188619861A861B861C861D865A
:10129000F0CF0A851B852C853D85EB8DFC8D8585E2
:1012A00090E00996B901A8014150510961097109FD
:1012B000082E04C076956795579547950A94D2F7FE
:1012C00075016401E1E0CE1AD108E108F10804C01B
:1012D000F694E794D794C7948A95D2F7C416D506A6
:1012E000E606F70620F0012B022B032B09F58F8968
:1012F000988DA98DBA8D8E839F83A887B9878E011B
:101300000A5F1F4FC114D104E104F10409F4ADCF09
:101310004E815F816885798598018B8D9C8D3DDE3E
:1013200091E0C91AD108E108F1088111EBCF82CF11
:10133000C41AD50AE60AF70AE2CF3F924F925F92AB
:101340006F927F928F929F92AF92BF92CF92DF92D5
:10135000EF92FF920F931F93CF93DF93CDB7DEB73A
:101360002C970FB6F894DEBF0FBECDBF5C01DC0139
:101370005B968D909C905C9716964D905D906D90CD
:101380007C901997411451046104710409F467C0F9
:10139000BFEF4B1A5B0A6B0A7B0A312CF401818583
:1013A0009285A385B4859C01AD012F5F3F4F4F4FC0
:1013B0005F4F29873A874B875C87730162011D82E3
:1013C0001E821F821886F40181859285A385B485CB
:1013D0002D813E814F815885281739074A075B07C1
:1013E00008F054C089859A85AB85BC858C159D0510
:1013F000AE05BF0550F482E0C82ED12CE12CF12CB3
:1014000092E0492E512C612C712C9E012F5F3F4F91
:10141000B701A601C401C1DD8823C1F189819A8188
:10142000AB81BC81892B8A2B8B2B09F126013701DB
:101430009FEF491A590A690A790A2D813E814F8125
:1014400058852F5F3F4F4F4F5F4F2D833E834F8314
:1014500058873FEFC31AD30AE30AF30AB4CFF40163
:1014600040805180628073803324339497CFC414BA
:10147000D504E604F70409F70FEF1FEF2FEF3FE065
:10148000B701A601C401E8DC811119C080E02C96E7
:101490000FB6F894DEBF0FBECDBFDF91CF911F9185
:1014A0000F91FF90EF90DF90CF90BF90AF909F9003
:1014B0008F907F906F905F904F903F900895F501CF
:1014C000468157816085718541155105610571051A
:1014D00031F097018601C401BFDC8823B9F2D50140
:1014E0001696CD92DD92ED92FC921997332051F031
:1014F000D701C6010196A11DB11DF401808391831E
:10150000A283B383F5018789908DA18DB28D892B3C
:101510008A2B8B2B39F4C78AD08EE18EF28E848190
:101520008068848381E0B3CFCF93DF93EC018D811A
:10153000882379F18C8187FF29C06E857F85888912
:10154000998941E01BDB882321F1EA8980E2E89F49
:10155000F0011124E251FD4F3097D9F08D81823096
:1015600040F48B899C89AD89BE89848F958FA68F25
:10157000B78F8F89988D938F828F8F89988DA98D42
:10158000BA8DB58BA48B8C818F778C83DF91CF91B3
:10159000BACA80E0DF91CF910895CF93DF93EC0139
:1015A000C3DF882311F01D8281E0DF91CF91089580
:1015B0002F923F924F925F926F927F928F929F9263
:1015C000AF92BF92CF92DF92EF92FF920F931F9351
:1015D000CF93DF9300D01F92CDB7DEB78C015B01B4
:1015E0001A01DC0115968C911597813009F0C5C060
:1015F00014968C9181FFC1C082FDACC06101D801FD
:101600001A964D915D916D917C911D97C114D104F5
:1016100009F423C15B968D919C915C97FC017480C9
:101620002FEF270D2A013B0139E0769467945794F8
:1016300047943A95D1F7722E74207A01F1E0FF2297
:1016400071101FC0E114F104E1F416964D915D9103
:101650006D917C911997411551056105710509F04E
:1016600095C057968D919D910D90BC91A02D00979E
:10167000A105B10509F0ABC0C8015FDE882309F4FC
:101680007CC080E092E08E199F0946018C159D0573
:1016900008F44C01D8015B964D915C915C971696CD
:1016A0008D919D910D90BC91A02D0297A109B1093A
:1016B000FA01258504C0880F991FAA1FBB1F2A9510
:1016C000D2F74685578560897189840F951FA61FBB
:1016D000B71F9C01AD01270D311D411D511D290171
:1016E0003A01811432E0930609F077C080910B0231
:1016F00090910C02A0910D02B0910E0284159505F7
:10170000A605B70559F48FEF9FEFDC0180930B021C
:1017100090930C02A0930D02B0930E029501B301B9
:10172000A2018091EE049091EF0490D9882329F1D1
:101730009EEFB91AC818D908F80182859385A48547
:10174000B585880D991DA11DB11D82879387A4873A
:10175000B58755CFF8014389548965897689828593
:101760009385A485B585481759076A077B0709F44F
:1017700045CFC8014FDD811141CF81E090E0D80114
:1017800013969C938E93129780E006C09E012F5F64
:101790003F4F03DC811102C090E075C089819A81BE
:1017A000AB81BC81F801238D348DF901278948EF85
:1017B0005FEF60E070E0203121F048EF5FEF6FEF06
:1017C0007FE084179507A607B70708F055CFF80103
:1017D00086839783A087B18754CFE114F10489F5FC
:1017E000D8011A964D915D916D917C911D975396FC
:1017F0008D919D910D90BC91A02D481759076A07B6
:101800007B07F8F080D9882309F4B7CF40920B0208
:1018100050920C0260920D0270920E028091ED02C5
:1018200081608093ED02970122513D4FD501C9019E
:10183000880D991DF9018E179F0751F04D91419325
:10184000FACF41E0C301B20199D98111ECCF95CF14
:10185000821B930BA80EB91E6DCFF8018389948962
:10186000A589B68984179507A607B70738F4848138
:10187000438B548B658B768B80688483F8018481DD
:1018800083FD18C0C1010F900F900F900F90DF9152
:10189000CF911F910F91FF90EF90DF90CF90BF906D
:1018A000AF909F908F907F906F905F904F903F9000
:1018B0002F900895C80138DE882309F45ECFE2CF67
:1018C000CF93DF931F92CDB7DEB7698341E050E03D
:1018D000BE016F5F7F4F6CDE0F90DF91CF91089557
:1018E000FC01DB0112968D919C9113979383828367
:1018F0008DE292E09183808314968C911497848377
:1019000015968C911597858316964D915D916D91E5
:101910007C91199746835783608771871A964D91FA
:101920005D916D917C911D97428753876487758780
:101930001E964D915D916D917C9151974687578789
:10194000608B718B52968C915297828B53964D91EE
:101950005D916D917C915697438B548B658B768B03
:1019600057964D915D916D917C915A97478B508F11
:10197000618F728F5B968D919C91948F838F089568
:101980000895FC01818D928D009709F0CDCD0895C9
:10199000DC015996ED91FC913097B9F083899489D7
:1019A000A589B6894285538564857585841B950B09
:1019B000A60BB70B811520E89207A105B10538F0F9
:1019C0008FEF9FE7A0E0B0E0089590E080E00895F9
:1019D000CF93DF93EC01E98DFA8D309749F481E0E4
:1019E00090E09B838A8390E080E0DF91CF9108951F
:1019F00013821282898D9A8DDBDDE98DFA8D228129
:101A00003381232B61F7F1CFCF93DF931F92CDB7B3
:101A1000DEB76983DC01ED91FC910280F381E02D5A
:101A200041E050E0BE016F5F7F4F19950F90DF914D
:101A3000CF9108952F923F924F925F926F927F9233
:101A40008F929F92AF92BF92CF92DF92EF92FF92CE
:101A50000F931F93CF93DF9300D0CDB7DEB7FC0178
:101A60008581811118C08FEF9FEF0F900F900F901D
:101A7000DF91CF911F910F91FF90EF90DF90CF906A
:101A8000BF90AF909F908F907F906F905F904F909E
:101A90003F902F900895848180FFE5CF438954893A
:101AA0006589768982859385A485B585312C212C1D
:101AB000481759076A077B0719F022242394312C11
:101AC0006F012101CE0101963C01DF011696BB8317
:101AD000AA834114510409F4C3C0F6014285538519
:101AE000648575854A01F1E09F22D6015B968D9150
:101AF0009C915C978A019B01E9E0369527951795A3
:101B00000795EA95D1F71596EC91E230E1F5FC01E5
:101B1000628D738D848D958D600F711F821F931F51
:101B2000A12C22E0B22EA818B9084A145B0408F4CC
:101B30005201F601248126FD04C0A114F2E0BF0683
:101B400071F400910B0210910C0220910D02309162
:101B50000E02061717072807390709F05CC040E096
:101B60000DD8882309F47FCFC40182519D4FD30142
:101B70009C012A0D3B1DFC012E173F0709F46BC089
:101B800041914D93F9CFDC011496BC90BA94B022E8
:101B90008114910479F4B1100DC0452B462B472BCD
:101BA00069F5F6018789908DA18DB28D8683978323
:101BB000A087B187D6015B96ED91FC915C97169654
:101BC0006D917D918D919C91199762507109810958
:101BD0009109258504C0660F771F881F991F2A95D4
:101BE000D2F70685178520893189600F711F821F02
:101BF000931F6B0D711D811D911D92CFD6011696FD
:101C00004D915D916D917C9119972A813B81C5D948
:101C10008111D0CF28CF730185019401AB01BC01A4
:101C20008091EE049091EF040E948E04882309F4C1
:101C30001ACF6A0C7B1CF60182859385A485B58535
:101C40008A0D9B1DA11DB11D82879387A487B5872F
:101C50004A185B083ECF281B390B620E731EEBCF70
:101C60002A94232809F0FFCE898190E0FECEFC0162
:101C7000818D928D009709F0DDCE8FEF9FEF089553
:101C80000F931F930E94E5036093E0057093E105B5
:101C90008093E2059093E30588ED95E0E8DF97FFF8
:101CA0001DC00E94E5030091E0051091E10520911F
:101CB000E2053091E305601B710B820B930B0091E1
:101CC000DC051091DD052091DE053091DF05601700
:101CD00071078207930700F38FEF9FEF1F910F911A
:101CE00008950F931F93CF93DF93EC01898D9A8D05
:101CF00010E000E0009789F09DDE8C010F3F100797
:101D000061F0898D9A8DFC014285538564857585C6
:101D100041505109610971097DDAC801DF91CF9104
:101D20001F910F91089590E080E008958F929F9207
:101D3000AF92BF92CF92DF92EF92FF920F931F93D9
:101D4000E61AF70A080B190BE092C002F092C102E2
:101D50000093C2021093C302A21AB30AC40AD50A9E
:101D6000A092BC02B092BD02C092BE02D092BF024D
:101D70006093B0027093B1028093B2029093B30269
:101D80002093A4023093A5024093A6025093A70289
:101D90001092B8021092B9021092BA021092BB02CD
:101DA0008091C0029091C102A091C202B091C30281
:101DB000B7FF0DC18FEF9FEFDC018093B4029093CA
:101DC000B502A093B602B093B7028091C002909181
:101DD000C102A091C202B091C302B095A0959095A6
:101DE00081959F4FAF4FBF4F8093C0029093C10228
:101DF000A093C202B093C3028091BC029091BD0235
:101E0000A091BE02B091BF02B7FFEEC08FEF9FEF6F
:101E1000DC018093A8029093A902A093AA02B09338
:101E2000AB028091BC029091BD02A091BE02B09124
:101E3000BF02B095A095909581959F4FAF4FBF4F32
:101E40008093BC029093BD02A093BE02B093BF02E8
:101E50000091C0021091C1022091C2023091C302D0
:101E60004091BC025091BD026091BE027091BF02D0
:101E7000A091F505B091F6051C96ED91FC911D978A
:101E800004171507260737070CF413C112968D9017
:101E90009C901397092C000CAA08BB08CD90DC90ED
:101EA0000D2C000CEE08FF088091C4029091C50231
:101EB000A091C602B091C702A7019601281B390B59
:101EC0004A0B5B0BDA01C901181619061A061B0624
:101ED0000CF097C08091C4029091C502A091C602F7
:101EE000B091C702A7019601281B390B4A0B5B0B67
:101EF000CA01B901A50194010E94A722161617066E
:101F0000180619060CF097C08091C4029091C50282
:101F1000A091C602B091C702A7019601281B390BF8
:101F20004A0B5B0BDA01C901181619061A061B06C3
:101F30000CF074C08091C4029091C502A091C602B9
:101F4000B091C702A7019601281B390B4A0B5B0B06
:101F5000CA01B901A50194010E94A722C090E9021B
:101F6000D090EA02E090EB02F090EC028F01FF0FBC
:101F7000220B330BC01AD10AE20AF30A1C141D0407
:101F80001E041F040CF02DC1C090E902D090EA029B
:101F9000E090EB02F090EC0246015701801A910AA2
:101FA000A20AB30AA50194010E94B6223093290126
:101FB00020932801109201021F910F91FF90EF9042
:101FC000DF90CF90BF90AF909F908F90089581E069
:101FD00090E0A0E0B0E08093B4029093B502A093AB
:101FE000B602B093B70208CF81E090E0A0E0B0E085
:101FF0008093A8029093A902A093AA02B093AB0287
:1020000027CF6091C4027091C5028091C602909161
:10201000C7026C197D098E099F096CCF6091C402BB
:102020007091C5028091C6029091C7026C197D091A
:102030008E099F098FCF8091C4029091C502A09113
:10204000C602B091C702A7019601281B390B4A0BA3
:102050005B0BDA01C901181619061A061B06E4F40F
:102060008091C4029091C502A091C602B091C702AE
:10207000A7019601281B390B4A0B5B0BCA01B9015A
:10208000A50194010E94A722909580957095619575
:102090007F4F8F4F9F4F62CF6091C4027091C502F6
:1020A0008091C6029091C7026C197D098E099F0923
:1020B000E7CF16968D909C901797092C000CAA08D4
:1020C000BB081496CD90DC900D2C000CEE08FF0898
:1020D0008091CC029091CD02A091CE02B091CF021E
:1020E000A7019601281B390B4A0B5B0BDA01C901CA
:1020F000181619061A061B06BCF58091CC029091A1
:10210000CD02A091CE02B091CF02A7019601281B6B
:10211000390B4A0B5B0BCA01B901A50194010E945E
:10212000A7221616170618061906A4F58091CC02E8
:102130009091CD02A091CE02B091CF02A70196015D
:10214000281B390B4A0B5B0BDA01C901181619065B
:102150001A061B06B4F48091CC029091CD02A09196
:10216000CE02B091CF02EECE6091CC027091CD0242
:102170008091CE029091CF026C197D098E099F0942
:10218000CCCF6091CC027091CD028091CE02909123
:10219000CF024CCF8091CC029091CD02A091CE0283
:1021A000B091CF02A7019601281B390B4A0B5B0B9C
:1021B000DA01C901181619061A061B064CF480919B
:1021C000CC029091CD02A091CE02B091CF0250CF1F
:1021D0006091CC027091CD028091CE029091CF029D
:1021E00063CFC090E902D090EA02E090EB02F09059
:1021F000EC02A90198012C193D094E095F09D4CEC2
:10220000AF92BF92CF92DF92EF92FF920F931F9304
:102210008091F9059091FA05019609F470C19091A9
:10222000010280910202992309F47DC0882309F4F8
:1022300066C180910302882309F461C18091040280
:10224000882309F45CC1E091F505F091F6058089D9
:1022500091898130910539F08C35910509F454C08C
:10226000892B09F04CC12091CC023091CD024091D4
:10227000CE025091CF026091C4027091C50280914C
:10228000C6029091C702A480B5800B2C000CCC082C
:10229000DD08E080F1800F2C000C000B110B46DDF7
:1022A000E091F505F091F60584859585009761F03C
:1022B000092E000CAA0BBB0B8093E9029093EA0253
:1022C000A093EB02B093EC028281938190938900FA
:1022D00080938800868197819093990080939800DD
:1022E00010920202109203021092040261E070E068
:1022F00090E080E01F910F91FF90EF90DF90CF90E2
:10230000BF90AF900C945C0184859585092E000CDC
:10231000AA0BBB0B8093D4029093D502A093D60254
:10232000B093D702E3CF882309F4E9C08091030278
:10233000882309F4E4C04091C0025091C102609129
:10234000C2027091C3028091BC029091BD02A09123
:10235000BE02B091BF02481759076A077B070CF409
:10236000D7C04091B8025091B9026091BA02709101
:10237000BB028091C0029091C102A091C202B091B3
:10238000C302481759076A077B070CF04AC18091BE
:10239000B4029091B502A091B602B091B7024091FB
:1023A000B0025091B1026091B2027091B302840FF9
:1023B000951FA61FB71F8093B0029093B102A09300
:1023C000B202B093B3028091BC029091BD02A09181
:1023D000BE02B091BF024091AC025091AD0260913B
:1023E000AE027091AF02840F951FA61FB71F809396
:1023F000AC029093AD02A093AE02B093AF024091B5
:10240000AC025091AD026091AE027091AF0280912A
:10241000C0029091C102A091C202B091C3024817BC
:1024200059076A077B07C4F18091A8029091A9021D
:10243000A091AA02B091AB024091A4025091A502D2
:102440006091A6027091A702840F951FA61FB71F67
:102450008093A4029093A502A093A602B093A70232
:102460004091C0025091C1026091C2027091C302BA
:102470008091AC029091AD02A091AE02B091AF02FA
:10248000841B950BA60BB70B8093AC029093AD0207
:10249000A093AE02B093AF028091B0029091B102CE
:1024A000A091B202B091B3028093C4029093C5028E
:1024B000A093C602B093C7028091A4029091A50296
:1024C000A091A602B091A7028093CC029093CD0276
:1024D000A093CE02B093CF028091B8029091B9023E
:1024E000A091BA02B091BB020196A11DB11D8093CB
:1024F000B8029093B902A093BA02B093BB021F91A5
:102500000F91FF90EF90DF90CF90BF90AF90089524
:102510004091B8025091B9026091BA027091BB0229
:102520008091BC029091BD02A091BE02B091BF0209
:10253000481759076A077B070CF073C08091A802FF
:102540009091A902A091AA02B091AB024091A4027D
:102550005091A5026091A6027091A702840F951F69
:10256000A61FB71F8093A4029093A502A093A60272
:10257000B093A7028091C0029091C102A091C202C3
:10258000B091C3024091AC025091AD026091AE0295
:102590007091AF02840F951FA61FB71F8093AC02E6
:1025A0009093AD02A093AE02B093AF024091AC0203
:1025B0005091AD026091AE027091AF028091BC0269
:1025C0009091BD02A091BE02B091BF024817590779
:1025D0006A077B070CF460CF8091B4029091B5023A
:1025E000A091B602B091B7024091B0025091B102F1
:1025F0006091B2027091B302840F951FA61FB71F9E
:102600008093B0029093B102A093B202B093B30250
:102610004091BC025091BD026091BE027091BF0218
:1026200027CF81E0809301026ACFCF93883789F06A
:10263000C62F893744F4813609F1853641F461E0CB
:102640006C2788E109C0893751F08A3761F0CF9152
:102650000895C1E06C2786E2CF910C947C0361E081
:102660006C2788E3F9CF61E0C627C09300026C2F86
:102670008EE30E947C036C2F8EE1EECF88E7D5DFDE
:102680006C2F89E7D2DF6C2F8AE7CFDFD8CF0F938B
:102690001F93CF93DF93EC0180E2689FF001112438
:1026A000E251FD4F6A8B80910B0290910C02A09138
:1026B0000D02B0910E028E879F87A88BB98B04897B
:1026C000158930E020E09801112700270F8B188F23
:1026D000298F3A8F828D938DB0E0A0E0AC01BD01CF
:1026E000402B512B622B732B4F8B588F698F7A8F16
:1026F00083858871A9F4848D958DA68DB78D8B8B7C
:102700009C8BAD8BBE8B81E08D8381E08C831E82A0
:102710001F82188619861A861B861C861D8603C092
:10272000803131F080E0DF91CF911F910F910895BA
:102730009E012D5E3F4F8B8D9C8D0E944D088823FE
:1027400089F384E0E1CF42E050E06FE472E080EF93
:1027500094E00C94BD01CF93DF93FC010190002025
:10276000E9F73197AF01481B590BBC0180EF94E0AA
:102770000E94BD01EC01E7DF8C0F9D1FDF91CF911F
:102780000895AF92BF92CF92DF92EF92FF920F9394
:102790001F93CF93DF9300D000D000D01F921F92E1
:1027A000CDB7DEB76C01FE013196CE010C967F01EC
:1027B00020E22193E817F907E1F7DA0120E037E09A
:1027C0009D91B92E9923A9F19E32B9F43A3091F432
:1027D00080E02B960FB6F894DEBF0FBECDBFDF9121
:1027E000CF911F910F91FF90EF90DF90CF90BF900E
:1027F000AF90089528E03AE0E3CFEFE3F2E0849170
:10280000882321F031969813FACFE2CF321700F3E4
:102810008FED890F8E35E0F68FE9890F8A3118F434
:1028200040EEB42EB90EF701E20FF11DB0822F5F1A
:10283000C7CF8981803261F28B01FB01838D948D3A
:10284000F601948F838FFB01168217821086118602
:102850001286138614861586F80182859385A485D1
:10286000B585438954896589768984179507A607B4
:10287000B70708F0ADCF25E0B695A7959795879552
:102880002A95D1F7F82FFF70AF2EF801858182309D
:1028900008F49ECFC801CED897FD9ACFF801828563
:1028A0009385A485B5854F96A11DB11D8287938719
:1028B000A487B587F0E2AF9EB001112462517D4F2D
:1028C0006115710509F484CFFB018081882301F132
:1028D000853E19F4B11031C01DC04BE050E0C70176
:1028E0000E94FD24892B09F0B7CF6A2DC6012B96D3
:1028F0000FB6F894DEBF0FBECDBFDF91CF911F9111
:102900000F91FF90EF90DF90CF90BF90AF90BFCE30
:10291000B1105ECFF601A28A80910B0290910C0259
:10292000A0910D02B0910E0286879787A08BB18B84
:10293000FB018081882309F44BCFBB24B3948CCF57
:10294000FC01808191810C9498232BE432E0FC01FE
:102950003183208382819381009711F00C94982316
:102960000895CF93DF93EC01F0DFCE01DF91CF919B
:102970000C9498230F931F93CF93DF93EC018881DE
:102980009981009759F02A813B812617370730F04B
:1029900081E0DF91CF911F910F9108958B016F5FBF
:1029A0007F4F0E942124009759F0998388831B83CD
:1029B0000A832C813D81232B59F7FC011082E8CF3B
:1029C00080E0E7CFEF92FF920F931F93CF93DF93B7
:1029D000EC017B018A01BA01CDDF288139818111A7
:1029E00014C02115310519F0C9010E9498231982DC
:1029F00018821D821C821B821A82CE01DF91CF9128
:102A00001F910F91FF90EF9008951D830C83B701E4
:102A1000C9010E941325F1CFFB01DC0111961C9224
:102A20001E9213961C921E92129715961C921E923D
:102A300014978617970741F06081718161157105C0
:102A400019F044815581BECF0895FC011182108296
:102A50001382128215821482FB0101900020E9F793
:102A60003197AF01461B570BADCFEF92FF920F93FB
:102A70001F93CF93DF93EC017B018A011B821A82A3
:102A800088EE93E0A0E0B0E08C839D83AE83BF83AB
:102A900089E392E0998388838DE190E00E94FC2293
:102AA0009A8F898F009779F02DE1F701DC01019071
:102AB0000D922A95E1F74CE050E0B801CE010C965A
:102AC0000E941A25188EDF91CF911F910F91FF90D0
:102AD000EF9008956F927F928F929F92AF92BF92E4
:102AE000CF92DF92EF92FF920F931F93CF93DF93DA
:102AF00000D000D0CDB7DEB7FC0184809580811472
:102B0000910409F499C0FB013C01A080B180FC0153
:102B1000E080F180B501C7010E942925009709F4E2
:102B20008BC08C010E191F090F3F100709F484C0D8
:102B300068010815190508F083C0F701E00FF11FBF
:102B4000E114F10421F41092D802E8EDF2E0808162
:102B5000803209F475C00F5F1F4FEACF8E199F09AD
:102B60007C012FEFE21AF20A0E151F0528F49E2DA4
:102B70008F2D7801C92ED82E61E572E0CE01019625
:102B800064DFF30104811581E016F10618F5C01623
:102B9000D10608F48601F30160817181FB01E00F29
:102BA000F11FD08010826E0D7F1D61157105B9F186
:102BB000FB0101900020E9F73197AF01461B570B4D
:102BC000CE010196FFDEF30180819181080F191F6C
:102BD000F801D08289819A81C12CD12C760100978D
:102BE00021F00E94611F6B017C01CE010196A8DEDD
:102BF000C701B60126960FB6F894DEBF0FBECDBF53
:102C0000DF91CF911F910F91FF90EF90DF90CF90C8
:102C1000BF90AF909F908F907F906F900895898123
:102C20009A81009711F00E9498231A8219821E82BD
:102C30001D821C821B82C7CFC12CD12C7601D8CF1C
:102C4000B501C7010E942925009709F087CF8FEFB2
:102C50009FEF86CF2F923F924F925F926F927F921B
:102C60008F929F92AF92BF92CF92DF92EF92FF929C
:102C70000F931F93CF93DF93CDB7DEB7EC970FB6CB
:102C8000F894DEBF0FBECDBF61E572E0CE01859640
:102C9000DCDE0E94400E97FD1EC08A309105D9F0FF
:102CA00089831A82E9A4FAA42FEFE21AF20AB70183
:102CB000CE0185965FDE882361F32DA13EA189A513
:102CC0009AA5BE016F5F7F4F820F931F0E9413254D
:102CD000FAA6E9A6DECF62E572E0CE014F96B5DE38
:102CE000BE016B5D7F4FCE01499696DEBE01615EEF
:102CF0007F4FCE014996EEDE20E030E040E85FE312
:102D00000E94D920FF24F394882309F162E572E040
:102D1000CE0143969ADEBE016B5D7F4FCE010196D8
:102D20007BDEBE016D5E7F4FCE010196D3DEFF24B8
:102D3000F39420E030E048EB52E40E94D920811166
:102D4000F12CCE010196FCDDCE014396F9DDCE01DA
:102D50004996F6DDCE014F96F3DDFF2009F41BC244
:102D600064E572E0CE01439670DEBE016B5D7F4F7D
:102D7000CE01019651DEBE016D5E7F4FCE01019600
:102D8000A9DE6BA77CA78DA79EA7CE010196D8DDF3
:102D9000CE014396D5DD66E572E0CE01439655DE61
:102DA000BE016B5D7F4FCE01019636DEBE016D5ECA
:102DB0007F4FCE0101968EDE4B015C01CE01019664
:102DC000BFDDCE014396BCDD68E572E0CE014396DF
:102DD0003CDEBE016B5D7F4FCE0101961DDEBE0164
:102DE0006D5E7F4FCE01019675DECE010196A8DDA6
:102DF000CE014396A5DD6AE572E0CE01439625DE5D
:102E0000BE016B5D7F4FCE01019606DEBE016D5E99
:102E10007F4FCE0101965EDE2B013C01CE01019673
:102E20008FDDCE0143968CDD6CE572E0CE014396DA
:102E30000CDEBE016B5D7F4FCE010196EDDDBE0164
:102E40006D5E7F4FCE01019645DE6B017C01CE01A8
:102E5000019676DDCE01439673DD20E030E0A901D6
:102E60006BA57CA58DA59EA50E94D92081110AC0C5
:102E700020E030E0A901C501B4010E94D9208823D7
:102E800009F46AC162E572E0CE014396DEDDBE015F
:102E90006B5D7F4FCE010196BFDDBE016D5E7F4F42
:102EA000CE01019617DE0E9476226FA778AB89AB20
:102EB0009AAB8FA598A98130910509F483C08C3510
:102EC000910509F4DAC0CE0101963ADDCE014396B0
:102ED00037DD8DA99EA99A8389831C830B838BA9D7
:102EE0009CA99E838D839BAD9F832CAD28871A86DA
:102EF00019868FA98B8798AD9C873E862D8629AD34
:102F00002F878AAD888B8FA598A99A8B898B209162
:102F1000F9053091FA05A9014E5F5F4FE090F50584
:102F2000F090F6058091F7059091F8058E199F09AC
:102F300095958795E9E3FEE88E9FB0018F9F700D10
:102F40009E9F700D1124641775070CF0B0C0C90165
:102F50000196880F991F841795070CF4CA0128174A
:102F600039073CF09C01215031093093FA05209338
:102F7000F90522E1289F8001299F100D11248D3130
:102F8000974008F480C08FEF9FEF0E94FC226C01F5
:102F9000080F191FA090F905B090FA05970150E0AD
:102FA00040E0A416B5060CF470C062E1F901DC0142
:102FB00001900D926A95E1F74F5F5F4F2E5E3F4F94
:102FC0004296EFCFC701B6010E9476226B018B01BA
:102FD00020E030E048EC52E46BA57CA58DA59EA5D1
:102FE0000E943E210E9476227EAB6DAB20E030E055
:102FF00048EC52E4C501B4010E943E210E947622B1
:103000007CAB6BAB20E030E04CED52E4C301B2018D
:103010000E943E210E9476221B010230110504F11C
:10302000B601DD0C880B990B0E94DF2020E030E018
:1030300040E752E40E940E2220E030E048EC52E4E7
:103040000E943E219B01AC0160E074E284E799E4B8
:103050000E940E220E9476227093100260930F024B
:1030600000910F0210911002000F111F09AF1AAF4B
:103070000FAB18AF0BAF1CAF26CFC301B2010E943C
:1030800076221B0120CFC80180CFE114F10419F092
:10309000C7010E949823D092F605C092F5051093BF
:1030A000F8050093F705B092FA05A092F905809112
:1030B000F5059091F6054091F9055091FA0520919A
:1030C000F7053091F805281B390B3595279569E3ED
:1030D0007EE8269F8001279F100D369F100D11243A
:1030E000041B150B023011050CF052C001501109E0
:1030F00022E1D22ED09E7001D19EF00C11244F5FA0
:103100005F4FD49E9001D59E300D1124A701BE01C2
:103110006F5F7F4F820F931F0E940A2581E090E02E
:10312000801B910BD89EA001D99E500D112461E007
:1031300070E06C0F7D1F6E0D7F1D8091F5059091E5
:10314000F6050E940A258091F9059091FA050196ED
:103150009093FA058093F905CE018596F1DBEC9604
:103160000FB6F894DEBF0FBECDBFDF91CF911F9198
:103170000F91FF90EF90DF90CF90BF90AF909F9016
:103180008F907F906F905F904F903F902F90089519
:1031900001E010E0ADCF49A55AA56DA17EA180EF59
:1031A00094E00E94BD01CFDAD7CF1F920F920FB6E5
:1031B0000F9211240BB60F922F933F934F935F936F
:1031C0006F937F938F939F93AF93BF93EF93FF93EF
:1031D00080EF94E00E943002FF91EF91BF91AF9198
:1031E0009F918F917F916F915F914F913F912F911F
:1031F0000F900BBE0F900FBE0F901F9018951F924F
:103200000F920FB60F9211240BB60F922F938F933C
:103210009F93EF93FF93E0910005F091010580816A
:10322000E0910605F091070582FD1DC09081809117
:1032300009058F5F8F7320910A05821741F0E09195
:103240000905F0E0E051FB4F958F80930905FF9150
:10325000EF919F918F912F910F900BBE0F900FBE0A
:103260000F901F9018958081F2CF1F920F920FB68A
:103270000F9211242F933F938F939F93AF93BF93FC
:103280008091E4029091E502A091E602B091E702FC
:103290003091E30223E0230F2D3758F50196A11D4D
:1032A000B11D2093E3028093E4029093E502A09382
:1032B000E602B093E7028091DF029091E002A091D4
:1032C000E102B091E2020196A11DB11D8093DF02DF
:1032D0009093E002A093E102B093E202BF91AF911C
:1032E0009F918F913F912F910F900FBE0F901F9044
:1032F000189526E8230F0296A11DB11DD2CF1F926B
:103300000F920FB60F9211240BB60F920F931F93CB
:103310002F933F934F935F936F937F938F939F93DD
:10332000AF93BF93EF93FF934091D4025091D50296
:103330006091D6027091D7028091E9029091EA02E1
:10334000A091EB02B091EC02481759076A077B077E
:1033500009F470C00091E9021091EA022091EB0299
:103360003091EC028091D4029091D502A091D602C6
:10337000B091D70261E080179107A207B3070CF064
:1033800060E08CE10E947C0380910502882341F17A
:103390004091E9025091EA026091EB027091EC02D7
:1033A0008091D4029091D502A091D602B091D7021B
:1033B00084179507A607B7078CF58091D4029091E2
:1033C000D502A091D602B091D7020196A11DB11DE0
:1033D0008093D4029093D502A093D602B093D702E3
:1033E0006091050281E06827609305028AE10E94EE
:1033F0007C03FF91EF91BF91AF919F918F917F914E
:103400006F915F914F913F912F911F910F910F906D
:103410000BBE0F900FBE0F901F9018958091D40295
:103420009091D502A091D602B091D7020197A1093F
:10343000B109CECF81E080930402DBCF1F920F92BF
:103440000FB60F9211240BB60F920F931F932F9369
:103450003F934F935F936F937F938F939F93AF931C
:10346000BF93EF93FF934091D0025091D1026091AE
:10347000D2027091D3028091CC029091CD02A091A2
:10348000CE02B091CF02481759076A077B0709F4AB
:1034900070C00091CC021091CD022091CE023091EB
:1034A000CF028091D0029091D102A091D202B0912E
:1034B000D30261E080179107A207B3070CF060E028
:1034C0008DE30E947C0380910902882341F14091A1
:1034D000CC025091CD026091CE027091CF028091CA
:1034E000D0029091D102A091D202B091D302841760
:1034F0009507A607B7078CF58091D0029091D1026D
:10350000A091D202B091D3020196A11DB11D80936A
:10351000D0029093D102A093D202B093D3026091D3
:10352000090281E06827609309028CE30E947C0312
:10353000FF91EF91BF91AF919F918F917F916F918B
:103540005F914F913F912F911F910F910F900BBE63
:103550000F900FBE0F901F9018958091D002909100
:10356000D102A091D202B091D3020197A109B10971
:10357000CECF81E0809303020E940011D9CF1F9229
:103580000F920FB60F9211240BB60F920F931F9349
:103590002F933F934F935F936F937F938F939F935B
:1035A000AF93BF93EF93FF934091C8025091C9022C
:1035B0006091CA027091CB028091C4029091C502C1
:1035C000A091C602B091C702481759076A077B0746
:1035D00009F470C00091C4021091C5022091C60286
:1035E0003091C7028091C8029091C902A091CA028D
:1035F000B091CB0261E080179107A207B3070CF0EE
:1036000060E087E30E947C0380910A02882341F1F5
:103610004091C4025091C5026091C6027091C702E8
:103620008091C8029091C902A091CA02B091CB02C8
:1036300084179507A607B7078CF58091C80290916B
:10364000C902A091CA02B091CB020196A11DB11D81
:103650008093C8029093C902A093CA02B093CB0290
:1036600060910A0281E0682760930A0286E30E9463
:103670007C03FF91EF91BF91AF919F918F917F91CB
:103680006F915F914F913F912F911F910F910F90EB
:103690000BBE0F900FBE0F901F9018958091C8021F
:1036A0009091C902A091CA02B091CB020197A109E1
:1036B000B109CECF81E0809302020E940011D9CFE0
:1036C000CF92DF92EF92FF92CF93DF93E0EFF4E09F
:1036D0001382128288EEC82E83E0D82EE12CF12CC2
:1036E000C482D582E682F7828BE192E09183808367
:1036F00085EC90E09587848784EC90E097878687B7
:1037000080EC90E0918B808B81EC90E0938B828BAE
:1037100082EC90E0958B848B86EC90E0978B868B87
:10372000118E128E138E148EEDE8F5E080E5808305
:103730001182EFE8F5E0158216821186138682E089
:1037400090E0A0E0B0E084879587A687B78713A2B2
:1037500015A614A68DE292E093A782A717A6C3EF41
:10376000D5E08BE492E09983888390E080E044D7B1
:103770009B838A832FEF3FEF3F832E839D838C8330
:10378000E8EDF5E013821282C482D582E682F782E8
:1037900089E392E091838083128E118E1486DF91EB
:1037A000CF91FF90EF90DF90CF900895CF93DF936C
:1037B000CDB7DEB7C257D1090FB6F894DEBF0FBE42
:1037C000CDBF789484B5826084BD84B5816084BDAA
:1037D00085B5826085BD85B5816085BD80916E00AF
:1037E000816080936E0010928100809181008260E0
:1037F000809381008091810081608093810080911D
:1038000080008160809380008091B100846080930B
:10381000B1008091B00081608093B00080919100F0
:1038200082608093910080919100816080939100EB
:10383000809190008160809390008091A1008260CF
:103840008093A1008091A10081608093A10080916C
:10385000A00081608093A00080912101826080930C
:1038600021018091210181608093210180912001BB
:1038700081608093200180917A00846080937A0037
:1038800080917A00826080937A0080917A008160D2
:1038900080937A0080917A00806880937A001092F9
:1038A000C10061E086E30E94A90361E087E30E9412
:1038B000A90361E086E20E94A903109280001AE049
:1038C000109381001092820068ECE62EF12CF092A9
:1038D0008900E092880061E08CE30E94A90361E026
:1038E0008DE30E94A90361E088E30E94A90310927E
:1038F00090001093910010929200F0929900E09243
:10390000980061E08EE20E94A90361E08DE30E94CD
:10391000A90361E088E30E94A90361E084E20E94B8
:10392000A90361E082E20E94A90361E08EE10E94A6
:10393000A9031092A0001093A1001092A200F0928F
:10394000A900E092A80061E08AE10E94A90361E079
:103950008CE10E94A90361E088E10E94A90361E073
:103960008CE10E947C03109220011093210110929F
:1039700022018CEA90E0909329018093280162E073
:1039800083E00E94A90362E08EE00E94A90362E046
:1039900082E10E94A90361E089E00E94A90361E03D
:1039A0008AE00E94A90360E08DE00E94A90361E023
:1039B00089E00E947C0361E081E60E941513E0919A
:1039C0000005F091010582E08083E091FC04F09114
:1039D000FD041082E091FE04F091FF048FEC8083DF
:1039E00010920805E0910405F091050586E08083BA
:1039F000E0910205F0910305808180618083E09170
:103A00000205F0910305808188608083E0910205C2
:103A1000F0910305808180688083E0910205F09138
:103A2000030580818F7D808361E085E30E94A90387
:103A30008091BE05882321F089EB95E00E94CD0A94
:103A400010929A051092980510929505109294057F
:103A500084E0809393050E94E5038B0161E08091EF
:103A600093050E94A90361E0809193050E947C0365
:103A7000FFB6F8948091E802811127C0EEE2F2E0EF
:103A80008491E8EEF1E09491E82FF0E0EE0FFF1F53
:103A9000E756FE4FA591B491EC91E92321F461E042
:103AA00085E30E947C0361E085E30E94A9038CB555
:103AB00080618CBD8CB580648CBD61E084E30E9424
:103AC000A90361E083E30E94A9038091E8028F5F6C
:103AD0008093E802FFBE82E580938D0510928E05EB
:103AE00080918D0590918E050E9422044AE0F42E6B
:103AF0008FEF0E940104FA94F110FACF8FE895E05D
:103B00000E94250420E030E0A90160E08FE895E004
:103B10000E943904F82E8093990581E0F81689F007
:103B20000E94E503601B710B613D774058F381E013
:103B3000809394058FE895E00E94F70383E792E075
:103B40007CC02AEA31E040E050E068E08FE895E090
:103B50000E94390482FF2AC0F0929A0580919A054A
:103B6000C12CD12C7601823029F4C12CD12CE12C2E
:103B700020E4F22E20E030E0A90167E38FE895E031
:103B80000E943904A701960169E28FE895E00E943E
:103B90003904809399058823D1F00E94E503601BC6
:103BA000710B613D774030F388E0C2CF34E0F32EF3
:103BB0000E94080480939905FA94F110F9CF8A3A8B
:103BC00011F082E0B5CF82E080939A05C7CF809153
:103BD0009A058230D1F420E030E0A9016AE38FE851
:103BE00095E00E943904882311F086E0A1CF0E945D
:103BF0000804807C803C19F483E080939A050E943D
:103C000008040E9408040E9408048FE895E00E94BE
:103C1000F70380E580938D0510928E0581E00E9468
:103C20000506882309F4A9C089EB95E00E94B7082E
:103C3000882309F483CF8EE592E00E94AB131C82A7
:103C40001B820DE212E01A8309831E82CE010196C7
:103C50000E94B708BE016F5F7F4FCE01CB960E94D6
:103C6000700C19A218A21F8F0E8F1BA221968FAD68
:103C70002197811189C06C961FAE1EAE6C9788EE9D
:103C800093E0A0E0B0E0A0968CAF9DAFAEAFBFAF29
:103C9000A09789E392E06A969FAF8EAF6A97E3960A
:103CA0001FAE1EAEE397A5961FAEA5976C968EAD80
:103CB0009FAD6C979093DB058093DA05A0968CAD51
:103CC0009DADAEADBFADA0978093DC059093DD05B3
:103CD000A093DE05B093DF05A4968CAD9DADAEAD8F
:103CE000BFADA4978093E0059093E105A093E20512
:103CF000B093E305A8E5B0E0AC0FBD1F1C96E4EE61
:103D0000F5E08D91819385E0E13FF807D1F7E396E7
:103D10008EAD9FADE3979093F2058093F10586E910
:103D200092E00E94AB13FF24F3940BE316E083E0D0
:103D30000E945403892B09F449C0FF24F3940BE338
:103D400016E08EE00E945403892B09F44BC0FF2437
:103D5000F3940BE316E082E10E945403892B09F0EF
:103D60004DC0609108026F256093080284E20E94B2
:103D70007C03C8010197F1F7EECF80E00E940506B1
:103D8000882309F4DBCE50CF4AE852E0BE01655CDF
:103D90007F4FCE014E960E94C113882309F46BCF4A
:103DA000CE01CB960E94CD0ABE01625E7F4FCE014E
:103DB00001960E94700C4AE852E0BE016F5F7F4F8F
:103DC000CE01885A9F4F0E94351570CF60910A022C
:103DD0006F2560930A0286E30E947C03C801019765
:103DE000F1F7A5CF609109026F25609309028CE37A
:103DF0000E947C03C8010197F1F7A3CF109207023C
:103E000010920602809106029091070244979CF15D
:103E100080E4E82E8FE1F82E12E098EE892E93E0F0
:103E2000992EA12CB12C0E94A70161E089972CF456
:103E30000E94A7014E9724F460E08AE00E947C0370
:103E400080EF94E00E941B02892B51F080EF94E0F8
:103E50000E94F90181369105D1F08236910531F148
:103E60008091F9059091FA054D9714F40E942A1655
:103E70000E94BD02D8CF0E942A168091060290911E
:103E8000070201969093070280930602BBCFF0923F
:103E90002901E0922801109373008092E902909228
:103EA000EA02A092EB02B092EC02DACF10936F001C
:103EB0001093710010937300D3CF83EF95E00C94AF
:103EC000A5146627772700C08F929F92AF92BF926A
:103ED000CF92DF92EF92FF920F931F93CF93DF93D6
:103EE0005C017B016115710519F0DB018D939C93D9
:103EF00085010F5F1F4FF501D0818D2F90E039D1E3
:103F00006C01892BA9F5DD32A9F50F5F1F4FD50193
:103F10001196DC91C1E05801F1E0AF1AB10843E01D
:103F200050E06CEE70E0C5012CD1892B61F5680181
:103F300082E0C80ED11C45E050E067EE70E0C6019B
:103F400020D1892B21F4680197E0C90ED11CE1141E
:103F5000F10419F0D701CD92DC9260E070E080E8C6
:103F60009FEFC111F9C060E070E080E89FE7F4C006
:103F70005801BECFDB3229F485010E5F1F4FF501DA
:103F8000D181C0E0C8CF43E050E064EE70E0C501ED
:103F9000F8D0892BE9F0F80110E000E020E030E0F3
:103FA000A9015F01B0ED8B2E8D0E89E08815C0F15F
:103FB0009C2E689491F88C2F8870C2FF16C08111D6
:103FC00002C00F5F1F4F3196D501DC91C92DE9CF9B
:103FD000E114F10429F00E5F1F4FF70111830083F4
:103FE00060E070E080EC9FE7B7C0882311F00150DB
:103FF0001109A5E0B0E0F9D19B01AC01220F331FFC
:10400000441F551F280D311D411D511D283999E9A7
:104010003907490799E15907B0F2C6609C2ED3CF02
:10402000AEEF8A1206C0C3FD3CC09C2E689493F884
:10403000CACFDF7DD534A9F580818D3239F4C061D6
:10404000DF011296818162E070E006C0DF018B32F1
:10405000C1F3119661E070E080535D01A61AB70AC2
:104060008A30F8F4E0E8CE16ECE0DE065CF4B60147
:10407000660F771F660F771FC60ED71ECC0CDD1C90
:10408000C80ED11C5D01FFEFAF1ABF0A8C9180539F
:104090008A3098F1C4FF03C0D194C194D1080C0DAB
:1040A0001D1DC1FF09C0E114F10431F081E0A81A1F
:1040B000B108D701AD92BC92CA01B9017ED0C370DC
:1040C000C33009F490584B015C0120E030E0A901B5
:1040D00070D0882309F43EC0CBE1D1E017FF05C0C2
:1040E000119501951109C3E0D1E06E01B8E1CB1A39
:1040F000D10880E2E82EF12C0EC0D501B3CFFE012D
:1041000025913591459154910E191F09C501B401AE
:10411000B5D04B015C01D501C4010E151F057CF71C
:104120002497F594E794CC16DD06A9F78A2F880F1B
:104130008B2F881F8F3F41F020E030E0A901C5019F
:10414000B40137D0811106C082E290E090930E0650
:1041500080930D06C501B401DF91CF911F910F919E
:10416000FF90EF90DF90CF90BF90AF909F908F9097
:1041700008959111E6C0803219F089508550D0F72A
:104180000895FB01DC014150504088F08D9181344D
:104190001CF08B350CF4805E659161341CF06B353E
:1041A0000CF4605E861B611171F3990B0895881BF6
:1041B000FCCF40D008F481E00895E89409C097FB53
:1041C0003EF490958095709561957F4F8F4F9F4FEE
:1041D0009923A9F0F92F96E9BB279395F695879532
:1041E00077956795B795F111F8CFFAF4BB0F11F4F5
:1041F00060FF1BC06F5F7F4F8F4F9F4F16C088239C
:1042000011F096E911C0772321F09EE8872F762FD1
:1042100005C0662371F096E8862F70E060E02AF012
:104220009A95660F771F881FDAF7880F96958795FE
:1042300097F90895990F0008550FAA0BE0E8FEEFD3
:1042400016161706E807F907C0F012161306E4075A
:10425000F50798F0621B730B840B950B39F40A2653
:1042600061F0232B242B252B21F408950A2609F431
:10427000A140A6958FEF811D811D08950BD07BC0B5
:104280006CD028F071D018F0952309F05DC062C0A1
:104290001124A5C081D0A0F3959FD1F3950F50E0D4
:1042A000551F629FF001729FBB27F00DB11D639FE8
:1042B000AA27F00DB11DAA1F649F6627B00DA11D8E
:1042C000661F829F2227B00DA11D621F739FB00D34
:1042D000A11D621F839FA00D611D221F749F3327A4
:1042E000A00D611D231F849F600D211D822F762F3D
:1042F0006A2F11249F5750408AF0E1F088234AF03A
:10430000EE0FFF1FBB1F661F771F881F9150504085
:10431000A9F79E3F510570F017C061C05F3FECF3F5
:10432000983EDCF3869577956795B795F795E79571
:104330009F5FC1F7FE2B880F911D9695879597F982
:10434000089599278827089597F99F6780E870E076
:1043500060E008959FEF80EC089500240A941616FB
:10436000170618060906089500240A941216130663
:10437000140605060895092E0394000C11F48823F1
:1043800052F0BB0F40F4BF2B11F460FF04C06F5F0D
:104390007F4F8F4F9F4F089557FD9058440F551FE3
:1043A00059F05F3F71F04795880F97FB991F61F0B7
:1043B0009F3F79F087950895121613061406551F2E
:1043C000F2CF4695F1DF08C0161617061806991F9A
:1043D000F1CF86957105610508940895E894BB278F
:1043E00066277727CB0197F9089509D0A59F900DEF
:1043F000B49F900DA49F800D911D11240895A29F3C
:10440000B001B39FC001A39F700D811D1124911DA8
:10441000B29F700D811D1124911D08950CD0ABCF5A
:10442000A3DF40F09ADF30F021F45F3F19F08CCF2A
:104430005111D5CF8FCFB0DF98F39923C9F355230E
:10444000B1F3951B550BBB27AA2762177307840787
:1044500038F09F5F5F4F220F331F441FAA1FA9F33D
:1044600033D00E2E3AF0E0E830D091505040E6952F
:10447000001CCAF729D0FE2F27D0660F771F881F90
:10448000BB1F261737074807AB07B0E809F0BB0B7F
:10449000802DBF01FF2793585F4F2AF09E3F5105A3
:1044A00068F052CF9CCF5F3FECF3983EDCF38695EB
:1044B00077956795B795F7959F5FC9F7880F911D19
:1044C0009695879597F90895E1E0660F771F881F05
:1044D000BB1F621773078407BA0720F0621B730BB8
:1044E000840BBA0BEE1F88F7E095089504D068940A
:1044F000B11175CF089558DF88F09F5790F0B92F0C
:104500009927B751A0F0D1F0660F771F881F991F28
:104510001AF0BA95C9F712C0B13081F05FDFB1E08F
:1045200008955CCF672F782F8827B85F39F0B93F9F
:10453000CCF3869577956795B395D9F73EF490952A
:104540008095709561957F4F8F4F9F4F0895DB0148
:104550008F939F934ADFBF91AF91A29F800D911DD2
:10456000A39F900DB29F900D11240895052E97FBE7
:1045700016F400940FD057FD05D01CD007FC02D0D4
:1045800046F408C050954095309521953F4F4F4FC8
:104590005F4F089590958095709561957F4F8F4FEF
:1045A0009F4F0895EE0FFF1F881F8BBF0790F69156
:1045B000E02D1994A1E21A2EAA1BBB1BFD010DC010
:1045C000AA1FBB1FEE1FFF1FA217B307E407F507C3
:1045D00020F0A21BB30BE40BF50B661F771F881F9F
:1045E000991F1A9469F760957095809590959B0135
:1045F000AC01BD01CF0108950F931F93CF93DF93BB
:104600008230910510F482E090E0E0911106F09183
:10461000120630E020E0B0E0A0E0309799F42115D8
:10462000310509F44AC0281B390B24303105D8F56F
:104630008A819B816115710589F1FB0193838283D6
:10464000FE0111C040815181028113814817590731
:10465000E0F04817590799F4109761F012960C93FF
:10466000129713961C933296CF01DF91CF911F9131
:104670000F9108950093110610931206F4CF21159F
:10468000310551F04217530738F0A901DB019A01B7
:10469000BD01DF01F801C1CFEF01F9CF9093120600
:1046A00080931106CDCFFE01E20FF31F819391930A
:1046B0002250310939832883D7CF20910F063091BA
:1046C0001006232B41F420911302309114023093F1
:1046D000100620930F06209111023091120221152D
:1046E000310541F42DB73EB74091150250911602A5
:1046F000241B350BE0910F06F0911006E217F3072B
:10470000A0F42E1B3F0B2817390778F0AC014E5F41
:104710005F4F2417350748F04E0F5F1F5093100668
:1047200040930F06819391939FCFF0E0E0E09CCF00
:10473000CF93DF930097E9F0FC0132971382128246
:10474000A0911106B0911206ED0130E020E0109723
:10475000A1F420813181820F931F20910F063091A7
:1047600010062817390709F061C0F0931006E0938E
:104770000F06DF91CF910895EA01CE17DF07E8F524
:104780004A815B819E0141155105B1F7E901FB8327
:10479000EA8349915991C40FD51FEC17FD0761F4C5
:1047A000808191810296840F951FE9019983888306
:1047B000828193819B838A83F0E0E0E012968D9161
:1047C0009C9113970097B9F52D913C911197CD01CC
:1047D0000296820F931F20910F0630911006281722
:1047E000390739F6309751F51092120610921106DA
:1047F000B0931006A0930F06BCCFD383C283408131
:104800005181840F951FC817D90761F44E5F5F4F20
:1048100088819981480F591F518340838A819B81E8
:10482000938382832115310509F0B0CFF0931206EE
:10483000E09311069ECFFD01DC01C0CF13821282EE
:10484000D7CF4F925F926F927F928F929F92AF924B
:10485000BF92CF92DF92EF92FF920F931F93CF936D
:10486000DF938C01009791F4CB01DF91CF911F91E1
:104870000F91FF90EF90DF90CF90BF90AF909F90FF
:104880008F907F906F905F904F90B6CEFC01E60FB7
:10489000F71F9C0122503109E217F30708F4AAC060
:1048A000D901CD91DC911197C617D70718F1C53002
:1048B000D10570F0CE0104978617970748F0C61B04
:1048C000D70B2297C193D1936D937C93CF0130DFA7
:1048D000C801DF91CF911F910F91FF90EF90DF9072
:1048E000CF90BF90AF909F908F907F906F905F9090
:1048F0004F9008955B01AC1ABD0A4C018C0E9D1EB1
:10490000A0911106B0911206512C412CF12CE12CF2
:10491000109731F580910F06909110068815990532
:1049200009F05CC04616570608F058C08091110285
:1049300090911202009741F48DB79EB740911502F5
:1049400050911602841B950BE817F90708F052C026
:10495000F0931006E0930F06F90171836083B8CFDE
:104960008D919C91119712966C90129713967C9052
:104970001397A815B90559F56C0142E0C40ED11C76
:10498000CA14DB0420F1AC014A195B09DA01129662
:10499000159780F06282738251834083D9016D93B1
:1049A0007C93E114F10471F0D7011396FC93EE931C
:1049B00012978ECF22968C0F9D1FF90191838083D1
:1049C000F301EFCFF0931206E093110681CF481662
:1049D000590608F42C017D01D3019ACFCB010CDEDE
:1049E0007C01009739F0AE01B80114D0C801A0DEF7
:1049F00087016ECF10E000E06BCFFB01DC0104C04B
:104A00008D910190801921F441505040C8F7881BC6
:104A1000990B0895FB01DC0102C001900D924150F9
:104A20005040D8F70895FB01DC0101900D92002061
:104A3000E1F70895FB01DC014150504048F001903E
:104A40000D920020C9F701C01D9241505040E0F77F
:104A50000895FB0151915523A9F0BF01DC014D914F
:104A600045174111E1F759F4CD010190002049F0BB
:104A70004D9140154111C9F3FB014111EFCF81E088
:104A800090E00197089511E0C9E2D1E000E005C08F
:104A9000802FFE0187DD2196011DCA32D10780E0FB
:084AA0000807B1F7F894FFCFFD
:104AA8000101010101010100010101FFFFFFFFBC3C
:104AB80002000013068000000000005202BD01EA57
:104AC800019E021B02F9010D0200000000600CBDEE
:104AD80001930EC00C00000000040DE80C930EC1F9
:104AE8000CC80C370E710E00000000A514B1140D8F
:104AF8000A004700580059005A0045004600696EF0
:104B0800697469616C697A6174696F6E20646F6E2B
:104B1800652E00696E697469616C697A6174696F80
:104B28006E206661696C6564210073616D706C65E7
:0C4B3800322E7478740072656164000015
:00000001FF
