:1000000029C1000058C1000056C1000054C10000C1
:1000100052C1000050C100004EC100004CC10000A0
:100020004AC1000048C1000046C1000044C10000B0
:1000300042C1000040C100003EC100003CC10000C0
:100040003AC100000C948C1C36C1000034C1000081
:1000500032C1000030C100002EC100000C94021B10
:100060002AC100000C94CC1A0C94A21A24C10000DE
:1000700022C1000020C100001EC100001CC1000000
:100080000C94EB1B18C1000016C1000014C1000045
:1000900012C1000010C100000EC100000CC1000020
:1000A0000AC1000008C1000006C1000004C1000030
:1000B00002C1000000C10000FEC000000C944C1BF7
:1000C000FAC00000F8C00000F6C00000F4C0000054
:1000D000F2C00000F0C00000EEC00000ECC0000064
:1000E000EAC000004E414E494E495459494E46CD52
:1000F000CCCC3D0AD7233C17B7D13877CC2B3295DF
:1001000095E6241FB14F0A000020410000C84200BC
:10011000401C4620BCBE4CCA1B0E5AAEC59D740086
:10012000002200250028002B002E003100340002A0
:10013000010000050108010B01000020002300263A
:100140000029002C002F00320000010000030106EE
:1001500001090100000A0B02090C0D0E0807030437
:10016000010000000000000000000000000000008E
:10017000000000000000000000000000000000126D
:10018000111000000000000000000000000000004E
:1001900000000000000000000000002100240027F3
:1001A000002A002D00300033000101000004010787
:1001B000010A0101021020200808102040102040F0
:1001C000800201020108040201010204081020401B
:1001D0008080402010080402018004020180402039
:1001E0001008040201080402010102040810204062
:1001F0008001020408102040800505050507050858
:10020000080808020202020A0A0808040404040199
:1002100001010101010101030303030303030304BB
:100220000707070C0C0C0C0C0C0C0C02020202064B
:10023000060606060606060B0B0B0B0B0B0B0B7CC0
:100240003C3E5E2B3D3F2F5B5D3B2C2A225C000039
:100250002D1D322111241FBECFEFD1E2DEBFCDBF55
:1002600000E00CBF26E0A2EAB2E001C01D92A1337B
:10027000B207E1F712E0A0E0B2E0E2E5FEE400E060
:100280000BBF02C007900D92A23AB107D9F711E057
:10029000C9E2D1E000E006C021970109802FFE01EC
:1002A0000E94C924C832D10780E00807A9F70E943C
:1002B000A31D0C941827A4CE4AE250E030E020E0C1
:1002C0008091FF059091000682179307ACF02F5F95
:1002D0003F4F8217930784F0E091FB05F091FC05F6
:1002E000E40FF51FDF019A978AE201900D928A953B
:1002F000E1F7465D5F4FE4CF01979093000680934E
:10030000FF05089580917B00886080937B0085E4E1
:1003100080937C0080917A00806480937A00809141
:100320007A0086FDFCCF8091780090917900089545
:10033000AF92BF92CF92DF92EF92FF920F931F93F3
:10034000CF93DF936C017B018B01040F151FEB0131
:100350005E01AE18BF08C017D10759F06991D601E8
:10036000ED91FC910190F081E02DC6011995892B4A
:1003700079F7C501DF91CF911F910F91FF90EF9019
:10038000DF90CF90BF90AF900895FC01538D448DC6
:10039000252F30E0842F90E0821B930B541710F030
:1003A000CF96089501970895FC01918D828D98173D
:1003B00061F0A28DAE0FBF2FB11D5D968C91928D15
:1003C0009F5F9F73928F90E008958FEF9FEF089546
:1003D000FC01918D828D981731F0828DE80FF11D0F
:1003E000858D90E008958FEF9FEF0895FC01918D2A
:1003F000228D892F90E0805C9F4F821B91098F7323
:100400009927089586EF94E0F1DF21E0892B09F424
:1004100020E0822F0895FC01A48DA80FB92FB11DF3
:10042000A35ABF4F2C91848D90E001968F7399272A
:10043000848FA689B7892C93A089B1898C91837008
:1004400080648C93938D848D981306C00288F38901
:10045000E02D80818F7D80830895EF92FF920F932E
:100460001F93CF93DF93EC0181E0888F9B8D8C8D60
:1004700098131AC0E889F989808185FF15C09FB754
:10048000F894EE89FF896083E889F9898081837017
:10049000806480839FBF81E090E0DF91CF911F91C6
:1004A0000F91FF90EF900895F62E0B8D10E00F5FE7
:1004B0001F4F0F731127E02E8C8D8E110BC00FB6BE
:1004C00007FCFACFE889F989808185FFF5CFCE0155
:1004D000A2DFF2CFEB8DEC0FFD2FF11DE35AFF4FA2
:1004E000F0829FB7F8940B8FEA89FB898081806244
:1004F000D0CFCF93DF93EC01888D8823B1F0AA8908
:10050000BB89E889F9898C9185FD03C0808186FDCE
:100510000CC00FB607FCF7CF8C9185FFF2CF80811E
:1005200085FFEDCFCE0177DFEACFDF91CF91089540
:1005300080E090E0892B21F065DF81110E940000AE
:1005400080E090E0892B49F080E090E0892B29F051
:100550000E94000081110E94000080E090E0892B41
:1005600049F080E090E0892B29F00E940000811181
:100570000E94000080E090E0892B49F080E090E04C
:10058000892B29F00E94000081110C94000008952D
:100590008150823108F05AC0E82FF0E08827EC52F1
:1005A000FD4F8F4F0C94C924F402F802E602EC02CE
:1005B000F0022603FB02010305030B030F031303E1
:1005C00019031D032603210327032B0380918000B9
:1005D0008F77809380000895809180008F7DF9CF80
:1005E00080918000877FF5CF84B58F7784BD089593
:1005F00084B58F7DFBCF8091B0008F778093B00062
:1006000008958091B0008F7DF9CF809190008F7711
:10061000809390000895809190008F7DF9CF809114
:100620009000877FF5CF8091A0008F778093A00006
:1006300008958091A0008F7DF9CF8091A000877FE1
:10064000F5CF809120018F778093200108958091CC
:1006500020018F7DF9CF80912001877FF5CFCF9347
:10066000DF93282F30E0F901ED5AFE4F8491F90114
:10067000ED54FE4FD491F901E750FE4FC491CC23C5
:1006800099F0811185DFEC2FF0E0EE0FFF1FE75CA2
:10069000FE4FA591B491EC91ED2381E090E009F437
:1006A00080E0DF91CF91089580E090E0FACF1F9332
:1006B000CF93DF93282F30E0F901ED5AFE4F84915C
:1006C000F901ED54FE4FD491F901E750FE4FC4916A
:1006D000CC23A1F0162F81115BDFEC2FF0E0EE0FA1
:1006E000FF1FE15EFE4FA591B4918FB7F894EC9196
:1006F000111108C0D095DE23DC938FBFDF91CF911D
:100700001F910895DE2BF8CFCF93DF9390E0FC018B
:10071000ED54FE4F249187509E4FFC018491882315
:10072000C9F090E0880F991FFC01E756FE4FA59194
:10073000B491FC01E15EFE4FC591D49161110DC0F1
:100740009FB7F8948C91209582238C9388812823DD
:1007500028839FBFDF91CF910895623051F49FB7F6
:10076000F8943C91822F809583238C93E8812E2BE3
:10077000EFCF8FB7F894EC912E2B2C938FBFEACF4D
:100780002FB7F8946091EA027091EB028091EC022D
:100790009091ED022FBF08958FB7F8948091E002F9
:1007A0008FBF089561E0FC01848181DF8091DF02C9
:1007B00081111092DF0208958EBD00000DB407FE76
:1007C000FDCF8EB508958FEFF7CF0F931F93CF9383
:1007D000DF93EC01D5DF8B01F6DF8F3F61F0D0DFD7
:1007E000601B710B6C177D07B8F380E0DF91CF9130
:1007F0001F910F91089581E0F9CF8CBD9DBD0895A3
:10080000CF93DF93EC018091DF02811108C081E07A
:100810008093DF028091930590919405EEDF60E074
:100820008C81DF91CF9143CF8F929F92AF92BF92F5
:10083000FF920F931F93CF93DF93EC01F62E4901A4
:100840005A018E81882379F08F8198859C012F5FD2
:100850003F4F38872F838230924010F4B4DFF4CFBB
:10086000CE01A0DF1E82CE01CBDF8CE291E0ADDFB6
:100870008F2D8064A1DF08E110E0D501C401002EB6
:1008800004C0B695A795979587950A94D2F794DFFB
:1008900008501109083F8FEF180779F785E9FF2005
:1008A00021F028E087E8F2128FEF86DF10E08BDF7F
:1008B0008A8787FF04C01F3F11F01F5FF8CFDF91C9
:1008C000CF911F910F91FF90BF90AF909F908F900D
:1008D0000895AF92BF92CF92DF92EF92FF920F9363
:1008E0001F93CF93DF93EC016901C801820F931F1F
:1008F0008130924048F58E81882379F088819981F2
:10090000AA81BB8184179507A607B70731F48F81A9
:100910009885C816D90608F03CC0488359836A8375
:100920007B838B85833039F089E0440F551F661F28
:10093000771F8A95D1F79A01AB0161E1CE0174DF8F
:10094000882381F083E08D83CE012CDF80E0DF916E
:10095000CF911F910F91FF90EF90DF90CF90BF90BC
:10096000AF9008950DDF5B012EDF8A878F3F59F42A
:1009700007DF6A197B096D327140B0F38FE08D8318
:10098000CE0110DFE1CF8E3F81F418861F8281E017
:100990008E838F8198858C159D0548F414DF8F8197
:1009A0009885019698878F83F4CF8DE0E8CF670113
:1009B000E00EF11E08DFF60181936F01EE15FF05D1
:1009C000C9F78F819885080F191F18870F838985AC
:1009D000882319F00115124090F08E81882379F058
:1009E0008F8198859C012F5F3F4F38872F838230FE
:1009F000924010F4E8DEF4CFCE01D4DE1E8281E016
:100A0000A6CFEF92FF920F931F93CF93DF93EC014A
:100A1000790182E1411551056105710591F08B85E0
:100A2000833039F089E0440F551F661F771F8A9580
:100A3000D1F79A01AB0168E1CE01F6DE882319F007
:100A400084E08D8328C08EEFB7DE87018EEFF81A21
:100A5000F80181918F01B0DE0E151F05C9F78FEFE8
:100A6000ABDE8FEFA9DEAFDE8A878F71853079F438
:100A700088E592E0AADE882391F020E030E0A90129
:100A80006DE0CE01D1DE882361F084E1DACF81E12F
:100A90008D83CE0187DECE0185DE80E008C085E152
:100AA000D0CF91DE8111F1CFCE017CDE81E0DF91EC
:100AB000CF911F910F91FF90EF900895CF93DF9307
:100AC0008091F302882399F1C091F404D091F50448
:100AD00040910F0250911002609111027091120228
:100AE00024EF32E0CE018DDF811104C080E0DF9180
:100AF000CF9108954091E1025091E2026091E302AA
:100B00007091E402411551056105710571F024EF02
:100B100032E0CE0176DF882349F31092E102109291
:100B2000E2021092E3021092E4021092F30281E0DA
:100B3000DECF8F929F92AF92BF92EF92FF920F9370
:100B40001F93CF934B015C01C42F80910F029091B2
:100B50001002A0911102B091120288159905AA0500
:100B6000BB0539F1ABDF81110BC080E0CF911F9144
:100B70000F91FF90EF90BF90AF909F908F9008954E
:100B800084EFE82E82E0F82E00E012E030E020E072
:100B9000B501A4018091F4049091F5049ADE8823B4
:100BA00021F380920F0290921002A0921102B09253
:100BB00012024091F3024C2B4093F30281E0D6CF16
:100BC0008F929F92AF92BF92CF92DF92EF92FF925D
:100BD000CF9325E935E03093F5042093F40488237E
:100BE00009F46BC040E060E070E0CB01A2DF81114E
:100BF0000BC080E0CF91FF90EF90DF90CF90BF903F
:100C0000AF909F908F9008958091B2048F7789F76D
:100C10008091BE049091BF04A091C004B091C10422
:100C200084369105A105B10520F3C090BA04D09097
:100C3000BB04E090BC04F090BD04C114D104E104F5
:100C4000F104B9F240E0C701B60173DF882389F2ED
:100C50008091FF02909100038115924051F6A0917E
:100C60000403AA2331F2609102037091030361151A
:100C7000710509F4BECF20910103222309F4B9CFF5
:100C8000A093B3052093A50590E080E030E0E1E07B
:100C9000F0E0C82FAF01082E02C0440F551F0A9480
:100CA000E2F72417350769F041E0480F01968930D3
:100CB000910579F74093AE059CCFC12CD12C7601DC
:100CC000C1CF8093AE0520910A0330910B0350E011
:100CD00040E02115310541F42091180330911903AA
:100CE00040911A0350911B032093A6053093A7054A
:100CF0004093A8055093A90546015701860E971EFB
:100D0000A11CB11C8092B4059092B505A092B605C5
:100D1000B092B705E0910503F0910603F093BA0590
:100D2000E093B905B0E00E94CA23DC01CB01880D35
:100D3000991DAA1DBB1D8093BB059093BC05A09374
:100D4000BD05B093BE0525E0EE0FFF1F2A95E1F724
:100D5000E150FE4FEF2FFF27E6958E0F9F1FA11D3D
:100D6000B11D8093AF059093B005A093B105B093EA
:100D7000B2058090070390900803B12CA12C811438
:100D8000910441F48090140390901503A0901603F1
:100D9000B0901703C81AD90AEA0AFB0AC80CD91C72
:100DA000EA1CFB1C04C0F694E794D794C794CA9538
:100DB000D2F7C092AA05D092AB05E092AC05F092B2
:100DC000AD0585EFC8168FE0D806E104F10428F4DC
:100DD0008CE08093B80581E00DCF80E125EFC2164D
:100DE0002FEFD206E104F104A0F38091200390914B
:100DF0002103A0912203B09123038093BB0590931C
:100E0000BC05A093BD05B093BE0580E2E2CF4F9232
:100E10005F926F927F928F929F92AF92BF92CF928A
:100E2000DF92EF92FF920F931F93CF93DF93EC012A
:100E3000423051056105710590F480E0DF91CF915A
:100E40001F910F91FF90EF90DF90CF90BF90AF90E8
:100E50009F908F907F906F905F904F9008958985BD
:100E60009A85AB85BC850196A11DB11D8417950798
:100E7000A607B70710F3CB88DC88ED88FE888F893A
:100E8000803109F042C0BB27A72F962F852F48013C
:100E900059012A013B01C80ED91EEA1EFB1E809192
:100EA0000F0290911002A0911102B0911202C81687
:100EB000D906EA06FB0699F58F898031B9F5B301A9
:100EC000A201552766277727440F551F4C505D4FC9
:100ED000FA01918280828091F30281608093F30213
:100EE0008A89823080F08D819E81AF81B8858C0D9A
:100EF0009D1DAE1DBF1D8093E1029093E202A09361
:100F0000E302B093E40281E099CFDB01CA01E7E09C
:100F1000B695A79597958795EA95D1F7B8CF40E014
:100F2000C701B60106DE8111C7CF87CFB301A20189
:100F30004F77552766277727440F551F440F551FB6
:100F40004C505D4FFA0180829182A282B382C3CF5E
:100F50008F929F92AF92BF92CF92DF92EF92FF92C9
:100F60000F931F93CF93DF93FC0181859285A38517
:100F7000B4850196A11DB11D84179507A607B70773
:100F800070F480E0DF91CF911F910F91FF90EF906F
:100F9000DF90CF90BF90AF909F908F9008958388FF
:100FA0009488A588B6888789803189F5BB27A72FC3
:100FB000962F852FE9016A017B018F01BC01CD01CC
:100FC000680D791D8A1D9B1D80900F029090100264
:100FD000A0901102B090120286169706A806B906D4
:100FE00001F5F8018789803109F5DD24EE24FF241D
:100FF000F601EE0FFF1FEC50FD4F80819181B0E0B4
:10100000A0E088839983AA83BB8381E0BBCFDB0107
:10101000CA01C7E0B695A79597958795CA95D1F768
:10102000C9CF40E086DD8111DCCFABCFE894C7F8B3
:10103000DD24EE24FF24F601EE0FFF1FEE0FFF1F4D
:10104000EC50FD4F80819181A281B381BF70D9CFD7
:101050004F925F926F927F92AF92BF92CF92DF9248
:10106000EF92FF920F931F93CF93DF9300D01F92C5
:10107000CDB7DEB78C0149835A836B837C835901DA
:10108000C12CD12C7601412C82E0582E612C712C80
:1010900049815A816B817C819E012F5F3F4FC8013E
:1010A00057DF882339F1F8018585A301920104C037
:1010B000220F331F441F551F8A95D2F7DA01C90149
:1010C000C80ED91EEA1EFB1E49815A816B817C81A4
:1010D0008789803111F188EF9FEFAFEFBFE04817AC
:1010E00059076A077B07A0F2F501C082D182E2822C
:1010F000F38281E00F900F900F900F90DF91CF91CE
:101100001F910F91FF90EF90DF90CF90BF90AF9025
:101110007F906F905F904F90089588EF9FEFA0E0D1
:10112000B0E0DDCFCF93DF93FC012581222321F0B6
:1011300080E0DF91CF910895EC018091B805803176
:1011400059F582E08583178A108E118E128E809158
:10115000B9059091BA05B0E0A0E025E0880F991F8D
:10116000AA1FBB1F2A95D1F7838B948BA58BB68BB7
:1011700081EA95E09C8F8B8F81E08C831E821F8299
:10118000188619861A861B861C861D861E861F8653
:10119000188A198A1A8ACDCF803251F683E0858366
:1011A0004091BB055091BC056091BD057091BE0595
:1011B000478B508F618F728F9F012D5E3F4F81EA69
:1011C00095E046DF8111D4CFB3CF8F929F92AF923B
:1011D000BF92CF92DF92EF92FF920F931F93CF9324
:1011E000DF93EC018D8181110EC080E0DF91CF9102
:1011F0001F910F91FF90EF90DF90CF90BF90AF9035
:101200009F908F9008950B891C892D893E89041722
:1012100015072607370748F34A015B01823031F48E
:101220008A869B86AC86BD8681E0E0CF81149104DE
:10123000A104B10449F41E821F82188619861A86F9
:101240001B861C861D86F0CF0A851B852C853D8557
:10125000EB8DFC8D858590E00996B901A801415080
:10126000510961097109082E04C076956795579553
:1012700047950A94D2F775016401E1E0CE1AD108CE
:10128000E108F10804C0F694E794D794C7948A95CE
:10129000D2F7C416D506E606F70620F0012B022B7E
:1012A000032B09F58F89988DA98DBA8D8E839F8325
:1012B000A887B9878E010A5F1F4FC114D104E104CA
:1012C000F10409F4ADCF4E815F816885798598017D
:1012D0008B8D9C8D3DDE91E0C91AD108E108F108A3
:1012E0008111EBCF82CFC41AD50AE60AF70AE2CF02
:1012F0003F924F925F926F927F928F929F92AF92A6
:10130000BF92CF92DF92EF92FF920F931F93CF93F2
:10131000DF93CDB7DEB72C970FB6F894DEBF0FBEC4
:10132000CDBF5C01DC015B968D909C905C9716961E
:101330004D905D906D907C9019974114510461041B
:10134000710409F467C0BFEF4B1A5B0A6B0A7B0A92
:10135000312CF40181859285A385B4859C01AD0172
:101360002F5F3F4F4F4F5F4F29873A874B875C87EF
:10137000730162011D821E821F821886F40181851D
:101380009285A385B4852D813E814F81588528178C
:1013900039074A075B0708F054C089859A85AB85F1
:1013A000BC858C159D05AE05BF0550F482E0C82EA6
:1013B000D12CE12CF12C92E0492E512C612C712C76
:1013C0009E012F5F3F4FB701A601C401C1DD8823F5
:1013D000C1F189819A81AB81BC81892B8A2B8B2BAE
:1013E00009F1260137019FEF491A590A690A790A5A
:1013F0002D813E814F8158852F5F3F4F4F4F5F4F6B
:101400002D833E834F8358873FEFC31AD30AE30AE5
:10141000F30AB4CFF401408051806280738033249A
:10142000339497CFC414D504E604F70409F70FEFFB
:101430001FEF2FEF3FE0B701A601C401E8DC8111E7
:1014400019C080E02C960FB6F894DEBF0FBECDBF5A
:10145000DF91CF911F910F91FF90EF90DF90CF9090
:10146000BF90AF909F908F907F906F905F904F90C4
:101470003F900895F501468157816085718541153A
:1014800051056105710531F097018601C401BFDC8A
:101490008823B9F2D5011696CD92DD92ED92FC9299
:1014A0001997332051F0D701C6010196A11DB11D36
:1014B000F40180839183A283B383F5018789908DA2
:1014C000A18DB28D892B8A2B8B2B39F4C78AD08EB4
:1014D000E18EF28E84818068848381E0B3CFCF93E4
:1014E000DF93EC018D81882379F18C8187FF29C0FE
:1014F0006E857F858889998941E01BDB882321F1EE
:10150000EA8980E2E89FF0011124EC50FD4F30970A
:10151000D9F08D81823040F48B899C89AD89BE8958
:10152000848F958FA68FB78F8F89988D938F828F99
:101530008F89988DA98DBA8DB58BA48B8C818F776F
:101540008C83DF91CF91BACA80E0DF91CF9108956B
:10155000CF93DF93EC01C3DF882311F01D8281E07C
:10156000DF91CF9108952F923F924F925F926F92A9
:101570007F928F929F92AF92BF92CF92DF92EF9223
:10158000FF920F931F93CF93DF9300D01F92CDB79D
:10159000DEB78C015B011A01DC0115968C91159761
:1015A000813009F0C5C014968C9181FFC1C082FDC5
:1015B000ACC06101D8011A964D915D916D917C91FD
:1015C0001D97C114D10409F423C15B968D919C91A0
:1015D0005C97FC0174802FEF270D2A013B0139E055
:1015E00076946794579447943A95D1F7722E742065
:1015F0007A01F1E0FF2271101FC0E114F104E1F45F
:1016000016964D915D916D917C91199741155105FB
:101610006105710509F095C057968D919D910D90CA
:10162000BC91A02D0097A105B10509F0ABC0C80180
:101630005FDE882309F47CC080E092E08E199F0968
:1016400046018C159D0508F44C01D8015B964D911F
:101650005C915C9716968D919D910D90BC91A02DFB
:101660000297A109B109FA01258504C0880F991FC5
:10167000AA1FBB1F2A95D2F74685578560897189B5
:10168000840F951FA61FB71F9C01AD01270D311DAB
:10169000411D511D29013A01811432E0930609F0E0
:1016A00077C080910F0290911002A0911102B09129
:1016B000120284159505A605B70559F48FEF9FEF23
:1016C000DC0180930F0290931002A0931102B0935B
:1016D00012029501B301A2018091F4049091F504E6
:1016E00090D9882329F19EEFB91AC818D908F801B2
:1016F00082859385A485B585880D991DA11DB11D91
:1017000082879387A487B58755CFF8014389548989
:101710006589768982859385A485B585481759079B
:101720006A077B0709F445CFC8014FDD811141CF1E
:1017300081E090E0D80113969C938E93129780E0FD
:1017400006C09E012F5F3F4F03DC811102C090E075
:1017500075C089819A81AB81BC81F801238D348D5C
:10176000F901278948EF5FEF60E070E0203121F058
:1017700048EF5FEF6FEF7FE084179507A607B70785
:1017800008F055CFF80186839783A087B18754CF9F
:10179000E114F10489F5D8011A964D915D916D918E
:1017A0007C911D9753968D919D910D90BC91A02D8C
:1017B000481759076A077B07F8F080D9882309F48E
:1017C000B7CF40920F0250921002609211027092B5
:1017D00012028091F30281608093F30297012C50F2
:1017E0003D4FD501C901880D991DF9018E179F073D
:1017F00051F04D914193FACF41E0C301B20199D923
:101800008111ECCF95CF821B930BA80EB91E6DCF23
:10181000F80183899489A589B68984179507A60755
:10182000B70738F48481438B548B658B768B806843
:101830008483F801848183FD18C0C1010F900F904B
:101840000F900F90DF91CF911F910F91FF90EF902C
:10185000DF90CF90BF90AF909F908F907F906F90D0
:101860005F904F903F902F900895C80138DE8823F5
:1018700009F45ECFE2CFCF93DF931F92CDB7DEB7EF
:10188000698341E050E0BE016F5F7F4F6CDE0F90D7
:10189000DF91CF910895FC01DB0112968D919C910F
:1018A00013979383828381E392E0918380831496DC
:1018B0008C911497848315968C9115978583169631
:1018C0004D915D916D917C91199746835783608707
:1018D00071871A964D915D916D917C911D9742870C
:1018E0005387648775871E964D915D916D917C91AC
:1018F000519746875787608B718B52968C91529780
:10190000828B53964D915D916D917C915697438B4F
:10191000548B658B768B57964D915D916D917C9133
:101920005A97478B508F618F728F5B968D919C91E8
:10193000948F838F08950895FC01818D928D009777
:1019400009F0CDCD0895DC015996ED91FC913097C9
:10195000B9F083899489A589B689428553856485C0
:101960007585841B950BA60BB70B811520E8920794
:10197000A105B10538F08FEF9FE7A0E0B0E0089532
:1019800090E080E00895CF93DF93EC01E98DFA8D2C
:10199000309749F481E090E09B838A8390E080E077
:1019A000DF91CF91089513821282898D9A8DDBDDAC
:1019B000E98DFA8D22813381232B61F7F1CFCF930B
:1019C000DF931F92CDB7DEB76983DC01ED91FC9107
:1019D0000280F381E02D41E050E0BE016F5F7F4F58
:1019E00019950F90DF91CF9108952F923F924F92CA
:1019F0005F926F927F928F929F92AF92BF92CF929F
:101A0000DF92EF92FF920F931F93CF93DF9300D05B
:101A1000CDB7DEB7FC018581811118C08FEF9FEF34
:101A20000F900F900F90DF91CF911F910F91FF902A
:101A3000EF90DF90CF90BF90AF909F908F907F906E
:101A40006F905F904F903F902F900895848180FF1A
:101A5000E5CF438954896589768982859385A485F4
:101A6000B585312C212C481759076A077B0719F0D7
:101A700022242394312C6F012101CE0101963C01D7
:101A8000DF011696BB83AA834114510409F4C3C035
:101A9000F60142855385648575854A01F1E09F22F0
:101AA000D6015B968D919C915C978A019B01E9E040
:101AB0003695279517950795EA95D1F71596EC91E8
:101AC000E230E1F5FC01628D738D848D958D600FA0
:101AD000711F821F931FA12C22E0B22EA818B908F3
:101AE0004A145B0408F45201F601248126FD04C067
:101AF000A114F2E0BF0671F400910F0210911002E0
:101B00002091110230911202061717072807390792
:101B100009F05CC040E00DD8882309F47FCFC401F0
:101B20008C509D4FD3019C012A0D3B1DFC012E17AB
:101B30003F0709F46BC041914D93F9CFDC01149636
:101B4000BC90BA94B0228114910479F4B1100DC004
:101B5000452B462B472B69F5F6018789908DA18D82
:101B6000B28D86839783A087B187D6015B96ED916E
:101B7000FC915C9716966D917D918D919C91199732
:101B80006250710981099109258504C0660F771F8C
:101B9000881F991F2A95D2F70685178520893189D4
:101BA000600F711F821F931F6B0D711D811D911D91
:101BB00092CFD60116964D915D916D917C911997BA
:101BC0002A813B81C5D98111D0CF28CF73018501EE
:101BD0009401AB01BC018091F4049091F5040E9442
:101BE0006904882309F41ACF6A0C7B1CF6018285EC
:101BF0009385A485B5858A0D9B1DA11DB11D828786
:101C00009387A487B5874A185B083ECF281B390BFA
:101C1000620E731EEBCF2A94232809F0FFCE898130
:101C200090E0FECEFC01818D928D009709F0DDCE13
:101C30008FEF9FEF08950F931F930E94C00360934F
:101C4000E6057093E7058093E8059093E9058EED2E
:101C500095E0E8DF97FF1DC00E94C0030091E605F4
:101C60001091E7052091E8053091E905601B710BA3
:101C7000820B930B0091E2051091E3052091E4059E
:101C80003091E505601771078207930700F38FEF26
:101C90009FEF1F910F9108950F931F93CF93DF93A1
:101CA000EC01898D9A8D10E000E0009789F09DDEAF
:101CB0008C010F3F100761F0898D9A8DFC014285E0
:101CC00053856485758541505109610971097DDA33
:101CD000C801DF91CF911F910F91089590E080E0AE
:101CE0000895CF93883789F0C62F893744F4813619
:101CF00009F1853641F461E06C2788E109C0893734
:101D000051F08A3761F0CF910895C1E06C2786E2E7
:101D1000CF910C94570361E06C2788E3F9CF61E021
:101D2000C627C09300026C2F8EE30E9457036C2FCE
:101D30008EE1EECF88E7D5DF6C2F89E7D2DF6C2FFD
:101D40008AE7CFDFD8CF0F931F93CF93DF93EC01B8
:101D500080E2689FF0011124EC50FD4F6A8B809166
:101D60000F0290911002A0911102B09112028E8781
:101D70009F87A88BB98B0489158930E020E09801F2
:101D8000112700270F8B188F298F3A8F828D938D03
:101D9000B0E0A0E0AC01BD01402B512B622B732BB6
:101DA0004F8B588F698F7A8F83858871A9F4848DC2
:101DB000958DA68DB78D8B8B9C8BAD8BBE8B81E06B
:101DC0008D8381E08C831E821F82188619861A8675
:101DD0001B861C861D8603C0803131F080E0DF91B8
:101DE000CF911F910F9108959E012D5E3F4F8B8DD6
:101DF0009C8D2ED9882391F384E0E2CFFC010190E1
:101E00000020E9F73197AF01481B590BBC0186EF61
:101E100094E00C9498018F929F92AF92BF920F938F
:101E20001F93CF93DF93CDB7DEB7A1970FB6F8948A
:101E3000DEBF0FBECDBF19A2423008F44AE08E01CA
:101E40000F5D1F4F842E912CB12CA12CA501940164
:101E50000E948B24E62FB901CA01EA30ECF4E05D60
:101E6000D801EE938D01232B242B252B79F790E0BD
:101E700080E0109711F0CD01C1DFA1960FB6F89464
:101E8000DEBF0FBECDBFDF91CF911F910F91BF90ED
:101E9000AF909F908F900895E95CE2CFCF93DF934E
:101EA000ADDFEC0183E592E0A9DF8C0F9D1FDF9190
:101EB000CF9108954F925F926F927F928F929F92EF
:101EC000AF92BF92CF92DF92EF92FF92CF93DF93C8
:101ED000CDB7DEB72C970FB6F894DEBF0FBECDBFDF
:101EE0008091FF0590910006019609F43CC2909103
:101EF000010280910202992309F492C3882309F414
:101F000032C280910302882309F42DC28091040219
:101F1000882309F428C2E091FB05F091FC0580A11B
:101F200091A18230910508F04DC362A173A184A1F3
:101F300095A14AE070DF83E592E060DFE091FB0568
:101F4000F091FC054080518062807380808591858E
:101F5000A285B3858D839E83AF83B887808991895D
:101F6000A289B389208D318D428D538D29873A877F
:101F70004B875C873CE943163FEF530663067306C5
:101F800041F44090CA025090CB026090CC02709015
:101F9000CD022D813E814F8158852C393F4F4F4FC7
:101FA0005F4F61F42091D2023091D3024091D4026C
:101FB0005091D5022D833E834F8358878C399F4F94
:101FC000AF4FBF4F41F48091A6029091A702A0911C
:101FD000A802B091A90289859A85AB85BC858C3908
:101FE0009F4FAF4FBF4F61F48091EF029091F0028D
:101FF000A091F102B091F20289879A87AB87BC87E2
:1020000082A193A1A4A1B5A10697A105B10551F4A0
:1020100060910E0270E090E080E04AE0FCDE83E533
:1020200092E0ECDE8091D2029091D302A091D40292
:10203000B091D5024091CA025091CB026091CC027E
:102040007091CD0273016201C41AD50AE60AF70A3B
:10205000C092C602D092C702E092C802F092C902B2
:10206000CD80DE80EF80F884C81AD90AEA0AFB0A1C
:10207000C092C202D092C302E092C402F092C502A2
:102080004093B6025093B7026093B8027093B902BE
:102090008093AA029093AB02A093AC02B093AD02DE
:1020A0001092BE021092BF021092C0021092C102A2
:1020B0008091C6029091C702A091C802B091C90256
:1020C000B7FF66C18FEF9FEFDC018093BA02909358
:1020D000BB02A093BC02B093BD028091C602909156
:1020E000C702A091C802B091C902B095A095909581
:1020F00081959F4FAF4FBF4F8093C6029093C70209
:10210000A093C802B093C9028091C2029091C30209
:10211000A091C402B091C502B7FF47C18FEF9FEFF6
:10212000DC018093AE029093AF02A093B002B09313
:10213000B1028091C2029091C302A091C402B091F9
:10214000C502B095A095909581959F4FAF4FBF4F19
:102150008093C2029093C302A093C402B093C502BD
:10216000109201024091C6025091C7026091C802CC
:102170007091C9028091C2029091C302A091C402E1
:10218000B091C502E091FB05F091FC05C08CD18CAB
:10219000E28CF38C481759076A077B070CF46CC173
:1021A000248135814681578129833A834B835C831F
:1021B00080809180A280B3808091CA029091CB02EE
:1021C000A091CC02B091CD02A5019401281B390B3E
:1021D0004A0B5B0BDA01C901181619061A061B0611
:1021E0000CF0F0C08091CA029091CB02A091CC0279
:1021F000B091CD02A5019401281B390B4A0B5B0B52
:10220000CA01B90129813A814B815C810E947C24F9
:1022100016161706180619060CF0EEC08091CA02B1
:102220009091CB02A091CC02B091CD02A501940176
:10223000281B390B4A0B5B0BDA01C901181619066A
:102240001A061B060CF0CBC08091CA029091CB02FB
:10225000A091CC02B091CD02A5019401281B390BAD
:102260004A0B5B0BCA01B90129813A814B815C8120
:102270000E947C248090EF029090F002A090F102E6
:10228000B090F2028C189D08AE08BF08181419040B
:102290001A041B040CF087C12091EF023091F00268
:1022A0004091F1025091F2022C193D094E095F094B
:1022B0000E94AD2430932901209328018091CA0205
:1022C0009091CB02A091CC02B091CD024816590654
:1022D0006A067B06F1F48091D2029091D302A0911C
:1022E000D402B091D5022D813E814F8158852817A7
:1022F00039074A075B0769F486E592E0CFDDE09194
:10230000FB05F091FC0586A197A19093290180938C
:102310002801E091FB05F091FC0584819581909363
:102320008900809388008485958590939900809397
:102330009800848995899093A9008093A8001092B1
:10234000020210920302109204020E945C0189852D
:102350009A85AB85BC858093EF029093F002A093A1
:10236000F102B093F2022C960FB6F894DEBF0FBEC6
:10237000CDBFDF91CF91FF90EF90DF90CF90BF90D6
:10238000AF909F908F907F906F905F904F90089547
:1023900081E090E0A0E0B0E08093BA029093BB02AD
:1023A000A093BC02B093BD02AFCE81E090E0A0E06C
:1023B000B0E08093AE029093AF02A093B002B093CE
:1023C000B102CECE6091CA027091CB028091CC0254
:1023D0009091CD02681979098A099B0913CF609100
:1023E000CA027091CB028091CC029091CD02681903
:1023F00079098A099B0938CF8091CA029091CB0252
:10240000A091CC02B091CD02A5019401281B390BFB
:102410004A0B5B0BDA01C901181619061A061B06CE
:10242000F4F48091CA029091CB02A091CC02B091B9
:10243000CD02A5019401281B390B4A0B5B0BCA0185
:10244000B90129813A814B815C810E947C2490955D
:102450008095709561957F4F8F4F9F4F0BCF609107
:10246000CA027091CB028091CC029091CD02681982
:1024700079098A099B09E5CF84859585A685B78565
:1024800089839A83AB83BC8380849184A284B38440
:102490008091D2029091D302A091D402B091D50242
:1024A000A5019401281B390B4A0B5B0BDA01C9010A
:1024B000181619061A061B06CCF58091D2029091C7
:1024C000D302A091D402B091D502A5019401281B9A
:1024D000390B4A0B5B0BCA01B90129813A814B8147
:1024E0005C810E947C241616170618061906A4F5AE
:1024F0008091D2029091D302A091D402B091D502E2
:10250000A5019401281B390B4A0B5B0BDA01C901A9
:10251000181619061A061B06B4F48091D20290917F
:10252000D302A091D402B091D50296CE6091D2028E
:102530007091D3028091D4029091D50268197909E3
:102540008A099B09CACF6091D2027091D30280910F
:10255000D4029091D5024BCF8091D2029091D302B8
:10256000A091D402B091D502A5019401281B390B8A
:102570004A0B5B0BDA01C901181619061A061B066D
:102580004CF48091D2029091D302A091D402B091E8
:10259000D5024FCF6091D2027091D3028091D402C4
:1025A0009091D50264CF8090EF029090F002A090BD
:1025B000F102B090F202A7019601281939094A09DF
:1025C0005B0976CE8C35910509F0CDCE808D918D4D
:1025D000A28DB38D8093DA029093DB02A093DC028C
:1025E000B093DD028093EF029093F002A093F1028A
:1025F000B093F2022C960FB6F894DEBF0FBECDBF9B
:10260000DF91CF91FF90EF90DF90CF90BF90AF9090
:102610009F908F907F906F905F904F900C945C0193
:10262000882309F4A0CE80910302882309F49BCE6D
:102630004091C6025091C7026091C8027091C902D0
:102640008091C2029091C302A091C402B091C502D0
:10265000481759076A077B070CF4CFC04091BE02A8
:102660005091BF026091C0027091C1028091C60278
:102670009091C702A091C802B091C90248175907AA
:102680006A077B070CF042C18091BA029091BB02AD
:10269000A091BC02B091BD024091B6025091B70228
:1026A0006091B8027091B902840F951FA61FB71FE1
:1026B0008093B6029093B702A093B802B093B90288
:1026C0008091C2029091C302A091C402B091C50250
:1026D0004091B2025091B3026091B4027091B50280
:1026E000840F951FA61FB71F8093B2029093B30269
:1026F000A093B402B093B5024091B2025091B302DC
:102700006091B4027091B5028091C6029091C702A7
:10271000A091C802B091C902481759076A077B0700
:10272000C4F18091AE029091AF02A091B002B0913D
:10273000B1024091AA025091AB026091AC0270913B
:10274000AD02840F951FA61FB71F8093AA02909316
:10275000AB02A093AC02B093AD024091C60250917F
:10276000C7026091C8027091C9028091B202909133
:10277000B302A091B402B091B502841B950BA60BD5
:10278000B70B8093B2029093B302A093B402B093BC
:10279000B5028091B6029091B702A091B802B091B3
:1027A000B9028093CA029093CB02A093CC02B0935B
:1027B000CD028091AA029091AB02A091AC02B0919F
:1027C000AD028093D2029093D302A093D402B0932F
:1027D000D5028091BE029091BF02A091C002B0913B
:1027E000C1020196A11DB11D8093BE029093BF024C
:1027F000A093C002B093C102B6CD4091BE025091E9
:10280000BF026091C0027091C1028091C20290919A
:10281000C302A091C402B091C502481759076A07C4
:102820007B070CF073C08091AE029091AF02A09133
:10283000B002B091B1024091AA025091AB026091F6
:10284000AC027091AD02840F951FA61FB71F809335
:10285000AA029093AB02A093AC02B093AD02809118
:10286000C6029091C702A091C802B091C9024091DE
:10287000B2025091B3026091B4027091B502840F1C
:10288000951FA61FB71F8093B2029093B302A09327
:10289000B402B093B5024091B2025091B30260917C
:1028A000B4027091B5028091C2029091C302A091CE
:1028B000C402B091C502481759076A077B070CF498
:1028C00068CF8091BA029091BB02A091BC02B091F6
:1028D000BD024091B6025091B7026091B80270916A
:1028E000B902840F951FA61FB71F8093B60290935D
:1028F000B702A093B802B093B9024091C2025091BE
:10290000C3026091C4027091C5022FCF81E0809311
:10291000010229CDAF92BF92CF92DF92EF92FF9248
:102920000F931F93CF93DF9300D000D000D01F925E
:102930001F92CDB7DEB76C01FE013196CE010C9629
:102940007F0120E22193E817F907E1F7DA0120E09F
:1029500037E09D91B92E9923A9F19E32B9F43A300E
:1029600091F480E02B960FB6F894DEBF0FBECDBF7A
:10297000DF91CF911F910F91FF90EF90DF90CF905B
:10298000BF90AF90089528E03AE0E3CFEFE3F2E0A4
:102990008491882321F031969813FACFE2CF321731
:1029A00000F38FED890F8E35E0F68FE9890F8A31BC
:1029B00018F440EEB42EB90EF701E20FF11DB0820B
:1029C0002F5FC7CF8981803261F28B01FB01838D3C
:1029D000948DF601948F838FFB01168217821086E7
:1029E00011861286138614861586F80182859385D2
:1029F000A485B585438954896589768984179507A7
:102A0000A607B70708F0ADCF25E0B695A79597952F
:102A100087952A95D1F7F82FFF70AF2EF8018581A1
:102A2000823008F49ECFC8010E94F50C97FD99CF23
:102A3000F80182859385A485B5854F96A11DB11DAA
:102A400082879387A487B587F0E2AF9EB0011124F7
:102A50006C507D4F6115710509F483CFFB018081B6
:102A6000882301F1853E19F4B11031C01DC04BE03F
:102A700050E0C7010E94D226892B09F0B6CF6A2DFB
:102A8000C6012B960FB6F894DEBF0FBECDBFDF9107
:102A9000CF911F910F91FF90EF90DF90CF90BF905B
:102AA000AF9051C9B1105DCFF601A28A80910F029B
:102AB00090911002A0911102B0911202868797871F
:102AC000A08BB18BFB018081882309F44ACFBB2402
:102AD000B3948BCFFC01808191810C946D252FE400
:102AE00032E0FC013183208382819381009711F0D1
:102AF0000C946D250895CF93DF93EC01F0DFCE01A8
:102B0000DF91CF910C946D250F931F93CF93DF939B
:102B1000EC0188819981009759F02A813B81261721
:102B2000370730F081E0DF91CF911F910F91089529
:102B30008B016F5F7F4F0E94F625009759F09983B4
:102B400088831B830A832C813D81232B59F7FC0149
:102B50001082E8CF80E0E7CFEF92FF920F931F93B0
:102B6000CF93DF93EC017B018A01BA01CDDF28818D
:102B70003981811114C02115310519F0C9010E9454
:102B80006D25198218821D821C821B821A82CE0139
:102B9000DF91CF911F910F91FF90EF9008951D83CA
:102BA0000C83B701C9010E94E826F1CFFB01DC01CB
:102BB00011961C921E9213961C921E9212971596B5
:102BC0001C921E9214978617970741F060817181BD
:102BD0006115710519F044815581BECF0895FC013E
:102BE000118210821382128215821482FB010190DD
:102BF0000020E9F73197AF01461B570BADCFEF929D
:102C0000FF920F931F93CF93DF93EC017B018A0117
:102C10001B821A8288EE93E0A0E0B0E08C839D8353
:102C2000AE83BF838DE392E0998388838DE190E04A
:102C30000E94D1249A8F898F009779F02DE1F701B6
:102C4000DC0101900D922A95E1F74CE050E0B801CB
:102C5000CE010C960E94EF26188EDF91CF911F9126
:102C60000F91FF90EF9008956F927F928F929F92B5
:102C7000AF92BF92CF92DF92EF92FF920F931F938A
:102C8000CF93DF9300D000D0CDB7DEB7FC018480B6
:102C900095808114910409F499C0FB013C01A08046
:102CA000B180FC01E080F180B501C7010E94FE26E1
:102CB000009709F48BC08C010E191F090F3F1007F4
:102CC00009F484C068010815190508F086C0F701E9
:102CD000E00FF11FE114F10421F41092DE02EEED99
:102CE000F2E08081803209F478C00F5F1F4FEACF95
:102CF0008E199F097C012FEFE21AF20A0E151F05AB
:102D000028F49E2D8F2D7801C92ED82E65E572E00E
:102D1000CE01019664DFF30104811581E016F1060E
:102D200018F5C016D10608F48601F301608171819F
:102D3000FB01E00FF11FD08010826E0D7F1D611529
:102D40007105B9F1FB0101900020E9F73197AF015E
:102D5000461B570BCE010196FFDEF3018081918166
:102D6000080F191FF801D08289819A81C12CD12CBA
:102D70007601009721F00E9436216B017C01CE0183
:102D80000196A8DEC701B60126960FB6F894DEBFFD
:102D90000FBECDBFDF91CF911F910F91FF90EF90AC
:102DA000DF90CF90BF90AF909F908F907F906F906B
:102DB000089589819A81009711F00E946D251A82E9
:102DC00019821E821D821C821B82C7CFC12CD12C6E
:102DD00080E8E82E8FEBF82ED5CFB501C7010E9411
:102DE000FE26009709F084CF8FEF9FEF83CF2F92BD
:102DF0003F924F925F926F927F928F929F92AF928B
:102E0000BF92CF92DF92EF92FF920F931F93CF93D7
:102E1000DF93CDB7DEB7C058D1090FB6F894DEBF47
:102E20000FBECDBF8091060290910702A0910802CB
:102E3000B09109020196A11DB11D809306029093E5
:102E40000702A0930802B093090265E572E0CE0183
:102E5000875B9F4FC4DE0E941B0E97FD26C08A3001
:102E6000910519F189831A822F960EAD1FAD2F9708
:102E70000F5F1F4FB801CE01875B9F4F45DE882350
:102E800051F32B962EAD3FAD2B972F968EAD9FAD68
:102E90002F97BE016F5F7F4F820F931F0E94E8261E
:102EA0002F961FAF0EAF2F97D6CF69E572E0CE01F8
:102EB0008D5B9F4F94DEBE01675B7F4FCE01CD9649
:102EC00075DEBE016D5B7F4FCE01CD96CDDE20E07D
:102ED00030E0A9010E94AE2211E0882309F440C02D
:102EE00069E572E0CE01C7967ADEBE01675B7F4F6F
:102EF000CE01C1965BDEBE01695C7F4FCE01C196FB
:102F0000B3DE20E030E040E85FE30E94AE2211E053
:102F1000882301F169E572E0CE018B9660DEBE0187
:102F2000675B7F4FCE01019641DEBE01655D7F4F3D
:102F3000CE01019699DE11E020E030E048EB52E44A
:102F40000E94AE22811110E0CE010196C3DDCE01B8
:102F50008B96C0DDCE01C196BDDDCE01C796BADD30
:102F6000CE01CD96B7DDCE018D5B9F4FB3DD112332
:102F700009F4D7C26BE572E0CE018B9630DEBE015C
:102F8000675B7F4FCE01019611DEBE01655D7F4F0D
:102F9000CE01019669DE6B966CAF7DAF8EAF9FAFB1
:102FA0006B97CE01019696DDCE018B9693DD6DE594
:102FB00072E0CE018B9613DEBE01675B7F4FCE01C0
:102FC0000196F4DDBE01655D7F4FCE0101964CDEBA
:102FD0006F966CAF7DAF8EAF9FAF6F97CE010196AE
:102FE00079DDCE018B9676DD6FE572E0CE018B96B2
:102FF000F6DDBE01675B7F4FCE010196D7DDBE01D6
:10300000655D7F4FCE0101962FDEA3966CAF7DAF3D
:103010008EAF9FAFA397CE0101965CDDCE018B965C
:1030200059DD61E672E0CE018B96D9DDBE01675BAA
:103030007F4FCE010196BADDBE01655D7F4FCE01A7
:10304000019612DE4B015C01CE01019643DDCE01FB
:103050008B9640DD63E672E0CE018B96C0DDBE014B
:10306000675B7F4FCE010196A1DDBE01655D7F4F9D
:10307000CE010196F9DDA7966CAF7DAF8EAF9FAF05
:10308000A797CE01019626DDCE018B9623DD809198
:10309000060290910702A0910802B091090267967A
:1030A0008CAF9DAFAEAFBFAF679769E572E0CE0161
:1030B0008B9695DDBE01675B7F4FCE01019676DD75
:1030C000BE01655D7F4FCE010196CEDD0E944B248F
:1030D00063966CAF7DAF8EAF9FAF639761968EADF9
:1030E0009FAD619797FD08C0823091050CF4D9C05F
:1030F0008C35910509F484C1CE010196EBDCCE013B
:103100008B96E8DCAF968CAD9DADAEADBFADAF9705
:1031100089839A83AB83BC83CD82DE82EF82F8867B
:10312000E3968CAD9DADAEADBFADE39789879A8731
:10313000AB87BC87C158DF4F9881CF57D0409D8760
:10314000C058DF4FA881C058D040AE872F86388A3C
:10315000AB968CAD9DADAEADBFADAB97898B9A8B69
:10316000AB8BBC8BEC969FADEC979D8BED96AFAD8A
:10317000ED97AE8BEE96BFADEE97BF8BEF962FAD72
:10318000EF97288F498E5A8E6B8E7C8EE8968FAD86
:10319000E8978D8FE9969FADE9979E8FEA96AFAD40
:1031A000EA97AF8FEB96BFADEB97B8A361968EAD64
:1031B0009FAD61979AA389A367968CAD9DADAEAD87
:1031C000BFAD67978BA39CA3ADA3BEA3E4969FADB1
:1031D000E4979FA3E596AFADE597A8A7E696BFADA8
:1031E000E697B9A7E7962FADE7972AA72091FF05A5
:1031F00030910006A9014E5F5F4FE090FB05F09013
:10320000FC058091FD059091FE058E199F0995950D
:103210008795EDE3FFEC8E9FB0018F9F700D9E9F11
:10322000700D1124641775070CF005C1C9010196D2
:10323000880F991F841795070CF4CA0128173907BE
:103240003CF09C0121503109309300062093FF058A
:103250002AE2289F8001299F100D11248D30934070
:1032600008F4D5C08FEF9FEF0E94D1246C01080FA6
:10327000191FA090FF05B0900006970150E040E0B4
:10328000A416B5060CF4C5C06AE2F901DC01019090
:103290000D926A95E1F74F5F5F4F265D3F4F8A962B
:1032A000EFCFA7966CAD7DAD8EAD9FADA7970E9479
:1032B0004B246B0120E030E048EC52E46B966CAD9F
:1032C0007DAD8EAD9FAD6B970E9413230E944B2462
:1032D000AF966CAF7DAF8EAF9FAFAF9720E030E081
:1032E00048EC52E46F966CAD7DAD8EAD9FAD6F979F
:1032F0000E9413230E944B24E3966CAF7DAF8EAFE8
:103300009FAFE39720E030E048EC52E4A3966CAD29
:103310007DAD8EAD9FADA3970E9413230E944B24D9
:10332000AB966CAF7DAF8EAF9FAFAB9720E030E038
:1033300048EC52E4C501B4010E9413230E944B24BF
:103340002B013C019FEFC916D90601F1B601DD0C36
:10335000880B990B0E94B42220E030E040E752E451
:103360000E94E32320E030E048EC52E40E94132363
:103370009B01AC0160E074E284E799E40E94E323DE
:103380000E944B24709314026093130280911302E5
:1033900090911402880F991F6C01990FEE08FF0895
:1033A000E496CFAEE497E596DFAEE597E696EFAE0E
:1033B000E697E796FFAEE797E896CFAEE897E996EF
:1033C000DFAEE997EA96EFAEEA97EB96FFAEEB97A2
:1033D000EC96CFAEEC97ED96DFAEED97EE96EFAEB6
:1033E000EE97EF96FFAEEF97C158DF4FC882CF57E9
:1033F000D040C058DF4FD882C058D04017017CCE93
:10340000C501B4010E944B242B013C0175CEC801BB
:103410002BCFE114F10419F0C7010E946D25D09261
:10342000FC05C092FB051093FE050093FD05B092CC
:103430000006A092FF058091FB059091FC0540914C
:10344000FF05509100062091FD053091FE05281BD7
:10345000390B359527956DE37FEC269F8001279FDB
:10346000100D369F100D1124041B150B0230110591
:103470000CF054C0015011092AE2D22ED09E7001E6
:10348000D19EF00C11244F5F5F4FD49E9001D59ECA
:10349000300D1124A701BE016F5F7F4F820F931F74
:1034A0000E94DF2681E090E0801B910BD89EA00156
:1034B000D99E500D112461E070E06C0F7D1F6E0DE0
:1034C0007F1D8091FB059091FC050E94DF26809175
:1034D000FF05909100060196909300068093FF05EA
:1034E000CE01875B9F4FF6DAC058DF4F0FB6F894D6
:1034F000DEBF0FBECDBFDF91CF911F910F91FF9027
:10350000EF90DF90CF90BF90AF909F908F907F9083
:103510006F905F904F903F902F90089501E010E0E2
:10352000ABCF2F964EAD5FAD2F972B966EAD7FAD87
:103530002B9786EF94E00E94980183E592E00E9429
:10354000FE0ECECF1F920F920FB60F9211240BB624
:103550000F922F933F934F935F936F937F938F932C
:103560009F93AF93BF93EF93FF9386EF94E00E94F6
:103570000B02FF91EF91BF91AF919F918F917F913E
:103580006F915F914F913F912F910F900BBE0F90D4
:103590000FBE0F901F9018951F920F920FB60F92AB
:1035A00011240BB60F922F938F939F93EF93FF935A
:1035B000E0910605F09107058081E0910C05F091FE
:1035C0000D0582FD1DC0908180910F058F5F8F7367
:1035D00020911005821741F0E0910F05F0E0EA50CC
:1035E000FB4F958F80930F05FF91EF919F918F91E6
:1035F0002F910F900BBE0F900FBE0F901F9018953C
:103600008081F2CF1F920F920FB60F9211242F9349
:103610003F938F939F93AF93BF938091EA029091D2
:10362000EB02A091EC02B091ED023091E90223E0AF
:10363000230F2D3758F50196A11DB11D2093E902E6
:103640008093EA029093EB02A093EC02B093ED0218
:103650008091E5029091E602A091E702B091E80224
:103660000196A11DB11D8093E5029093E602A093FF
:10367000E702B093E802BF91AF919F918F913F9184
:103680002F910F900FBE0F901F90189526E8230FD3
:103690000296A11DB11DD2CF1F920F920FB60F92AD
:1036A00011240BB60F920F931F932F933F934F93B9
:1036B0005F936F937F938F939F93AF93BF93EF939A
:1036C000FF934091DA025091DB026091DC0270912D
:1036D000DD028091EF029091F002A091F102B09191
:1036E000F202481759076A077B0709F470C0009176
:1036F000EF021091F0022091F1023091F2028091DC
:10370000DA029091DB02A091DC02B091DD0261E06F
:1037100080179107A207B3070CF060E08CE10E94CC
:10372000570380910502882341F14091EF025091A7
:10373000F0026091F1027091F2028091DA029091B0
:10374000DB02A091DC02B091DD0284179507A60789
:10375000B7078CF58091DA029091DB02A091DC0230
:10376000B091DD020196A11DB11D8093DA02909304
:10377000DB02A093DC02B093DD026091050281E0E0
:103780006827609305028AE10E945703FF91EF9139
:10379000BF91AF919F918F917F916F915F914F9169
:1037A0003F912F911F910F910F900BBE0F900FBE65
:1037B0000F901F9018958091DA029091DB02A091F2
:1037C000DC02B091DD020197A109B109CECF81E001
:1037D00080930402DBCF1F920F920FB60F92112439
:1037E0000BB60F920F931F932F933F934F935F93BB
:1037F0006F937F938F939F93AF93BF93EF93FF93B9
:103800004091D6025091D7026091D8027091D902AE
:103810008091D2029091D302A091D402B091D502AE
:10382000481759076A077B0709F470C00091D20254
:103830001091D3022091D4023091D5028091D6020A
:103840009091D702A091D802B091D90261E080177F
:103850009107A207B3070CF060E08DE30E945703C5
:1038600080910D02882341F14091D2025091D30200
:103870006091D4027091D5028091D6029091D702C6
:10388000A091D802B091D90284179507A607B7076F
:103890008CF58091D6029091D702A091D802B09178
:1038A000D9020196A11DB11D8093D6029093D70233
:1038B000A093D802B093D90260910D0281E06827ED
:1038C00060930D028CE30E945703FF91EF91BF912B
:1038D000AF919F918F917F916F915F914F913F91A8
:1038E0002F911F910F910F900BBE0F900FBE0F9055
:1038F0001F9018958091D6029091D702A091D8027E
:10390000B091D9020197A109B109CECF81E080938E
:1039100003020E945A0FD9CF1F920F920FB60F9237
:1039200011240BB60F920F931F932F933F934F9336
:103930005F936F937F938F939F93AF93BF93EF9317
:10394000FF934091CE025091CF026091D0027091CE
:10395000D1028091CA029091CB02A091CC02B09189
:10396000CD02481759076A077B0709F470C0009118
:10397000CA021091CB022091CC023091CD028091ED
:10398000CE029091CF02A091D002B091D10261E01D
:1039900080179107A207B3070CF060E087E30E944D
:1039A000570380910E02882341F14091CA02509141
:1039B000CB026091CC027091CD028091CE029091A9
:1039C000CF02A091D002B091D10284179507A6072B
:1039D000B7078CF58091CE029091CF02A091D002D2
:1039E000B091D1020196A11DB11D8093CE0290939A
:1039F000CF02A093D002B093D10260910E0281E079
:103A0000682760930E0286E30E945703FF91EF91AF
:103A1000BF91AF919F918F917F916F915F914F91E6
:103A20003F912F911F910F910F900BBE0F900FBEE2
:103A30000F901F9018958091CE029091CF02A09187
:103A4000D002B091D1020197A109B109CECF81E096
:103A5000809302020E945A0FD9CFCF92DF92EF9249
:103A6000FF92CF93DF93E6EFF4E01382128288EEA9
:103A7000C82E83E0D82EE12CF12CC482D582E682B8
:103A8000F7828FE192E09183808385EC90E09587C7
:103A9000848784EC90E09787868780EC90E0918B18
:103AA000808B81EC90E0938B828B82EC90E0958B05
:103AB000848B86EC90E0978B868B118E128E138E02
:103AC000148EE3E9F5E080E580831182E5E9F5E015
:103AD000158216821186138682E090E0A0E0B0E0A5
:103AE00084879587A687B78713A215A614A681E3B6
:103AF00092E093A782A717A6C9EFD5E08FE492E0E2
:103B00009983888390E080E04CD79B838A832FEF52
:103B10003FEF3F832E839D838C83EEEDF5E0138290
:103B20001282C482D582E682F7828DE392E091838D
:103B30008083128E118E1486DF91CF91FF90EF90CB
:103B4000DF90CF900895CF93DF93CDB7DEB7C25704
:103B5000D1090FB6F894DEBF0FBECDBF789484B5FF
:103B6000826084BD84B5816084BD85B5826085BD79
:103B700085B5816085BD80916E00816080936E0007
:103B800010928100809181008260809381008091F9
:103B900081008160809381008091800081608093AA
:103BA00080008091B10084608093B1008091B0006A
:103BB00081608093B0008091910082608093910039
:103BC000809191008160809391008091900081604C
:103BD000809390008091A10082608093A1008091E9
:103BE000A10081608093A1008091A00081608093FA
:103BF000A0008091210182608093210180912101A8
:103C00008160809321018091200181608093200157
:103C100080917A00846080937A0080917A0082603B
:103C200080937A0080917A00816080937A008091FD
:103C30007A00806880937A001092C10061E086E388
:103C40000E94840361E087E30E94840361E086E2CE
:103C50000E94840360E087E30E9457031092800073
:103C60001AE0109381001092820064E6E62EF12C97
:103C7000F0928900E092880061E08CE30E94840366
:103C800061E08DE30E94840361E088E30E94840385
:103C900060E08DE30E945703109290001093910012
:103CA00010929200F0929900E092980061E08EE20A
:103CB0000E94840361E08DE30E94840361E088E355
:103CC0000E94840361E084E20E94840361E082E256
:103CD0000E94840361E08EE10E9484031092A000A0
:103CE0001093A1001092A200F092A900E092A80007
:103CF00061E08AE10E94840361E08CE10E94840318
:103D000061E088E10E94840361E08CE10E94570336
:103D10001092200110932101109222018CEA90E070
:103D2000909329018093280162E083E00E9484033C
:103D300062E08EE00E94840362E082E10E948403DC
:103D400061E089E00E94840361E08AE00E948403CC
:103D500060E08DE00E94840361E089E00E945703E7
:103D600061E081E60E94710EE0910605F091070581
:103D700082E08083E0910205F09103051082E091DA
:103D80000405F09105058FEC808310920E05E091FB
:103D90000A05F0910B0586E08083E0910805F0911B
:103DA0000905808180618083E0910805F091090513
:103DB000808188608083E0910805F0910905808109
:103DC00080688083E0910805F091090580818F7DEE
:103DD000808361E085E30E9484038091C405882389
:103DE00021F08FEB95E00E94A80A1092A005109296
:103DF0009E0510929B0510929A0584E08093990588
:103E00000E94C0038B0161E0809199050E948403A8
:103E100061E0809199050E945703FFB6F894809164
:103E2000EE02811127C0EEE2F2E08491E8EEF1E0CB
:103E30009491E82FF0E0EE0FFF1FE756FE4FA5919B
:103E4000B491EC91E92321F461E085E30E945703EA
:103E500061E085E30E9484038CB580618CBD8CB5E4
:103E600080648CBD61E084E30E94840361E083E3AD
:103E70000E9484038091EE028F5F8093EE02FFBE6A
:103E800082E580939305109294058091930590911B
:103E900094050E94FD034AE0F42E8FEF0E94DC039C
:103EA000FA94F110FACF85E995E00E94000420E031
:103EB00030E0A90160E085E995E00E941404F82E45
:103EC00080939F0581E0F81689F00E94C003601B73
:103ED000710B613D774058F381E080939A0585E945
:103EE00095E00E94D2038AE792E07CC02AEA31E0A2
:103EF00040E050E068E085E995E00E94140482FF0C
:103F00002AC0F092A0058091A005C12CD12C760189
:103F1000823029F4C12CD12CE12C20E4F22E20E0B7
:103F200030E0A90167E385E995E00E941404A70148
:103F3000960169E285E995E00E94140480939F054B
:103F40008823D1F00E94C003601B710B613D774054
:103F500030F388E0C2CF34E0F32E0E94E303809375
:103F60009F05FA94F110F9CF8A3A11F082E0B5CFAB
:103F700082E08093A005C7CF8091A0058230D1F464
:103F800020E030E0A9016AE385E995E00E9414048D
:103F9000882311F086E0A1CF0E94E303807C803C5F
:103FA00019F483E08093A0050E94E3030E94E303D9
:103FB0000E94E30385E995E00E94D20380E58093A7
:103FC00093051092940581E00E94E005882309F48E
:103FD000A9C08FEB95E00E949208882309F483CF53
:103FE00085E692E00E944E0F1C821B8201E312E0E4
:103FF0001A8309831E82CE0101960E949208BE0197
:104000006F5F7F4FCE01CB960E944B0C19A218A276
:104010001F8F0E8F1BA221968FAD2197811189C012
:104020006C961FAE1EAE6C9788EE93E0A0E0B0E0F9
:10403000A0968CAF9DAFAEAFBFAFA0978DE392E0DF
:104040006A969FAF8EAF6A97E3961FAE1EAEE39758
:10405000A5961FAEA5976C968EAD9FAD6C9790936D
:10406000E1058093E005A0968CAD9DADAEADBFADF2
:10407000A0978093E2059093E305A093E405B093A5
:10408000E505A4968CAD9DADAEADBFADA497809374
:10409000E6059093E705A093E805B093E905A8E548
:1040A000B0E0AC0FBD1F1C96EAEEF5E08D91819358
:1040B00085E0E73FF807D1F7E3968EAD9FADE39734
:1040C0009093F8058093F7058DE992E00E944E0FDA
:1040D000FF24F3940BE811E083E00E942F03892B67
:1040E00009F449C0FF24F3940BE811E08EE00E942C
:1040F0002F03892B09F44BC0FF24F3940BE811E044
:1041000082E10E942F03892B09F04DC060910C02BF
:104110006F2560930C0284E20E945703C801019747
:10412000F1F7EECF80E00E94E005882309F4DBCEB2
:1041300050CF41E952E0BE01655C7F4FCE014E9603
:104140000E948A14882309F46BCFCE01CB960E947B
:10415000A80ABE01625E7F4FCE0101960E944B0C01
:1041600041E952E0BE016F5F7F4FCE01885A9F4FF9
:104170000E94FF1570CF60910E026F2560930E02B2
:1041800086E30E945703C8010197F1F7A5CF60911C
:104190000D026F2560930D028CE30E945703C80146
:1041A0000197F1F7A3CF10920B0210920A028091AF
:1041B0000A0290910B0244979CF180E4E82E8FE173
:1041C000F82E12E098EE892E93E0992EA12CB12CB6
:1041D0000E94820161E089972CF40E9482014E972F
:1041E00024F460E08AE00E94570386EF94E00E9486
:1041F000F601892B51F086EF94E00E94D4018136BC
:104200009105D1F08236910531F18091FF059091B1
:104210000006099714F40E94F7160E949802D8CF5E
:104220000E94F71680910A0290910B0201969093DA
:104230000B0280930A02BBCFF0922901E092280181
:10424000109373008092EF029092F002A092F1021C
:10425000B092F202DACF10936F00109371001093B6
:104260007300D3CF89EF95E00C946F1566277727FD
:1042700000C08F929F92AF92BF92CF92DF92EF9247
:10428000FF920F931F93CF93DF935C017B01611526
:10429000710519F0DB018D939C9385010F5F1F4F12
:1042A000F501D0818D2F90E039D16C01892BA9F5D2
:1042B000DD32A9F50F5F1F4FD5011196DC91C1E0EA
:1042C0005801F1E0AF1AB10843E050E06CEE70E045
:1042D000C5012CD1892B61F5680182E0C80ED11C83
:1042E00045E050E067EE70E0C60120D1892B21F453
:1042F000680197E0C90ED11CE114F10419F0D7014F
:10430000CD92DC9260E070E080E89FEFC111F9C0CF
:1043100060E070E080E89FE7F4C05801BECFDB3278
:1043200029F485010E5F1F4FF501D181C0E0C8CF90
:1043300043E050E064EE70E0C501F8D0892BE9F06D
:10434000F80110E000E020E030E0A9015F01B0EDED
:104350008B2E8D0E89E08815C0F19C2E689491F803
:104360008C2F8870C2FF16C0811102C00F5F1F4FD3
:104370003196D501DC91C92DE9CFE114F10429F082
:104380000E5F1F4FF7011183008360E070E080EC47
:104390009FE7B7C0882311F001501109A5E0B0E0F4
:1043A000F9D19B01AC01220F331F441F551F280D6B
:1043B000311D411D511D283999E93907490799E1F6
:1043C0005907B0F2C6609C2ED3CFAEEF8A1206C05A
:1043D000C3FD3CC09C2E689493F8CACFDF7DD534D2
:1043E000A9F580818D3239F4C061DF011296818197
:1043F00062E070E006C0DF018B32C1F3119661E02C
:1044000070E080535D01A61AB70A8A30F8F4E0E83C
:10441000CE16ECE0DE065CF4B601660F771F660F81
:10442000771FC60ED71ECC0CDD1CC80ED11C5D013B
:10443000FFEFAF1ABF0A8C9180538A3098F1C4FF06
:1044400003C0D194C194D1080C0D1D1DC1FF09C03A
:10445000E114F10431F081E0A81AB108D701AD925E
:10446000BC92CA01B9017ED0C370C33009F4905820
:104470004B015C0120E030E0A90170D0882309F4F1
:104480003EC0CBE1D1E017FF05C0119501951109A0
:10449000C3E0D1E06E01B8E1CB1AD10880E2E82E8A
:1044A000F12C0EC0D501B3CFFE0125913591459178
:1044B00054910E191F09C501B401B5D04B015C011F
:1044C000D501C4010E151F057CF72497F594E794D8
:1044D000CC16DD06A9F78A2F880F8B2F881F8F3FF8
:1044E00041F020E030E0A901C501B40137D08111CD
:1044F00006C082E290E090932C0680932B06C501C3
:10450000B401DF91CF911F910F91FF90EF90DF9059
:10451000CF90BF90AF909F908F9008959111E6C07B
:10452000803219F089508550D0F70895FB01DC01E5
:104530004150504088F08D9181341CF08B350CF443
:10454000805E659161341CF06B350CF4605E861BF7
:10455000611171F3990B0895881BFCCF40D008F4CA
:1045600081E00895E89409C097FB3EF4909580950A
:10457000709561957F4F8F4F9F4F9923A9F0F92F29
:1045800096E9BB279395F695879577956795B795A7
:10459000F111F8CFFAF4BB0F11F460FF1BC06F5F8D
:1045A0007F4F8F4F9F4F16C0882311F096E911C09F
:1045B000772321F09EE8872F762F05C0662371F0C0
:1045C00096E8862F70E060E02AF09A95660F771FD4
:1045D000881FDAF7880F9695879597F90895990FB0
:1045E0000008550FAA0BE0E8FEEF16161706E807BD
:1045F000F907C0F012161306E407F50798F0621BDE
:10460000730B840B950B39F40A2661F0232B242BB2
:10461000252B21F408950A2609F4A140A6958FEFD1
:10462000811D811D08950BD07BC06CD028F071D006
:1046300018F0952309F05DC062C01124A5C081D097
:10464000A0F3959FD1F3950F50E0551F629FF001A5
:10465000729FBB27F00DB11D639FAA27F00DB11DFE
:10466000AA1F649F6627B00DA11D661F829F222787
:10467000B00DA11D621F739FB00DA11D621F839F0E
:10468000A00D611D221F749F3327A00D611D231FE4
:10469000849F600D211D822F762F6A2F11249F5732
:1046A00050408AF0E1F088234AF0EE0FFF1FBB1F55
:1046B000661F771F881F91505040A9F79E3F5105F4
:1046C00070F017C061C05F3FECF3983EDCF3869555
:1046D00077956795B795F795E7959F5FC1F7FE2B9F
:1046E000880F911D9695879597F9089599278827A2
:1046F000089597F99F6780E870E060E008959FEF64
:1047000080EC089500240A94161617061806090668
:10471000089500240A941216130614060506089537
:10472000092E0394000C11F4882352F0BB0F40F4BF
:10473000BF2B11F460FF04C06F5F7F4F8F4F9F4FFF
:10474000089557FD9058440F551F59F05F3F71F081
:104750004795880F97FB991F61F09F3F79F08795E8
:104760000895121613061406551FF2CF4695F1DF71
:1047700008C0161617061806991FF1CF8695710501
:10478000610508940895E894BB2766277727CB0135
:1047900097F9089509D0A59F900DB49F900DA49FFF
:1047A000800D911D11240895A29FB001B39FC001F7
:1047B000A39F700D811D1124911DB29F700D811D4D
:1047C0001124911D08950CD0ABCFA3DF40F09ADFE8
:1047D00030F021F45F3F19F08CCF5111D5CF8FCF3E
:1047E000B0DF98F39923C9F35523B1F3951B550B0B
:1047F000BB27AA2762177307840738F09F5F5F4FB4
:10480000220F331F441FAA1FA9F333D00E2E3AF0F4
:10481000E0E830D091505040E695001CCAF729D00E
:10482000FE2F27D0660F771F881FBB1F261737075D
:104830004807AB07B0E809F0BB0B802DBF01FF278D
:1048400093585F4F2AF09E3F510568F052CF9CCF9E
:104850005F3FECF3983EDCF3869577956795B795C7
:10486000F7959F5FC9F7880F911D9695879597F9E2
:104870000895E1E0660F771F881FBB1F621773075B
:104880008407BA0720F0621B730B840BBA0BEE1F70
:1048900088F7E095089504D06894B11175CF089514
:1048A00058DF88F09F5790F0B92F9927B751A0F0A3
:1048B000D1F0660F771F881F991F1AF0BA95C9F7B4
:1048C00012C0B13081F05FDFB1E008955CCF672F97
:1048D000782F8827B85F39F0B93FCCF38695779564
:1048E0006795B395D9F73EF490958095709561954D
:1048F0007F4F8F4F9F4F0895DB018F939F934ADF28
:10490000BF91AF91A29F800D911DA39F900DB29F6B
:10491000900D11240895A1E21A2EAA1BBB1BFD01C4
:104920000DC0AA1FBB1FEE1FFF1FA217B307E4078E
:10493000F50720F0A21BB30BE40BF50B661F771FE6
:10494000881F991F1A9469F76095709580959095C6
:104950009B01AC01BD01CF010895052E97FB16F414
:1049600000940FD057FD05D0D6DF07FC02D046F4E7
:1049700008C050954095309521953F4F4F4F5F4F60
:10498000089590958095709561957F4F8F4F9F4FBB
:104990000895EE0FFF1F881F8BBF0790F691E02D43
:1049A00019940F931F93CF93DF938230910510F4E6
:1049B00082E090E0E0912F06F091300630E020E0B8
:1049C000B0E0A0E0309799F42115310509F44AC010
:1049D000281B390B24303105D8F58A819B8161155C
:1049E000710589F1FB0193838283FE0111C040812F
:1049F00051810281138148175907E0F04817590780
:104A000099F4109761F012960C93129713961C93D9
:104A10003296CF01DF91CF911F910F9108950093AE
:104A20002F0610933006F4CF2115310551F04217AF
:104A3000530738F0A901DB019A01BD01DF01F8013C
:104A4000C1CFEF01F9CF9093300680932F06CDCFE1
:104A5000FE01E20FF31F81939193225031093983B4
:104A60002883D7CF20912D0630912E06232B41F499
:104A7000209117023091180230932E0620932D06B4
:104A800020911502309116022115310541F42DB700
:104A90003EB74091190250911A02241B350BE09148
:104AA0002D06F0912E06E217F307A0F42E1B3F0B04
:104AB0002817390778F0AC014E5F5F4F2417350790
:104AC00048F04E0F5F1F50932E0640932D068193A2
:104AD00091939FCFF0E0E0E09CCFCF93DF930097DE
:104AE000E9F0FC01329713821282A0912F06B09157
:104AF0003006ED0130E020E01097A1F420813181F3
:104B0000820F931F20912D0630912E06281739070A
:104B100009F061C0F0932E06E0932D06DF91CF914E
:104B20000895EA01CE17DF07E8F54A815B819E010F
:104B300041155105B1F7E901FB83EA834991599188
:104B4000C40FD51FEC17FD0761F480819181029697
:104B5000840F951FE90199838883828193819B83C8
:104B60008A83F0E0E0E012968D919C911397009774
:104B7000B9F52D913C911197CD010296820F931FAB
:104B800020912D0630912E062817390739F63097D7
:104B900051F51092300610922F06B0932E06A09376
:104BA0002D06BCCFD383C28340815181840F951FD2
:104BB000C817D90761F44E5F5F4F88819981480F0C
:104BC000591F518340838A819B819383828321155E
:104BD000310509F0B0CFF0933006E0932F069ECF59
:104BE000FD01DC01C0CF13821282D7CF4F925F92BA
:104BF0006F927F928F929F92AF92BF92CF92DF92ED
:104C0000EF92FF920F931F93CF93DF938C01009746
:104C100091F4CB01DF91CF911F910F91FF90EF9015
:104C2000DF90CF90BF90AF909F908F907F906F90CC
:104C30005F904F90B6CEFC01E60FF71F9C0122500B
:104C40003109E217F30708F4AAC0D901CD91DC912C
:104C50001197C617D70718F1C530D10570F0CE01EE
:104C600004978617970748F0C61BD70B2297C19366
:104C7000D1936D937C93CF0130DFC801DF91CF9149
:104C80001F910F91FF90EF90DF90CF90BF90AF906A
:104C90009F908F907F906F905F904F9008955B01F1
:104CA000AC1ABD0A4C018C0E9D1EA0912F06B0912E
:104CB0003006512C412CF12CE12C109731F58091CC
:104CC0002D0690912E068815990509F05CC04616B0
:104CD000570608F058C0809115029091160200976F
:104CE00041F48DB79EB74091190250911A02841B6E
:104CF000950BE817F90708F052C0F0932E06E093E1
:104D00002D06F90171836083B8CF8D919C91119725
:104D100012966C90129713967C901397A815B9056C
:104D200059F56C0142E0C40ED11CCA14DB0420F119
:104D3000AC014A195B09DA011296159780F062827C
:104D4000738251834083D9016D937C93E114F10404
:104D500071F0D7011396FC93EE9312978ECF2296A3
:104D60008C0F9D1FF90191838083F301EFCFF093A6
:104D70003006E0932F0681CF4816590608F42C011F
:104D80007D01D3019ACFCB010CDE7C01009739F075
:104D9000AE01B80114D0C801A0DE87016ECF10E0CB
:104DA00000E06BCFFB01DC0104C08D910190801904
:104DB00021F441505040C8F7881B990B0895FB011E
:104DC000DC0102C001900D9241505040D8F7089587
:104DD000FB01DC0101900D920020E1F70895FB0139
:104DE000DC014150504048F001900D920020C9F77D
:104DF00001C01D9241505040E0F70895FB015191D0
:104E00005523A9F0BF01DC014D9145174111E1F790
:104E100059F4CD010190002049F04D914015411108
:104E2000C9F3FB014111EFCF81E090E001970895B4
:104E300011E0C9E2D1E000E005C0802FFE01A9DD4C
:104E40002196011DCA32D10780E00807B1F7F89416
:024E5000FFCF92
:104E5200010101010101010000000100010101FF46
:104E6200FFFFFFBC02000031068000000000002DA1
:104E7200029801C5017902F601D401E8010000009F
:104E8200003B0C98016E0E9B0C00000000DF0CC36F
:104E92000C6E0E9C0CA30C120E4C0E000000006F48
:104EA200157B150D0A002121004700580059005AB0
:104EB2000045004600696E697469616C697A6174C3
:104EC200696F6E20646F6E652E00696E6974696128
:104ED2006C697A6174696F6E206661696C656421C0
:104EE2000073616D706C65322E7478740072656146
:024EF20064005A
:020000023000CC
:10E000000D9489F10D94B2F10D94B2F10D94B2F129
:10E010000D94B2F10D94B2F10D94B2F10D94B2F1F0
:10E020000D94B2F10D94B2F10D94B2F10D94B2F1E0
:10E030000D94B2F10D94B2F10D94B2F10D94B2F1D0
:10E040000D94B2F10D94B2F10D94B2F10D94B2F1C0
:10E050000D94B2F10D94B2F10D94B2F10D94B2F1B0
:10E060000D94B2F10D94B2F10D94B2F10D94B2F1A0
:10E070000D94B2F10D94B2F10D94B2F10D94B2F190
:10E080000D94B2F10D94B2F10D94B2F10D94B2F180
:10E090000D94B2F10D94B2F10D94B2F10D94B2F170
:10E0A0000D94B2F10D94B2F10D94B2F10D94B2F160
:10E0B0000D94B2F10D94B2F10D94B2F10D94B2F150
:10E0C0000D94B2F10D94B2F10D94B2F10D94B2F140
:10E0D0000D94B2F10D94B2F10D94B2F10D94B2F130
:10E0E0000D94B2F141546D656761323536300041AF
:10E0F000726475696E6F206578706C6F72657220DE
:10E1000073746B3530305632206279204D4C530099
:10E11000426F6F746C6F616465723E004875683F52
:10E1200000436F6D70696C6564206F6E203D200048
:10E130004350552054797065202020203D20005FF9
:10E140005F4156525F415243485F5F3D2000415658
:10E1500052204C696243205665723D20004743437C
:10E160002056657273696F6E203D20004350552024
:10E1700049442020202020203D20004C6F7720663D
:10E18000757365202020203D20004869676820665F
:10E190007573652020203D200045787420667573D6
:10E1A00065202020203D20004C6F636B2066757336
:10E1B000652020203D20004D617220203720323024
:10E1C000313300312E362E3800342E332E350056A2
:10E1D00023202020414444522020206F7020636F70
:10E1E00064652020202020696E73747275637469E1
:10E1F0006F6E2061646472202020496E74657272B3
:10E20000757074006E6F20766563746F7200726A49
:10E210006D702020006A6D70200057686174207056
:10E220006F72743A00506F7274206E6F7420737541
:10E2300070706F72746564004D7573742062652030
:10E2400061206C6574746572002000577269747483
:10E25000696E672045450052656164696E672045B7
:10E26000450045452065727220636E743D00504F35
:10E27000525400303D5A65726F2061646472003FF1
:10E280003D43505520737461747300403D454550C3
:10E29000524F4D207465737400423D426C696E6B41
:10E2A000204C454400453D44756D70204545505215
:10E2B0004F4D00463D44756D7020464C415348001B
:10E2C000483D48656C70004C3D4C69737420492F83
:10E2D0004F20506F72747300513D51756974005234
:10E2E0003D44756D702052414D00563D73686F7707
:10E2F00020696E7465727275707420566563746FF0
:10E30000727300593D506F727420626C696E6B00BD
:10E310002A0011241FBECFEFD1E2DEBFCDBF01E046
:10E320000CBF12E0A0E0B2E0EEE1FDEF03E00BBFB6
:10E3300002C007900D92A030B107D9F712E0A0E01B
:10E34000B2E001C01D92AE30B107E1F70F9460F367
:10E350000D948DFE01E20EBF0FEF0DBF11241FBE05
:10E360000D9460F30D9400F020E030E040ED57E0B4
:10E3700005C0FA013197F1F72F5F3F4F2817390792
:10E38000C0F308959C01260F311DC901A0E0B0E043
:10E390002F5F3F4FABBFFC018791882361F08093D3
:10E3A000C6008091C00086FFFCCF8091C0008064D1
:10E3B0008093C000EACF08958DE08093C6008091DD
:10E3C000C00086FFFCCF8091C00080648093C000B5
:10E3D0008AE08093C6008091C00086FFFCCF8091C8
:10E3E000C00080648093C00008950F94C2F10F9420
:10E3F000DCF10895FC019081992359F09093C600B7
:10E400008091C00086FFFCCF8091C0008064809323
:10E41000C0003196992379F70895282F982F929567
:10E420009F70892F805D8A3308F0895F8093C600D2
:10E430008091C00086FFFCCF8091C00080648093F3
:10E44000C000822F8F70982F905D9A3308F0995FEB
:10E450009093C6008091C00086FFFCCF8091C000E1
:10E4600080648093C00008959C01FB01853691056E
:10E470001CF46330710594F0C90164E670E00F94F8
:10E480002EFE605D7F4F6093C6008091C00086FFC6
:10E49000FCCF8091C00080648093C0002B30310598
:10E4A00014F43297B4F0C90164E670E00F942EFEC4
:10E4B0006AE070E00F942EFE605D7F4F6093C600AF
:10E4C0008091C00086FFFCCF8091C0008064809363
:10E4D000C000C9016AE070E00F942EFEC0968093E0
:10E4E000C6008091C00086FFFCCF8091C000806490
:10E4F0008093C00008951F93182F8EE692EE60E07F
:10E500000F94C2F11093C6008091C00086FFFCCF2B
:10E510008091C00080648093C0000F94DCF11F9153
:10E5200008952F923F924F925F926F927F928F92B7
:10E530009F92AF92BF92CF92DF92EF92FF920F9392
:10E540001F93DF93CF93CDB7DEB762970FB6F894E2
:10E55000DEBF0FBECDBF382E622ECA01DB015C01CB
:10E560006D01772420E2222E2E010894411C511CBB
:10E570008BC081E0A81680E0B80681E0C80680E084
:10E58000D80628F0C601AA27BB270F940DF2BB2797
:10E59000AD2D9C2D8B2D0F940DF28A2D0F940DF225
:10E5A0002092C6008091C00086FFFCCF8091C00001
:10E5B00080648093C0009DE29093C6008091C0006B
:10E5C00086FFFCCF8091C00080648093C0002092C1
:10E5D000C6008091C00086FFFCCF8091C00080649F
:10E5E0008093C00019828601750188249924A1E0D6
:10E5F0003A1651F03A1620F0B2E03B1661F409C029
:10E600000BBFF701779007C0C7010F9477FE782EF4
:10E6100002C0F7017080872D0F940DF22092C60082
:10E620008091C00086FFFCCF8091C0008064809301
:10E63000C000872D8052F401EF70F0708F3520F408
:10E64000E40DF51D708204C0E40DF51D8EE280839B
:10E650000894E11CF11C011D111D0894811C911CE2
:10E6600090E18916910409F0C2CF80E190E0A0E02A
:10E67000B0E0A80EB91ECA1EDB1E198AC2010F9493
:10E68000FAF10F94DCF16A94662009F072CF629679
:10E690000FB6F894DEBF0FBECDBFCF91DF911F91B3
:10E6A0000F91FF90EF90DF90CF90BF90AF909F9031
:10E6B0008F907F906F905F904F903F902F90089534
:10E6C0002F923F924F925F926F927F928F929F9282
:10E6D000AF92BF92CF92DF92EF92FF920F931F9370
:10E6E000DF93CF93CDB7DEB7CD53D1400FB6F894BB
:10E6F000DEBF0FBECDBF01E20EBF0FEF0DBF94B75F
:10E70000F894A89514BE80916000886180936000A1
:10E7100010926000789493FF05C0E0910002F091A0
:10E7200001021995279A2F9A8091C00082608093E8
:10E73000C00080E18093C40088E18093C1000000A4
:10E74000EE24FF24870144E0A42EB12CCC24DD2448
:10E7500024C0C5010197F1F70894E11CF11C011DCB
:10E76000111D21E2E2162EE4F20620E0020720E06D
:10E77000120718F031E0C32ED12CC801B70127ECE5
:10E780003BE140E050E00F9441FE611571058105C9
:10E79000910519F485B1805885B98091C00087FD35
:10E7A00003C0C114D104A9F2A6014F5F5F4FC25E3E
:10E7B000DE4F59834883CE51D140C25EDE4F8881FF
:10E7C0009981CE51D140019711F00D9410FEC05D9A
:10E7D000DE4F19821882C053D14060E0C15DDE4F28
:10E7E0001882CF52D14088249924C35DDE4F19820C
:10E7F0001882CD52D140C05EDE4F188219821A8233
:10E800001B82C052D140CE5CDE4F188219821A8220
:10E810001B82C253D140EE24FF2487010BBFF701B6
:10E8200007911691C45CDE4F19830883CC53D14005
:10E830000D940BFEC25EDE4F28813981CE51D1404E
:10E840002130310509F52091C600C25EDE4F1982E4
:10E850001882CE51D14022C02F5F3F4F4F4F5F4FA4
:10E86000213082E138078AE7480780E0580780F0C6
:10E87000C45CDE4FE881F981CC53D140EF5FFF4F9C
:10E8800019F0EE27FF27099420E030E040E050E047
:10E890008091C00087FFE0CF2091C600C35DDE4FAE
:10E8A00048815981CD52D1404F5F5F4FC35DDE4FEC
:10E8B00059834883CD52D140213209F063C64A3092
:10E8C000510508F05FC60894811C911C53E0851621
:10E8D000910409F059C600E010E018C081E280936D
:10E8E000C6008091C00086FFFCCF8091C00080648C
:10E8F0008093C0002F5F3F4F2931310579F70F9486
:10E90000DCF10F5F1F4F0530110519F020E030E0FA
:10E91000E5CF10920A0210920B0210920C02109294
:10E920000D02109206021092070210920802109235
:10E930000902109202021092030210920402109235
:10E9400005028FEE90EE60E00F94F5F180E191EE1C
:10E9500060E00F94C2F18091C00087FFFCCF9091DE
:10E96000C600903608F09F759032B8F09093C600BC
:10E970008091C00086FFFCCF8091C00080648093AE
:10E98000C000A0E2A093C6008091C00086FFFCCF2B
:10E990008091C00080648093C000983409F4D7C18E
:10E9A0009934B8F4923409F459C1933458F490333B
:10E9B00019F1903308F4E3C59F33A1F1903409F0C5
:10E9C000DEC5BDC0953409F470C1963409F0D7C5D1
:10E9D00098C1923509F42BC2933538F49C3409F46C
:10E9E000F5C1913509F0CBC518C2963509F445C279
:10E9F000993509F0C4C567C483E792EE62E00F94CD
:10EA0000F5F110920602109207021092080210927D
:10EA1000090210920A0210920B0210920C0210923C
:10EA20000D0213C18FE792EE62E00F94F5F18FEEC5
:10EA300090EE60E00F94F5F181E291EE60E00F94CA
:10EA4000C2F187EB91EE60E00F94F5F180E391EE77
:10EA500060E00F94C2F184EE90EE60E00F94F5F167
:10EA60008FE391EE60E00F94C2F186E090E061E008
:10EA700070E00F9434F20F94DCF18DE591EE60E0DC
:10EA80000F94C2F189EC91EE60E00F94F5F18EE401
:10EA900091EE60E00F94C2F183EC91EE60E00F9490
:10EAA000F5F18CE691EE60E00F94C2F18EE10F94E7
:10EAB0000DF288E90F940DF281E00F940DF20F949E
:10EAC000DCF18BE791EE60E00F94C2F119E0E0E039
:10EAD000F0E010935700E4918E2F0F940DF20F94F5
:10EAE000DCF18AE891EE60E00F94C2F1E3E0F0E03F
:10EAF00010935700E4918E2F0F940DF20F94DCF1D8
:10EB000089E991EE60E00F94C2F1E2E0F0E0109349
:10EB10005700E4918E2F0F940DF20F94DCF188EAE8
:10EB200091EE60E00F94C2F1E1E0F0E01093570045
:10EB30001491812F0F940DF20F94DCF107CF8BE825
:10EB400092EE62E00F94F5F18BE492EE60E00F94A8
:10EB5000F5F10F94DCF100E010E019C0C8016F2D51
:10EB60000F947FFEFF2031F489E492EE60E00F9471
:10EB7000C2F10BC0F092C6008091C00086FFFCCFAE
:10EB80008091C00080648093C0000F5F1F4FC80158
:10EB900081519F41A0E0B0E0ABBFFC01F790BAE229
:10EBA000FB1621F0E2E000301E07C1F60F94DCF105
:10EBB0000F94DCF187E592EE60E00F94F5F10F948D
:10EBC000DCF1CC24DD2400E010E01EC0C8010F946D
:10EBD00077FEF82E882331F489E492EE60E00F94FA
