:1000000029C1000058C1000056C1000054C10000C1
:1000100052C1000050C100004EC100004CC10000A0
:100020004AC1000048C1000046C1000044C10000B0
:1000300042C1000040C100003EC100003CC10000C0
:100040003AC100000C94111936C1000034C10000FF
:1000500032C1000030C100002EC100000C94941782
:100060002AC100000C945E170C94341724C10000C0
:1000700022C1000020C100001EC100001CC1000000
:100080000C94641818C1000016C1000014C10000CF
:1000900012C1000010C100000EC100000CC1000020
:1000A0000AC1000008C100000C94241804C100001B
:1000B00002C1000000C10000FEC000000C94DE1769
:1000C000FAC00000F8C00000F6C00000F4C0000054
:1000D000F2C00000F0C00000EEC00000ECC0000064
:1000E000EAC000004E414E494E495459494E46CD52
:1000F000CCCC3D0AD7233C17B7D13877CC2B3295DF
:1001000095E6241FB14F0A000020410000C84200BC
:10011000401C4620BCBE4CCA1B0E5AAEC59D740086
:10012000002200250028002B002E003100340002A0
:10013000010000050108010B01000020002300263A
:100140000029002C002F00320000010000030106EE
:1001500001090100000A0B02090C0D0E0807030437
:10016000010000000000000000000000000000008E
:10017000000000000000000000000000000000126D
:10018000111000000000000000000000000000004E
:1001900000000000000000000000002100240027F3
:1001A000002A002D00300033000101000004010787
:1001B000010A0101021020200808102040102040F0
:1001C000800201020108040201010204081020401B
:1001D0008080402010080402018004020180402039
:1001E0001008040201080402010102040810204062
:1001F0008001020408102040800505050507050858
:10020000080808020202020A0A0808040404040199
:1002100001010101010101030303030303030304BB
:100220000707070C0C0C0C0C0C0C0C02020202064B
:10023000060606060606060B0B0B0B0B0B0B0B7CC0
:100240003C3E5E2B3D3F2F5B5D3B2C2A225C000039
:10025000BE199D1D11241FBECFEFD1E2DEBFCDBF61
:1002600000E00CBF26E0AAEAB2E001C01D92A9336B
:10027000B207E1F712E0A0E0B2E0ECE0F7E400E062
:100280000BBF02C007900D92AA3AB107D9F711E04F
:10029000C9E2D1E000E006C021970109802FFE01EC
:1002A0000E942621C832D10780E00807A9F70E94E2
:1002B000341A0C947523A4CEAF92BF92CF92DF92E2
:1002C000EF92FF920F931F93CF93DF936C017B010B
:1002D0008B01040F151FEB015E01AE18BF08C0179C
:1002E000D10759F06991D601ED91FC910190F0810F
:1002F000E02DC6011995892B79F7C501DF91CF91C2
:100300001F910F91FF90EF90DF90CF90BF90AF9033
:100310000895FC01538D448D252F30E0842F90E00B
:10032000821B930B541710F0CF96089501970895F0
:10033000FC01918D828D981761F0A28DAE0FBF2FB9
:10034000B11D5D968C91928D9F5F9F73928F90E00F
:1003500008958FEF9FEF0895FC01918D828D98177E
:1003600031F0828DE80FF11D858D90E008958FEFBB
:100370009FEF0895FC01918D228D892F90E0805C84
:100380009F4F821B91098F739927089588E195E00B
:10039000F1DF21E0892B09F420E0822F0895FC0190
:1003A000A48DA80FB92FB11DA35ABF4F2C91848DD6
:1003B00090E001968F739927848FA689B7892C9333
:1003C000A089B1898C91837080648C93938D848D86
:1003D000981306C00288F389E02D80818F7D808389
:1003E0000895EF92FF920F931F93CF93DF93EC0149
:1003F00081E0888F9B8D8C8D98131AC0E889F989CC
:10040000808185FF15C09FB7F894EE89FF896083CE
:10041000E889F98980818370806480839FBF81E04F
:1004200090E0DF91CF911F910F91FF90EF90089591
:10043000F62E0B8D10E00F5F1F4F0F731127E02E6C
:100440008C8D8E110BC00FB607FCFACFE889F989A5
:10045000808185FFF5CFCE01A2DFF2CFEB8DEC0FCF
:10046000FD2FF11DE35AFF4FF0829FB7F8940B8FD9
:10047000EA89FB8980818062D0CFCF93DF93EC0142
:10048000888D8823B1F0AA89BB89E889F9898C9184
:1004900085FD03C0808186FD0CC00FB607FCF7CF39
:1004A0008C9185FFF2CF808185FFEDCFCE0177DF84
:1004B000EACFDF91CF91089580E090E0892B21F081
:1004C00065DF81110E94000080E090E0892B49F0F7
:1004D00080E090E0892B29F00E94000081110E94A9
:1004E000000080E090E0892B49F080E090E0892BCB
:1004F00029F00E94000081110E94000080E090E03D
:10050000892B49F080E090E0892B29F00E940000BF
:1005100081110C94000008958150823108F05AC076
:10052000E82FF0E08827E856FD4F8F4F0C942621E6
:10053000B802BC02AA02B002B402EA02BF02C502BB
:10054000C902CF02D302D702DD02E102EA02E502CC
:10055000EB02EF02809180008F77809380000895F6
:10056000809180008F7DF9CF80918000877FF5CFCB
:1005700084B58F7784BD089584B58F7DFBCF80913E
:10058000B0008F778093B00008958091B0008F7D88
:10059000F9CF809190008F7780939000089580919B
:1005A00090008F7DF9CF80919000877FF5CF80916B
:1005B000A0008F778093A00008958091A0008F7D88
:1005C000F9CF8091A000877FF5CF809120018F77B0
:1005D000809320010895809120018F7DF9CF809133
:1005E0002001877FF5CFCF93DF93282F30E0F901EB
:1005F000ED5AFE4F8491F901ED54FE4FD491F9016B
:10060000E750FE4FC491CC2399F0811185DFEC2F88
:10061000F0E0EE0FFF1FE75CFE4FA591B491EC9167
:10062000ED2381E090E009F480E0DF91CF9108951F
:1006300080E090E0FACF1F93CF93DF93282F30E034
:10064000F901ED5AFE4F8491F901ED54FE4FD4911A
:10065000F901E750FE4FC491CC23A1F0162F811170
:100660005BDFEC2FF0E0EE0FFF1FE15EFE4FA59188
:10067000B4918FB7F894EC91111108C0D095DE2396
:10068000DC938FBFDF91CF911F910895DE2BF8CFC0
:10069000CF93DF9390E0FC01ED54FE4F24918750FF
:1006A0009E4FFC0184918823D1F090E0880F991F20
:1006B000FC01E756FE4FA591B491FC01E15EFE4FAF
:1006C000C591D491623071F49FB7F8943C91822F18
:1006D000809583238C93E8812E2B28839FBFDF9105
:1006E000CF9108958FB7F894EC912E2B2C938FBF58
:1006F000F6CF2FB7F89460910C0370910D038091A1
:100700000E0390910F032FBF08958FB7F894809137
:1007100002038FBF089561E0FC0184818CDF80912A
:10072000010381111092010308958EBD00000DB4E4
:1007300007FEFDCF8EB508958FEFF7CF0F931F9370
:10074000CF93DF93EC01D5DF8B01F6DF8F3F61F0B4
:10075000D0DF601B710B6C177D07B8F380E0DF9171
:10076000CF911F910F91089581E0F9CF8CBD9DBD70
:100770000895CF93DF93EC0180910103811108C0AC
:1007800081E0809301038091B5059091B605EEDF7D
:1007900060E08C81DF91CF914ECF8F929F92AF928C
:1007A000BF92FF920F931F93CF93DF93EC01F62E2E
:1007B00049015A018E81882379F08F8198859C01A7
:1007C0002F5F3F4F38872F838230924010F4B4DF81
:1007D000F4CFCE01A0DF1E82CE01CBDF8CE291E010
:1007E000ADDF8F2D8064A1DF08E110E0D501C401E9
:1007F000002E04C0B695A795979587950A94D2F7D1
:1008000094DF08501109083F8FEF180779F785E941
:10081000FF2021F028E087E8F2128FEF86DF10E05A
:100820008BDF8A8787FF04C01F3F11F01F5FF8CF5F
:10083000DF91CF911F910F91FF90BF90AF909F904C
:100840008F900895AF92BF92CF92DF92EF92FF9276
:100850000F931F93CF93DF93EC016901C801820FBF
:10086000931F8130924048F58E81882379F08881EA
:100870009981AA81BB8184179507A607B70731F430
:100880008F819885C816D90608F03CC048835983E3
:100890006A837B838B85833039F089E0440F551F51
:1008A000661F771F8A95D1F79A01AB0161E1CE01EE
:1008B00074DF882381F083E08D83CE012CDF80E01C
:1008C000DF91CF911F910F91FF90EF90DF90CF902C
:1008D000BF90AF9008950DDF5B012EDF8A878F3FB9
:1008E00059F407DF6A197B096D327140B0F38FE06C
:1008F0008D83CE0110DFE1CF8E3F81F418861F82F9
:1009000081E08E838F8198858C159D0548F414DFD6
:100910008F819885019698878F83F4CF8DE0E8CFFB
:100920006701E00EF11E08DFF60181936F01EE15FD
:10093000FF05C9F78F819885080F191F18870F8346
:100940008985882319F00115124090F08E81882343
:1009500079F08F8198859C012F5F3F4F38872F83D7
:100960008230924010F4E8DEF4CFCE01D4DE1E8255
:1009700081E0A6CFEF92FF920F931F93CF93DF9367
:10098000EC01790182E1411551056105710591F094
:100990008B85833039F089E0440F551F661F771F20
:1009A0008A95D1F79A01AB0168E1CE01F6DE882382
:1009B00019F084E08D8328C08EEFB7DE87018EEFBB
:1009C000F81AF80181918F01B0DE0E151F05C9F7E5
:1009D0008FEFABDE8FEFA9DEAFDE8A878F718530B8
:1009E00079F488E592E0AADE882391F020E030E0F7
:1009F000A9016DE0CE01D1DE882361F084E1DACF78
:100A000081E18D83CE0187DECE0185DE80E008C0E6
:100A100085E1D0CF91DE8111F1CFCE017CDE81E086
:100A2000DF91CF911F910F91FF90EF900895CF9399
:100A3000DF9380911503882399F1C0911605D09119
:100A4000170540910A0250910B0260910C027091BF
:100A50000D0226E133E0CE018DDF811104C080E07C
:100A6000DF91CF9108954091030350910403609169
:100A7000050370910603411551056105710571F07B
:100A800026E133E0CE0176DF882349F31092030399
:100A9000109204031092050310920603109215039E
:100AA00081E0DECF8F929F92AF92BF92EF92FF9242
:100AB0000F931F93CF934B015C01C42F80910A02C7
:100AC00090910B02A0910C02B0910D02881599052E
:100AD000AA05BB0539F1ABDF81110BC080E0CF91D6
:100AE0001F910F91FF90EF90BF90AF909F908F90CC
:100AF000089586E1E82E83E0F82E00E012E030E071
:100B000020E0B501A40180911605909117059ADEA9
:100B1000882321F380920A0290920B02A0920C0289
:100B2000B0920D02409115034C2B4093150381E0C8
:100B3000D6CF8F929F92AF92BF92CF92DF92EF92D9
:100B4000FF92CF9327EB35E03093170520931605DE
:100B5000882309F46BC040E060E070E0CB01A2DFC5
:100B600081110BC080E0CF91FF90EF90DF90CF908C
:100B7000BF90AF909F908F9008958091D4048F770D
:100B800089F78091E0049091E104A091E204B09192
:100B9000E30484369105A105B10520F3C090DC047F
:100BA000D090DD04E090DE04F090DF04C114D104A5
:100BB000E104F104B9F240E0C701B60173DF882314
:100BC00089F280912103909122038115924051F680
:100BD000A0912603AA2331F260912403709125038A
:100BE0006115710509F4BECF20912303222309F476
:100BF000B9CFA093D5052093C70590E080E030E001
:100C0000E1E0F0E0C82FAF01082E02C0440F551FED
:100C10000A94E2F72417350769F041E0480F01967E
:100C20008930910579F74093D0059CCFC12CD12C08
:100C30007601C1CF8093D00520912C0330912D03F4
:100C400050E040E02115310541F420913A03309104
:100C50003B0340913C0350913D032093C8053093E2
:100C6000C9054093CA055093CB0546015701860E2E
:100C7000971EA11CB11C8092D6059092D705A09218
:100C8000D805B092D905E0912703F0912803F0939D
:100C9000DC05E093DB05B0E00E947420DC01CB01B1
:100CA000880D991DAA1DBB1D8093DD059093DE055F
:100CB000A093DF05B093E00525E0EE0FFF1F2A9516
:100CC000E1F7E150FE4FEF2FFF27E6958E0F9F1FB4
:100CD000A11DB11D8093D1059093D205A093D3059A
:100CE000B093D4058090290390902A03B12CA12CB5
:100CF0008114910441F48090360390903703A090C2
:100D00003803B0903903C81AD90AEA0AFB0AC80C9A
:100D1000D91CEA1CFB1C04C0F694E794D794C79432
:100D2000CA95D2F7C092CC05D092CD05E092CE05FF
:100D3000F092CF0585EFC8168FE0D806E104F104E4
:100D400028F48CE08093DA0581E00DCF80E125EF77
:100D5000C2162FEFD206E104F104A0F38091420302
:100D600090914303A0914403B09145038093DD0526
:100D70009093DE05A093DF05B093E00580E2E2CF1B
:100D80004F925F926F927F928F929F92AF92BF929B
:100D9000CF92DF92EF92FF920F931F93CF93DF9347
:100DA000EC01423051056105710590F480E0DF915E
:100DB000CF911F910F91FF90EF90DF90CF90BF9058
:100DC000AF909F908F907F906F905F904F9008951D
:100DD00089859A85AB85BC850196A11DB11D8417B7
:100DE0009507A607B70710F3CB88DC88ED88FE8847
:100DF0008F89803109F042C0BB27A72F962F852FFE
:100E0000480159012A013B01C80ED91EEA1EFB1EEA
:100E100080910A0290910B02A0910C02B0910D02F8
:100E2000C816D906EA06FB0699F58F898031B9F50F
:100E3000B301A201552766277727440F551F4A5E45
:100E40005C4FFA01918280828091150381608093CA
:100E500015038A89823080F08D819E81AF81B885AB
:100E60008C0D9D1DAE1DBF1D809303039093040345
:100E7000A0930503B093060381E099CFDB01CA017B
:100E8000E7E0B695A79597958795EA95D1F7B8CFFE
:100E900040E0C701B60106DE8111C7CF87CFB3019D
:100EA000A2014F77552766277727440F551F440F18
:100EB000551F4A5E5C4FFA0180829182A282B38202
:100EC000C3CF8F929F92AF92BF92CF92DF92EF9259
:100ED000FF920F931F93CF93DF93FC01818592853F
:100EE000A385B4850196A11DB11D84179507A6079A
:100EF000B70770F480E0DF91CF911F910F91FF90C1
:100F0000EF90DF90CF90BF90AF909F908F9008951B
:100F100083889488A588B6888789803189F5BB271E
:100F2000A72F962F852FE9016A017B018F01BC0154
:100F3000CD01680D791D8A1D9B1D80900A0290903D
:100F40000B02A0900C02B0900D0286169706A80620
:100F5000B90601F5F8018789803109F5DD24EE2411
:100F6000FF24F601EE0FFF1FEA5EFC4F80819181A6
:100F7000B0E0A0E088839983AA83BB8381E0BBCFE4
:100F8000DB01CA01C7E0B695A79597958795CA95E5
:100F9000D1F7C9CF40E086DD8111DCCFABCFE8943B
:100FA000C7F8DD24EE24FF24F601EE0FFF1FEE0F3D
:100FB000FF1FEA5EFC4F80819181A281B381BF70E7
:100FC000D9CF4F925F926F927F92AF92BF92CF92A2
:100FD000DF92EF92FF920F931F93CF93DF9300D096
:100FE0001F92CDB7DEB78C0149835A836B837C8314
:100FF0005901C12CD12C7601412C82E0582E612C54
:10100000712C49815A816B817C819E012F5F3F4FFA
:10101000C80157DF882339F1F8018585A3019201C2
:1010200004C0220F331F441F551F8A95D2F7DA01DF
:10103000C901C80ED91EEA1EFB1E49815A816B8167
:101040007C818789803111F188EF9FEFAFEFBFE09E
:10105000481759076A077B07A0F2F501C082D182C1
:10106000E282F38281E00F900F900F900F90DF915A
:10107000CF911F910F91FF90EF90DF90CF90BF9095
:10108000AF907F906F905F904F90089588EF9FEFA3
:10109000A0E0B0E0DDCFCF93DF93FC0125812223D8
:1010A00021F080E0DF91CF910895EC018091DA0585
:1010B000803159F582E08583178A108E118E128E49
:1010C0008091DB059091DC05B0E0A0E025E0880F81
:1010D000991FAA1FBB1F2A95D1F7838B948BA58BD1
:1010E000B68B83EC95E09C8F8B8F81E08C831E8286
:1010F0001F82188619861A861B861C861D861E86E8
:101100001F86188A198A1A8ACDCF803251F683E059
:1011100085834091DD055091DE056091DF0570917A
:10112000E005478B508F618F728F9F012D5E3F4F7F
:1011300083EC95E046DF8111D4CFB3CF8F929F929D
:10114000AF92BF92CF92DF92EF92FF920F931F93D5
:10115000CF93DF93EC018D8181110EC080E0DF9190
:10116000CF911F910F91FF90EF90DF90CF90BF90A4
:10117000AF909F908F9008950B891C892D893E898F
:10118000041715072607370748F34A015B01823029
:1011900031F48A869B86AC86BD8681E0E0CF8114DF
:1011A0009104A104B10449F41E821F821886198695
:1011B0001A861B861C861D86F0CF0A851B852C850A
:1011C0003D85EB8DFC8D858590E00996B901A801E0
:1011D0004150510961097109082E04C0769567953F
:1011E000579547950A94D2F775016401E1E0CE1A4C
:1011F000D108E108F10804C0F694E794D794C794A5
:101200008A95D2F7C416D506E606F70620F0012B1C
:10121000022B032B09F58F89988DA98DBA8D8E83AA
:101220009F83A887B9878E010A5F1F4FC114D1041D
:10123000E104F10409F4ADCF4E815F8168857985C1
:1012400098018B8D9C8D3DDE91E0C91AD108E10893
:10125000F1088111EBCF82CFC41AD50AE60AF70A4A
:10126000E2CF3F924F925F926F927F928F929F92C6
:10127000AF92BF92CF92DF92EF92FF920F931F93A4
:10128000CF93DF93CDB7DEB72C970FB6F894DEBFC0
:101290000FBECDBF5C01DC015B968D909C905C978E
:1012A00016964D905D906D907C9019974114510465
:1012B0006104710409F467C0BFEF4B1A5B0A6B0A43
:1012C0007B0A312CF40181859285A385B4859C012C
:1012D000AD012F5F3F4F4F4F5F4F29873A874B87B5
:1012E0005C87730162011D821E821F821886F401D1
:1012F00081859285A385B4852D813E814F81588556
:10130000281739074A075B0708F054C089859A8572
:10131000AB85BC858C159D05AE05BF0550F482E0FC
:10132000C82ED12CE12CF12C92E0492E512C612CAD
:10133000712C9E012F5F3F4FB701A601C401C1DD93
:101340008823C1F189819A81AB81BC81892B8A2B49
:101350008B2B09F1260137019FEF491A590A690AB7
:10136000790A2D813E814F8158852F5F3F4F4F4F26
:101370005F4F2D833E834F8358873FEFC31AD30AB5
:10138000E30AF30AB4CFF401408051806280738095
:101390003324339497CFC414D504E604F70409F733
:1013A0000FEF1FEF2FEF3FE0B701A601C401E8DC0C
:1013B000811119C080E02C960FB6F894DEBF0FBEE5
:1013C000CDBFDF91CF911F910F91FF90EF90DF90F4
:1013D000CF90BF90AF909F908F907F906F905F90D5
:1013E0004F903F900895F501468157816085718542
:1013F000411551056105710531F097018601C40160
:10140000BFDC8823B9F2D5011696CD92DD92ED921C
:10141000FC921997332051F0D701C6010196A11D06
:10142000B11DF40180839183A283B383F501878981
:10143000908DA18DB28D892B8A2B8B2B39F4C78A85
:10144000D08EE18EF28E84818068848381E0B3CF78
:10145000CF93DF93EC018D81882379F18C8187FF15
:1014600029C06E857F858889998941E01BDB8823A7
:1014700021F1EA8980E2E89FF0011124EA5EFC4F45
:101480003097D9F08D81823040F48B899C89AD8969
:10149000BE89848F958FA68FB78F8F89988D938FF4
:1014A000828F8F89988DA98DBA8DB58BA48B8C81F5
:1014B0008F778C83DF91CF91BACA80E0DF91CF9193
:1014C0000895CF93DF93EC01C3DF882311F01D82D1
:1014D00081E0DF91CF9108952F923F924F925F92DA
:1014E0006F927F928F929F92AF92BF92CF92DF9234
:1014F000EF92FF920F931F93CF93DF9300D01F9231
:10150000CDB7DEB78C015B011A01DC0115968C9119
:101510001597813009F0C5C014968C9181FFC1C028
:1015200082FDACC06101D8011A964D915D916D911B
:101530007C911D97C114D10409F423C15B968D9150
:101540009C915C97FC0174802FEF270D2A013B01D1
:1015500039E076946794579447943A95D1F7722E70
:1015600074207A01F1E0FF2271101FC0E114F10430
:10157000E1F416964D915D916D917C91199741150D
:1015800051056105710509F095C057968D919D91A2
:101590000D90BC91A02D0097A105B10509F0ABC03D
:1015A000C8015FDE882309F47CC080E092E08E19D8
:1015B0009F0946018C159D0508F44C01D8015B96E6
:1015C0004D915C915C9716968D919D910D90BC917B
:1015D000A02D0297A109B109FA01258504C0880F41
:1015E000991FAA1FBB1F2A95D2F746855785608988
:1015F0007189840F951FA61FB71F9C01AD01270D90
:10160000311D411D511D29013A01811432E093061B
:1016100009F077C080910A0290910B02A0910C0210
:10162000B0910D0284159505A605B70559F48FEF05
:101630009FEFDC0180930A0290930B02A0930C02AF
:10164000B0930D029501B301A2018091160590910E
:10165000170590D9882329F19EEFB91AC818D9081F
:10166000F80182859385A485B585880D991DA11DF6
:10167000B11D82879387A487B58755CFF801438929
:1016800054896589768982859385A485B5854817AF
:1016900059076A077B0709F445CFC8014FDD81115F
:1016A00041CF81E090E0D80113969C938E931297DE
:1016B00080E006C09E012F5F3F4F03DC811102C016
:1016C00090E075C089819A81AB81BC81F801238D3E
:1016D000348DF901278948EF5FEF60E070E0203139
:1016E00021F048EF5FEF6FEF7FE084179507A607C3
:1016F000B70708F055CFF80186839783A087B18795
:1017000054CFE114F10489F5D8011A964D915D91F9
:101710006D917C911D9753968D919D910D90BC91EB
:10172000A02D481759076A077B07F8F080D988234E
:1017300009F4B7CF40920A0250920B0260920C0259
:1017400070920D02809115038160809315039701BB
:101750002A5E3C4FD501C901880D991DF9018E17EC
:101760009F0751F04D914193FACF41E0C301B2017F
:1017700099D98111ECCF95CF821B930BA80EB91E7E
:101780006DCFF80183899489A589B6898417950757
:10179000A607B70738F48481438B548B658B768B0F
:1017A00080688483F801848183FD18C0C1010F9093
:1017B0000F900F900F90DF91CF911F910F91FF909D
:1017C000EF90DF90CF90BF90AF909F908F907F90E1
:1017D0006F905F904F903F902F900895C80138DE32
:1017E000882309F45ECFE2CFCF93DF931F92CDB76A
:1017F000DEB7698341E050E0BE016F5F7F4F6CDE72
:101800000F90DF91CF910895FC01DB0112968D912D
:101810009C911397938382838CE292E091838083DF
:1018200014968C911497848315968C9115978583C3
:1018300016964D915D916D917C91199746835783D2
:10184000608771871A964D915D916D917C911D977E
:1018500042875387648775871E964D915D916D9180
:101860007C91519746875787608B718B52968C91EC
:101870005297828B53964D915D916D917C915697C5
:10188000438B548B658B768B57964D915D916D9103
:101890007C915A97478B508F618F728F5B968D9199
:1018A0009C91948F838F08950895FC01818D928D72
:1018B000009709F0CDCD0895DC015996ED91FC918A
:1018C0003097B9F083899489A589B6894285538573
:1018D00064857585841B950BA60BB70B811520E8D5
:1018E0009207A105B10538F08FEF9FE7A0E0B0E0C7
:1018F000089590E080E00895CF93DF93EC01E98DA7
:10190000FA8D309749F481E090E09B838A8390E0E0
:1019100080E0DF91CF91089513821282898D9A8D94
:10192000DBDDE98DFA8D22813381232B61F7F1CF45
:10193000CF93DF931F92CDB7DEB76983DC01ED91C2
:10194000FC910280F381E02D41E050E0BE016F5F29
:101950007F4F19950F90DF91CF9108952F923F926D
:101960004F925F926F927F928F929F92AF92BF92AF
:10197000CF92DF92EF92FF920F931F93CF93DF935B
:1019800000D0CDB7DEB7FC018581811118C08FEF83
:101990009FEF0F900F900F90DF91CF911F910F91BC
:1019A000FF90EF90DF90CF90BF90AF909F908F907F
:1019B0007F906F905F904F903F902F90089584811B
:1019C00080FFE5CF4389548965897689828593852F
:1019D000A485B585312C212C481759076A077B0748
:1019E00019F022242394312C6F012101CE0101969C
:1019F0003C01DF011696BB83AA834114510409F40C
:101A0000C3C0F60142855385648575854A01F1E0BE
:101A10009F22D6015B968D919C915C978A019B01D8
:101A2000E9E03695279517950795EA95D1F715962C
:101A3000EC91E230E1F5FC01628D738D848D958D22
:101A4000600F711F821F931FA12C22E0B22EA818D5
:101A5000B9084A145B0408F45201F601248126FDFA
:101A600004C0A114F2E0BF0671F400910A021091C3
:101A70000B0220910C0230910D0206171707280760
:101A8000390709F05CC040E00DD8882309F47FCF06
:101A9000C4018A5E9C4FD3019C012A0D3B1DFC01B1
:101AA0002E173F0709F46BC041914D93F9CFDC012C
:101AB0001496BC90BA94B0228114910479F4B110B8
:101AC0000DC0452B462B472B69F5F6018789908D74
:101AD000A18DB28D86839783A087B187D6015B964F
:101AE000ED91FC915C9716966D917D918D919C91F5
:101AF00019976250710981099109258504C0660F03
:101B0000771F881F991F2A95D2F706851785208988
:101B10003189600F711F821F931F6B0D711D811D15
:101B2000911D92CFD60116964D915D916D917C914C
:101B300019972A813B81C5D98111D0CF28CF730154
:101B400085019401AB01BC018091160590911705A8
:101B50000E942204882309F41ACF6A0C7B1CF60128
:101B600082859385A485B5858A0D9B1DA11DB11D18
:101B700082879387A487B5874A185B083ECF281BC6
:101B8000390B620E731EEBCF2A94232809F0FFCE87
:101B9000898190E0FECEFC01818D928D009709F045
:101BA000DDCE8FEF9FEF08950F931F930E9479036F
:101BB000609308067093090680930A0690930B06BB
:101BC00080E096E0E8DF97FF1DC00E947903009156
:101BD00008061091090620910A0630910B06601B39
:101BE000710B820B930B0091040610910506209156
:101BF000060630910706601771078207930700F306
:101C00008FEF9FEF1F910F9108950F931F93CF9325
:101C1000DF93EC01898D9A8D10E000E0009789F048
:101C20009DDE8C010F3F100761F0898D9A8DFC01BC
:101C30004285538564857585415051096109710953
:101C40007DDAC801DF91CF911F910F91089590E047
:101C500080E00895CF93883789F0C62F893744F400
:101C6000813609F1853641F461E06C2788E109C0CD
:101C7000893751F08A3761F0CF910895C1E06C2720
:101C800086E2CF910C941B0361E06C2788E3F9CFC7
:101C900061E0C627C09300026C2F8EE30E941B03F5
:101CA0006C2F8EE1EECF88E7D5DF6C2F89E7D2DF8E
:101CB0006C2F8AE7CFDFD8CF0F931F93CF93DF939B
:101CC000EC0180E2689FF0011124EA5EFC4F6A8B10
:101CD00080910A0290910B02A0910C02B0910D022A
:101CE0008E879F87A88BB98B0489158930E020E007
:101CF0009801112700270F8B188F298F3A8F828D1B
:101D0000938DB0E0A0E0AC01BD01402B512B622BC4
:101D1000732B4F8B588F698F7A8F83858871A9F4C5
:101D2000848D958DA68DB78D8B8B9C8BAD8BBE8B4B
:101D300081E08D8381E08C831E821F821886198644
:101D40001A861B861C861D8603C0803131F080E018
:101D5000DF91CF911F910F9108959E012D5E3F4F0E
:101D60008B8D9C8D2ED9882391F384E0E2CF42E0C5
:101D700050E06EE472E088E195E00C945C01CF9352
:101D8000DF93FC0101900020E9F73197AF01481B78
:101D9000590BBC0188E195E00E945C01EC01E7DF92
:101DA0008C0F9D1FDF91CF910895CF93DF93FC019E
:101DB000448155816081718188E195E00E945C01D8
:101DC000EC01D5DF8C0F9D1FDF91CF910895AF926D
:101DD000BF92CF92DF92EF92FF920F931F93CF9318
:101DE000DF9300D000D000D01F921F92CDB7DEB796
:101DF0006C01FE013196CE010C967F0120E2219309
:101E0000E817F907E1F7DA0120E037E09D91B92EF4
:101E10009923A9F19E32B9F43A3091F480E02B96DF
:101E20000FB6F894DEBF0FBECDBFDF91CF911F91EB
:101E30000F91FF90EF90DF90CF90BF90AF900895FB
:101E400028E03AE0E3CFEFE3F2E08491882321F049
:101E500031969813FACFE2CF321700F38FED890F46
:101E60008E35E0F68FE9890F8A3118F440EEB42EF2
:101E7000B90EF701E20FF11DB0822F5FC7CF898144
:101E8000803261F28B01FB01838D948DF601948F7A
:101E9000838FFB01168217821086118612861386A5
:101EA00014861586F80182859385A485B5854389B6
:101EB00054896589768984179507A607B70708F0BE
:101EC000ADCF25E0B695A795979587952A95D1F73B
:101ED000F82FFF70AF2EF8018581823008F49ECF75
:101EE000C8013CDD97FD9ACFF80182859385A485D2
:101EF000B5854F96A11DB11D82879387A487B587AD
:101F0000F0E2AF9EB00111246A5E7C4F611571054D
:101F100009F484CFFB018081882301F1853E19F407
:101F2000B11031C01DC04BE050E0C7010E942F230B
:101F3000892B09F0B7CF6A2DC6012B960FB6F894FE
:101F4000DEBF0FBECDBFDF91CF911F910F91FF90EC
:101F5000EF90DF90CF90BF90AF90AECEB1105ECF3C
:101F6000F601A28A80910A0290910B02A0910C02C4
:101F7000B0910D0286879787A08BB18BFB01808182
:101F8000882309F44BCFBB24B3948CCF0F931F93BA
:101F9000CF93DF93EC0188819981009759F02A81D2
:101FA0003B812617370730F081E0DF91CF911F91F9
:101FB0000F9108958B016F5F7F4F0E94532200970E
:101FC00059F0998388831B830A832C813D81232BBD
:101FD00059F7FC011082E8CF80E0E7CFEF92FF9243
:101FE0000F931F93CF93DF936115710541F480E048
:101FF000DF91CF911F910F91FF90EF9008954115C0
:102000005105A9F07B01EC010C811D81040F151F06
:10201000B801BCDF882359F3288139818C819D81E7
:10202000B701820F931F0E9445231D830C8381E01B
:10203000DFCFCF93DF93EC0188819981009711F076
:102040000E94CA21198218821D821C821B821A8258
:10205000DF91CF910895CF93DF93EC01FB010190C5
:102060000020E9F73197AF01461B570BB7DF81110D
:1020700002C0CE01DEDFCE01DF91CF910895CF9374
:10208000DF93EC01FB014481558160817181A6DF02
:10209000811102C0CE01CDDFCE01DF91CF91089535
:1020A000EF92FF920F931F93CF93DF93EC017B018D
:1020B0008A01BA016BDF81110AC0CE01BADFCE01FD
:1020C000DF91CF911F910F91FF90EF9008951D83A5
:1020D0000C83B701888199810E944523F0CFEF924C
:1020E000FF920F931F93CF93DF93CDB7DEB7A297E5
:1020F0000FB6F894DEBF0FBECDBF8C01CB01BA0185
:10210000F8011182108213821282158214822AE051
:10211000AE014F5F5F4F7A010E94A41DF70101904D
:102120000020E9F73197AF014E195F09B701C801E7
:10213000B7DFA2960FB6F894DEBF0FBECDBFDF911A
:10214000CF911F910F91FF90EF900895FB01DC015B
:1021500011961C921E9213961C921E92129715961F
:102160001C921E9214978617970741F06081718127
:102170006115710519F04481558192CF0895FC01D4
:10218000118210821382128215821482FB01019047
:102190000020E9F73197AF01461B570B81CFFC01B7
:1021A000808191810C94CA214F925F926F927F92AD
:1021B0008F929F92AF92BF92CF92DF92EF92FF9257
:1021C000CF93DF93CDB7DEB7A2970FB6F894DEBFFB
:1021D0000FBECDBF8091210690912206019609F491
:1021E00081C180910202882309F47CC1809103029D
:1021F000882309F477C180910102882309F487C1FB
:10220000E0911D06F0911E06C080D18084819581E9
:10221000C114D10409F437C1009709F434C19C01F9
:10222000990F440B550B2F8F38A349A35AA30D2C9C
:10223000000CEE08FF088090EA029090EB02A0905C
:10224000EC02B090ED024090DE025090DF02609010
:10225000E0027090E102BA01A901CE0101963FDFD0
:10226000B701A601CE0107963ADFB501A401CE0160
:102270000D9635DFB301A201CE01499630DFBE01D4
:10228000675E7F4FCE01439661DF61E572E0CE016C
:102290004396E1DEBE01635F7F4FF1DE64E572E0ED
:1022A000DADEBE01695F7F4FEADE61E572E0D3DE10
:1022B000BE016F5F7F4FE3DE78DDCE0143966FDFB7
:1022C000CE0149966CDFCE010D9669DFCE010796EF
:1022D00066DFCE01019663DFC418D508E608F7086B
:1022E000C092DA02D092DB02E092DC02F092DD02D0
:1022F0008F8D98A1A9A1BAA188199909AA09BB092A
:102300008093D6029093D702A093D802B093D902BB
:102310004092CA025092CB026092CC027092CD02DF
:102320008092BE029092BF02A092C002B092C102FF
:102330001092D2021092D3021092D4021092D502BF
:102340008091DA029091DB02A091DC02B091DD0273
:10235000B7FF7FC08FEF9FEFDC018093CE02909399
:10236000CF02A093D002B093D1028091DA02909173
:10237000DB02A091DC02B091DD02B095A0959095B2
:1023800081959F4FAF4FBF4F8093DA029093DB024E
:10239000A093DC02B093DD028091D6029091D70227
:1023A000A091D802B091D902B7FF60C08FEF9FEF24
:1023B000DC018093C2029093C302A093C402B09345
:1023C000C5028091D6029091D702A091D802B09117
:1023D000D902B095A095909581959F4FAF4FBF4F73
:1023E0008093D6029093D702A093D802B093D902DB
:1023F00010920102E0911D06F0911E0682819381E8
:1024000090938900809388008681978190939900AA
:10241000809398001092020210920302CF0150E0C4
:1024200040E02091210630912206241735070CF454
:1024300050C04F5F5F4F241735070CF44AC020E1AE
:10244000FC017096DC0101900D922A95E1F740960F
:10245000E8CF81E090E0A0E0B0E08093CE029093DE
:10246000CF02A093D002B093D10296CF81E090E04A
:10247000A0E0B0E08093C2029093C302A093C40294
:10248000B093C502B5CFA601440F551F052E000C11
:10249000660B770B4093E6025093E7026093E802E5
:1024A0007093E902880F991F092E000CAA0BBB0B31
:1024B0008093F2029093F302A093F402B093F5029A
:1024C000D0921403C0921303D0921203C09211034E
:1024D00091CF2150310930932206209321068AE5BD
:1024E00092E04DDCA2960FB6F894DEBF0FBECDBFD2
:1024F000DF91CF91FF90EF90DF90CF90BF90AF90A2
:102500009F908F907F906F905F904F900895409133
:10251000DA025091DB026091DC027091DD02809161
:10252000D6029091D702A091D802B091D902481753
:1025300059076A077B070CF4EFC04091D202509113
:10254000D3026091D4027091D5028091DA02909109
:10255000DB02A091DC02B091DD02481759076A073F
:102560007B070CF062C18091CE029091CF02A091C6
:10257000D002B091D1024091CA025091CB02609139
:10258000CC027091CD02840F951FA61FB71F8093B8
:10259000CA029093CB02A093CC02B093CD0280915B
:1025A000D6029091D702A091D802B091D902409161
:1025B000C6025091C7026091C8027091C902840F8F
:1025C000951FA61FB71F8093C6029093C702A093C2
:1025D000C802B093C9024091C6025091C7026091EF
:1025E000C8027091C9028091DA029091DB02A09139
:1025F000DC02B091DD02481759076A077B07C4F176
:102600008091C2029091C302A091C402B091C50210
:102610004091BE025091BF026091C0027091C10210
:10262000840F951FA61FB71F8093BE029093BF0211
:10263000A093C002B093C1024091DA025091DB0234
:102640006091DC027091DD028091C6029091C70218
:10265000A091C802B091C902841B950BA60BB70BC1
:102660008093C6029093C702A093C802B093C90298
:102670008091CA029091CB02A091CC02B091CD0280
:10268000880F991FAA1FBB1F8093E6029093E70251
:10269000A093E802B093E9028091BE029091BF023C
:1026A000A091C002B091C102880F991FAA1FBB1F41
:1026B0008093F2029093F302A093F402B093F50298
:1026C0008091CA029091CB02A091CC02B091CD0230
:1026D00090931403809313038091BE029091BF02E4
:1026E000A091C002B091C102909312038093110394
:1026F0008091D2029091D302A091D402B091D502E0
:102700000196A11DB11D8093D2029093D302A09394
:10271000D402B093D502E6CE4091D2025091D302BA
:102720006091D4027091D5028091D6029091D70227
:10273000A091D802B091D902481759076A077B07C0
:102740000CF073C08091C2029091C302A091C402A8
:10275000B091C5024091BE025091BF026091C0028B
:102760007091C102840F951FA61FB71F8093BE02F0
:102770009093BF02A093C002B093C1028091DA028D
:102780009091DB02A091DC02B091DD024091C60283
:102790005091C7026091C8027091C902840F951FC1
:1027A000A61FB71F8093C6029093C702A093C802CA
:1027B000B093C9024091C6025091C7026091C8020D
:1027C0007091C9028091D6029091D702A091D8024F
:1027D000B091D902481759076A077B070CF448CF14
:1027E0008091CE029091CF02A091D002B091D102FF
:1027F0004091CA025091CB026091CC027091CD02FF
:10280000840F951FA61FB71F8093CA029093CB0217
:10281000A093CC02B093CD024091D6025091D70242
:102820006091D8027091D9020FCF81E080930102AC
:1028300059CE2AE432E0FC013183208382819381E6
:10284000009711F00C94CA210895CF93DF93EC0107
:10285000F0DFCE01DF91CF910C94CA21EF92FF926D
:102860000F931F93CF93DF93EC017B018A011B82AF
:102870001A8288EE93E0A0E0B0E08C839D83AE8363
:10288000BF8388E392E0998388838DE190E00E9482
:102890002E219A8F898F009779F02DE1F701DC01C5
:1028A00001900D922A95E1F74CE050E0B801CE017D
:1028B0000C960E944C23188EDF91CF911F910F919F
:1028C000FF90EF9008956F927F928F929F92AF92B8
:1028D000BF92CF92DF92EF92FF920F931F93CF930D
:1028E000DF9300D000D0CDB7DEB7FC0184809580A7
:1028F0008114910409F490C0FB013C01A080B180D7
:10290000FC01E080F180B501C7010E945B230097C4
:1029100009F482C08C010E191F090F3F100709F43A
:102920007BC068010815190508F07AC0F701E00FAF
:10293000F11FE114F10421F410920003E0E0F3E050
:102940008081803209F46CC00F5F1F4FEACF8E196F
:102950009F097C012FEFE21AF20A0E151F0528F4D9
:102960009E2D8F2D7801C92ED82E60E572E0CE0104
:10297000019605DCF30104811581E016F10618F5D6
:10298000C016D10608F48601F30160817181FB0154
:10299000E00FF11FD08010826E0D7F1D6115710553
:1029A000B9F1FB0101900020E9F73197AF01461B17
:1029B000570BCE01019674DBF30180819181080FE2
:1029C000191FF801D08289819A81C12CD12C7601FE
:1029D000009721F00E94A11D6B017C01CE010196A0
:1029E000DEDBC701B60126960FB6F894DEBF0FBE38
:1029F000CDBFDF91CF911F910F91FF90EF90DF90AE
:102A0000CF90BF90AF909F908F907F906F900895E0
:102A1000CE0101960EDBD0CFC12CD12C7601E1CFB7
:102A2000B501C7010E945B23009709F090CF8FEF9B
:102A30009FEF8FCF2F923F924F925F926F927F9234
:102A40008F929F92AF92BF92CF92DF92EF92FF92BE
:102A50000F931F93CF93DF93CDB7DEB7A0970FB639
:102A6000F894DEBF0FBECDBF60E572E0CE014796A1
:102A700086DB9AD897FD0EC08A30910559F089837C
:102A80001A8241E050E0BE016F5F7F4FCE01479652
:102A9000A5DAEFCF62E672E0CE01419670DBBE01AF
:102AA000695E7F4FCE01019651DBBE016F5E7F4FA5
:102AB000CE01019608DF0E94F5208B01CE01019620
:102AC0006EDBCE0141966BDB0130110509F0C7C109
:102AD00064E672E0CE01419652DBBE01695E7F4F33
:102AE000CE01019633DBBE016F5E7F4FCE010196B2
:102AF000EADE4B015C01CE01019651DBCE0141962D
:102B00004EDB66E672E0CE01419639DBBE01695EBE
:102B10007F4FCE0101961ADBBE016F5E7F4FCE0163
:102B20000196D1DE6B017C01CE01019638DBCE012E
:102B3000419635DB68E672E0CE01419620DBBE01AE
:102B4000695E7F4FCE01019601DBBE016F5E7F4F54
:102B5000CE010196B8DECE01019621DBCE01419671
:102B60001EDB6AE672E0CE01419609DBBE01695EBA
:102B70007F4FCE010196EADABE016F5E7F4FCE0134
:102B80000196A1DE6D8F7E8F8F8F98A3CE01019667
:102B900006DBCE01419603DB6CE672E0CE01419686
:102BA000EEDABE01695E7F4FCE010196CFDABE013B
:102BB0006F5E7F4FCE01019686DE2B013C01CE0178
:102BC0000196EDDACE014196EADA20E030E0A90183
:102BD000C501B4010E94581F81110AC020E030E0F5
:102BE000A901C701B6010E94581F882309F41BC11F
:102BF000C301B2010E94F5202B0120E030E048EC37
:102C000052E4C501B4010E94BD1F0E94F5204B0192
:102C100020E030E048EC52E4C701B6010E94BD1F3D
:102C20000E94F5206B0120E030E04CED52E46D8D08
:102C30007E8D8F8D98A10E94BD1F0E94F5206D8F03
:102C40007E8F8F8F98A322E04216510404F1B201C7
:102C5000550C880B990B0E945E1F20E030E040E786
:102C600052E40E948D2020E030E048EC52E40E94C3
:102C7000BD1F9B01AC0160E074E284E799E40E940F
:102C80008D200E94F52070930F0260930E028091B8
:102C90000E0290910F02880F991F9A8289829C835D
:102CA0008B83DE82CD8298878F831A8619869C87D4
:102CB0008B872D8D3E8D3E872D87988B8F8720911A
:102CC000210630912206A9014E5F5F4FC0901D067C
:102CD000D0901E0680911F06909120068C199D09A8
:102CE000B4E095958795BA95E1F7841795070CF0B0
:102CF0004DC0C9010196880F991F841795070CF4E0
:102D0000CA01281739073CF09C0121503109309342
:102D10002206209321067C01E4E0EE0CFF1CEA95DC
:102D2000E1F781159840F0F08FEF9FEF0E942E2180
:102D30005C01E80EF91E8090210690902206960113
:102D400050E040E0841695067CF060E1F901DC017A
:102D500001900D926A95E1F74F5F5F4F205F3F4F03
:102D60004096F0CFC701E2CFC114D10419F0C601DB
:102D70000E94CA21B0921E06A0921D06F092200663
:102D8000E0921F069092220680922106E0911D0695
:102D9000F0911E06809121069091220620911F0637
:102DA000309120062E1B3F0B74E0359527957A95C0
:102DB000E1F7281B390B223031051CF48901015041
:102DC0001109780124E0EE0CFF1C2A95E1F7019629
:102DD00034E0880F991F3A95E1F7A701BE016F5FB4
:102DE0007F4F8E0F9F1F0E943C2341E050E0401B0D
:102DF000510B64E0440F551F6A95E1F761E070E004
:102E00006C0F7D1F6E0D7F1D80911D0690911E061B
:102E10000E943C2380912106909122060196909376
:102E2000220680932106CE014796B9D9A0960FB607
:102E3000F894DEBF0FBECDBFDF91CF911F910F91F0
:102E4000FF90EF90DF90CF90BF90AF909F908F90CA
:102E50007F906F905F904F903F902F900895CE019C
:102E600047960E94D50EDFCF1F920F920FB60F929A
:102E700011240BB60F922F933F934F935F936F9351
:102E80007F938F939F93AF93BF93EF93FF9388E1CB
:102E900095E00E94CF01FF91EF91BF91AF919F917B
:102EA0008F917F916F915F914F913F912F910F90F3
:102EB0000BBE0F900FBE0F901F9018951F920F9290
:102EC0000FB60F9211240BB60F922F938F939F93EF
:102ED000EF93FF93E0912805F09129058081E0911F
:102EE0002E05F0912F0582FD1DC090818091310546
:102EF0008F5F8F7320913205821741F0E091310589
:102F0000F0E0E85EFA4F958F80933105FF91EF91E5
:102F10009F918F912F910F900BBE0F900FBE0F902E
:102F20001F9018958081F2CF1F920F920FB60F92CB
:102F300011242F933F938F939F93AF93BF938091CF
:102F40000C0390910D03A0910E03B0910F033091EB
:102F50000B0323E0230F2D3758F50196A11DB11D5A
:102F600020930B0380930C0390930D03A0930E0307
:102F7000B0930F038091070390910803A091090378
:102F8000B0910A030196A11DB11D80930703909390
:102F90000803A0930903B0930A03BF91AF919F91D7
:102FA0008F913F912F910F900FBE0F901F9018950A
:102FB00026E8230F0296A11DB11DD2CF1F920F92BA
:102FC0000FB60F9211240BB60F922F933F934F938E
:102FD0005F936F937F938F939F93AF93BF93CF93A1
:102FE000DF93EF93FF93C091FE02D091FF022097F1
:102FF00019F16091040281E06827609304028AE17C
:103000000E941B032196D093FF02C093FE02FF9102
:10301000EF91DF91CF91BF91AF919F918F917F9170
:103020006F915F914F913F912F910F900BBE0F9039
:103030000FBE0F901F901895109273001092FF0210
:103040001092FE02B1D8E3CF1F920F920FB60F92EB
:1030500011240BB60F922F933F934F935F936F936F
:103060007F938F939F93AF93BF93EF93FF932091A1
:10307000FC023091FD028091FA029091FB02281728
:103080003907F9F082E10E94F3026091070281E0C2
:1030900068276093070284E20E941B03FF91EF916F
:1030A000BF91AF919F918F917F916F915F914F9160
:1030B0003F912F910F900BBE0F900FBE0F901F905E
:1030C000189510927200EACF1F920F920FB60F92CE
:1030D00011240BB60F92CF92DF92EF92FF922F93B3
:1030E0003F934F935F936F937F938F939F93AF9390
:1030F000BF93EF93FF934091F2025091F3026091DE
:10310000F4027091F5028091EE029091EF02A0918D
:10311000F002B091F102481759076A077B0709F4DA
:103120007AC0C0901103D09012030D2C000CEE0851
:10313000FF088091EA029091EB02A091EC02B0911D
:10314000ED0261E08C159D05AE05BF050CF060E059
:103150008DE30E941B038091EA029091EB02A09103
:10316000EC02B091ED028C159D05AE05BF050CF08B
:1031700046C08091EA029091EB02A091EC02B091DE
:10318000ED020196A11DB11D8093EA029093EB021E
:10319000A093EC02B093ED028091EE029091EF02C9
:1031A000A091F002B091F1020196A11DB11D809392
:1031B000EE029093EF02A093F002B093F1026091BF
:1031C000080281E06827609308028CE30E941B03D9
:1031D000FF91EF91BF91AF919F918F917F916F91EF
:1031E0005F914F913F912F91FF90EF90DF90CF90A3
:1031F0000F900BBE0F900FBE0F901F9018958091EF
:10320000EA029091EB02A091EC02B091ED020197DD
:10321000A109B109B9CF81E0809303020E94D410C3
:10322000D7CF1F920F920FB60F9211240BB60F92A9
:10323000CF92DF92EF92FF922F933F934F935F9342
:103240006F937F938F939F93AF93BF93EF93FF936E
:103250004091E6025091E7026091E8027091E90224
:103260008091E2029091E302A091E402B091E50224
:10327000481759076A077B0709F47AC0C0901303FF
:10328000D09014030D2C000CEE08FF088091DE0294
:103290009091DF02A091E002B091E10261E08C1513
:1032A0009D05AE05BF050CF060E087E30E941B039F
:1032B0008091DE029091DF02A091E002B091E102E4
:1032C0008C159D05AE05BF050CF046C08091DE0251
:1032D0009091DF02A091E002B091E1020196A11D60
:1032E000B11D8093DE029093DF02A093E002B093C1
:1032F000E1028091E2029091E302A091E402B09198
:10330000E5020196A11DB11D8093E2029093E302B4
:10331000A093E402B093E5026091090281E068277E
:103320006093090286E30E941B03FF91EF91BF9116
:10333000AF919F918F917F916F915F914F913F914D
:103340002F91FF90EF90DF90CF900F900BBE0F90DA
:103350000FBE0F901F9018958091DE029091DF02B2
:10336000A091E002B091E1020197A109B109B9CFA2
:1033700081E0809302020E94D410D7CFCF92DF92D7
:10338000EF92FF92CF93DF93E8E1F5E01382128290
:1033900088EEC82E83E0D82EE12CF12CC482D58291
:1033A000E682F7828AE192E09183808385EC90E067
:1033B0009587848784EC90E09787868780EC90E0FF
:1033C000918B808B81EC90E0938B828B82EC90E0F0
:1033D000958B848B86EC90E0978B868B118E128E6A
:1033E000138E148EE5EBF5E080E580831182E7EB28
:1033F000F5E0158216821186138682E090E0A0E047
:10340000B0E084879587A687B78713A215A614A670
:103410008CE292E093A782A717A6CBE1D6E08AE4DC
:1034200092E09983888390E080E018D79B838A8319
:103430002FEF3FEF3F832E839D838C83E0E0F6E008
:1034400013821282C482D582E682F78288E392E0F8
:1034500091838083128E118E1486DF91CF91FF901D
:10346000EF90DF90CF900895CF93DF93CDB7DEB785
:10347000C257D1090FB6F894DEBF0FBECDBF789406
:1034800084B5826084BD84B5816084BD85B5826069
:1034900085BD85B5816085BD80916E00816080931A
:1034A0006E00109281008091810082608093810083
:1034B0008091810081608093810080918000816093
:1034C000809380008091B10084608093B1008091EE
:1034D000B00081608093B000809191008260809301
:1034E0009100809191008160809391008091900083
:1034F0008160809390008091A10082608093A10000
:103500008091A10081608093A1008091A0008160E2
:103510008093A0008091210182608093210180919D
:10352000210181608093210180912001816080933D
:10353000200180917A00846080937A0080917A00E3
:10354000826080937A0080917A00816080937A0013
:1035500080917A00806880937A001092C10061E0C7
:1035600086E30E94480361E087E30E94480361E02C
:1035700086E20E944803109280001AE010938100B6
:103580001092820048ECE42EF12CF0928900E09237
:10359000880061E08CE30E94480361E08DE30E94B3
:1035A000480361E088E30E94480310929000109362
:1035B000910010929200F0929900E092980061E0E0
:1035C0008EE20E94480361E08DE30E94480361E0BF
:1035D00088E30E94480361E084E20E94480361E0BE
:1035E00082E20E94480361E08EE10E94480310924B
:1035F000A0001093A1001092A200F092A900E09206
:10360000A80061E08AE10E94480361E08CE10E9429
:10361000480361E088E10E94480361E08CE10E9478
:103620001B031092200110932101109222018CEAB9
:1036300090E0909329018093280112E010936F008D
:103640001093710062E083E00E94480362E08EE024
:103650000E94480362E082E10E94480361E089E041
:103660000E94480361E089E00E941B0361E081E65B
:103670000E942A0EE0912805F09129051083E0911F
:103680002405F09125051082E0912605F09127058B
:103690008FEC808310923005E0912C05F0912D0580
:1036A00086E08083E0912A05F0912B05808180617E
:1036B0008083E0912A05F0912B05808188608083CA
:1036C000E0912A05F0912B05808180688083E0914C
:1036D0002A05F0912B0580818F7D808361E085E351
:1036E0000E9448038091E605882321F081EE95E051
:1036F0000E94610A1092C2051092C0051092BD0589
:103700001092BC0584E08093BB050E9479038B0175
:1037100061E08091BB050E94480361E08091BB0598
:103720000E941B03FFB6F89480911003811127C0FB
:10373000EEE2F2E08491E8EEF1E09491E82FF0E01F
:10374000EE0FFF1FE756FE4FA591B491EC91E923D0
:1037500021F461E085E30E941B0361E085E30E94A0
:1037600048038CB580618CBD8CB580648CBD61E0F4
:1037700084E30E94480361E083E30E944803809150
:1037800010038F5F80931003FFBE82E58093B50521
:103790001092B6058091B5059091B6050E94B603CA
:1037A0002AE0F22E8FEF0E949503FA94F110FACFDF
:1037B00087EB95E00E94B90320E030E0A90160E0CA
:1037C00087EB95E00E94CD03F82E8093C10581E040
:1037D000F81689F00E947903601B710B613D7740F8
:1037E00058F381E08093BC0587EB95E00E948B0342
:1037F00083E892E07CC02AEA31E040E050E068E0F3
:1038000087EB95E00E94CD0382FF2AC0F092C205AB
:103810008091C205C12CD12C7601823029F4C12CB3
:10382000D12CE12C80E4F82E20E030E0A90167E300
:1038300087EB95E00E94CD03A701960169E287EB33
:1038400095E00E94CD038093C1058823D1F00E94AA
:103850007903601B710B613D774030F388E0C2CF84
:1038600094E0F92E0E949C038093C105FA94F11014
:10387000F9CF8A3A11F082E0B5CF82E08093C20599
:10388000C7CF8091C2058230D1F420E030E0A90199
:103890006AE387EB95E00E94CD03882311F086E070
:1038A000A1CF0E949C03807C803C19F483E080932C
:1038B000C2050E949C030E949C030E949C0387EB0C
:1038C00095E00E948B0380E58093B5051092B605C4
:1038D00081E00E949905882309F4A9C081EE95E052
:1038E0000E944B08882309F483CF8EE692E00E9461
:1038F000BF0E1C821B820CE212E01A8309831E8217
:10390000CE0101960E944B08BE016F5F7F4FCE0132
:10391000CB960E94040C19A218A21F8F0E8F1BA217
:1039200021968FAD2197811189C06C961FAE1EAE76
:103930006C9788EE93E0A0E0B0E0A0968CAF9DAFCE
:10394000AEAFBFAFA09788E392E06A969FAF8EAF0D
:103950006A97E3961FAE1EAEE397A5961FAEA59796
:103960006C968EAD9FAD6C97909303068093020684
:10397000A0968CAD9DADAEADBFADA0978093040673
:1039800090930506A0930606B0930706A4968CAD07
:103990009DADAEADBFADA497809308069093090688
:1039A000A0930A06B0930B06A8E5B0E0AC0FBD1FCC
:1039B0001C96ECE0F6E08D91819386E0E931F80702
:1039C000D1F7E3968EAD9FADE39790931A0680935F
:1039D000190685EA92E00E94BF0EFF24F3940BE3E0
:1039E00016E083E00E94F302892B09F449C0FF240A
:1039F000F3940BE316E08EE00E94F302892B09F4A6
:103A00004BC0FF24F3940BE316E082E10E94F30223
:103A1000892B09F04DC0609107026F256093070262
:103A200084E20E941B03C8010197F1F7EECF80E00A
:103A30000E949905882309F4DBCE50CF4AE952E071
:103A4000BE01655C7F4FCE014E960E94E70E882333
:103A500009F46BCFCE01CB960E94610ABE01625E73
:103A60007F4FCE0101960E94040C4AE952E0BE014C
:103A70006F5F7F4FCE01885A9F4F0E942E1470CFE8
:103A8000609109026F256093090286E30E941B037F
:103A9000C8010197F1F7A5CF609108026F256093E7
:103AA00008028CE30E941B03C8010197F1F7A3CF22
:103AB0001092060210920502809105029091060272
:103AC0004497ECF000E117E288E195E00E94BA012A
:103AD000892B51F088E195E00E949801813691058B
:103AE000D1F08236910501F1809121069091220654
:103AF0004D9714F40E941A150E945C02E5CF0E94B3
:103B00001A15809105029091060201969093060283
:103B100080930502D1CF10931403009313031093E5
:103B2000120300931103E0CF1092140310921303B9
:103B30001092120310921103D7CF8BE196E00C94F0
:103B40001914662777272FC0BB272A3051F49923F1
:103B500042F4BDE290958095709561957F4F8F4FAF
:103B60009F4F01C0BB27FA01A62F6217710581057F
:103B70009105330B30FB66F0AA27660F771F881F6D
:103B8000991FAA1FA21710F0A21B63953850A9F71E
:103B9000A05DAA3308F0A95DA19336F7B111B193E6
:103BA0001082CA0175C18F929F92AF92BF92CF923D
:103BB000DF92EF92FF920F931F93CF93DF935C01FD
:103BC0007B016115710519F0DB018D939C938501D3
:103BD0000F5F1F4FF501D0818D2F90E039D16C011F
:103BE000892BA9F5DD32A9F50F5F1F4FD50111967D
:103BF000DC91C1E05801F1E0AF1AB10843E050E0B8
:103C00006CEE70E0C5012CD1892B61F5680182E072
:103C1000C80ED11C45E050E067EE70E0C60120D12F
:103C2000892B21F4680197E0C90ED11CE114F1043D
:103C300019F0D701CD92DC9260E070E080E89FEF50
:103C4000C111F9C060E070E080E89FE7F4C058015E
:103C5000BECFDB3229F485010E5F1F4FF501D18104
:103C6000C0E0C8CF43E050E064EE70E0C501F8D09A
:103C7000892BE9F0F80110E000E020E030E0A90134
:103C80005F01B0ED8B2E8D0E89E08815C0F19C2E62
:103C9000689491F88C2F8870C2FF16C0811102C001
:103CA0000F5F1F4F3196D501DC91C92DE9CFE1148B
:103CB000F10429F00E5F1F4FF7011183008360E0CC
:103CC00070E080EC9FE7B7C0882311F00150110924
:103CD000A5E0B0E009D29B01AC01220F331F441FC5
:103CE000551F280D311D411D511D283999E93907EE
:103CF000490799E15907B0F2C6609C2ED3CFAEEFC9
:103D00008A1206C0C3FD3CC09C2E689493F8CACFAB
:103D1000DF7DD534A9F580818D3239F4C061DF01B2
:103D20001296818162E070E006C0DF018B32C1F340
:103D3000119661E070E080535D01A61AB70A8A30DF
:103D4000F8F4E0E8CE16ECE0DE065CF4B601660FAF
:103D5000771F660F771FC60ED71ECC0CDD1CC80E52
:103D6000D11C5D01FFEFAF1ABF0A8C9180538A30DE
:103D700098F1C4FF03C0D194C194D1080C0D1D1D4E
:103D8000C1FF09C0E114F10431F081E0A81AB108C3
:103D9000D701AD92BC92CA01B9018ED0C370C330B5
:103DA00009F490584B015C0120E030E0A90180D07B
:103DB000882309F43EC0CBE1D1E017FF05C011957F
:103DC00001951109C3E0D1E06E01B8E1CB1AD10829
:103DD00080E2E82EF12C0EC0D501B3CFFE01259173
:103DE0003591459154910E191F09C501B401C5D0F3
:103DF0004B015C01D501C4010E151F057CF724970A
:103E0000F594E794CC16DD06A9F78A2F880F8B2F3F
:103E1000881F8F3F41F020E030E0A901C501B401C7
:103E200047D0811106C082E290E0909334068093DF
:103E30003306C501B401DF91CF911F910F91FF901F
:103E4000EF90DF90CF90BF90AF909F908F900895AC
:103E50009111F6C0803219F089508550D0F708953D
:103E6000FB01DC014150504088F08D9181341CF001
:103E70008B350CF4805E659161341CF06B350CF46D
:103E8000605E861B611171F3990B0895881BFCCF4E
:103E9000DC01FC01672F71917723E1F7329704C0B1
:103EA0007C916D9370836291AE17BF07C8F308953C
:103EB00040D008F481E00895E89409C097FB3EF4EF
:103EC00090958095709561957F4F8F4F9F4F992367
:103ED000A9F0F92F96E9BB279395F69587957795E5
:103EE0006795B795F111F8CFFAF4BB0F11F460FFA5
:103EF0001BC06F5F7F4F8F4F9F4F16C0882311F0FD
:103F000096E911C0772321F09EE8872F762F05C010
:103F1000662371F096E8862F70E060E02AF09A95AB
:103F2000660F771F881FDAF7880F9695879597F9A0
:103F30000895990F0008550FAA0BE0E8FEEF16163A
:103F40001706E807F907C0F012161306E407F5078D
:103F500098F0621B730B840B950B39F40A2661F001
:103F6000232B242B252B21F408950A2609F4A140A4
:103F7000A6958FEF811D811D08950BD07BC06CD05D
:103F800028F071D018F0952309F05DC062C01124AB
:103F9000A5C081D0A0F3959FD1F3950F50E0551F98
:103FA000629FF001729FBB27F00DB11D639FAA278E
:103FB000F00DB11DAA1F649F6627B00DA11D661FDD
:103FC000829F2227B00DA11D621F739FB00DA11DFE
:103FD000621F839FA00D611D221F749F3327A00DB8
:103FE000611D231F849F600D211D822F762F6A2F54
:103FF00011249F5750408AF0E1F088234AF0EE0FD9
:10400000FF1FBB1F661F771F881F91505040A9F7E5
:104010009E3F510570F017C061C05F3FECF3983EC2
:10402000DCF3869577956795B795F795E7959F5F4C
:10403000C1F7FE2B880F911D9695879597F90895E6
:1040400099278827089597F99F6780E870E060E0D6
:1040500008959FEF80EC089500240A941616170621
:1040600018060906089500240A9412161306140669
:1040700005060895092E0394000C11F4882352F0CC
:10408000BB0F40F4BF2B11F460FF04C06F5F7F4F84
:104090008F4F9F4F089557FD9058440F551F59F06B
:1040A0005F3F71F04795880F97FB991F61F09F3F25
:1040B00079F087950895121613061406551FF2CF4E
:1040C0004695F1DF08C0161617061806991FF1CF9E
:1040D00086957105610508940895E894BB276627C5
:1040E0007727CB0197F9089509D0A59F900DB49F2C
:1040F000900DA49F800D911D11240895A29FB001E1
:10410000B39FC001A39F700D811D1124911DB29F0B
:10411000700D811D1124911D08950CD0ABCFA3DF2C
:1041200040F09ADF30F021F45F3F19F08CCF51114D
:10413000D5CF8FCFB0DF98F39923C9F35523B1F3CF
:10414000951B550BBB27AA2762177307840738F006
:104150009F5F5F4F220F331F441FAA1FA9F333D065
:104160000E2E3AF0E0E830D091505040E695001C19
:10417000CAF729D0FE2F27D0660F771F881FBB1FD5
:10418000261737074807AB07B0E809F0BB0B802DAF
:10419000BF01FF2793585F4F2AF09E3F510568F0FB
:1041A00052CF9CCF5F3FECF3983EDCF3869577953A
:1041B0006795B795F7959F5FC9F7880F911D9695FD
:1041C000879597F90895E1E0660F771F881FBB1F59
:1041D000621773078407BA0720F0621B730B840B06
:1041E000BA0BEE1F88F7E095089504D06894B111DA
:1041F00075CF089558DF88F09F5790F0B92F992711
:10420000B751A0F0D1F0660F771F881F991F1AF0E1
:10421000BA95C9F712C0B13081F05FDFB1E00895FF
:104220005CCF672F782F8827B85F39F0B93FCCF380
:10423000869577956795B395D9F73EF490958095D7
:10424000709561957F4F8F4F9F4F0895EE0FFF1F21
:10425000881F8BBF0790F691E02D19940F931F9341
:10426000CF93DF938230910510F482E090E0E091EB
:104270003706F091380630E020E0B0E0A0E030975B
:1042800099F42115310509F44AC0281B390B243053
:104290003105D8F58A819B816115710589F1FB0192
:1042A00093838283FE0111C0408151810281138179
:1042B00048175907E0F04817590799F4109761F02B
:1042C00012960C93129713961C933296CF01DF919E
:1042D000CF911F910F9108950093370610933806E0
:1042E000F4CF2115310551F04217530738F0A901D9
:1042F000DB019A01BD01DF01F801C1CFEF01F9CF68
:104300009093380680933706CDCFFE01E20FF31F5E
:10431000819391932250310939832883D7CF2091FB
:10432000350630913606232B41F42091120230914C
:1043300013023093360620933506209110023091F7
:1043400011022115310541F42DB73EB740911402F9
:1043500050911502241B350BE0913506F09136067D
:10436000E217F307A0F42E1B3F0B2817390778F04C
:10437000AC014E5F5F4F2417350748F04E0F5F1FAB
:104380005093360640933506819391939FCFF0E08A
:10439000E0E09CCFCF93DF930097E9F0FC013297E8
:1043A00013821282A0913706B0913806ED0130E0F9
:1043B00020E01097A1F420813181820F931F20917A
:1043C0003506309136062817390709F061C0F09399
:1043D0003606E0933506DF91CF910895EA01CE17B6
:1043E000DF07E8F54A815B819E0141155105B1F770
:1043F000E901FB83EA8349915991C40FD51FEC175A
:10440000FD0761F4808191810296840F951FE90177
:1044100099838883828193819B838A83F0E0E0E0A3
:1044200012968D919C9113970097B9F52D913C911F
:104430001197CD010296820F931F2091350630917E
:1044400036062817390739F6309751F51092380695
:1044500010923706B0933606A0933506BCCFD383AF
:10446000C28340815181840F951FC817D90761F419
:104470004E5F5F4F88819981480F591F5183408358
:104480008A819B81938382832115310509F0B0CF06
:10449000F0933806E09337069ECFFD01DC01C0CFD4
:1044A00013821282D7CF4F925F926F927F928F9238
:1044B0009F92AF92BF92CF92DF92EF92FF920F93B3
:1044C0001F93CF93DF938C01009791F4CB01DF9181
:1044D000CF911F910F91FF90EF90DF90CF90BF9001
:1044E000AF909F908F907F906F905F904F90B6CEDF
:1044F000FC01E60FF71F9C0122503109E217F30778
:1045000008F4AAC0D901CD91DC911197C617D7073D
:1045100018F1C530D10570F0CE01049786179707C2
:1045200048F0C61BD70B2297C193D1936D937C9310
:10453000CF0130DFC801DF91CF911F910F91FF9024
:10454000EF90DF90CF90BF90AF909F908F907F9033
:104550006F905F904F9008955B01AC1ABD0A4C01BB
:104560008C0E9D1EA0913706B0913806512C412C1F
:10457000F12CE12C109731F580913506909136069B
:104580008815990509F05CC04616570608F058C012
:104590008091100290911102009741F48DB79EB75F
:1045A0004091140250911502841B950BE817F907EE
:1045B00008F052C0F0933606E0933506F901718396
:1045C0006083B8CF8D919C91119712966C90129741
:1045D00013967C901397A815B90559F56C0142E024
:1045E000C40ED11CCA14DB0420F1AC014A195B09CA
:1045F000DA011296159780F06282738251834083AC
:10460000D9016D937C93E114F10471F0D7011396F5
:10461000FC93EE9312978ECF22968C0F9D1FF9017B
:1046200091838083F301EFCFF0933806E093370650
:1046300081CF4816590608F42C017D01D3019ACF89
:10464000CB010CDE7C01009739F0AE01B80114D02B
:10465000C801A0DE87016ECF10E000E06BCFFB0148
:10466000DC0104C08D910190801921F4415050402B
:10467000C8F7881B990B0895FB01DC0102C001906B
:104680000D9241505040D8F70895FB01DC01019094
:104690000D920020E1F70895FB01DC0141505040EC
:1046A00048F001900D920020C9F701C01D924150C1
:1046B0005040E0F70895FB0151915523A9F0BF0147
:1046C000DC014D9145174111E1F759F4CD010190FD
:1046D000002049F04D9140154111C9F3FB014111F2
:1046E000EFCF81E090E00197089511E0C9E2D1E0B9
:1046F00000E005C0802FFE01A9DD2196011DCA3210
:0C470000D10780E00807B1F7F894FFCF64
:10470C0001010101010100010101FFFFFFFFBC02DA
:10471C0000003906800000000000F1015C018901F5
:10472C003D02BA019801AC0100000000F40B5C01E1
:10473C00270E540C00000000980C7C0C270E550C16
:10474C005C0CCB0D050E00000000191425140D0A8D
:10475C00002C200020544F20200072656164206FD3
:10476C006B004700580059005A0045004600696E1E
:10477C00697469616C697A6174696F6E20646F6EBB
:10478C00652E00696E697469616C697A6174696F10
:10479C006E206661696C6564210073616D706C6577
:0A47AC002E747874007265616400D9
:020000023000CC
:10E000000D9489F10D94B2F10D94B2F10D94B2F129
:10E010000D94B2F10D94B2F10D94B2F10D94B2F1F0
:10E020000D94B2F10D94B2F10D94B2F10D94B2F1E0
:10E030000D94B2F10D94B2F10D94B2F10D94B2F1D0
:10E040000D94B2F10D94B2F10D94B2F10D94B2F1C0
:10E050000D94B2F10D94B2F10D94B2F10D94B2F1B0
:10E060000D94B2F10D94B2F10D94B2F10D94B2F1A0
:10E070000D94B2F10D94B2F10D94B2F10D94B2F190
:10E080000D94B2F10D94B2F10D94B2F10D94B2F180
:10E090000D94B2F10D94B2F10D94B2F10D94B2F170
:10E0A0000D94B2F10D94B2F10D94B2F10D94B2F160
:10E0B0000D94B2F10D94B2F10D94B2F10D94B2F150
:10E0C0000D94B2F10D94B2F10D94B2F10D94B2F140
:10E0D0000D94B2F10D94B2F10D94B2F10D94B2F130
:10E0E0000D94B2F141546D656761323536300041AF
:10E0F000726475696E6F206578706C6F72657220DE
:10E1000073746B3530305632206279204D4C530099
:10E11000426F6F746C6F616465723E004875683F52
:10E1200000436F6D70696C6564206F6E203D200048
:10E130004350552054797065202020203D20005FF9
:10E140005F4156525F415243485F5F3D2000415658
:10E1500052204C696243205665723D20004743437C
:10E160002056657273696F6E203D20004350552024
:10E1700049442020202020203D20004C6F7720663D
:10E18000757365202020203D20004869676820665F
:10E190007573652020203D200045787420667573D6
:10E1A00065202020203D20004C6F636B2066757336
:10E1B000652020203D20004D617220203720323024
:10E1C000313300312E362E3800342E332E350056A2
:10E1D00023202020414444522020206F7020636F70
:10E1E00064652020202020696E73747275637469E1
:10E1F0006F6E2061646472202020496E74657272B3
:10E20000757074006E6F20766563746F7200726A49
:10E210006D702020006A6D70200057686174207056
:10E220006F72743A00506F7274206E6F7420737541
:10E2300070706F72746564004D7573742062652030
:10E2400061206C6574746572002000577269747483
:10E25000696E672045450052656164696E672045B7
:10E26000450045452065727220636E743D00504F35
:10E27000525400303D5A65726F2061646472003FF1
:10E280003D43505520737461747300403D454550C3
:10E29000524F4D207465737400423D426C696E6B41
:10E2A000204C454400453D44756D70204545505215
:10E2B0004F4D00463D44756D7020464C415348001B
:10E2C000483D48656C70004C3D4C69737420492F83
:10E2D0004F20506F72747300513D51756974005234
:10E2E0003D44756D702052414D00563D73686F7707
:10E2F00020696E7465727275707420566563746FF0
:10E30000727300593D506F727420626C696E6B00BD
:10E310002A0011241FBECFEFD1E2DEBFCDBF01E046
:10E320000CBF12E0A0E0B2E0EEE1FDEF03E00BBFB6
:10E3300002C007900D92A030B107D9F712E0A0E01B
:10E34000B2E001C01D92AE30B107E1F70F9460F367
:10E350000D948DFE01E20EBF0FEF0DBF11241FBE05
:10E360000D9460F30D9400F020E030E040ED57E0B4
:10E3700005C0FA013197F1F72F5F3F4F2817390792
:10E38000C0F308959C01260F311DC901A0E0B0E043
:10E390002F5F3F4FABBFFC018791882361F08093D3
:10E3A000C6008091C00086FFFCCF8091C0008064D1
:10E3B0008093C000EACF08958DE08093C6008091DD
:10E3C000C00086FFFCCF8091C00080648093C000B5
:10E3D0008AE08093C6008091C00086FFFCCF8091C8
:10E3E000C00080648093C00008950F94C2F10F9420
:10E3F000DCF10895FC019081992359F09093C600B7
:10E400008091C00086FFFCCF8091C0008064809323
:10E41000C0003196992379F70895282F982F929567
:10E420009F70892F805D8A3308F0895F8093C600D2
:10E430008091C00086FFFCCF8091C00080648093F3
:10E44000C000822F8F70982F905D9A3308F0995FEB
:10E450009093C6008091C00086FFFCCF8091C000E1
:10E4600080648093C00008959C01FB01853691056E
:10E470001CF46330710594F0C90164E670E00F94F8
:10E480002EFE605D7F4F6093C6008091C00086FFC6
:10E49000FCCF8091C00080648093C0002B30310598
:10E4A00014F43297B4F0C90164E670E00F942EFEC4
:10E4B0006AE070E00F942EFE605D7F4F6093C600AF
:10E4C0008091C00086FFFCCF8091C0008064809363
:10E4D000C000C9016AE070E00F942EFEC0968093E0
:10E4E000C6008091C00086FFFCCF8091C000806490
:10E4F0008093C00008951F93182F8EE692EE60E07F
:10E500000F94C2F11093C6008091C00086FFFCCF2B
:10E510008091C00080648093C0000F94DCF11F9153
:10E5200008952F923F924F925F926F927F928F92B7
:10E530009F92AF92BF92CF92DF92EF92FF920F9392
:10E540001F93DF93CF93CDB7DEB762970FB6F894E2
:10E55000DEBF0FBECDBF382E622ECA01DB015C01CB
:10E560006D01772420E2222E2E010894411C511CBB
:10E570008BC081E0A81680E0B80681E0C80680E084
:10E58000D80628F0C601AA27BB270F940DF2BB2797
:10E59000AD2D9C2D8B2D0F940DF28A2D0F940DF225
:10E5A0002092C6008091C00086FFFCCF8091C00001
:10E5B00080648093C0009DE29093C6008091C0006B
:10E5C00086FFFCCF8091C00080648093C0002092C1
:10E5D000C6008091C00086FFFCCF8091C00080649F
:10E5E0008093C00019828601750188249924A1E0D6
:10E5F0003A1651F03A1620F0B2E03B1661F409C029
:10E600000BBFF701779007C0C7010F9477FE782EF4
:10E6100002C0F7017080872D0F940DF22092C60082
:10E620008091C00086FFFCCF8091C0008064809301
:10E63000C000872D8052F401EF70F0708F3520F408
:10E64000E40DF51D708204C0E40DF51D8EE280839B
:10E650000894E11CF11C011D111D0894811C911CE2
:10E6600090E18916910409F0C2CF80E190E0A0E02A
:10E67000B0E0A80EB91ECA1EDB1E198AC2010F9493
:10E68000FAF10F94DCF16A94662009F072CF629679
:10E690000FB6F894DEBF0FBECDBFCF91DF911F91B3
:10E6A0000F91FF90EF90DF90CF90BF90AF909F9031
:10E6B0008F907F906F905F904F903F902F90089534
:10E6C0002F923F924F925F926F927F928F929F9282
:10E6D000AF92BF92CF92DF92EF92FF920F931F9370
:10E6E000DF93CF93CDB7DEB7CD53D1400FB6F894BB
:10E6F000DEBF0FBECDBF01E20EBF0FEF0DBF94B75F
:10E70000F894A89514BE80916000886180936000A1
:10E7100010926000789493FF05C0E0910002F091A0
:10E7200001021995279A2F9A8091C00082608093E8
:10E73000C00080E18093C40088E18093C1000000A4
:10E74000EE24FF24870144E0A42EB12CCC24DD2448
:10E7500024C0C5010197F1F70894E11CF11C011DCB
:10E76000111D21E2E2162EE4F20620E0020720E06D
:10E77000120718F031E0C32ED12CC801B70127ECE5
:10E780003BE140E050E00F9441FE611571058105C9
:10E79000910519F485B1805885B98091C00087FD35
:10E7A00003C0C114D104A9F2A6014F5F5F4FC25E3E
:10E7B000DE4F59834883CE51D140C25EDE4F8881FF
:10E7C0009981CE51D140019711F00D9410FEC05D9A
:10E7D000DE4F19821882C053D14060E0C15DDE4F28
:10E7E0001882CF52D14088249924C35DDE4F19820C
:10E7F0001882CD52D140C05EDE4F188219821A8233
:10E800001B82C052D140CE5CDE4F188219821A8220
:10E810001B82C253D140EE24FF2487010BBFF701B6
:10E8200007911691C45CDE4F19830883CC53D14005
:10E830000D940BFEC25EDE4F28813981CE51D1404E
:10E840002130310509F52091C600C25EDE4F1982E4
:10E850001882CE51D14022C02F5F3F4F4F4F5F4FA4
:10E86000213082E138078AE7480780E0580780F0C6
:10E87000C45CDE4FE881F981CC53D140EF5FFF4F9C
:10E8800019F0EE27FF27099420E030E040E050E047
:10E890008091C00087FFE0CF2091C600C35DDE4FAE
:10E8A00048815981CD52D1404F5F5F4FC35DDE4FEC
:10E8B00059834883CD52D140213209F063C64A3092
:10E8C000510508F05FC60894811C911C53E0851621
:10E8D000910409F059C600E010E018C081E280936D
:10E8E000C6008091C00086FFFCCF8091C00080648C
:10E8F0008093C0002F5F3F4F2931310579F70F9486
:10E90000DCF10F5F1F4F0530110519F020E030E0FA
:10E91000E5CF10920A0210920B0210920C02109294
:10E920000D02109206021092070210920802109235
:10E930000902109202021092030210920402109235
:10E9400005028FEE90EE60E00F94F5F180E191EE1C
:10E9500060E00F94C2F18091C00087FFFCCF9091DE
:10E96000C600903608F09F759032B8F09093C600BC
:10E970008091C00086FFFCCF8091C00080648093AE
:10E98000C000A0E2A093C6008091C00086FFFCCF2B
:10E990008091C00080648093C000983409F4D7C18E
:10E9A0009934B8F4923409F459C1933458F490333B
:10E9B00019F1903308F4E3C59F33A1F1903409F0C5
:10E9C000DEC5BDC0953409F470C1963409F0D7C5D1
:10E9D00098C1923509F42BC2933538F49C3409F46C
:10E9E000F5C1913509F0CBC518C2963509F445C279
:10E9F000993509F0C4C567C483E792EE62E00F94CD
:10EA0000F5F110920602109207021092080210927D
:10EA1000090210920A0210920B0210920C0210923C
:10EA20000D0213C18FE792EE62E00F94F5F18FEEC5
:10EA300090EE60E00F94F5F181E291EE60E00F94CA
:10EA4000C2F187EB91EE60E00F94F5F180E391EE77
:10EA500060E00F94C2F184EE90EE60E00F94F5F167
:10EA60008FE391EE60E00F94C2F186E090E061E008
:10EA700070E00F9434F20F94DCF18DE591EE60E0DC
:10EA80000F94C2F189EC91EE60E00F94F5F18EE401
:10EA900091EE60E00F94C2F183EC91EE60E00F9490
:10EAA000F5F18CE691EE60E00F94C2F18EE10F94E7
:10EAB0000DF288E90F940DF281E00F940DF20F949E
:10EAC000DCF18BE791EE60E00F94C2F119E0E0E039
:10EAD000F0E010935700E4918E2F0F940DF20F94F5
:10EAE000DCF18AE891EE60E00F94C2F1E3E0F0E03F
:10EAF00010935700E4918E2F0F940DF20F94DCF1D8
:10EB000089E991EE60E00F94C2F1E2E0F0E0109349
:10EB10005700E4918E2F0F940DF20F94DCF188EAE8
:10EB200091EE60E00F94C2F1E1E0F0E01093570045
:10EB30001491812F0F940DF20F94DCF107CF8BE825
:10EB400092EE62E00F94F5F18BE492EE60E00F94A8
:10EB5000F5F10F94DCF100E010E019C0C8016F2D51
:10EB60000F947FFEFF2031F489E492EE60E00F9471
:10EB7000C2F10BC0F092C6008091C00086FFFCCFAE
:10EB80008091C00080648093C0000F5F1F4FC80158
:10EB900081519F41A0E0B0E0ABBFFC01F790BAE229
:10EBA000FB1621F0E2E000301E07C1F60F94DCF105
:10EBB0000F94DCF187E592EE60E00F94F5F10F948D
:10EBC000DCF1CC24DD2400E010E01EC0C8010F946D
:10EBD00077FEF82E882331F489E492EE60E00F94FA
:10EBE000C2F10BC08093C6008091C00086FFFCCFAD
:10EBF0008091C00080648093C000FE1419F00894D6
:10EC0000C11CD11C0F5F1F4FC80181519F41A0E063
:10EC1000B0E0ABBFFC01E790FAE2EF1621F022E092
:10EC20000030120799F60F94DCF10F94DCF182E6C4
:10EC300092EE60E00F94C2F1C60161E070E00F94C3
:10EC400034F20F94DCF10F94DCF110920202109276
:10EC50000302109204021092050278CE89E992EE26
:10EC600062E00F94F5F1279A2F9A16C02F9880E052
:10EC700090E0E0EDF7E03197F1F7019684369105E9
:10EC8000C1F72F9A80E090E0E0EDF7E03197F1F7DF
:10EC9000019684369105C1F78091C00087FFE6CFC9
:10ECA0008091C00087FFFCCF64C485EA92EE62E0E9
:10ECB0000F94F5F140910202509103026091040219
:10ECC0007091050281E020E10F9491F2809102029F
:10ECD00090910302A0910402B091050280509F4FD1
:10ECE000AF4FBF4F8093020290930302A0930402A0
:10ECF000B093050280509041A040B04008F426CE69
:10ED0000A4CF83EB92EE62E00F94F5F140910602FE
:10ED100050910702609108027091090280E020E1A1
:10ED20000F9491F28091060290910702A09108023F
:10ED3000B091090280509F4FAF4FBF4F80930602A2
:10ED400090930702A0930802B0930902FFCD80ECD4
:10ED500092EE62E00F94F5F183E792EE60E00F949B
:10ED6000F5F18FE792EE60E00F94F5F18BE892EE0B
:10ED700060E00F94F5F189E992EE60E00F94F5F10F
:10ED800085EA92EE60E00F94F5F183EB92EE60E09D
:10ED90000F94F5F180EC92EE60E00F94F5F187ECC2
:10EDA00092EE60E00F94F5F188ED92EE60E00F9442
:10EDB000F5F18FED92EE60E00F94F5F18AEE92EEB0
:10EDC00060E00F94F5F183E093EEBDCD87EC92EE19
:10EDD00062E00F94F5F181E40F947BF282E40F94EA
:10EDE0007BF283E40F947BF284E40F947BF285E45E
:10EDF0000F947BF286E40F947BF287E40F947BF20E
:10EE000088E40F947BF28AE40F947BF28BE40F94F6
:10EE10007BF28CE40F947BF299CD88ED92EE62E068
:10EE20000F94F5F1772473948824992409C48FED05
:10EE300092EE62E00F94F5F140910A0250910B02BC
:10EE400060910C0270910D0282E020E10F9491F22A
:10EE500080910A0290910B02A0910C02B0910D02D8
:10EE600080509F4FAF4FBF4F80930A0290930B0289
:10EE7000A0930C02B0930D0269CD8AEE92EE62E08F
:10EE80000F94F5F184EE90EE60E00F94F5F18FECC5
:10EE900091EE60E00F94F5F1662477244301CC5D98
:10EEA000DE4F19821882C452D140D401C301B695F5
:10EEB000A79597958795CA5DDE4F88839983AA8326
:10EEC000BB83C652D140CC5DDE4FA881B981C4520C
:10EED000D1401196CC5DDE4FB983A883C452D14096
:10EEE000CD0162E070E00F9434F2B0E2B093C6005E
:10EEF0008091C00086FFFCCF8091C0008064809329
:10EF0000C000EDE2E093C6008091C00086FFFCCF18
:10EF10008091C00080648093C000F0E2F093C6004E
:10EF20008091C00086FFFCCF8091C00080648093F8
:10EF3000C000CA5DDE4FE880F9800A811B81C6529D
:10EF4000D140BB27A12F902F8F2D0F940DF2CA5DBA
:10EF5000DE4F8881C652D1400F940DF2B0E2FB2EF5
:10EF6000F092C6008091C00086FFFCCF8091C00067
:10EF700080648093C0000DE30093C6008091C000C0
:10EF800086FFFCCF8091C00080648093C00010E2B7
:10EF90001093C6008091C00086FFFCCF8091C00016
:10EFA00080648093C0008BBEF3012791C65DDE4F65
:10EFB0002883CA52D140A22EBB24CC24DD2408943D
:10EFC000611C711C811C911C8BBEF3018791282E42
:10EFD0003324442455240894611C711C811C911C09
:10EFE0008BBEF3013791C55DDE4F3883CB52D140E4
:10EFF0000894611C711C811C911C8BBEF30147910C
:10F00000C45DDE4F4883CC52D140ADEFEA2EAFEF66
:10F01000FA2EAFEF0A2FAFEF1A2F6E0C7F1C801E57
:10F02000911E142D032DF22CEE24EA0CFB1C0C1D5A
:10F030001D1D0F940DF220E22093C6008091C000A8
:10F0400086FFFCCF8091C00080648093C000C65DC5
:10F05000DE4F8881CA52D1400F940DF230E23093D6
:10F06000C6008091C00086FFFCCF8091C000806404
:10F070008093C000C45DDE4F8881CC52D1400F9494
:10F080000DF240E24093C6008091C00086FFFCCFA5
:10F090008091C00080648093C000C55DDE4F888190
:10F0A000CB52D1400F940DF250E25093C6008091A4
:10F0B000C00086FFFCCF8091C00080648093C000B8
:10F0C0008FEFE8168FEFF80680E0080780E018075A
:10F0D00031F484E092EE60E00F94C2F1DFC0D80119
:10F0E000C7018070907CA070B0708050904CA040A0
:10F0F000B040D1F52FEF3FE340E050E0E222F322B1
:10F1000004231523CA5DDE4FA880B980CA80DB8046
:10F11000C652D140AE0CBF1CC01ED11EAA0CBB1CD7
:10F12000CC1CDD1C8EE092EE60E00F94C2F1BB2798
:10F13000A12F902F8F2D0F940DF28E2D0F940DF285
:10F1400030E23093C6008091C00086FFFCCF8091F2
:10F15000C00080648093C0004EE34093C60080915D
:10F16000C00086FFFCCF87C08EE09EEFA0E0B0E03D
:10F17000E822F9220A231B239CE0E91694E9F90608
:10F1800090E0090790E0190709F088C0C45DDE4FE0
:10F19000A881CC52D140EA2EFF2400E010E0102FCD
:10F1A0000F2DFE2CEE24C55DDE4FB881CB52D14031
:10F1B000EB0EF11C011D111DD601C501817090706F
:10F1C000A070B070DC0199278827E80EF91E0A1F8D
:10F1D0001B1F20EF30E040E050E0A222B322C42207
:10F1E000D52241E1AA0CBB1CCC1CDD1C4A95D1F7F1
:10F1F000EA0CFB1C0C1D1D1D81E090E0A0E0B0E0BE
:10F20000282239224A225B2235E1220C331C441C7D
:10F21000551C3A95D1F7E20CF31C041D151D57013E
:10F220006801AA0CBB1CCC1CDD1C85E192EE60E0E1
:10F230000F94C2F1C801AA27BB270F940DF2BB2778
:10F24000A12F902F8F2D0F940DF28E2D0F940DF274
:10F2500090E29093C6008091C00086FFFCCF809121
:10F26000C00080648093C000AEE3A093C60080918C
:10F27000C00086FFFCCF8091C00080648093C000F6
:10F28000C601AA27BB270F940DF2BB27AD2D9C2DDD
:10F290008B2D0F940DF28A2D0F940DF20F94DCF14B
:10F2A000CC5DDE4FE881F981C452D140F99709F471
:10F2B0004DCBF4E0EF2EF12C012D112D6E0C7F1CA7
:10F2C000801E911EF2CD83E093EE62E00F94F5F183
:10F2D0008AE192EE60E00F94C2F18091C00087FF56
:10F2E000FCCF1091C6001F751093C6008091C0001E
:10F2F00086FFFCCF8091C00080648093C0000F9493
:10F30000DCF1812F81548A3108F036C1163409F4BA
:10F3100095C0173490F4133409F44EC0143430F40B
