:10000000C9C10000F8C10000F6C10000F4C1000041
:10001000F2C10000F0C10000EEC10000ECC1000020
:10002000EAC10000E8C10000E6C10000E4C1000030
:10003000E2C10000E0C10000DEC10000DCC1000040
:10004000DAC100000C94151AD6C10000D4C100001A
:10005000D2C10000D0C10000CEC100000C94DC1859
:10006000CAC100000C94A6180C947C18C4C10000EE
:10007000C2C10000C0C10000BEC10000BCC1000080
:100080000C94C619B8C10000B6C10000B4C100008C
:10009000B2C10000B0C10000AEC10000ACC10000A0
:1000A000AAC10000A8C100000C947519A4C10000E9
:1000B000A2C10000A0C100009EC100000C9426193E
:1000C0009AC1000098C1000096C1000094C10000D0
:1000D00092C1000090C100008EC100008CC10000E0
:1000E0008AC10000084AD73B3BCE016E84BCBFFDED
:1000F000C12F3D6C74319ABD56833DDA3D00C77FF8
:1001000011BED9E4BB4C3E916BAAAABE0000008090
:100110003F05A84CCDB2D44EB93836A9020C50B91F
:10012000918688083CA6AAAA2ABE000000803F004B
:100130004E414E494E495459494E46CDCCCC3D0ACC
:10014000D7233C17B7D13877CC2B329595E6241FAF
:10015000B14F0A000020410000C84200401C462068
:10016000BCBE4CCA1B0E5AAEC59D7458012C017101
:100170000127018D012201AC011D01CD011801F201
:100180000113011A020E014602090176020401ABB5
:1001900002FF00E502FA002503F5006B03F000B949
:1001A00003EB000E04E6006C04E100D404DC00471D
:1001B00005D700C505D2005106CD00EB06C8009555
:1001C00007C3005008BE001F09B900020AB400FBB3
:1001D0000AAF000D0CAA00380DA5007F0EA000E2AA
:1001E0000F9B006311960002139100C0148C009BBA
:1001F00016870092188200A41A7D00CD1C78000991
:100200001F730053216E00A5236900FA2564004A7C
:10021000285F008F2A5A00C22C5500DE2E5000DDC8
:10022000304B00BB3246007434410008363C007548
:10023000373700BB383200DB392D00D83A2800B4FC
:100240003B2300703C1E00113D1900993D14000B2A
:100250003E0F006A3E0A00B93E0500F93E0000006C
:10026000002200250028002B002E0031003400025F
:10027000010000050108010B0100002000230026F9
:100280000029002C002F00320000010000030106AD
:1002900001090100000A0B02090C0D0E08070304F6
:1002A000010000000000000000000000000000004D
:1002B000000000000000000000000000000000122C
:1002C000111000000000000000000000000000000D
:1002D00000000000000000000000002100240027B2
:1002E000002A002D00300033000101000004010746
:1002F000010A0101021020200808102040102040AF
:1003000080020102010804020101020408102040D9
:1003100080804020100804020180040201804020F7
:100320001008040201080402010102040810204020
:100330008001020408102040800505050507050816
:10034000080808020202020A0A0808040404040158
:10035000010101010101010303030303030303047A
:100360000707070C0C0C0C0C0C0C0C02020202060A
:10037000060606060606060B0B0B0B0B0B0B0B7C7F
:100380003C3E5E2B3D3F2F5B5D3B2C2A225C0000F8
:10039000641A0C1F11241FBECFEFD1E2DEBFCDBF08
:1003A00000E00CBF26E0A8EDB2E001C01D92A7332B
:1003B000B207E1F712E0A0E0B2E0EEE4FDE400E015
:1003C0000BBF02C007900D92A83DB107D9F711E00D
:1003D000C9ECD1E000E006C021970109802FFE01A1
:1003E0000E944724C83CD10780E00807A9F70E9473
:1003F000F91A0C94962604CEAF92BF92CF92DF9258
:10040000EF92FF920F931F93CF93DF936C017B01C9
:100410008B01040F151FEB015E01AE18BF08C0175A
:10042000D10759F06991D601ED91FC910190F081CD
:10043000E02DC6011995892B79F7C501DF91CF9180
:100440001F910F91FF90EF90DF90CF90BF90AF90F2
:100450000895FC01538D448D252F30E0842F90E0CA
:10046000821B930B541710F0CF96089501970895AF
:10047000FC01918D828D981761F0A28DAE0FBF2F78
:10048000B11D5D968C91928D9F5F9F73928F90E0CE
:1004900008958FEF9FEF0895FC01918D828D98173D
:1004A00031F0828DE80FF11D858D90E008958FEF7A
:1004B0009FEF0895FC01918D228D892F90E0805C43
:1004C0009F4F821B91098F739927089588E095E0CB
:1004D000F1DF21E0892B09F420E0822F0895FC014F
:1004E000A48DA80FB92FB11DA35ABF4F2C91848D95
:1004F00090E001968F739927848FA689B7892C93F2
:10050000A089B1898C91837080648C93938D848D44
:10051000981306C00288F389E02D80818F7D808347
:100520000895EF92FF920F931F93CF93DF93EC0107
:1005300081E0888F9B8D8C8D98131AC0E889F9898A
:10054000808185FF15C09FB7F894EE89FF8960838D
:10055000E889F98980818370806480839FBF81E00E
:1005600090E0DF91CF911F910F91FF90EF90089550
:10057000F62E0B8D10E00F5F1F4F0F731127E02E2B
:100580008C8D8E110BC00FB607FCFACFE889F98964
:10059000808185FFF5CFCE01A2DFF2CFEB8DEC0F8E
:1005A000FD2FF11DE35AFF4FF0829FB7F8940B8F98
:1005B000EA89FB8980818062D0CFCF93DF93EC0101
:1005C000888D8823B1F0AA89BB89E889F9898C9143
:1005D00085FD03C0808186FD0CC00FB607FCF7CFF8
:1005E0008C9185FFF2CF808185FFEDCFCE0177DF43
:1005F000EACFDF91CF91089580E090E0892B21F040
:1006000065DF81110E94000080E090E0892B49F0B5
:1006100080E090E0892B29F00E94000081110E9467
:10062000000080E090E0892B49F080E090E0892B89
:1006300029F00E94000081110E94000080E090E0FB
:10064000892B49F080E090E0892B29F00E9400007E
:1006500081110C94000008958150823108F05AC035
:10066000E82FF0E08827E85CFC4F8F4F0C9447247C
:1006700058035C034A03500354038A035F03650372
:1006800069036F03730377037D0381038A03850383
:100690008B038F03809180008F7780938000089573
:1006A000809180008F7DF9CF80918000877FF5CF8A
:1006B00084B58F7784BD089584B58F7DFBCF8091FD
:1006C000B0008F778093B00008958091B0008F7D47
:1006D000F9CF809190008F7780939000089580915A
:1006E00090008F7DF9CF80919000877FF5CF80912A
:1006F000A0008F778093A00008958091A0008F7D47
:10070000F9CF8091A000877FF5CF809120018F776E
:10071000809320010895809120018F7DF9CF8091F1
:100720002001877FF5CFCF93DF93282F30E0F901A9
:10073000ED56FD4F8491F901ED50FD4FD491F90133
:10074000E75CFC4FC491CC2399F0811185DFEC2F3D
:10075000F0E0EE0FFF1FE758FD4FA591B491EC912B
:10076000ED2381E090E009F480E0DF91CF910895DE
:1007700080E090E0FACF1F93CF93DF93282F30E0F3
:10078000F901ED56FD4F8491F901ED50FD4FD491E3
:10079000F901E75CFC4FC491CC23A1F0162F811125
:1007A0005BDFEC2FF0E0EE0FFF1FE15AFD4FA5914C
:1007B000B4918FB7F894EC91111108C0D095DE2355
:1007C000DC938FBFDF91CF911F910895DE2BF8CF7F
:1007D000CF93DF9390E0FC01ED50FD4F2491875CB7
:1007E0009C4FFC0184918823C9F090E0880F991FE9
:1007F000FC01E752FD4FA591B491FC01E15AFD4F78
:10080000C591D49161110DC09FB7F8948C9120953A
:1008100082238C938881282328839FBFDF91CF91E7
:100820000895623051F49FB7F8943C91822F8095DF
:1008300083238C93E8812E2BEFCF8FB7F894EC9124
:100840002E2B2C938FBFEACF2FB7F8946091000323
:100850007091010380910203909103032FBF0895CB
:100860008FB7F8948091F6028FBF089561E0FC0184
:10087000848181DF8091F50281111092F502089543
:100880008EBD00000DB407FEFDCF8EB508958FEF2D
:10089000F7CF0F931F93CF93DF93EC01D5DF8B013D
:1008A000F6DF8F3F61F0D0DF601B710B6C177D07A7
:1008B000B8F380E0DF91CF911F910F91089581E00F
:1008C000F9CF8CBD9DBD0895CF93DF93EC0180914E
:1008D000F502811108C081E08093F5028091A505A1
:1008E0009091A605EEDF60E08C81DF91CF9143CF40
:1008F0008F929F92AF92BF92FF920F931F93CF93CD
:10090000DF93EC01F62E49015A018E81882379F09C
:100910008F8198859C012F5F3F4F38872F838230CE
:10092000924010F4B4DFF4CFCE01A0DF1E82CE01DE
:10093000CBDF8CE291E0ADDF8F2D8064A1DF08E199
:1009400010E0D501C401002E04C0B695A795979577
:1009500087950A94D2F794DF08501109083F8FEF6A
:10096000180779F785E9FF2021F028E087E8F212DF
:100970008FEF86DF10E08BDF8A8787FF04C01F3F81
:1009800011F01F5FF8CFDF91CF911F910F91FF9072
:10099000BF90AF909F908F900895AF92BF92CF92EB
:1009A000DF92EF92FF920F931F93CF93DF93EC01AF
:1009B0006901C801820F931F8130924048F58E81F2
:1009C000882379F088819981AA81BB818417950752
:1009D000A607B70731F48F819885C816D90608F0A5
:1009E0003CC0488359836A837B838B85833039F08D
:1009F00089E0440F551F661F771F8A95D1F79A012A
:100A0000AB0161E1CE0174DF882381F083E08D8347
:100A1000CE012CDF80E0DF91CF911F910F91FF90ED
:100A2000EF90DF90CF90BF90AF9008950DDF5B0106
:100A30002EDF8A878F3F59F407DF6A197B096D32F1
:100A40007140B0F38FE08D83CE0110DFE1CF8E3F98
:100A500081F418861F8281E08E838F8198858C15A2
:100A60009D0548F414DF8F819885019698878F83C0
:100A7000F4CF8DE0E8CF6701E00EF11E08DFF6014C
:100A800081936F01EE15FF05C9F78F819885080FD7
:100A9000191F18870F838985882319F001151240C3
:100AA00090F08E81882379F08F8198859C012F5F4B
:100AB0003F4F38872F838230924010F4E8DEF4CF26
:100AC000CE01D4DE1E8281E0A6CFEF92FF920F937B
:100AD0001F93CF93DF93EC01790182E1411551051A
:100AE0006105710591F08B85833039F089E0440F01
:100AF000551F661F771F8A95D1F79A01AB0168E1F0
:100B0000CE01F6DE882319F084E08D8328C08EEFB5
:100B1000B7DE87018EEFF81AF80181918F01B0DE00
:100B20000E151F05C9F78FEFABDE8FEFA9DEAFDE25
:100B30008A878F71853079F488E592E0AADE882370
:100B400091F020E030E0A9016DE0CE01D1DE8823F4
:100B500061F084E1DACF81E18D83CE0187DECE01C1
:100B600085DE80E008C085E1D0CF91DE8111F1CF34
:100B7000CE017CDE81E0DF91CF911F910F91FF903C
:100B8000EF900895CF93DF9380910503882399F127
:100B9000C0910605D091070540910D0250910E02BB
:100BA00060910F027091100226E033E0CE018DDFDC
:100BB000811104C080E0DF91CF9108954091F70248
:100BC0005091F8026091F9027091FA0241155105B5
:100BD0006105710571F026E033E0CE0176DF8823F0
:100BE00049F31092F7021092F8021092F902109253
:100BF000FA021092050381E0DECF8F929F92AF92AE
:100C0000BF92EF92FF920F931F93CF934B015C0122
:100C1000C42F80910D0290910E02A0910F02B0910D
:100C2000100288159905AA05BB0539F1ABDF8111C2
:100C30000BC080E0CF911F910F91FF90EF90BF907C
:100C4000AF909F908F90089586E0E82E83E0F82E75
:100C500000E012E030E020E0B501A401809106053B
:100C6000909107059ADE882321F380920D029092DD
:100C70000E02A0920F02B0921002409105034C2B7D
:100C80004093050381E0D6CF8F929F92AF92BF929F
:100C9000CF92DF92EF92FF92CF9327EA35E0309325
:100CA000070520930605882309F46BC040E060E047
:100CB00070E0CB01A2DF81110BC080E0CF91FF90EB
:100CC000EF90DF90CF90BF90AF909F908F9008955E
:100CD0008091C4048F7789F78091D0049091D104DA
:100CE000A091D204B091D30484369105A105B10539
:100CF00020F3C090CC04D090CD04E090CE04F090CE
:100D0000CF04C114D104E104F104B9F240E0C701F9
:100D1000B60173DF882389F2809111039091120349
:100D20008115924051F6A0911603AA2331F26091E9
:100D30001403709115036115710509F4BECF20915C
:100D40001303222309F4B9CFA093C5052093B70557
:100D500090E080E030E0E1E0F0E0C82FAF01082E45
:100D600002C0440F551F0A94E2F72417350769F0B3
:100D700041E0480F01968930910579F74093C0050D
:100D80009CCFC12CD12C7601C1CF8093C00520917E
:100D90001C0330911D0350E040E02115310541F462
:100DA00020912A0330912B0340912C0350912D0365
:100DB0002093B8053093B9054093BA055093BB050D
:100DC00046015701860E971EA11CB11C8092C605D4
:100DD0009092C705A092C805B092C905E09117038B
:100DE000F0911803F093CC05E093CB05B0E00E949E
:100DF000A421DC01CB01880D991DAA1DBB1D809388
:100E0000CD059093CE05A093CF05B093D00525E0F6
:100E1000EE0FFF1F2A95E1F7E150FE4FEF2FFF275E
:100E2000E6958E0F9F1FA11DB11D8093C105909364
:100E3000C205A093C305B093C40580901903909098
:100E40001A03B12CA12C8114910441F48090260343
:100E500090902703A0902803B0902903C81AD90ABC
:100E6000EA0AFB0AC80CD91CEA1CFB1C04C0F69455
:100E7000E794D794C794CA95D2F7C092BC05D09294
:100E8000BD05E092BE05F092BF0585EFC8168FE064
:100E9000D806E104F10428F48CE08093CA0581E0CF
:100EA0000DCF80E125EFC2162FEFD206E104F10449
:100EB000A0F38091320390913303A0913403B09159
:100EC00035038093CD059093CE05A093CF05B093C5
:100ED000D00580E2E2CF4F925F926F927F928F9225
:100EE0009F92AF92BF92CF92DF92EF92FF920F93B9
:100EF0001F93CF93DF93EC014230510561057105DB
:100F000090F480E0DF91CF911F910F91FF90EF90CF
:100F1000DF90CF90BF90AF909F908F907F906F9019
:100F20005F904F90089589859A85AB85BC85019621
:100F3000A11DB11D84179507A607B70710F3CB882D
:100F4000DC88ED88FE888F89803109F042C0BB279C
:100F5000A72F962F852F480159012A013B01C80E62
:100F6000D91EEA1EFB1E80910D0290910E02A091E7
:100F70000F02B0911002C816D906EA06FB0699F5D1
:100F80008F898031B9F5B301A201552766277727EC
:100F9000440F551F4A5F5C4FFA0191828082809115
:100FA00005038160809305038A89823080F08D81FA
:100FB0009E81AF81B8858C0D9D1DAE1DBF1D809398
:100FC000F7029093F802A093F902B093FA0281E03D
:100FD00099CFDB01CA01E7E0B695A795979587956C
:100FE000EA95D1F7B8CF40E0C701B60106DE81111E
:100FF000C7CF87CFB301A2014F7755276627772741
:10100000440F551F440F551F4A5F5C4FFA01808201
:101010009182A282B382C3CF8F929F92AF92BF92EE
:10102000CF92DF92EF92FF920F931F93CF93DF93B4
:10103000FC0181859285A385B4850196A11DB11D12
:1010400084179507A607B70770F480E0DF91CF916A
:101050001F910F91FF90EF90DF90CF90BF90AF90D6
:101060009F908F90089583889488A588B6888789F3
:10107000803189F5BB27A72F962F852FE9016A01BB
:101080007B018F01BC01CD01680D791D8A1D9B1D5F
:1010900080900D0290900E02A0900F02B09010026E
:1010A00086169706A806B90601F5F80187898031EA
:1010B00009F5DD24EE24FF24F601EE0FFF1FEA5FA1
:1010C000FC4F80819181B0E0A0E088839983AA835E
:1010D000BB8381E0BBCFDB01CA01C7E0B695A79512
:1010E00097958795CA95D1F7C9CF40E086DD8111E4
:1010F000DCCFABCFE894C7F8DD24EE24FF24F60163
:10110000EE0FFF1FEE0FFF1FEA5FFC4F8081918102
:10111000A281B381BF70D9CF4F925F926F927F92BD
:10112000AF92BF92CF92DF92EF92FF920F931F93F5
:10113000CF93DF9300D01F92CDB7DEB78C014983E8
:101140005A836B837C835901C12CD12C7601412CAD
:1011500082E0582E612C712C49815A816B817C81EF
:101160009E012F5F3F4FC80157DF882339F1F801F7
:101170008585A301920104C0220F331F441F551F10
:101180008A95D2F7DA01C901C80ED91EEA1EFB1EE4
:1011900049815A816B817C818789803111F188EF87
:1011A0009FEFAFEFBFE0481759076A077B07A0F230
:1011B000F501C082D182E282F38281E00F900F902C
:1011C0000F900F90DF91CF911F910F91FF90EF90B3
:1011D000DF90CF90BF90AF907F906F905F904F90D7
:1011E000089588EF9FEFA0E0B0E0DDCFCF93DF93CD
:1011F000FC012581222321F080E0DF91CF91089529
:10120000EC018091CA05803159F582E08583178A07
:10121000108E118E128E8091CB059091CC05B0E08E
:10122000A0E025E0880F991FAA1FBB1F2A95D1F7C0
:10123000838B948BA58BB68B83EB95E09C8F8B8FE8
:1012400081E08C831E821F82188619861A861B866F
:101250001C861D861E861F86188A198A1A8ACDCF7B
:10126000803251F683E085834091CD055091CE05C3
:101270006091CF057091D005478B508F618F728F31
:101280009F012D5E3F4F83EB95E046DF8111D4CF68
:10129000B3CF8F929F92AF92BF92CF92DF92EF9295
:1012A000FF920F931F93CF93DF93EC018D818111F8
:1012B0000EC080E0DF91CF911F910F91FF90EF90D2
:1012C000DF90CF90BF90AF909F908F9008950B8943
:1012D0001C892D893E89041715072607370748F30F
:1012E0004A015B01823031F48A869B86AC86BD86DA
:1012F00081E0E0CF81149104A104B10449F41E827D
:101300001F82188619861A861B861C861D86F0CFBA
:101310000A851B852C853D85EB8DFC8D858590E0B0
:101320000996B901A8014150510961097109082EB6
:1013300004C076956795579547950A94D2F775013D
:101340006401E1E0CE1AD108E108F10804C0F69486
:10135000E794D794C7948A95D2F7C416D506E606C3
:10136000F70620F0012B022B032B09F58F89988DAE
:10137000A98DBA8D8E839F83A887B9878E010A5F56
:101380001F4FC114D104E104F10409F4ADCF4E8123
:101390005F816885798598018B8D9C8D3DDE91E01C
:1013A000C91AD108E108F1088111EBCF82CFC41A24
:1013B000D50AE60AF70AE2CF3F924F925F926F9208
:1013C0007F928F929F92AF92BF92CF92DF92EF92D5
:1013D000FF920F931F93CF93DF93CDB7DEB72C9778
:1013E0000FB6F894DEBF0FBECDBF5C01DC015B968B
:1013F0008D909C905C9716964D905D906D907C9032
:101400001997411451046104710409F467C0BFEFD6
:101410004B1A5B0A6B0A7B0A312CF4018185928599
:10142000A385B4859C01AD012F5F3F4F4F4F5F4FA8
:1014300029873A874B875C87730162011D821E8270
:101440001F821886F40181859285A385B4852D813C
:101450003E814F815885281739074A075B0708F0F6
:1014600054C089859A85AB85BC858C159D05AE05D4
:10147000BF0550F482E0C82ED12CE12CF12C92E073
:10148000492E512C612C712C9E012F5F3F4FB701CB
:10149000A601C401C1DD8823C1F189819A81AB8194
:1014A000BC81892B8A2B8B2B09F1260137019FEFF9
:1014B000491A590A690A790A2D813E814F81588556
:1014C0002F5F3F4F4F4F5F4F2D833E834F83588792
:1014D0003FEFC31AD30AE30AF30AB4CFF401408002
:1014E0005180628073803324339497CFC414D50421
:1014F000E604F70409F70FEF1FEF2FEF3FE0B70106
:10150000A601C401E8DC811119C080E02C960FB659
:10151000F894DEBF0FBECDBFDF91CF911F910F9129
:10152000FF90EF90DF90CF90BF90AF909F908F9003
:101530007F906F905F904F903F900895F5014681A6
:10154000578160857185411551056105710531F03F
:1015500097018601C401BFDC8823B9F2D501169634
:10156000CD92DD92ED92FC921997332051F0D70184
:10157000C6010196A11DB11DF40180839183A28350
:10158000B383F5018789908DA18DB28D892B8A2B2C
:101590008B2B39F4C78AD08EE18EF28E84818068DD
:1015A000848381E0B3CFCF93DF93EC018D818823D7
:1015B00079F18C8187FF29C06E857F85888999891B
:1015C00041E01BDB882321F1EA8980E2E89FF001FA
:1015D0001124EA5FFC4F3097D9F08D81823040F4BE
:1015E0008B899C89AD89BE89848F958FA68FB78F93
:1015F0008F89988D938F828F8F89988DA98DBA8DC1
:10160000B58BA48B8C818F778C83DF91CF91BACAF5
:1016100080E0DF91CF910895CF93DF93EC01C3DF9A
:10162000882311F01D8281E0DF91CF9108952F92E0
:101630003F924F925F926F927F928F929F92AF9262
:10164000BF92CF92DF92EF92FF920F931F93CF93AF
:10165000DF9300D01F92CDB7DEB78C015B011A017A
:10166000DC0115968C911597813009F0C5C0149650
:101670008C9181FFC1C082FDACC06101D8011A9676
:101680004D915D916D917C911D97C114D10409F428
:1016900023C15B968D919C915C97FC0174802FEF28
:1016A000270D2A013B0139E07694679457944794BB
:1016B0003A95D1F7722E74207A01F1E0FF22711071
:1016C0001FC0E114F104E1F416964D915D916D9106
:1016D0007C911997411551056105710509F095C077
:1016E00057968D919D910D90BC91A02D0097A105CD
:1016F000B10509F0ABC0C8015FDE882309F47CC0E6
:1017000080E092E08E199F0946018C159D0508F432
:101710004C01D8015B964D915C915C9716968D912A
:101720009D910D90BC91A02D0297A109B109FA01DC
:10173000258504C0880F991FAA1FBB1F2A95D2F7C1
:101740004685578560897189840F951FA61FB71F2D
:101750009C01AD01270D311D411D511D29013A018B
:10176000811432E0930609F077C080910D029091C8
:101770000E02A0910F02B091100284159505A605E6
:10178000B70559F48FEF9FEFDC0180930D02909322
:101790000E02A0930F02B09310029501B301A201B3
:1017A000809106059091070590D9882329F19EEF35
:1017B000B91AC818D908F80182859385A485B5851A
:1017C000880D991DA11DB11D82879387A487B587B8
:1017D00055CFF80143895489658976898285938537
:1017E000A485B585481759076A077B0709F445CFD3
:1017F000C8014FDD811141CF81E090E0D8011396FF
:101800009C938E93129780E006C09E012F5F3F4FFE
:1018100003DC811102C090E075C089819A81AB819F
:10182000BC81F801238D348DF901278948EF5FEFE2
:1018300060E070E0203121F048EF5FEF6FEF7FE074
:1018400084179507A607B70708F055CFF8018683D8
:101850009783A087B18754CFE114F10489F5D801AB
:101860001A964D915D916D917C911D9753968D9136
:101870009D910D90BC91A02D481759076A077B07D1
:10188000F8F080D9882309F4B7CF40920D02509226
:101890000E0260920F027092100280910503816027
:1018A0008093050397012A5F3C4FD501C901880D3C
:1018B000991DF9018E179F0751F04D914193FACF71
:1018C00041E0C301B20199D98111ECCF95CF821BC0
:1018D000930BA80EB91E6DCFF80183899489A58951
:1018E000B68984179507A607B70738F48481438B18
:1018F000548B658B768B80688483F801848183FDAB
:1019000018C0C1010F900F900F900F90DF91CF91F1
:101910001F910F91FF90EF90DF90CF90BF90AF900D
:101920009F908F907F906F905F904F903F902F90FF
:101930000895C80138DE882309F45ECFE2CFCF9343
:10194000DF931F92CDB7DEB7698341E050E0BE015F
:101950006F5F7F4F6CDE0F90DF91CF910895FC0198
:10196000DB0112968D919C911397938382838FE272
:1019700092E09183808314968C91149784831596BA
:101980008C911597858316964D915D916D917C9103
:10199000199746835783608771871A964D915D9199
:1019A0006D917C911D9742875387648775871E963A
:1019B0004D915D916D917C91519746875787608BD2
:1019C000718B52968C915297828B53964D915D916B
:1019D0006D917C915697438B548B658B768B579684
:1019E0004D915D916D917C915A97478B508F618F8E
:1019F000728F5B968D919C91948F838F089508953B
:101A0000FC01818D928D009709F0CDCD0895DC0108
:101A10005996ED91FC913097B9F083899489A58905
:101A2000B6894285538564857585841B950BA60B05
:101A3000B70B811520E89207A105B10538F08FEFAB
:101A40009FE7A0E0B0E0089590E080E00895CF9394
:101A5000DF93EC01E98DFA8D309749F481E090E055
:101A60009B838A8390E080E0DF91CF910895138279
:101A70001282898D9A8DDBDDE98DFA8D2281338189
:101A8000232B61F7F1CFCF93DF931F92CDB7DEB752
:101A90006983DC01ED91FC910280F381E02D41E04E
:101AA00050E0BE016F5F7F4F19950F90DF91CF918E
:101AB00008952F923F924F925F926F927F928F92F2
:101AC0009F92AF92BF92CF92DF92EF92FF920F93CD
:101AD0001F93CF93DF9300D0CDB7DEB7FC01858194
:101AE000811118C08FEF9FEF0F900F900F90DF9133
:101AF000CF911F910F91FF90EF90DF90CF90BF900B
:101B0000AF909F908F907F906F905F904F903F909D
:101B10002F900895848180FFE5CF4389548965899A
:101B2000768982859385A485B585312C212C48172B
:101B300059076A077B0719F022242394312C6F017F
:101B40002101CE0101963C01DF011696BB83AA83D9
:101B50004114510409F4C3C0F601428553856485DC
:101B600075854A01F1E09F22D6015B968D919C918B
:101B70005C978A019B01E9E03695279517950795B3
:101B8000EA95D1F71596EC91E230E1F5FC01628D12
:101B9000738D848D958D600F711F821F931FA12CF3
:101BA00022E0B22EA818B9084A145B0408F45201C6
:101BB000F601248126FD04C0A114F2E0BF0671F4F1
:101BC00000910D0210910E0220910F02309110022F
:101BD000061717072807390709F05CC040E00DD841
:101BE000882309F47FCFC4018A5F9C4FD3019C01F5
:101BF0002A0D3B1DFC012E173F0709F46BC04191D4
:101C00004D93F9CFDC011496BC90BA94B0228114A4
:101C1000910479F4B1100DC0452B462B472B69F583
:101C2000F6018789908DA18DB28D86839783A087D9
:101C3000B187D6015B96ED91FC915C9716966D91FC
:101C40007D918D919C91199762507109810991093B
:101C5000258504C0660F771F881F991F2A95D2F724
:101C60000685178520893189600F711F821F931F98
:101C70006B0D711D811D911D92CFD60116964D9150
:101C80005D916D917C9119972A813B81C5D9811114
:101C9000D0CF28CF730185019401AB01BC018091A5
:101CA0000605909107050E94CD04882309F41ACFF8
:101CB0006A0C7B1CF60182859385A485B5858A0D07
:101CC0009B1DA11DB11D82879387A487B5874A18E4
:101CD0005B083ECF281B390B620E731EEBCF2A9494
:101CE000232809F0FFCE898190E0FECEFC01818D92
:101CF000928D009709F0DDCE8FEF9FEF08950F933F
:101D00001F930E9424046093FC057093FD0580934B
:101D1000FE059093FF0584EF95E0E8DF97FF1DC077
:101D20000E9424040091FC051091FD052091FE0500
:101D30003091FF05601B710B820B930B0091F8052E
:101D40001091F9052091FA053091FB056017710794
:101D50008207930700F38FEF9FEF1F910F91089574
:101D60000F931F93CF93DF93EC01898D9A8D10E031
:101D700000E0009789F09DDE8C010F3F100761F0B5
:101D8000898D9A8DFC014285538564857585415006
:101D90005109610971097DDAC801DF91CF911F9165
:101DA0000F91089590E080E00895FF920F931F93A4
:101DB000CF93DF9380910302882309F4A6C080911A
:101DC0000402882309F4A1C080910602882309F443
:101DD0009CC08091150690911606019609F495C055
:101DE000E0911106F091120680819181880F991F70
:101DF0009093DB028093DA0285819681880F991F88
:101E00009093DF028093DE0282859385880F991F6D
:101E10009093E3028093E20287859089880F991F4F
:101E20009093E7028093E6026281F780F0920202CB
:101E3000048500930502118910930102C381D481A6
:101E4000D0933006C0932F068085918590932E06FF
:101E500080932D068289938990932C0680932B067C
:101E600087E30E94BB036F2D8DE30E94BB03602FAD
:101E700080E30E94BB03612F82E20E94BB03D093E8
:101E80008900C093880080912D0690912E06909332
:101E900099008093980080912B0690912C06909346
:101EA00029018093280110920302109204021092DB
:101EB000060244E150E030E020E080911506909168
:101EC000160682179307ACF02F5F3F4F82179307D8
:101ED00084F0E0911106F0911206E40FF51FDF0186
:101EE000549784E101900D928A95E1F74C5E5F4F23
:101EF000E4CF0197909316068093150682E08093B5
:101F00006F008093710080937300DF91CF911F91D8
:101F10000F91FF900895CF93883789F0C62F8937A6
:101F200044F4813609F1853641F461E06C2788E19B
:101F300009C0893751F08A3761F0CF910895C1E027
:101F40006C2786E2CF910C94BB0361E06C2788E399
:101F5000F9CF61E0C627C09300026C2F8EE30E9488
:101F6000BB036C2F8EE1EECF88E7D5DF6C2F89E7BE
:101F7000D2DF6C2F8AE7CFDFD8CF0F931F93CF9399
:101F8000DF93EC0180E2689FF0011124EA5FFC4FCF
:101F90006A8B80910D0290910E02A0910F02B09178
:101FA00010028E879F87A88BB98B0489158930E032
:101FB00020E09801112700270F8B188F298F3A8F67
:101FC000828D938DB0E0A0E0AC01BD01402B512B80
:101FD000622B732B4F8B588F698F7A8F8385887113
:101FE000A9F4848D958DA68DB78D8B8B9C8BAD8B35
:101FF000BE8B81E08D8381E08C831E821F821886D8
:1020000019861A861B861C861D8603C0803131F016
:1020100080E0DF91CF911F910F9108959E012D5E79
:102020003F4F8B8D9C8D78D8882391F384E0E2CF4D
:10203000FC0101900020E9F73197AF01481B590BD3
:10204000BC0188E095E00C94FC018F929F92AF92C6
:10205000BF920F931F93CF93DF93CDB7DEB7A197B6
:102060000FB6F894DEBF0FBECDBF19A2423008F400
:102070004AE08E010F5D1F4F842E912CB12CA12CB4
:10208000A50194010E940924E62FB901CA01EA3092
:10209000ECF4E05DD801EE938D01232B242B252B4E
:1020A00079F790E080E0109711F0CD01C1DFA196A3
:1020B0000FB6F894DEBF0FBECDBFDF91CF911F9159
:1020C0000F91BF90AF909F908F900895E95CE2CF01
:1020D000CF93DF93ADDFEC0181E592E0A9DF8C0FB8
:1020E0009D1FDF91CF9108954F925F926F927F92E3
:1020F0008F929F92AF92BF92CF92DF92EF92FF9218
:102100006B017C01AC019B010E94E5238823B1F0A7
:1021100084E592E08DDF7C0181E592E089DF8E0D20
:102120009F1DFF90EF90DF90CF90BF90AF909F905A
:102130008F907F906F905F904F9008954601570168
:10214000E894B7F82FEF3FEF4FE75FE7C501B40121
:102150000E94E52381110DC02FEF3FEF4FE75FE7AE
:10216000C501B4010E94882018161CF488E592E08D
:10217000D1CF2FEF3FEF4FE75FE4C701B6010E94D9
:10218000D12318161CF48CE592E0C4CF2FEF3FEF5B
:102190004FE75FECC701B6010E94882087FDF3CFAF
:1021A00020E030E0A901C701B6010E948820B12CCF
:1021B000A12C87FF0AC06DE288E095E00E949102A1
:1021C0005C01F7FAF094F7F8F0942AE037ED43EA6F
:1021D0005BE3C701B6010E94BE212B013C010E94B6
:1021E000F4226B017C010E948C209B01AC01C30195
:1021F000B2010E94BD212B013C014AE0C701B6019A
:1022000024DF7C01EA0CFB1C6EE288E095E00E9472
:102210009102E80EF91E20E030E040E251E4C301F3
:10222000B2010E94ED202B013C010E94F4224B01DF
:10223000B12CA12C4AE0C501B40107DFE80EF91E5C
:10224000C501B4010E948C209B01AC01C301B20105
:102250000E94BD2120E030E040E251E40E94ED20E8
:102260000E94F42290E080E04AE0EFDEE80EF91EE2
:1022700053CFCF92DF92EF92FF92CF93DF936C0117
:10228000990FEE08FF08F7FE1DC06DE288E095E0AB
:102290000E949102EC0166277727CB016C197D091A
:1022A0008E099F094AE0D1DEC80FD91F81E592E06F
:1022B000BFDE8C0F9D1FDF91CF91FF90EF90DF90DD
:1022C000CF9008954AE0C701B601BFDEEC01EECF22
:1022D000AF92BF92CF92DF92EF92FF920F931F9334
:1022E000CF93DF9300D000D000D01F921F92CDB7C4
:1022F000DEB76C01FE013196CE010C967F0120E223
:102300002193E817F907E1F7DA0120E037E09D9122
:10231000B92E9923A9F19E32B9F43A3091F480E0B4
:102320002B960FB6F894DEBF0FBECDBFDF91CF91D5
:102330001F910F91FF90EF90DF90CF90BF90AF90E3
:10234000089528E03AE0E3CFEFE7F3E084918823B3
:1023500021F031969813FACFE2CF321700F38FEDC8
:10236000890F8E35E0F68FE9890F8A3118F440EE37
:10237000B42EB90EF701E20FF11DB0822F5FC7CF67
:102380008981803261F28B01FB01838D948DF6018E
:10239000948F838FFB011682178210861186128616
:1023A000138614861586F80182859385A485B585E4
:1023B000438954896589768984179507A607B707E5
:1023C00008F0ADCF25E0B695A795979587952A9506
:1023D000D1F7F82FFF70AF2EF8018581823008F415
:1023E0009ECFC80166DB97FD9ACFF8018285938561
:1023F000A485B5854F96A11DB11D82879387A487BB
:10240000B587F0E2AF9EB00111246A5F7C4F611581
:10241000710509F484CFFB018081882301F1853E99
:1024200019F4B11031C01DC04BE050E0C7010E944B
:102430005026892B09F0B7CF6A2DC6012B960FB60F
:10244000F894DEBF0FBECDBFDF91CF911F910F91EA
:10245000FF90EF90DF90CF90BF90AF908ECDB110F6
:102460005ECFF601A28A80910D0290910E02A0919A
:102470000F02B091100286879787A08BB18BFB016A
:102480008081882309F44BCFBB24B3948CCFFC010B
:10249000808191810C94EB242DE432E0FC013183A6
:1024A000208382819381009711F00C94EB2408958E
:1024B000CF93DF93EC01F0DFCE01DF91CF910C944D
:1024C000EB240F931F93CF93DF93EC0188819981C5
:1024D000009759F02A813B812617370730F081E0B9
:1024E000DF91CF911F910F9108958B016F5F7F4F07
:1024F0000E947425009759F0998388831B830A836F
:102500002C813D81232B59F7FC011082E8CF80E01C
:10251000E7CFEF92FF920F931F93CF93DF93EC01DE
:102520007B018A01BA01CDDF28813981811114C074
:102530002115310519F0C9010E94EB241982188276
:102540001D821C821B821A82CE01DF91CF911F91C6
:102550000F91FF90EF9008951D830C83B701C9017F
:102560000E946626F1CFFB01DC0111961C921E929F
:1025700013961C921E92129715961C921E921497F7
:102580008617970741F0608171816115710519F017
:1025900044815581BECF0895FC01118210821382BF
:1025A000128215821482FB0101900020E9F7319715
:1025B000AF01461B570BADCFEF92FF920F931F93C6
:1025C000CF93DF93EC017B018A011B821A8288EE94
:1025D00093E0A0E0B0E08C839D83AE83BF838BE368
:1025E00092E0998388838DE190E00E944F249A8F36
:1025F000898F009779F02DE1F701DC0101900D92B0
:102600002A95E1F74CE050E0B801CE010C960E940B
:102610006D26188EDF91CF911F910F91FF90EF9053
:1026200008956F927F928F929F92AF92BF92CF92B6
:10263000DF92EF92FF920F931F93CF93DF9300D01F
:1026400000D0CDB7DEB7FC01848095808114910461
:1026500009F499C0FB013C01A080B180FC01E0803D
:10266000F180B501C7010E947C26009709F48BC058
:102670008C010E191F090F3F100709F484C068016F
:102680000815190508F083C0F701E00FF11FE114E8
:10269000F10421F41092E802E8EEF2E08081803249
:1026A00009F475C00F5F1F4FEACF8E199F097C0197
:1026B0002FEFE21AF20A0E151F0528F49E2D8F2D1A
:1026C0007801C92ED82E63E572E0CE01019664DF51
:1026D000F30104811581E016F10618F5C016D10644
:1026E00008F48601F30160817181FB01E00FF11FA5
:1026F000D08010826E0D7F1D61157105B9F1FB014F
:1027000001900020E9F73197AF01461B570BCE012E
:102710000196FFDEF30180819181080F191FF801F6
:10272000D08289819A81C12CD12C7601009721F029
:102730000E94101F6B017C01CE010196A8DEC7012B
:10274000B60126960FB6F894DEBF0FBECDBFDF915F
:10275000CF911F910F91FF90EF90DF90CF90BF909E
:10276000AF909F908F907F906F90089589819A810C
:10277000009711F00E94EB241A8219821E821D829A
:102780001C821B82C7CFC12CD12C7601D8CFB501BA
:10279000C7010E947C26009709F087CF8FEF9FEF3B
:1027A00086CF2F923F924F925F926F927F928F923D
:1027B0009F92AF92BF92CF92DF92EF92FF920F93D0
:1027C0001F93CF93DF93CDB7DEB7EB970FB6F89497
:1027D000DEBF0FBECDBF63E572E0CE014B96DCDEFF
:1027E0008EDA97FD1DC08A309105D1F089831A8257
:1027F0000F8D18A10F5F1F4FB801CE014B9661DE00
:10280000882371F32B8D3C8D8F8D98A1BE016F5F56
:102810007F4F820F931F0E94662618A30F8FE0CF71
:1028200060E672E0CE014596B7DEBE01655E7F4F81
:10283000CE01019698DEBE016B5E7F4FCE01019600
:10284000F0DE0E94EF227CA76BA7CE0101961FDE6F
:10285000CE0145961CDE2BA53CA52130310509F0A3
:102860003EC462E672E0CE01459696DEBE01655E2C
:102870007F4FCE01019677DEBE016B5E7F4FCE01AA
:102880000196CFDE69A37AA38BA39CA3CE01019608
:10289000FEDDCE014596FBDD64E672E0CE01459695
:1028A0007BDEBE01655E7F4FCE0101965CDEBE0120
:1028B0006B5E7F4FCE010196B4DE4B015C01CE0111
:1028C0000196E5DDCE014596E2DD66E672E0CE01D9
:1028D000459662DEBE01655E7F4FCE01019643DE06
:1028E000BE016B5E7F4FCE0101969BDECE0101964D
:1028F000CEDDCE014596CBDD68E672E0CE01459691
:102900004BDEBE01655E7F4FCE0101962CDEBE011F
:102910006B5E7F4FCE01019684DE6B017C01CE01A0
:102920000196B5DDCE014596B2DD6AE672E0CE01D4
:10293000459632DEBE01655E7F4FCE01019613DE05
:10294000BE016B5E7F4FCE0101966BDE2B013C0119
:10295000CE0101969CDDCE01459699DDC301B20101
:102960000E94EF226DAB7EAB8FAB98AF4DA95EA9F5
:102970005AAF49AF20E030E0A90169A17AA18BA14B
:102980009CA10E948820882319F12091F1023091A6
:10299000F2024091F3025091F40269A17AA18BA155
:1029A0009CA10E94BD21362F272F49A15AA16BA1BE
:1029B0007CA14093F1025093F2026093F302709372
:1029C000F402432F522FBC0149A35AA36BA37CA34B
:1029D00020E030E0A901C501B4010E9488208823CD
:1029E000B1F02091ED023091EE024091EF02509152
:1029F000F002C501B4010E94BD218092ED029092C7
:102A0000EE02A092EF02B092F0024B015C0120E0D6
:102A100030E0A901C701B6010E9488208823B1F0E7
:102A20002091E9023091EA024091EB025091EC02D0
:102A3000C701B6010E94BD21C092E902D092EA020C
:102A4000E092EB02F092EC026B017C0120E030E0BE
:102A500048EC52E469A17AA18BA19CA10E94ED20CF
:102A60006DA37EA38FA398A720E030E0A9010E9468
:102A7000D12318160CF075C120E030E040E05FE390
:102A80006DA17EA18FA198A50E94BE210E94EF2278
:102A90007CAB6BAB20E030E048EC52E4C501B40104
:102AA0000E94ED202B013C0120E030E0A9010E94B2
:102AB000D12318160CF060C120E030E040E05FE365
:102AC000C301B2010E94BE210E94EF227AAB69AB22
:102AD00020E030E04CED52E4C701B6010E94ED2049
:102AE0002B013C0120E030E0A9010E94D1231816FF
:102AF0000CF04BC120E030E040E05FE3C301B201E5
:102B00000E94BE210E94EF2278AB6FA720E030E048
:102B1000A90169A17AA18BA19CA10E948820881F8C
:102B20008827881F11E081278BAF20E030E0A901C2
:102B3000C501B4010E948820881F8827881F082F9C
:102B4000012720E030E0A901C701B6010E948820DA
:102B5000881F8827881F182769AD7AAD62307105F4
:102B600044F12DA93EA9B901330F880B990B0E949E
:102B70008E2020E030E040E752E40E94872220E0EF
:102B800030E048EC52E40E94ED209B01AC0160E093
:102B900074E284E799E40E9487229B01AC010E94C1
:102BA000BE210E94EF227093120260931102CB01AA
:102BB00060DB20E030E0A90169A17AA18BA19CA192
:102BC0000E948820882309F4A1C12090110230902E
:102BD000120220E030E0A901C501B4010E94882062
:102BE000882309F4E3C0A501940169A17AA18BA10E
:102BF0009CA10E9431224B015C010E9484222B0186
:102C00003C01B101330C880B990B0E948E206B01A3
:102C10007C01AC019B01C301B2010E94ED202B019C
:102C20003C0120E030E0A9010E94D12318160CF0ED
:102C3000B5C0C301B2010E94EF221B01C501B4015E
:102C40000E94DC239B01AC01C701B6010E94ED206C
:102C50006B017C0120E030E0A9010E94D12318160D
:102C60000CF0A0C0C701B6010E94EF227EA76DA79D
:102C70001AA619A64BA95CA95A8349835BAD5B834D
:102C80003D822C8269A97AA97F836E8308878DA5EE
:102C90009EA59A8789872FA538A9398B288B1A8BEF
:102CA00049A55AA55C8B4B8B2091150630911606D1
:102CB000A9014E5F5F4FE0901106F09012068091DF
:102CC0001306909114068E199F09959587959595F1
:102CD0008795EDECFCEC8E9FB0018F9F700D9E9F51
:102CE000700D1124641775070CF080C1C90101969D
:102CF000880F991F841795070CF4CA012817390704
:102D00003CF09C01215031093093160620931506A2
:102D100024E1289F8001299F100D112487369640B9
:102D200008F450C18FEF9FEF0E944F246C01080FF1
:102D3000191FA0901506B0901606970150E040E0CC
:102D4000A416B5060CF440C164E1F901DC01019060
:102D50000D926A95E1F74F5F5F4F2C5E3F4F4496AF
:102D6000EFCF2DA13EA14FA158A560E070E080E01B
:102D70009FE30E94BD218ACEA301920160E070E032
:102D800080E09FE30E94BD219FCEA301920160E0FD
:102D900070E080E09FE30E94BD21B4CEC301B20188
:102DA000905849CFC701B60190585ECF20E030E07F
:102DB000A901C701B6010E948820882309F45ACFCF
:102DC0002101032C000C6608770820E030E0A901FF
:102DD00069A17AA18BA19CA10E94D12318160CF0A5
:102DE00089C06DA17EA18FA198A50E94EF2224E643
:102DF00030E040E050E00E942B24CA01B901A30159
:102E000092010E94FA2397FF07C0909580957095D4
:102E100061957F4F8F4F9F4F0E948E204B015C0129
:102E200020E030E0A901C701B6010E94D123A7012B
:102E3000960118160CF05058C501B4010E94872263
:102E40000E94EF224B017AA769A78CE692E0F0D8A6
:102E5000C1010FDA87E792E0EBD8C4010ADA82E811
:102E600092E0E6D869A17AA18BA19CA13DD98AE81C
:102E700092E0DED8C701B60137D982E992E0D8D80E
:102E80006DA17EA18FA198A50E9420234B015C011A
:102E900020E030E048EC52E4C701B6010E94ED208A
:102EA0000E9420236B017C01C301B2010E948E208D
:102EB0002B013C0120E030E048EC52E4C501B401B4
:102EC0000E9487229B01AC01C301B2010E94ED2048
:102ED0004B015C0120E030E048EC52E4C701B60150
:102EE0000E9487229B01AC01C501B4010E94872288
:102EF000FBD8C0CE20E030E048EC52E469A17AA1D2
:102F00008BA19CA190580E94ED206FCF20E030E073
:102F1000A901C501B4010E948820882309F4AACE22
:102F200040911102509112025EA74DA720E030E0BF
:102F3000A901C701B6010E948820882309F49ACE0E
:102F40002DA53EA5B901330F880B990B0E948E2049
:102F50002B013C0120E030E0A901C501B4010E9431
:102F6000D123181624F0B7FAB094B7F8B094A5019D
:102F70009401C301B2010E94ED204B015C0120E0ED
:102F800030E0A9010E94D123181624F0B7FAB094BA
:102F9000B7F8B09420E030E0A901C701B6010E9463
:102FA000D123181624F0F7FAF094F7F8F094A7015B
:102FB0009601C501B4010E9487220E94EF227AA7E0
:102FC00069A758CEC801B0CEE114F10419F0C701C9
:102FD0000E94EB24D0921206C092110610931406A0
:102FE00000931306B0921606A09215068091110662
:102FF00090911206409115065091160620911306E5
:1030000030911406281B390B359527953595279552
:10301000EDECFCEC2E9FB0012F9F700D3E9F700DCC
:103020001124641B750B623071052CF49B01215037
:1030300031093CA72BA724E1F22E6BA57CA5F69EB7
:103040008001F79E100D11244F5F5F4FF49E900199
:10305000F59E300D1124A801BE016F5F7F4F820FD6
:10306000931F0E945D2681E090E02BA53CA5821B6A
:10307000930BF89EA001F99E500D112461E070E0C1
:103080006C0F7D1F600F711F8091110690911206C9
:103090000E945D26809115069091160601969093E8
:1030A000160680931506CE014B96F1D9EB960FB616
:1030B000F894DEBF0FBECDBFDF91CF911F910F916E
:1030C000FF90EF90DF90CF90BF90AF909F908F9048
:1030D0007F906F905F904F903F902F9008954F8D0D
:1030E00058A16B8D7C8D88E095E00E94FC0181E504
:1030F00092E00E941810D7CF1F920F920FB60F9236
:1031000011240BB60F922F933F934F935F936F93BE
:103110007F938F939F93AF93BF93EF93FF9388E039
:1031200095E00E946F02FF91EF91BF91AF919F9147
:103130008F917F916F915F914F913F912F910F9060
:103140000BBE0F900FBE0F901F9018951F920F92FD
:103150000FB60F9211240BB60F922F938F939F935C
:10316000EF93FF93E0911805F09119058081E091AC
:103170001E05F0911F0582FD1DC0908180912105E3
:103180008F5F8F7320912205821741F0E091210516
:10319000F0E0E85FFA4F958F80932105FF91EF9162
:1031A0009F918F912F910F900BBE0F900FBE0F909C
:1031B0001F9018958081F2CF1F920F920FB60F9239
:1031C00011242F933F938F939F93AF93BF9380913D
:1031D000000390910103A0910203B0910303309189
:1031E000FF0223E0230F2D3758F50196A11DB11DD5
:1031F0002093FF028093000390930103A0930203A6
:10320000B09303038091FB029091FC02A091FD0218
:10321000B091FE020196A11DB11D8093FB02909317
:10322000FC02A093FD02B093FE02BF91AF919F916B
:103230008F913F912F910F900FBE0F901F90189577
:1032400026E8230F0296A11DB11DD2CF1F920F9227
:103250000FB60F9211240BB60F922F933F934F93FB
:103260005F936F937F938F939F93AF93BF93CF930E
:10327000DF93EF93FF93C091E402D091E502809138
:10328000E6029091E7028C179D0719F16091070201
:1032900081E06827609307028AE10E94BB032196C0
:1032A000D093E502C093E402FF91EF91DF91CF91BB
:1032B000BF91AF919F918F917F916F915F914F914E
:1032C0003F912F910F900BBE0F900FBE0F901F904C
:1032D00018951092730081E0809306021092E50227
:1032E0001092E4020E94D50EDFCF1F920F920FB60C
:1032F0000F9211240BB60F922F933F934F935F932E
:103300006F937F938F939F93AF93BF93EF93FF93AD
:103310002091E2023091E3028091E0029091E1027B
:103320002817390781F182E10E949303892B09F163
:103330008091050281111DC0109272001092E3026B
:103340001092E2021092E1021092E002FF91EF91DE
:10335000BF91AF919F918F917F916F915F914F91AD
:103360003F912F910F900BBE0F900FBE0F901F90AB
:10337000189560910A0281E0682760930A0284E24E
:103380000E94BB03E3CF10927200E0CF1F920F9216
:103390000FB60F9211240BB60F922F933F934F93BA
:1033A0005F936F937F938F939F93AF93BF93CF93CD
:1033B000DF93EF93FF93C091DC02D091DD02809107
:1033C000DE029091DF028C179D0719F160910B02CC
:1033D00081E0682760930B028CE30E94BB03219677
:1033E000D093DD02C093DC02FF91EF91DF91CF918A
:1033F000BF91AF919F918F917F916F915F914F910D
:103400003F912F910F900BBE0F900FBE0F901F900A
:1034100018951092710081E0809304021092DD02F1
:103420001092DC020E94D50EDFCF1F920F920FB6D2
:103430000F9211240BB60F922F933F934F935F93EC
:103440006F937F938F939F93AF93BF93CF93DF93AC
:10345000EF93FF93C091D802D091D9028091DA0204
:103460009091DB028C179D0719F160910C0281E0AD
:10347000682760930C0286E30E94BB032196D093D9
:10348000D902C093D802FF91EF91DF91CF91BF9104
:10349000AF919F918F917F916F915F914F913F91EC
:1034A0002F910F900BBE0F900FBE0F901F9018958D
:1034B00010926F0081E0809303021092D902109263
:1034C000D8020E94D50EDFCFCF92DF92EF92FF920B
:1034D000CF93DF93E8E0F5E01382128288EEC82EE6
:1034E00083E0D82EE12CF12CC482D582E682F782CB
:1034F0008DE192E09183808385EC90E095878487CD
:1035000084EC90E09787868780EC90E0918B808BAD
:1035100081EC90E0938B828B82EC90E0958B848B96
:1035200086EC90E0978B868B118E128E138E148E04
:10353000E5EAF5E080E580831182E7EAF5E01582AF
:1035400016821186138682E090E0A0E0B0E08487C6
:103550009587A687B78713A215A614A68FE292E0D7
:1035600093A782A717A680911102909112029093BF
:10357000300680932F0690932E0680932D0690930D
:103580002C0680932B06CFE0D6E08DE492E0998361
:10359000888390E080E00E944F249B838A832FEFF2
:1035A0003FEF3F832E839D838C83E4EFF5E013820E
:1035B0001282C482D582E682F7828BE392E0918305
:1035C0008083128E118E148660E08DE00E94E803E5
:1035D000E0EFF5E08DE090E09183808386E490E079
:1035E00093838283DF91CF91FF90EF90DF90CF9014
:1035F0000895CF93DF93CDB7DEB7C257D1090FB689
:10360000F894DEBF0FBECDBF789484B5826084BDD0
:1036100084B5816084BD85B5826085BD85B58160D6
:1036200085BD80916E00816080936E001092810054
:10363000809181008260809381008091810081600F
:1036400080938100809180008160809380008091D0
:10365000B10084608093B1008091B000816080935C
:10366000B0008091910082608093910080919100E0
:1036700081608093910080919000816080939000A0
:103680008091A10082608093A1008091A10081605F
:103690008093A1008091A00081608093A000809120
:1036A00021018260809321018091210181608093BA
:1036B00021018091200181608093200180917A0016
:1036C000846080937A0080917A00826080937A008F
:1036D00080917A00816080937A0080917A0080687E
:1036E00080937A001092C10061E086E30E94E803B3
:1036F00061E087E30E94E80361E086E20E94E8035C
:10370000109280001AE01093810010928200B8ECB1
:10371000EB2EF12CF0928900E092880061E08CE3BE
:103720000E94E80361E08DE30E94E80361E088E322
:103730000E94E80310929000109391001092920062
:10374000F0929900E092980061E08EE20E94E80316
:1037500061E08DE30E94E80361E088E30E94E803F2
:1037600061E084E20E94E80361E082E20E94E803F3
:1037700061E08EE10E94E8031092A0001093A10086
:103780001092A200F092A900E092A80061E08AE104
:103790000E94E80361E08CE10E94E80361E088E1B7
:1037A0000E94E80361E08CE10E94BB0310922001BB
:1037B00010932101109222018CEA90E0909329014C
:1037C0008093280162E083E00E94E80362E08EE0DB
:1037D0000E94E80362E082E10E94E80361E08AE07F
:1037E0000E94E80361E089E00E94E80361E089E06B
:1037F0000E94BB0361E08AE00E94BB0361E081E6B6
:103800000E948B0F61E085E30E94E8038091D6055A
:10381000882321F081ED95E00E940C0B1092B205F7
:103820001092B0051092AD051092AC0584E0809323
:10383000AB050E9424048B0161E08091AB050E94DE
:10384000E80361E08091AB050E94BB03FFB6F894EA
:1038500080910403811127C0EEE6F3E08491E8E251
:10386000F3E09491E82FF0E0EE0FFF1FE752FD4FD9
:10387000A591B491EC91E92321F461E085E30E94E4
:10388000BB0361E085E30E94E8038CB580618CBDD9
:103890008CB580648CBD61E084E30E94E80361E044
:1038A00083E30E94E803809104038F5F8093040305
:1038B000FFBE82E58093A5051092A6058091A5051F
:1038C0009091A6050E9461047AE0F72E8FEF0E9486
:1038D0004004FA94F110FACF87EA95E00E9464045C
:1038E00020E030E0A90160E087EA95E00E947804DA
:1038F000F82E8093B10521E0821789F00E942404FC
:10390000601B710B613D774058F381E08093AC05FB
:1039100087EA95E00E94360481EB92E07CC02AEAB7
:1039200031E040E050E068E087EA95E00E947804EA
:1039300082FF2AC0F092B2058091B205C12CD12C31
:10394000E12C50E4F52E823019F0C12CD12C7601F7
:1039500020E030E0A90167E387EA95E00E9478045F
:10396000A701960169E287EA95E00E9478048093B6
:10397000B1058823D1F00E942404601B710B613DC6
:10398000774030F388E0C2CF64E0F62E0E9447040F
:103990008093B105FA94F110F9CF8A3A11F082E0E0
:1039A000B5CF82E08093B205C7CF8091B205823057
:1039B000D1F420E030E0A9016AE387EA95E00E94B3
:1039C0007804882311F086E0A1CF0E944704807C10
:1039D000803C19F483E08093B2050E9447040E9462
:1039E00047040E94470487EA95E00E94360480E578
:1039F0008093A5051092A60581E00E9444068823C5
:103A000009F4DAC081ED95E00E94F608882309F4F4
:103A100083CF8CE992E00E946810E0911805F09144
:103A2000190582E08083E0911405F091150510825C
:103A3000E0911605F09117058FEC80831092200518
:103A4000E0911C05F0911D0586E08083E0911A0548
:103A5000F0911B05808180618083E0911A05F091CF
:103A60001B05808188608083E0911A05F0911B0519
:103A7000808180688083E0911A05F0911B05808128
:103A80008F7D80831C821B820FE212E01A830983E0
:103A90001E82CE0101960E94F608BE016F5F7F4F25
:103AA000CE01CB960E94AF0C19A218A21F8F0E8FC9
:103AB0001BA221968FAD2197811185C06C961FAEF8
:103AC0001EAE6C9788EE93E0A0E0B0E0A0968CAFBD
:103AD0009DAFAEAFBFAFA0978BE392E06A969FAF6A
:103AE0008EAF6A97E3961FAE1EAEE397A5961FAE04
:103AF000A5976C968EAD9FAD6C979093F7058093CC
:103B0000F605A0968CAD9DADAEADBFADA0978093F0
:103B1000F8059093F905A093FA05B093FB05A496D8
:103B20008CAD9DADAEADBFADA4978093FC059093D9
:103B3000FD05A093FE05B093FF05A8E5B0E0AC0F2E
:103B4000BD1F1C96E0E0F6E08D91819386E0ED309C
:103B5000F807D1F7E3968EAD9FADE39790930E06ED
:103B600080930D06FF24F3940BE316E083E00E949C
:103B70009303892B09F449C0FF24F3940BE316E067
:103B80008EE00E949303892B09F44BC0FF24F39429
:103B90000BE316E082E10E949303892B09F04DC0EC
:103BA00060910A026F2560930A0284E20E94BB03BF
:103BB000C8010197F1F7EECF80E00E944406882308
:103BC00009F4AACE1FCF48EC52E0BE01655C7F4FDE
:103BD000CE014E960E946811882309F46FCFCE0162
:103BE000CB960E940C0BBE01625E7F4FCE01019608
:103BF0000E94AF0C48EC52E0BE016F5F7F4FCE01D8
:103C0000885A9F4F0E94DC1274CF60910C026F257E
:103C100060930C0286E30E94BB03C8010197F1F791
:103C2000A5CF60910B026F2560930B028CE30E947D
:103C3000BB03C8010197F1F7A3CF109209021092BC
:103C400008028091080290910902449764F40E944E
:103C5000D113809108029091090201969093090274
:103C600080930802EECF83ED92E00E94681065E831
:103C70007BEE81E291E40E94741067EC73EE8DE4B8
:103C800096E40E94741042E0C42E88E095E00E9401
:103C90005A02892B49F088E095E00E94380281366B
:103CA000910511F4C0926F0020E130E070E060E017
:103CB0008091F005863308F0865340917B00982F61
:103CC0009870477F942B90937B00877080648093DB
:103CD0007C0080917A00806480937A0080917A00E1
:103CE00086FDFCCF909178008091790089279827F4
:103CF0008927680F791F21503109D1F6DD24D3942B
:103D00008D2D90E021E08B36920708F081C08C0168
:103D1000000F111F000F111FA80145595E4FFA0136
:103D200025913491621773070CF070C00197880FCA
:103D3000991F880F991FDC01A359BE4FFD01A59063
:103D4000B49085599E4FFC0125913491F801E359B7
:103D5000FE4FE590F490FD0185909490FA01059155
:103D60001491FC0165907490621B730B072E000C7C
:103D7000880B990BD3D11B012C01B7016819790964
:103D8000072E000C880B990BC9D19B01AC01C20115
:103D9000B10123D21B012C01B80166197709072E46
:103DA000000C880B990BBAD19B01AC01C201B10187
:103DB000AED32B013C01B501BB0C880B990BAED1E6
:103DC0009B01AC01C301B201D9D22DE3D21209C0CB
:103DD000EDE5F2E065917491072E000C880B990BCC
:103DE0009DD1FDD38B0180911506909116064D97BC
:103DF00014F40E94D11361E00A3F11050CF060E059
:103E00008AE00E94BB030E94FC023FCFD39478CF8C
:103E100060E070E0CB01D9CF8FE096E00C944C12BB
:103E20006627772700C08F929F92AF92BF92CF9262
:103E3000DF92EF92FF920F931F93CF93DF935C017A
:103E40007B016115710519F0DB018D939C93850150
:103E50000F5F1F4FF501D0818D2F90E039D16C019C
:103E6000892BA9F5DD32A9F50F5F1F4FD5011196FA
:103E7000DC91C1E05801F1E0AF1AB10843E050E035
:103E800068E371E0C5012CD1892B61F5680182E0FE
:103E9000C80ED11C45E050E063E371E0C60120D1BB
:103EA000892B21F4680197E0C90ED11CE114F104BB
:103EB00019F0D701CD92DC9260E070E080E89FEFCE
:103EC000C111F9C060E070E080E89FE7F4C05801DC
:103ED000BECFDB3229F485010E5F1F4FF501D18182
:103EE000C0E0C8CF43E050E060E371E0C501F8D026
:103EF000892BE9F0F80110E000E020E030E0A901B2
:103F00005F01B0ED8B2E8D0E89E08815C0F19C2EDF
:103F1000689491F88C2F8870C2FF16C0811102C07E
:103F20000F5F1F4F3196D501DC91C92DE9CFE11408
:103F3000F10429F00E5F1F4FF7011183008360E049
:103F400070E080EC9FE7B7C0882311F001501109A1
:103F5000A5E0B0E0F9D19B01AC01220F331F441F53
:103F6000551F280D311D411D511D283999E939076B
:103F7000490799E15907B0F2C6609C2ED3CFAEEF46
:103F80008A1206C0C3FD3CC09C2E689493F8CACF29
:103F9000DF7DD534A9F580818D3239F4C061DF0130
:103FA0001296818162E070E006C0DF018B32C1F3BE
:103FB000119661E070E080535D01A61AB70A8A305D
:103FC000F8F4E0E8CE16ECE0DE065CF4B601660F2D
:103FD000771F660F771FC60ED71ECC0CDD1CC80ED0
:103FE000D11C5D01FFEFAF1ABF0A8C9180538A305C
:103FF00098F1C4FF03C0D194C194D1080C0D1D1DCC
:10400000C1FF09C0E114F10431F081E0A81AB10840
:10401000D701AD92BC92CA01B9017ED0C370C33042
:1040200009F490584B015C0120E030E0A90170D008
:10403000882309F43EC0C7E6D1E017FF05C01195FB
:1040400001951109CFE4D1E06E01B8E1CB1AD10896
:1040500080E2E82EF12C0EC0D501B3CFFE012591F0
:104060003591459154910E191F09C501B401B5D080
:104070004B015C01D501C4010E151F057CF7249787
:10408000F594E794CC16DD06A9F78A2F880F8B2FBD
:10409000881F8F3F41F020E030E0A901C501B40145
:1040A00037D0811106C082E290E09093320680936F
:1040B0003106C501B401DF91CF911F910F91FF909F
:1040C000EF90DF90CF90BF90AF909F908F9008952A
:1040D0009111E6C0803219F089508550D0F70895CB
:1040E000FB01DC014150504088F08D9181341CF07F
:1040F0008B350CF4805E659161341CF06B350CF4EB
:10410000605E861B611171F3990B0895881BFCCFCB
:1041100040D008F481E00895E89409C097FB3EF48C
:1041200090958095709561957F4F8F4F9F4F992304
:10413000A9F0F92F96E9BB279395F6958795779582
:104140006795B795F111F8CFFAF4BB0F11F460FF42
:104150001BC06F5F7F4F8F4F9F4F16C0882311F09A
:1041600096E911C0772321F09EE8872F762F05C0AE
:10417000662371F096E8862F70E060E02AF09A9549
:10418000660F771F881FDAF7880F9695879597F93E
:104190000895990F0008550FAA0BE0E8FEEF1616D8
:1041A0001706E807F907C0F012161306E407F5072B
:1041B00098F0621B730B840B950B39F40A2661F09F
:1041C000232B242B252B21F408950A2609F4A14042
:1041D000A6958FEF811D811D08950BD07BC06CD0FB
:1041E00028F071D018F0952309F05DC062C0112449
:1041F000A5C081D0A0F3959FD1F3950F50E0551F36
:10420000629FF001729FBB27F00DB11D639FAA272B
:10421000F00DB11DAA1F649F6627B00DA11D661F7A
:10422000829F2227B00DA11D621F739FB00DA11D9B
:10423000621F839FA00D611D221F749F3327A00D55
:10424000611D231F849F600D211D822F762F6A2FF1
:1042500011249F5750408AF0E1F088234AF0EE0F76
:10426000FF1FBB1F661F771F881F91505040A9F783
:104270009E3F510570F017C061C05F3FECF3983E60
:10428000DCF3869577956795B795F795E7959F5FEA
:10429000C1F7FE2B880F911D9695879597F9089584
:1042A00099278827089597F99F6780E870E060E074
:1042B00008959FEF80EC089500240A9416161706BF
:1042C00018060906089500240A9412161306140607
:1042D00005060895092E0394000C11F4882352F06A
:1042E000BB0F40F4BF2B11F460FF04C06F5F7F4F22
:1042F0008F4F9F4F089557FD9058440F551F59F009
:104300005F3F71F04795880F97FB991F61F09F3FC2
:1043100079F087950895121613061406551FF2CFEB
:104320004695F1DF08C0161617061806991FF1CF3B
:1043300086957105610508940895E894BB27662762
:104340007727CB0197F9089509D0A59F900DB49FC9
:10435000900DA49F800D911D11240895A29FB0017E
:10436000B39FC001A39F700D811D1124911DB29FA9
:10437000700D811D1124911D08955058BB27AA2747
:104380000ED0A8CF99DF30F09EDF20F031F49F3FB0
:1043900011F41EF48ECF0EF4E095E7FB84CFE92FE5
:1043A000AADF80F3BA17620773078407950718F02E
:1043B00071F49EF5C2CF0EF4E0950B2EBA2FA02D0E
:1043C0000B01B90190010C01CA01A0011124FF27C2
:1043D000591B99F0593F50F4503E68F11A16F040BD
:1043E000A22F232F342F4427585FF3CF46953795BC
:1043F0002795A795F0405395C9F77EF41F16BA0B81
:10440000620B730B840BBAF09150A1F0FF0FBB1F2E
:10441000661F771F881FC2F70EC0BA0F621F731F77
:10442000841F48F4879577956795B795F7959E3FD4
:1044300008F0B3CF9395880F08F09927EE0F979562
:104440008795089539DF58F080E891E009F49EEFF0
:104450003ADF28F040E851E059F45EEF09C029CF77
:104460006CCFE92FE07847DF68F3092E052AC1F306
:10447000261737074807590738F00E2E07F8E025AA
:1044800069F0E025E0640AC0EF6307F8009407FADA
:10449000DB01B9019D01DC01CA01AD01EF9346D0FA
:1044A00019DF0AD05F91552331F02BED3FE049E44D
:1044B00050FD49EC63CF0895DF93DD27B92FBF7717
:1044C00040E85FE31616170648075B0710F4D92F7C
:1044D0006CD19F938F937F936F9374D1E4EEF0E050
:1044E000EBD0F8DE2F913F914F915F9182DEDD237B
:1044F00049F09058A2EA2AED3FE049EC5FE3D0781A
:104500005D274DDFDF91E6CEFDD0E39522C10CD0D3
:10451000E1CED9DE40F0D0DE30F021F45F3F19F07B
:10452000C2CE51110BCFC5CEE6DE98F39923C9F365
:104530005523B1F3951B550BBB27AA2762177307A9
:10454000840738F09F5F5F4F220F331F441FAA1F5D
:10455000A9F333D00E2E3AF0E0E830D0915050401D
:10456000E695001CCAF729D0FE2F27D0660F771FCB
:10457000881FBB1F261737074807AB07B0E809F0AD
:10458000BB0B802DBF01FF2793585F4F2AF09E3F42
:10459000510568F088CED2CE5F3FECF3983EDCF355
:1045A000869577956795B795F7959F5FC9F7880FBB
:1045B000911D9695879597F90895E1E0660F771F0D
:1045C000881FBB1F621773078407BA0720F0621B9E
:1045D000730B840BBA0BEE1F88F7E095089504D097
:1045E0006894B111ABCE08958EDE88F09F5790F09D
:1045F000B92F9927B751A0F0D1F0660F771F881F08
:10460000991F1AF0BA95C9F712C0B13081F095DE42
:10461000B1E0089592CE672F782F8827B85F39F0E0
:10462000B93FCCF3869577956795B395D9F73EF466
:1046300090958095709561957F4F8F4F9F4F08950E
:1046400099D080F09F3740F491110EF077CE60E062
:1046500070E080E89FEB089526F41B16611D711D24
:10466000811D01C01BC0882371F4772321F098506D
:10467000872B762F07C0662311F499270DC0905120
:10468000862B70E060E02AF09A95660F771F881FEE
:10469000DAF7880F9695879597F908959F3F31F03F
:1046A000915020F4879577956795B795880F911D60
:1046B0009695879597F90895DF93CF931F930F935E
:1046C000FF92EF92DF927B018C01689405C0DA2E95
:1046D000EF018FDDFE01E894A5912591359145917B
:1046E0005591AEF3EF015BDEFE019701A801DA946C
:1046F00079F7DF90EF90FF900F911F91CF91DF91AD
:104700000895D7CD00DEE8F3E894E0E0BB279F579B
:10471000F0F02AED3FE049EC06C0EE0FBB0F661F3C
:10472000771F881F28F0B23A62077307840728F0C2
:10473000B25A620B730B840BE3959A9572F780382B
:1047400030F49A95BB0F661F771F881FD2F79048E9
:10475000A7CFEF93E0FF06C0A2EA2AED3FE049ECC5
:104760005FEB1DDEB7DD0F90039401FC9058E1E193
:10477000F1E02FC0C8DDA0F0BEE7B91788F4BB2771
:104780009F3860F41616B11D672F782F8827985F21
:10479000F7CF869577956795B11D93959639C8F3B0
:1047A0000895F7DC08F48FEF08959B01AC0160E0F9
:1047B00070E080E89FE3ABCE9F93A4DF0F9007FCEF
:1047C000EE5FC7CF9B01AC0108CDE3DC880B990BF2
:1047D00008959F938F937F936F93FF93EF939B0124
:1047E000AC01FBDCEF91FF9167DF2F913F914F917F
:1047F0005F91F3CCDB018F939F93A6DDBF91AF91C7
:10480000A29F800D911DA39F900DB29F900D11242A
:104810000895A1E21A2EAA1BBB1BFD010DC0AA1F01
:10482000BB1FEE1FFF1FA217B307E407F50720F019
:10483000A21BB30BE40BF50B661F771F881F991F94
:104840001A9469F760957095809590959B01AC01DD
:10485000BD01CF010895052E97FB16F400940FD0EB
:1048600057FD05D0D6DF07FC02D046F408C05095AE
:104870004095309521953F4F4F4F5F4F089590954C
:104880008095709561957F4F8F4F9F4F0895EE0FE4
:10489000FF1F881F8BBF0790F691E02D19940F938F
:1048A0001F93CF93DF938230910510F482E090E064
:1048B000E0913506F091360630E020E0B0E0A0E06F
:1048C000309799F42115310509F44AC0281B390B9A
:1048D00024303105D8F58A819B816115710589F1F4
:1048E000FB0193838283FE0111C0408151810281CB
:1048F000138148175907E0F04817590799F41097A2
:1049000061F012960C93129713961C933296CF0176
:10491000DF91CF911F910F91089500933506109369
:104920003606F4CF2115310551F04217530738F000
:10493000A901DB019A01BD01DF01F801C1CFEF013F
:10494000F9CF9093360680933506CDCFFE01E20F66
:10495000F31F819391932250310939832883D7CF54
:104960002091330630913406232B41F42091150217
:1049700030911602309334062093330620911302AF
:10498000309114022115310541F42DB73EB7409105
:10499000170250911802241B350BE0913306F09159
:1049A0003406E217F307A0F42E1B3F0B2817390734
:1049B00078F0AC014E5F5F4F2417350748F04E0F7B
:1049C0005F1F5093340640933306819391939FCF9A
:1049D000F0E0E0E09CCFCF93DF930097E9F0FC019B
:1049E000329713821282A0913506B0913606ED01FE
:1049F00030E020E01097A1F420813181820F931FD5
:104A000020913306309134062817390709F061C028
:104A1000F0933406E0933306DF91CF910895EA01D5
:104A2000CE17DF07E8F54A815B819E0141155105EC
:104A3000B1F7E901FB83EA8349915991C40FD51F6E
:104A4000EC17FD0761F4808191810296840F951F18
:104A5000E90199838883828193819B838A83F0E033
:104A6000E0E012968D919C9113970097B9F52D91E6
:104A70003C911197CD010296820F931F209133062E
:104A8000309134062817390739F6309751F51092CE
:104A9000360610923506B0933406A0933306BCCF89
:104AA000D383C28340815181840F951FC817D907D2
:104AB00061F44E5F5F4F88819981480F591F518380
:104AC00040838A819B81938382832115310509F07C
:104AD000B0CFF0933606E09335069ECFFD01DC01A2
:104AE000C0CF13821282D7CF4F925F926F927F9284
:104AF0008F929F92AF92BF92CF92DF92EF92FF92EE
:104B00000F931F93CF93DF938C01009791F4CB0108
:104B1000DF91CF911F910F91FF90EF90DF90CF9099
:104B2000BF90AF909F908F907F906F905F904F90CD
:104B3000B6CEFC01E60FF71F9C0122503109E217A7
:104B4000F30708F4AAC0D901CD91DC911197C617DB
:104B5000D70718F1C530D10570F0CE01049786173C
:104B6000970748F0C61BD70B2297C193D1936D933B
:104B70007C93CF0130DFC801DF91CF911F910F915E
:104B8000FF90EF90DF90CF90BF90AF909F908F906D
:104B90007F906F905F904F9008955B01AC1ABD0AB3
:104BA0004C018C0E9D1EA0913506B0913606512CFD
:104BB000412CF12CE12C109731F580913306909126
:104BC00034068815990509F05CC04616570608F0AA
:104BD00058C08091130290911402009741F48DB750
:104BE0009EB74091170250911802841B950BE8174D
:104BF000F90708F052C0F0933406E0933306F90148
:104C000071836083B8CF8D919C91119712966C90AF
:104C1000129713967C901397A815B90559F56C0156
:104C200042E0C40ED11CCA14DB0420F1AC014A19C5
:104C30005B09DA011296159780F0628273825183C4
:104C40004083D9016D937C93E114F10471F0D70195
:104C50001396FC93EE9312978ECF22968C0F9D1F86
:104C6000F90191838083F301EFCFF0933606E0934F
:104C7000350681CF4816590608F42C017D01D30171
:104C80009ACFCB010CDE7C01009739F0AE01B80160
:104C900014D0C801A0DE87016ECF10E000E06BCF1A
:104CA000FB01DC0104C08D910190801921F4415079
:104CB0005040C8F7881B990B0895FB01DC0102C026
:104CC00001900D9241505040D8F70895FB01DC014E
:104CD00001900D920020E1F70895FB01DC014150A5
:104CE000504048F001900D920020C9F701C01D927C
:104CF00041505040E0F70895FB0151915523A9F030
:104D0000BF01DC014D9145174111E1F759F4CD0187
:104D10000190002049F04D9140154111C9F3FB016C
:104D20004111EFCF81E090E00197089511E0C9ECC7
:104D3000D1E000E005C0802FFE01A9DD2196011D14
:0E4D4000CA3CD10780E00807B1F7F894FFCF16
:104D4E0001010101010101010100010101FFFFFF4C
:104D5E00FFBC02000037068000000000009102FC3C
:104D6E00012902DD025A0238024C02000000009FA7
:104D7E000CFC01D20EFF0C00000000430D270DD2DB
:104D8E000E000D070D760EB00E000000004C1258EE
:104D9E00120D0A006E616E00696E66006F76660017
:104DAE004700580059005A0045004600585F5350BE
:104DBE00454544203A2000455F5350454544203A2E
:104DCE002000585F4D4D203A2000455F4D4D203A52
:104DDE002000526573756C74203A2000696E6974F8
:104DEE0069616C697A6174696F6E20646F6E652E8D
:104DFE0000696E697469616C697A6174696F6E209D
:104E0E006661696C6564210073616D706C652E74EA
:084E1E0078740072756E00004B
:00000001FF
