:1000000029C1000058C1000056C1000054C10000C1
:1000100052C1000050C100004EC100004CC10000A0
:100020004AC1000048C1000046C1000044C10000B0
:1000300042C1000040C100003EC100003CC10000C0
:100040003AC100000C943E1F36C1000034C10000CC
:1000500032C1000030C100002EC100000C94131DFD
:100060002AC100000C94DD1C0C94B31C24C10000B8
:1000700022C1000020C100001EC100001CC1000000
:100080000C949D1E18C1000016C1000014C1000090
:1000900012C1000010C100000EC100000CC1000020
:1000A0000AC1000008C100000C94FC1D04C100003E
:1000B00002C1000000C10000FEC000000C945D1DE4
:1000C000FAC00000F8C00000F6C00000F4C0000054
:1000D000F2C00000F0C00000EEC00000ECC0000064
:1000E000EAC000004E414E494E495459494E46CD52
:1000F000CCCC3D0AD7233C17B7D13877CC2B3295DF
:1001000095E6241FB14F0A000020410000C84200BC
:10011000401C4620BCBE4CCA1B0E5AAEC59D740086
:10012000002200250028002B002E003100340002A0
:10013000010000050108010B01000020002300263A
:100140000029002C002F00320000010000030106EE
:1001500001090100000A0B02090C0D0E0807030437
:10016000010000000000000000000000000000008E
:10017000000000000000000000000000000000126D
:10018000111000000000000000000000000000004E
:1001900000000000000000000000002100240027F3
:1001A000002A002D00300033000101000004010787
:1001B000010A0101021020200808102040102040F0
:1001C000800201020108040201010204081020401B
:1001D0008080402010080402018004020180402039
:1001E0001008040201080402010102040810204062
:1001F0008001020408102040800505050507050858
:10020000080808020202020A0A0808040404040199
:1002100001010101010101030303030303030304BB
:100220000707070C0C0C0C0C0C0C0C02020202064B
:10023000060606060606060B0B0B0B0B0B0B0B7CC0
:100240003C3E5E2B3D3F2F5B5D3B2C2A225C000039
:10025000DF1F262411241FBECFEFD1E2DEBFCDBFAA
:1002600000E00CBF26E0A4EAB2E001C01D92AB356D
:10027000B207E1F712E0A0E0B2E0E4EEF3E500E05F
:100280000BBF02C007900D92A43AB107D9F711E055
:10029000C9E2D1E000E006C021970109802FFE01EC
:1002A0000E949227C832D10780E00807A9F70E9470
:1002B00055200C94E129A4CE4AE250E030E020E041
:1002C0008091290690912A0682179307ACF02F5F40
:1002D0003F4F8217930784F0E0912506F0912606A0
:1002E000E40FF51FDF019A978AE201900D928A953B
:1002F000E1F7465D5F4FE4CF019790932A06809324
:100300002906089580917B00886080937B0085E4B6
:1003100080937C0080917A00806480937A00809141
:100320007A0086FDFCCF8091780090917900089545
:10033000AF92BF92CF92DF92EF92FF920F931F93F3
:10034000CF93DF936C017B018B01040F151FEB0131
:100350005E01AE18BF08C017D10759F06991D601E8
:10036000ED91FC910190F081E02DC6011995892B4A
:1003700079F7C501DF91CF911F910F91FF90EF9019
:10038000DF90CF90BF90AF900895FC01538D448DC6
:10039000252F30E0842F90E0821B930B541710F030
:1003A000CF96089501970895FC01918D828D98173D
:1003B00061F0A28DAE0FBF2FB11D5D968C91928D15
:1003C0009F5F9F73928F90E008958FEF9FEF089546
:1003D000FC01918D828D981731F0828DE80FF11D0F
:1003E000858D90E008958FEF9FEF0895FC01918D2A
:1003F000228D892F90E0805C9F4F821B91098F7323
:100400009927089580E295E0F1DF21E0892B09F436
:1004100020E0822F0895FC01A48DA80FB92FB11DF3
:10042000A35ABF4F2C91848D90E001968F7399272A
:10043000848FA689B7892C93A089B1898C91837008
:1004400080648C93938D848D981306C00288F38901
:10045000E02D80818F7D80830895EF92FF920F932E
:100460001F93CF93DF93EC0181E0888F9B8D8C8D60
:1004700098131AC0E889F989808185FF15C09FB754
:10048000F894EE89FF896083E889F9898081837017
:10049000806480839FBF81E090E0DF91CF911F91C6
:1004A0000F91FF90EF900895F62E0B8D10E00F5FE7
:1004B0001F4F0F731127E02E8C8D8E110BC00FB6BE
:1004C00007FCFACFE889F989808185FFF5CFCE0155
:1004D000A2DFF2CFEB8DEC0FFD2FF11DE35AFF4FA2
:1004E000F0829FB7F8940B8FEA89FB898081806244
:1004F000D0CFCF93DF93EC01888D8823B1F0AA8908
:10050000BB89E889F9898C9185FD03C0808186FDCE
:100510000CC00FB607FCF7CF8C9185FFF2CF80811E
:1005200085FFEDCFCE0177DFEACFDF91CF91089540
:1005300080E090E0892B21F065DF81110E940000AE
:1005400080E090E0892B49F080E090E0892B29F051
:100550000E94000081110E94000080E090E0892B41
:1005600049F080E090E0892B29F00E940000811181
:100570000E94000080E090E0892B49F080E090E04C
:10058000892B29F00E94000081110C94000008952D
:100590008150823108F05AC0E82FF0E08827EC52F1
:1005A000FD4F8F4F0C949227F402F802E602EC0202
:1005B000F0022603FB02010305030B030F031303E1
:1005C00019031D032603210327032B0380918000B9
:1005D0008F77809380000895809180008F7DF9CF80
:1005E00080918000877FF5CF84B58F7784BD089593
:1005F00084B58F7DFBCF8091B0008F778093B00062
:1006000008958091B0008F7DF9CF809190008F7711
:10061000809390000895809190008F7DF9CF809114
:100620009000877FF5CF8091A0008F778093A00006
:1006300008958091A0008F7DF9CF8091A000877FE1
:10064000F5CF809120018F778093200108958091CC
:1006500020018F7DF9CF80912001877FF5CFCF9347
:10066000DF93282F30E0F901ED5AFE4F8491F90114
:10067000ED54FE4FD491F901E750FE4FC491CC23C5
:1006800099F0811185DFEC2FF0E0EE0FFF1FE75CA2
:10069000FE4FA591B491EC91ED2381E090E009F437
:1006A00080E0DF91CF91089580E090E0FACF1F9332
:1006B000CF93DF93282F30E0F901ED5AFE4F84915C
:1006C000F901ED54FE4FD491F901E750FE4FC4916A
:1006D000CC23A1F0162F81115BDFEC2FF0E0EE0FA1
:1006E000FF1FE15EFE4FA591B4918FB7F894EC9196
:1006F000111108C0D095DE23DC938FBFDF91CF911D
:100700001F910895DE2BF8CFCF93DF9390E0FC018B
:10071000ED54FE4F249187509E4FFC018491882315
:10072000C9F090E0880F991FFC01E756FE4FA59194
:10073000B491FC01E15EFE4FC591D49161110DC0F1
:100740009FB7F8948C91209582238C9388812823DD
:1007500028839FBFDF91CF910895623051F49FB7F6
:10076000F8943C91822F809583238C93E8812E2BE3
:10077000EFCF8FB7F894EC912E2B2C938FBFEACF4D
:100780002FB7F894609110037091110380911203B8
:10079000909113032FBF08958FB7F89480910603AB
:1007A0008FBF089561E0FC01848181DF80910503A2
:1007B00081111092050308958EBD00000DB407FE4F
:1007C000FDCF8EB508958FEFF7CF0F931F93CF9383
:1007D000DF93EC01D5DF8B01F6DF8F3F61F0D0DFD7
:1007E000601B710B6C177D07B8F380E0DF91CF9130
:1007F0001F910F91089581E0F9CF8CBD9DBD0895A3
:10080000CF93DF93EC0180910503811108C081E053
:10081000809305038091BD059091BE05EEDF60E0F9
:100820008C81DF91CF9143CF8F929F92AF92BF92F5
:10083000FF920F931F93CF93DF93EC01F62E4901A4
:100840005A018E81882379F08F8198859C012F5FD2
:100850003F4F38872F838230924010F4B4DFF4CFBB
:10086000CE01A0DF1E82CE01CBDF8CE291E0ADDFB6
:100870008F2D8064A1DF08E110E0D501C401002EB6
:1008800004C0B695A795979587950A94D2F794DFFB
:1008900008501109083F8FEF180779F785E9FF2005
:1008A00021F028E087E8F2128FEF86DF10E08BDF7F
:1008B0008A8787FF04C01F3F11F01F5FF8CFDF91C9
:1008C000CF911F910F91FF90BF90AF909F908F900D
:1008D0000895AF92BF92CF92DF92EF92FF920F9363
:1008E0001F93CF93DF93EC016901C801820F931F1F
:1008F0008130924048F58E81882379F088819981F2
:10090000AA81BB8184179507A607B70731F48F81A9
:100910009885C816D90608F03CC0488359836A8375
:100920007B838B85833039F089E0440F551F661F28
:10093000771F8A95D1F79A01AB0161E1CE0174DF8F
:10094000882381F083E08D83CE012CDF80E0DF916E
:10095000CF911F910F91FF90EF90DF90CF90BF90BC
:10096000AF9008950DDF5B012EDF8A878F3F59F42A
:1009700007DF6A197B096D327140B0F38FE08D8318
:10098000CE0110DFE1CF8E3F81F418861F8281E017
:100990008E838F8198858C159D0548F414DF8F8197
:1009A0009885019698878F83F4CF8DE0E8CF670113
:1009B000E00EF11E08DFF60181936F01EE15FF05D1
:1009C000C9F78F819885080F191F18870F838985AC
:1009D000882319F00115124090F08E81882379F058
:1009E0008F8198859C012F5F3F4F38872F838230FE
:1009F000924010F4E8DEF4CFCE01D4DE1E8281E016
:100A0000A6CFEF92FF920F931F93CF93DF93EC014A
:100A1000790182E1411551056105710591F08B85E0
:100A2000833039F089E0440F551F661F771F8A9580
:100A3000D1F79A01AB0168E1CE01F6DE882319F007
:100A400084E08D8328C08EEFB7DE87018EEFF81A21
:100A5000F80181918F01B0DE0E151F05C9F78FEFE8
:100A6000ABDE8FEFA9DEAFDE8A878F71853079F438
:100A700088E592E0AADE882391F020E030E0A90129
:100A80006DE0CE01D1DE882361F084E1DACF81E12F
:100A90008D83CE0187DECE0185DE80E008C085E152
:100AA000D0CF91DE8111F1CFCE017CDE81E0DF91EC
:100AB000CF911F910F91FF90EF900895CF93DF9307
:100AC00080911D03882399F1C0911E05D0911F05C7
:100AD0004091100250911102609112027091130224
:100AE0002EE133E0CE018DDF811104C080E0DF9183
:100AF000CF91089540910703509108036091090335
:100B000070910A03411551056105710571F02EE1DF
:100B100033E0CE0176DF882349F310920703109269
:100B200008031092090310920A0310921D0381E03A
:100B3000DECF8F929F92AF92BF92EF92FF920F9370
:100B40001F93CF934B015C01C42F809110029091B1
:100B50001102A0911202B091130288159905AA05FD
:100B6000BB0539F1ABDF81110BC080E0CF911F9144
:100B70000F91FF90EF90BF90AF909F908F9008954E
:100B80008EE1E82E83E0F82E00E012E030E020E075
:100B9000B501A40180911E0590911F059ADE88235E
:100BA00021F38092100290921102A0921202B09250
:100BB000130240911D034C2B40931D0381E0D6CFBF
:100BC0008F929F92AF92BF92CF92DF92EF92FF925D
:100BD000CF932FEB35E030931F0520931E0588231C
:100BE00009F46BC040E060E070E0CB01A2DF81114E
:100BF0000BC080E0CF91FF90EF90DF90CF90BF903F
:100C0000AF909F908F9008958091DC048F7789F743
:100C10008091E8049091E904A091EA04B091EB047A
:100C200084369105A105B10520F3C090E404D0906D
:100C3000E504E090E604F090E704C114D104E10477
:100C4000F104B9F240E0C701B60173DF882389F2ED
:100C50008091290390912A038115924051F6A09129
:100C60002E03AA2331F260912C0370912D0361159C
:100C7000710509F4BECF20912B03222309F4B9CFCB
:100C8000A093DD052093CF0590E080E030E0E1E027
:100C9000F0E0C82FAF01082E02C0440F551F0A9480
:100CA000E2F72417350769F041E0480F01968930D3
:100CB000910579F74093D8059CCFC12CD12C7601B2
:100CC000C1CF8093D805209134033091350350E093
:100CD00040E02115310541F4209142033091430356
:100CE00040914403509145032093D0053093D105A2
:100CF0004093D2055093D30546015701860E971EA7
:100D0000A11CB11C8092DE059092DF05A092E00547
:100D1000B092E105E0912F03F0913003F093E405E8
:100D2000E093E305B0E00E94BE26DC01CB01880D14
:100D3000991DAA1DBB1D8093E5059093E605A09320
:100D4000E705B093E80525E0EE0FFF1F2A95E1F7D0
:100D5000E150FE4FEF2FFF27E6958E0F9F1FA11D3D
:100D6000B11D8093D9059093DA05A093DB05B0936C
:100D7000DC058090310390903203B12CA12C8114BA
:100D8000910441F480903E0390903F03A090400373
:100D9000B0904103C81AD90AEA0AFB0AC80CD91C48
:100DA000EA1CFB1C04C0F694E794D794C794CA9538
:100DB000D2F7C092D405D092D505E092D605F09234
:100DC000D70585EFC8168FE0D806E104F10428F4B2
:100DD0008CE08093E20581E00DCF80E125EFC21623
:100DE0002FEFD206E104F104A0F380914A03909121
:100DF0004B03A0914C03B0914D038093E505909374
:100E0000E605A093E705B093E80580E2E2CF4F92B4
:100E10005F926F927F928F929F92AF92BF92CF928A
:100E2000DF92EF92FF920F931F93CF93DF93EC012A
:100E3000423051056105710590F480E0DF91CF915A
:100E40001F910F91FF90EF90DF90CF90BF90AF90E8
:100E50009F908F907F906F905F904F9008958985BD
:100E60009A85AB85BC850196A11DB11D8417950798
:100E7000A607B70710F3CB88DC88ED88FE888F893A
:100E8000803109F042C0BB27A72F962F852F48013C
:100E900059012A013B01C80ED91EEA1EFB1E809192
:100EA000100290911102A0911202B0911302C81683
:100EB000D906EA06FB0699F58F898031B9F5B301A9
:100EC000A201552766277727440F551F425E5C4FC6
:100ED000FA019182808280911D03816080931D03BD
:100EE0008A89823080F08D819E81AF81B8858C0D9A
:100EF0009D1DAE1DBF1D8093070390930803A09313
:100F00000903B0930A0381E099CFDB01CA01E7E04E
:100F1000B695A79597958795EA95D1F7B8CF40E014
:100F2000C701B60106DE8111C7CF87CFB301A20189
:100F30004F77552766277727440F551F440F551FB6
:100F4000425E5C4FFA0180829182A282B382C3CF5B
:100F50008F929F92AF92BF92CF92DF92EF92FF92C9
:100F60000F931F93CF93DF93FC0181859285A38517
:100F7000B4850196A11DB11D84179507A607B70773
:100F800070F480E0DF91CF911F910F91FF90EF906F
:100F9000DF90CF90BF90AF909F908F9008958388FF
:100FA0009488A588B6888789803189F5BB27A72FC3
:100FB000962F852FE9016A017B018F01BC01CD01CC
:100FC000680D791D8A1D9B1D809010029090110262
:100FD000A0901202B090130286169706A806B906D2
:100FE00001F5F8018789803109F5DD24EE24FF241D
:100FF000F601EE0FFF1FE25EFC4F80819181B0E0B1
:10100000A0E088839983AA83BB8381E0BBCFDB0107
:10101000CA01C7E0B695A79597958795CA95D1F768
:10102000C9CF40E086DD8111DCCFABCFE894C7F8B3
:10103000DD24EE24FF24F601EE0FFF1FEE0FFF1F4D
:10104000E25EFC4F80819181A281B381BF70D9CFD4
:101050004F925F926F927F92AF92BF92CF92DF9248
:10106000EF92FF920F931F93CF93DF9300D01F92C5
:10107000CDB7DEB78C0149835A836B837C835901DA
:10108000C12CD12C7601412C82E0582E612C712C80
:1010900049815A816B817C819E012F5F3F4FC8013E
:1010A00057DF882339F1F8018585A301920104C037
:1010B000220F331F441F551F8A95D2F7DA01C90149
:1010C000C80ED91EEA1EFB1E49815A816B817C81A4
:1010D0008789803111F188EF9FEFAFEFBFE04817AC
:1010E00059076A077B07A0F2F501C082D182E2822C
:1010F000F38281E00F900F900F900F90DF91CF91CE
:101100001F910F91FF90EF90DF90CF90BF90AF9025
:101110007F906F905F904F90089588EF9FEFA0E0D1
:10112000B0E0DDCFCF93DF93FC012581222321F0B6
:1011300080E0DF91CF910895EC018091E20580314C
:1011400059F582E08583178A108E118E128E809158
:10115000E3059091E405B0E0A0E025E0880F991F39
:10116000AA1FBB1F2A95D1F7838B948BA58BB68BB7
:101170008BEC95E09C8F8B8F81E08C831E821F828D
:10118000188619861A861B861C861D861E861F8653
:10119000188A198A1A8ACDCF803251F683E0858366
:1011A0004091E5055091E6056091E7057091E805ED
:1011B000478B508F618F728F9F012D5E3F4F8BEC5D
:1011C00095E046DF8111D4CFB3CF8F929F92AF923B
:1011D000BF92CF92DF92EF92FF920F931F93CF9324
:1011E000DF93EC018D8181110EC080E0DF91CF9102
:1011F0001F910F91FF90EF90DF90CF90BF90AF9035
:101200009F908F9008950B891C892D893E89041722
:1012100015072607370748F34A015B01823031F48E
:101220008A869B86AC86BD8681E0E0CF81149104DE
:10123000A104B10449F41E821F82188619861A86F9
:101240001B861C861D86F0CF0A851B852C853D8557
:10125000EB8DFC8D858590E00996B901A801415080
:10126000510961097109082E04C076956795579553
:1012700047950A94D2F775016401E1E0CE1AD108CE
:10128000E108F10804C0F694E794D794C7948A95CE
:10129000D2F7C416D506E606F70620F0012B022B7E
:1012A000032B09F58F89988DA98DBA8D8E839F8325
:1012B000A887B9878E010A5F1F4FC114D104E104CA
:1012C000F10409F4ADCF4E815F816885798598017D
:1012D0008B8D9C8D3DDE91E0C91AD108E108F108A3
:1012E0008111EBCF82CFC41AD50AE60AF70AE2CF02
:1012F0003F924F925F926F927F928F929F92AF92A6
:10130000BF92CF92DF92EF92FF920F931F93CF93F2
:10131000DF93CDB7DEB72C970FB6F894DEBF0FBEC4
:10132000CDBF5C01DC015B968D909C905C9716961E
:101330004D905D906D907C9019974114510461041B
:10134000710409F467C0BFEF4B1A5B0A6B0A7B0A92
:10135000312CF40181859285A385B4859C01AD0172
:101360002F5F3F4F4F4F5F4F29873A874B875C87EF
:10137000730162011D821E821F821886F40181851D
:101380009285A385B4852D813E814F81588528178C
:1013900039074A075B0708F054C089859A85AB85F1
:1013A000BC858C159D05AE05BF0550F482E0C82EA6
:1013B000D12CE12CF12C92E0492E512C612C712C76
:1013C0009E012F5F3F4FB701A601C401C1DD8823F5
:1013D000C1F189819A81AB81BC81892B8A2B8B2BAE
:1013E00009F1260137019FEF491A590A690A790A5A
:1013F0002D813E814F8158852F5F3F4F4F4F5F4F6B
:101400002D833E834F8358873FEFC31AD30AE30AE5
:10141000F30AB4CFF401408051806280738033249A
:10142000339497CFC414D504E604F70409F70FEFFB
:101430001FEF2FEF3FE0B701A601C401E8DC8111E7
:1014400019C080E02C960FB6F894DEBF0FBECDBF5A
:10145000DF91CF911F910F91FF90EF90DF90CF9090
:10146000BF90AF909F908F907F906F905F904F90C4
:101470003F900895F501468157816085718541153A
:1014800051056105710531F097018601C401BFDC8A
:101490008823B9F2D5011696CD92DD92ED92FC9299
:1014A0001997332051F0D701C6010196A11DB11D36
:1014B000F40180839183A283B383F5018789908DA2
:1014C000A18DB28D892B8A2B8B2B39F4C78AD08EB4
:1014D000E18EF28E84818068848381E0B3CFCF93E4
:1014E000DF93EC018D81882379F18C8187FF29C0FE
:1014F0006E857F858889998941E01BDB882321F1EE
:10150000EA8980E2E89FF0011124E25EFC4F309707
:10151000D9F08D81823040F48B899C89AD89BE8958
:10152000848F958FA68FB78F8F89988D938F828F99
:101530008F89988DA98DBA8DB58BA48B8C818F776F
:101540008C83DF91CF91BACA80E0DF91CF9108956B
:10155000CF93DF93EC01C3DF882311F01D8281E07C
:10156000DF91CF9108952F923F924F925F926F92A9
:101570007F928F929F92AF92BF92CF92DF92EF9223
:10158000FF920F931F93CF93DF9300D01F92CDB79D
:10159000DEB78C015B011A01DC0115968C91159761
:1015A000813009F0C5C014968C9181FFC1C082FDC5
:1015B000ACC06101D8011A964D915D916D917C91FD
:1015C0001D97C114D10409F423C15B968D919C91A0
:1015D0005C97FC0174802FEF270D2A013B0139E055
:1015E00076946794579447943A95D1F7722E742065
:1015F0007A01F1E0FF2271101FC0E114F104E1F45F
:1016000016964D915D916D917C91199741155105FB
:101610006105710509F095C057968D919D910D90CA
:10162000BC91A02D0097A105B10509F0ABC0C80180
:101630005FDE882309F47CC080E092E08E199F0968
:1016400046018C159D0508F44C01D8015B964D911F
:101650005C915C9716968D919D910D90BC91A02DFB
:101660000297A109B109FA01258504C0880F991FC5
:10167000AA1FBB1F2A95D2F74685578560897189B5
:10168000840F951FA61FB71F9C01AD01270D311DAB
:10169000411D511D29013A01811432E0930609F0E0
:1016A00077C08091100290911102A0911202B09126
:1016B000130284159505A605B70559F48FEF9FEF22
:1016C000DC018093100290931102A0931202B09358
:1016D00013029501B301A20180911E0590911F058F
:1016E00090D9882329F19EEFB91AC818D908F801B2
:1016F00082859385A485B585880D991DA11DB11D91
:1017000082879387A487B58755CFF8014389548989
:101710006589768982859385A485B585481759079B
:101720006A077B0709F445CFC8014FDD811141CF1E
:1017300081E090E0D80113969C938E93129780E0FD
:1017400006C09E012F5F3F4F03DC811102C090E075
:1017500075C089819A81AB81BC81F801238D348D5C
:10176000F901278948EF5FEF60E070E0203121F058
:1017700048EF5FEF6FEF7FE084179507A607B70785
:1017800008F055CFF80186839783A087B18754CF9F
:10179000E114F10489F5D8011A964D915D916D918E
:1017A0007C911D9753968D919D910D90BC91A02D8C
:1017B000481759076A077B07F8F080D9882309F48E
:1017C000B7CF4092100250921102609212027092B2
:1017D000130280911D03816080931D039701225E97
:1017E0003C4FD501C901880D991DF9018E179F073E
:1017F00051F04D914193FACF41E0C301B20199D923
:101800008111ECCF95CF821B930BA80EB91E6DCF23
:10181000F80183899489A589B68984179507A60755
:10182000B70738F48481438B548B658B768B806843
:101830008483F801848183FD18C0C1010F900F904B
:101840000F900F90DF91CF911F910F91FF90EF902C
:10185000DF90CF90BF90AF909F908F907F906F90D0
:101860005F904F903F902F900895C80138DE8823F5
:1018700009F45ECFE2CFCF93DF931F92CDB7DEB7EF
:10188000698341E050E0BE016F5F7F4F6CDE0F90D7
:10189000DF91CF910895FC01DB0112968D919C910F
:1018A00013979383828382E392E0918380831496DB
:1018B0008C911497848315968C9115978583169631
:1018C0004D915D916D917C91199746835783608707
:1018D00071871A964D915D916D917C911D9742870C
:1018E0005387648775871E964D915D916D917C91AC
:1018F000519746875787608B718B52968C91529780
:10190000828B53964D915D916D917C915697438B4F
:10191000548B658B768B57964D915D916D917C9133
:101920005A97478B508F618F728F5B968D919C91E8
:10193000948F838F08950895FC01818D928D009777
:1019400009F0CDCD0895DC015996ED91FC913097C9
:10195000B9F083899489A589B689428553856485C0
:101960007585841B950BA60BB70B811520E8920794
:10197000A105B10538F08FEF9FE7A0E0B0E0089532
:1019800090E080E00895CF93DF93EC01E98DFA8D2C
:10199000309749F481E090E09B838A8390E080E077
:1019A000DF91CF91089513821282898D9A8DDBDDAC
:1019B000E98DFA8D22813381232B61F7F1CFCF930B
:1019C000DF931F92CDB7DEB76983DC01ED91FC9107
:1019D0000280F381E02D41E050E0BE016F5F7F4F58
:1019E00019950F90DF91CF9108952F923F924F92CA
:1019F0005F926F927F928F929F92AF92BF92CF929F
:101A0000DF92EF92FF920F931F93CF93DF9300D05B
:101A1000CDB7DEB7FC018581811118C08FEF9FEF34
:101A20000F900F900F90DF91CF911F910F91FF902A
:101A3000EF90DF90CF90BF90AF909F908F907F906E
:101A40006F905F904F903F902F900895848180FF1A
:101A5000E5CF438954896589768982859385A485F4
:101A6000B585312C212C481759076A077B0719F0D7
:101A700022242394312C6F012101CE0101963C01D7
:101A8000DF011696BB83AA834114510409F4C3C035
:101A9000F60142855385648575854A01F1E09F22F0
:101AA000D6015B968D919C915C978A019B01E9E040
:101AB0003695279517950795EA95D1F71596EC91E8
:101AC000E230E1F5FC01628D738D848D958D600FA0
:101AD000711F821F931FA12C22E0B22EA818B908F3
:101AE0004A145B0408F45201F601248126FD04C067
:101AF000A114F2E0BF0671F40091100210911102DE
:101B00002091120230911302061717072807390790
:101B100009F05CC040E00DD8882309F47FCFC401F0
:101B2000825E9C4FD3019C012A0D3B1DFC012E17A8
:101B30003F0709F46BC041914D93F9CFDC01149636
:101B4000BC90BA94B0228114910479F4B1100DC004
:101B5000452B462B472B69F5F6018789908DA18D82
:101B6000B28D86839783A087B187D6015B96ED916E
:101B7000FC915C9716966D917D918D919C91199732
:101B80006250710981099109258504C0660F771F8C
:101B9000881F991F2A95D2F70685178520893189D4
:101BA000600F711F821F931F6B0D711D811D911D91
:101BB00092CFD60116964D915D916D917C911997BA
:101BC0002A813B81C5D98111D0CF28CF73018501EE
:101BD0009401AB01BC0180911E0590911F050E94EC
:101BE0006904882309F41ACF6A0C7B1CF6018285EC
:101BF0009385A485B5858A0D9B1DA11DB11D828786
:101C00009387A487B5874A185B083ECF281B390BFA
:101C1000620E731EEBCF2A94232809F0FFCE898130
:101C200090E0FECEFC01818D928D009709F0DDCE13
:101C30008FEF9FEF08950F931F930E94C00360934F
:101C4000100670931106809312069093130688E095
:101C500096E0E8DF97FF1DC00E94C00300911006C8
:101C6000109111062091120630911306601B710B22
:101C7000820B930B00910C0610910D0620910E061D
:101C800030910F06601771078207930700F38FEFFB
:101C90009FEF1F910F9108950F931F93CF93DF93A1
:101CA000EC01898D9A8D10E000E0009789F09DDEAF
:101CB0008C010F3F100761F0898D9A8DFC014285E0
:101CC00053856485758541505109610971097DDA33
:101CD000C801DF91CF911F910F91089590E080E0AE
:101CE0000895CF93883789F0C62F893744F4813619
:101CF00009F1853641F461E06C2788E109C0893734
:101D000051F08A3761F0CF910895C1E06C2786E2E7
:101D1000CF910C94570361E06C2788E3F9CF61E021
:101D2000C627C09300026C2F8EE30E9457036C2FCE
:101D30008EE1EECF88E7D5DF6C2F89E7D2DF6C2FFD
:101D40008AE7CFDFD8CF0F931F93CF93DF93EC01B8
:101D500080E2689FF0011124E25EFC4F6A8B809163
:101D6000100290911102A0911202B09113028E877D
:101D70009F87A88BB98B0489158930E020E09801F2
:101D8000112700270F8B188F298F3A8F828D938D03
:101D9000B0E0A0E0AC01BD01402B512B622B732BB6
:101DA0004F8B588F698F7A8F83858871A9F4848DC2
:101DB000958DA68DB78D8B8B9C8BAD8BBE8B81E06B
:101DC0008D8381E08C831E821F82188619861A8675
:101DD0001B861C861D8603C0803131F080E0DF91B8
:101DE000CF911F910F9108959E012D5E3F4F8B8DD6
:101DF0009C8D2ED9882391F384E0E2CFFC010190E1
:101E00000020E9F73197AF01481B590BBC0180E274
:101E100095E00C9498018F929F92AF92BF920F938E
:101E20001F93CF93DF93CDB7DEB7A1970FB6F8948A
:101E3000DEBF0FBECDBF19A2423008F44AE08E01CA
:101E40000F5D1F4F842E912CB12CA12CA501940164
:101E50000E947027E62FB901CA01EA30ECF4E05D78
:101E6000D801EE938D01232B242B252B79F790E0BD
:101E700080E0109711F0CD01C1DFA1960FB6F89464
:101E8000DEBF0FBECDBFDF91CF911F910F91BF90ED
:101E9000AF909F908F900895E95CE2CFCF92DF9250
:101EA000EF92FF92CF93DF936B017C016DE280E2B2
:101EB00095E00E942D02EC0166277727CB016C1973
:101EC0007D098E099F094AE0A6DF8C0F9D1FDF91D7
:101ED000CF91FF90EF90DF90CF900895CF93DF9355
:101EE0008DDFEC0184E592E089DF8C0F9D1FDF918F
:101EF000CF9108954F925F926F927F928F929F92AF
:101F0000AF92BF92CF92DF92EF92FF920F931F9307
:101F1000CF93DF9300D000D01F921F92CDB7DEB7D2
:101F20008091290690912A06019609F487C2909122
:101F3000010280910202992309F47AC3882309F4EB
:101F40007DC280910302882309F478C28091050242
:101F5000882309F473C280910402882309F46EC2B5
:101F6000E0912506F091260680A191A1823091058D
:101F700008F02EC362A173A184A195A14AE04BDFB2
:101F800084E592E03BDFE0912506F0912606408152
:101F900051816281738180859185A285B385C088D6
:101FA000D188E288F388808C918CA28CB38C4C39D8
:101FB0001FEF51076107710741F44091EC02509106
:101FC000ED026091EE027091EF028C392FEF9207D3
:101FD000A207B20741F48091F4029091F502A0911A
:101FE000F602B091F70230E7C3163EEFD3063FEF9B
:101FF000E306F30641F4C0901503D0901603E09079
:102000001703F090180302E980160FEF9006A00660
:10201000B00641F48090190390901A03A0901B031E
:10202000B0901C032481358130938900209388006F
:10203000248535853093990020939800248D358D23
:10204000309329012093280120ED37E03093A90037
:102050002093A8000091190310911A0320911B03EB
:1020600030911C0309831A832B833C830091F40273
:102070001091F5022091F6023091F7020D831E8334
:102080002F8338874090EC025090ED026090EE0272
:102090007090EF024092C8025092C9026092CA0248
:1020A0007092CB020093CC021093CD022093CE020B
:1020B0003093CF0209811A812B813C810093D00299
:1020C0001093D1022093D2023093D30244195509C0
:1020D000660977094093AC025093AD026093AE025B
:1020E0007093AF022D813E814F815885821B930BE7
:1020F000A40BB50B8093A8029093A902A093AA0207
:10210000B093AB02D501C40109811A812B813C81B6
:10211000801B910BA20BB30B8093A4029093A5029A
:10212000A093A602B093A7028091AC029091AD0259
:10213000A091AE02B091AF02B7FF97C18FEF9FEFB2
:10214000DC018093B0029093B102A093B202B093ED
:10215000B3028091AC029091AD02A091AE02B09119
:10216000AF02181619061A061B060CF483C18091DB
:10217000AC029091AD02A091AE02B091AF02B095C9
:10218000A095909581959F4FAF4FBF4F8093E802E8
:102190009093E902A093EA02B093EB028091A80227
:1021A0009091A902A091AA02B091AB02B7FF6BC1B6
:1021B0008FEF9FEFDC018093D4029093D502A09320
:1021C000D602B093D7028091A8029091A902A09163
:1021D000AA02B091AB02181619061A061B060CF4D7
:1021E00057C18091A8029091A902A091AA02B09132
:1021F000AB02B095A095909581959F4FAF4FBF4F83
:102200008093E4029093E502A093E602B093E70284
:102210008091A4029091A502A091A602B091A7027C
:10222000B7FF3FC18FEF9FEFDC018093BC0290931B
:10223000BD02A093BE02B093BF028091A402909110
:10224000A502A091A602B091A702181619061A06B7
:102250001B060CF42BC18091A4029091A502A091C1
:10226000A602B091A702B095A095909581959F4F39
:10227000AF4FBF4F8093E0029093E102A093E20240
:10228000B093E3028091E8029091E902A091EA0202
:10229000B091EB02880F991FAA1FBB1F8093C40245
:1022A0009093C502A093C602B093C7028091E40246
:1022B0009091E502A091E602B091E702880F991F84
:1022C000AA1FBB1F8093B8029093B902A093BA02D1
:1022D000B093BB028091E0029091E102A091E202F2
:1022E000B091E302880F991FAA1FBB1F8093B4020D
:1022F0009093B502A093B602B093B7024091E80262
:102300005091E9026091EA027091EB028091E4023F
:102310009091E502A091E602B091E70248175907B3
:102320006A077B070CF4CBC04091E8025091E902A8
:102330006091EA027091EB028091E0029091E102DB
:10234000A091E202B091E302481759076A077B07A0
:102350000CF4B5C08091B8029091B902A091BA0274
:10236000B091BB024091E8025091E9026091EA020B
:102370007091EB02841B950BA60BB70B8093D802D0
:102380009093D902A093DA02B093DB028091B40259
:102390009091B502A091B602B091B7024091E802C7
:1023A0005091E9026091EA027091EB02841B950B57
:1023B000A60BB70B8093C0029093C102A093C202F8
:1023C000B093C3021092DC021092DD021092DE0282
:1023D0001092DF0210920102809115039091160372
:1023E000A0911703B09118038C159D05AE05BF058C
:1023F00059F087E592E072DDF7FEE5C0C701B6014E
:102400004DDD84E592E0FADCC0921503D09216030C
:10241000E0921703F0921803109202021092030246
:1024200010920402109205020E945C01809219032E
:1024300090921A03A0921B03B0921C0328960FB629
:10244000F894DEBF0FBECDBFDF91CF911F910F91EA
:10245000FF90EF90DF90CF90BF90AF909F908F90C4
:102460007F906F905F904F90089581E090E0A0E0A2
:10247000B0E067CE8091AC029091AD02A091AE0227
:10248000B091AF0283CE81E090E0A0E0B0E093CEC7
:102490008091A8029091A902A091AA02B091AB02EA
:1024A000AFCE81E090E0A0E0B0E0BFCE8091A4028A
:1024B0009091A502A091A602B091A702DBCE409117
:1024C000E4025091E5026091E6027091E70280918A
:1024D000E8029091E902A091EA02B091EB0248175C
:1024E00059076A077B07ACF04091E4025091E5027E
:1024F0006091E6027091E7028091E0029091E10222
:10250000A091E202B091E302481759076A077B07DE
:102510006CF58091B8029091B902A091BA02B09185
:10252000BB024091E0025091E1026091E2027091A1
:10253000E302841B950BA60BB70B8093D8029093F4
:10254000D902A093DA02B093DB028091C402909189
:10255000C502A091C602B091C7024091E00250911D
:10256000E1026091E2027091E30220CF8091C40207
:102570009091C502A091C602B091C7024091E402B9
:102580005091E5026091E6027091E702841B950B81
:10259000A60BB70B8093D8029093D902A093DA02CE
:1025A000B093DB028091B4029091B502A091B60283
:1025B000B091B7024091E4025091E5026091E602C9
:1025C0007091E702F3CE4AE0C701B60124DC19CFCF
:1025D0008C35910509F032CF808D918DA28DB38D10
:1025E0008093000390930103A0930203B09303032D
:1025F0008093190390931A03A0931B03B0931C03B9
:1026000028960FB6F894DEBF0FBECDBFDF91CF91F5
:102610001F910F91FF90EF90DF90CF90BF90AF9000
:102620009F908F907F906F905F904F900C945C0183
:10263000882309F403CF80910302882309F4FECE96
:102640004091E8025091E9026091EA027091EB0238
:102650008091E4029091E502A091E602B091E70238
:10266000481759076A077B077CF14091E8025091AF
:10267000E9026091EA027091EB028091E002909190
:10268000E102A091E202B091E302481759076A07FC
:102690007B07D4F04091DC025091DD026091DE02B4
:1026A0007091DF028091E8029091E902A091EA0224
:1026B000B091EB02481759076A077B070CF40EC16B
:1026C00081E080930102E8C14091E4025091E5026B
:1026D0006091E6027091E7028091E8029091E90230
:1026E000A091EA02B091EB02481759076A077B07ED
:1026F0000CF01CC24091DC025091DD026091DE02C0
:102700007091DF028091E0029091E102A091E202DB
:10271000B091E302481759076A077B078CF680914E
:10272000D8029091D902A091DA02B091DB0218167A
:1027300019061A061B06C4F58091D4029091D502A1
:10274000A091D602B091D7024091CC025091CD0217
:102750006091CE027091CF02840F951FA61FB71F04
:102760008093CC029093CD02A093CE02B093CF027F
:102770004091B4025091B5026091B6027091B702D7
:102780008091D8029091D902A091DA02B091DB0237
:10279000841B950BA60BB70B8093D8029093D9029C
:1027A000A093DA02B093DB028091C0029091C10243
:1027B000A091C202B091C302181619061A061B0690
:1027C000C4F58091B0029091B102A091B202B09193
:1027D000B3024091C8025091C9026091CA0270913F
:1027E000CB02840F951FA61FB71F8093C80290933A
:1027F000C902A093CA02B093CB024091B402509197
:10280000B5026091B6027091B7028091C0029091BA
:10281000C102A091C202B091C302841B950BA60B0A
:10282000B70B8093C0029093C102A093C202B093F1
:10283000C3028091B8029091B902A091BA02B091FE
:10284000BB024091D8025091D9026091DA02709196
:10285000DB02840F951FA61FB71F8093D8029093A9
:10286000D902A093DA02B093DB028091C402909166
:10287000C502A091C602B091C7024091C00250911A
:10288000C1026091C2027091C302840F951FA61FFE
:10289000B71F8093C0029093C102A093C202B0936D
:1028A000C3028091BC029091BD02A091BE02B09182
:1028B000BF024091D0025091D1026091D20270913A
:1028C000D302840F951FA61FB71F8093D002909349
:1028D000D102A093D202B093D302DEC08091D8027D
:1028E0009091D902A091DA02B091DB021816190674
:1028F0001A061B06C4F58091D4029091D502A091CE
:10290000D602B091D7024091CC025091CD02609195
:10291000CE027091CF02840F951FA61FB71F809320
:10292000CC029093CD02A093CE02B093CF024091FF
:10293000C4025091C5026091C6027091C702809195
:10294000D8029091D902A091DA02B091DB02841BE7
:10295000950BA60BB70B8093D8029093D902A09346
:10296000DA02B093DB028091C0029091C102A09183
:10297000C202B091C302181619061A061B06C4F546
:102980008091BC029091BD02A091BE02B091BF02A5
:102990004091D0025091D1026091D2027091D30245
:1029A000840F951FA61FB71F8093D0029093D1026A
:1029B000A093D202B093D3024091C4025091C502B9
:1029C0006091C6027091C7028091C0029091C102CD
:1029D000A091C202B091C302841B950BA60BB70B4A
:1029E0008093C0029093C102A093C202B093C3022D
:1029F0008091B8029091B902A091BA02B091BB0245
:102A00004091D8025091D9026091DA027091DB02B4
:102A1000840F951FA61FB71F8093D8029093D902E9
:102A2000A093DA02B093DB028091B4029091B502D8
:102A3000A091B602B091B7024091C0025091C1027C
:102A40006091C2027091C302840F951FA61FB71F29
:102A50008093C0029093C102A093C202B093C302BC
:102A60008091B0029091B102A091B202B091B302F4
:102A70004091C8025091C9026091CA027091CB0284
:102A8000840F951FA61FB71F8093C8029093C90299
:102A9000A093CA02B093CB028091DC029091DD0238
:102AA000A091DE02B091DF020196A11DB11D8093BD
:102AB000DC029093DD02A093DE02B093DF028091EE
:102AC000C8029091C902A091CA02B091CB02809332
:102AD000EC029093ED02A093EE02B093EF0280918E
:102AE000CC029091CD02A091CE02B091CF02809302
:102AF000F4029093F502A093F602B093F70280914E
:102B0000D0029091D102A091D202B091D3028093D1
:102B1000190390931A03A0931B03B0931C03109204
:102B20000202109203021092050288CC4091E40246
:102B30005091E5026091E6027091E7028091E00217
:102B40009091E102A091E202B091E3024817590787
:102B50006A077B070CF4CECD4091DC025091DD0278
:102B60006091DE027091DF028091E4029091E502B3
:102B7000A091E602B091E702481759076A077B0760
:102B80000CF09ECD8091D8029091D902A091DA02EA
:102B9000B091DB02181619061A061B06C4F58091BF
:102BA000B0029091B102A091B202B091B3024091F3
:102BB000C8025091C9026091CA027091CB02840F81
:102BC000951FA61FB71F8093C8029093C902A093B8
:102BD000CA02B093CB024091B8025091B902609101
:102BE000BA027091BB028091D8029091D902A09153
:102BF000DA02B091DB02841B950BA60BB70B809316
:102C0000D8029093D902A093DA02B093DB028091AC
:102C1000C0029091C102A091C202B091C3021816E5
:102C200019061A061B06C4F58091BC029091BD02DC
:102C3000A091BE02B091BF024091D0025091D1024A
:102C40006091D2027091D302840F951FA61FB71F07
:102C50008093D0029093D102A093D202B093D3027A
:102C60004091B8025091B9026091BA027091BB02D2
:102C70008091C0029091C102A091C202B091C302A2
:102C8000841B950BA60BB70B8093C0029093C102D7
:102C9000A093C202B093C3028091C4029091C50276
:102CA000A091C602B091C7024091D8025091D902BA
:102CB0006091DA027091DB02840F951FA61FB71F87
:102CC0008093D8029093D902A093DA02B093DB02EA
:102CD0008091B4029091B502A091B602B091B70272
:102CE0004091C0025091C1026091C2027091C30232
:102CF000840F951FA61FB71F8093C0029093C10237
:102D0000A093C202B093C3028091D4029091D502E5
:102D1000A091D602B091D7024091CC025091CD0241
:102D20006091CE027091CF02840F951FA61FB71F2E
:102D30008093CC029093CD02A093CE02B093CF02A9
:102D4000ABCEAF92BF92CF92DF92EF92FF920F93F2
:102D50001F93CF93DF9300D000D000D01F921F921B
:102D6000CDB7DEB76C01FE013196CE010C967F0126
:102D700020E22193E817F907E1F7DA0120E037E0D4
:102D80009D91B92E9923A9F19E32B9F43A3091F46C
:102D900080E02B960FB6F894DEBF0FBECDBFDF915B
:102DA000CF911F910F91FF90EF90DF90CF90BF9048
:102DB000AF90089528E03AE0E3CFEFE3F2E08491AA
:102DC000882321F031969813FACFE2CF321700F31F
:102DD0008FED890F8E35E0F68FE9890F8A3118F46F
:102DE00040EEB42EB90EF701E20FF11DB0822F5F55
:102DF000C7CF8981803261F28B01FB01838D948D75
:102E0000F601948F838FFB0116821782108611863C
:102E10001286138614861586F80182859385A4850B
:102E2000B585438954896589768984179507A607EE
:102E3000B70708F0ADCF25E0B695A795979587958C
:102E40002A95D1F7F82FFF70AF2EF80185818230D7
:102E500008F49ECFC8010E94F50C97FD99CFF801A8
:102E600082859385A485B5854F96A11DB11D828766
:102E70009387A487B587F0E2AF9EB0011124625E0C
:102E80007C4F6115710509F483CFFB018081882394
:102E900009F1853E19F4B11032C01EC04BE050E07C
:102EA000C7010E949B29892B09F0B6CF6A2DC60164
:102EB0002B960FB6F894DEBF0FBECDBFDF91CF913A
:102EC0001F910F91FF90EF90DF90CF90BF90AF9048
:102ED0000C94A30EB1105CCFF601A28A809110026F
:102EE00090911102A0911202B091130286879787E8
:102EF000A08BB18BFB018081882309F449CFBB24CF
:102F0000B3948ACFFC01808191810C94362820E50E
:102F100032E0FC013183208382819381009711F09C
:102F20000C9436280895CF93DF93EC01F0DFCE01A7
:102F3000DF91CF910C9436280F931F93CF93DF939B
:102F4000EC0188819981009759F02A813B812617ED
:102F5000370730F081E0DF91CF911F910F910895F5
:102F60008B016F5F7F4F0E94BF28009759F09983B4
:102F700088831B830A832C813D81232B59F7FC0115
:102F80001082E8CF80E0E7CFEF92FF920F931F937C
:102F9000CF93DF93EC017B018A01BA01CDDF288159
:102FA0003981811114C02115310519F0C9010E9420
:102FB0003628198218821D821C821B821A82CE0139
:102FC000DF91CF911F910F91FF90EF9008951D8396
:102FD0000C83B701C9010E94B129F1CFFB01DC01CB
:102FE00011961C921E9213961C921E921297159681
:102FF0001C921E9214978617970741F06081718189
:103000006115710519F044815581BECF0895FC0109
:10301000118210821382128215821482FB010190A8
:103020000020E9F73197AF01461B570BADCFEF9268
:10303000FF920F931F93CF93DF93EC017B018A01E3
:103040001B821A8288EE93E0A0E0B0E08C839D831F
:10305000AE83BF838EE392E0998388838DE190E015
:103060000E949A279A8F898F009779F02DE1F701B6
:10307000DC0101900D922A95E1F74CE050E0B80197
:10308000CE010C960E94B829188EDF91CF911F9126
:103090000F91FF90EF9008956F927F928F929F9281
:1030A000AF92BF92CF92DF92EF92FF920F931F9356
:1030B000CF93DF9300D000D0CDB7DEB7FC01848082
:1030C00095808114910409F499C0FB013C01A08012
:1030D000B180FC01E080F180B501C7010E94C729E1
:1030E000009709F48BC08C010E191F090F3F1007C0
:1030F00009F484C068010815190508F086C0F701B5
:10310000E00FF11FE114F10421F410920403E4E054
:10311000F3E08081803209F478C00F5F1F4FEACF5F
:103120008E199F097C012FEFE21AF20A0E151F0576
:1031300028F49E2D8F2D7801C92ED82E66E572E0D9
:10314000CE01019664DFF30104811581E016F106DA
:1031500018F5C016D10608F48601F301608171816B
:10316000FB01E00FF11FD08010826E0D7F1D6115F5
:103170007105B9F1FB0101900020E9F73197AF012A
:10318000461B570BCE010196FFDEF3018081918132
:10319000080F191FF801D08289819A81C12CD12C86
:1031A0007601009721F00E942A246B017C01CE0158
:1031B0000196A8DEC701B60126960FB6F894DEBFC9
:1031C0000FBECDBFDF91CF911F910F91FF90EF9078
:1031D000DF90CF90BF90AF909F908F907F906F9037
:1031E000089589819A81009711F00E9436281A82E9
:1031F00019821E821D821C821B82C7CFC12CD12C3A
:1032000080E8E82E8FEBF82ED5CFB501C7010E94DC
:10321000C729009709F084CF8FEF9FEF83CF2F92BC
:103220003F924F925F926F927F928F929F92AF9256
:10323000BF92CF92DF92EF92FF920F931F93CF93A3
:10324000DF93CDB7DEB7C058D1090FB6F894DEBF13
:103250000FBECDBF8091070290910802A091090294
:10326000B0910A020196A11DB11D809307029093AF
:103270000802A0930902B0930A0266E572E0CE014B
:10328000875B9F4FC4DE0E941B0E97FD26C08A30CD
:10329000910519F189831A822F960EAD1FAD2F97D4
:1032A0000F5F1F4FB801CE01875B9F4F45DE88231C
:1032B00051F32B962EAD3FAD2B972F968EAD9FAD34
:1032C0002F97BE016F5F7F4F820F931F0E94B1291E
:1032D0002F961FAF0EAF2F97D6CF6AE572E0CE01C3
:1032E0008D5B9F4F94DEBE01675B7F4FCE01CD9615
:1032F00075DEBE016D5B7F4FCE01CD96CDDE20E049
:1033000030E0A9010E94A22511E0882309F440C001
:103310006AE572E0CE01C7967ADEBE01675B7F4F39
:10332000CE01C1965BDEBE01695C7F4FCE01C196C6
:10333000B3DE20E030E040E85FE30E94A22511E028
:10334000882301F16AE572E0CE018B9660DEBE0152
:10335000675B7F4FCE01019641DEBE01655D7F4F09
:10336000CE01019699DE11E020E030E048EB52E416
:103370000E94A225811110E0CE010196C3DDCE018D
:103380008B96C0DDCE01C196BDDDCE01C796BADDFC
:10339000CE01CD96B7DDCE018D5B9F4FB3DD1123FE
:1033A00009F4D0C26CE572E0CE018B9630DEBE012E
:1033B000675B7F4FCE01019611DEBE01655D7F4FD9
:1033C000CE01019669DE6B966CAF7DAF8EAF9FAF7D
:1033D0006B97CE01019696DDCE018B9693DD6EE55F
:1033E00072E0CE018B9613DEBE01675B7F4FCE018C
:1033F0000196F4DDBE01655D7F4FCE0101964CDE86
:103400006F966CAF7DAF8EAF9FAF6F97CE01019679
:1034100079DDCE018B9676DD60E672E0CE018B968B
:10342000F6DDBE01675B7F4FCE010196D7DDBE01A1
:10343000655D7F4FCE0101962FDEA3966CAF7DAF09
:103440008EAF9FAFA397CE0101965CDDCE018B9628
:1034500059DD62E672E0CE018B96D9DDBE01675B75
:103460007F4FCE010196BADDBE01655D7F4FCE0173
:10347000019612DE4B015C01CE01019643DDCE01C7
:103480008B9640DD64E672E0CE018B96C0DDBE0116
:10349000675B7F4FCE010196A1DDBE01655D7F4F69
:1034A000CE010196F9DDA7966CAF7DAF8EAF9FAFD1
:1034B000A797CE01019626DDCE018B9623DD2091C4
:1034C0000702309108024091090250910A02679662
:1034D0002CAF3DAF4EAF5FAF67976AE572E0CE01AC
:1034E0008B9695DDBE01675B7F4FCE01019676DD41
:1034F000BE01655D7F4FCE010196CEDD0E943F2764
:1035000063966CAF7DAF8EAF9FAF639761968EADC4
:103510009FAD619797FD08C0823091050CF4D3C030
:103520008C35910509F47DC1CE010196EBDCCE010D
:103530008B96E8DCE3968CAD9DADAEADBFADE39769
:1035400089839A83AB83BC83CD82DE82EF82F88647
:10355000E7962CAD3DAD4EAD5FADE79729873A8735
:103560004B875C87C158DF4F3881CF57D0403D87AC
:10357000C058DF4F4881C058D0404E872F86388AC8
:10358000AF968CAD9DADAEADBFADAF97898B9A8B2D
:10359000AB8BBC8BEC969FADEC979D8BED96AFAD56
:1035A000ED97AE8BEE96BFADEE97BF8BEF962FAD3E
:1035B000EF97288F498E5A8E6B8E7C8EAB968CAD92
:1035C0009DADAEADBFADAB978D8F9E8FAF8FB8A3C6
:1035D0006196AEADBFAD6197BAA3A9A367962CADB6
:1035E0003DAD4EAD5FAD67972BA33CA34DA35EA34E
:1035F000E8963FADE8973FA3E9964FADE99748A716
:10360000EA965FADEA9759A7EB968FADEB978AA73D
:103610002091290630912A06A9014E5F5F4FE09064
:103620002506F090260680912706909128068E198F
:103630009F0995958795EDE3FFEC8E9FB0018F9FD5
:10364000700D9E9F700D1124641775070CF004C156
:10365000C9010196880F991F841795070CF4CA01B8
:10366000281739073CF09C012150310930932A0674
:10367000209329062AE2289F8001299F100D1124FA
:103680008D30934008F4D4C08FEF9FEF0E949A27AB
:103690006C01080F191FA0902906B0902A06970107
:1036A00050E040E0A416B5060CF4C4C06AE2F9018B
:1036B000DC0101900D926A95E1F74F5F5F4F265D47
:1036C0003F4F8A96EFCFA7966CAD7DAD8EAD9FAD87
:1036D000A7970E943F276B0120E030E048EC52E4BE
:1036E0006B966CAD7DAD8EAD9FAD6B970E9407263E
:1036F0000E943F27E3966CAF7DAF8EAF9FAFE397FD
:1037000020E030E048EC52E46F966CAD7DAD8EADBC
:103710009FAD6F970E9407260E943F27E7966CAFE8
:103720007DAF8EAF9FAFE79720E030E048EC53E4E9
:10373000A3966CAD7DAD8EAD9FADA3970E9407267D
:103740000E943F27AF966CAF7DAF8EAF9FAFAF9714
:1037500020E030E04CED52E4C501B4010E940726A0
:103760000E943F272B013C013FEFC316D30601F116
:10377000B601DD0C880B990B0E94A82520E030E0F3
:1037800040E752E40E94D72620E030E048EC52E4C3
:103790000E9407269B01AC0160E074E284E799E493
:1037A0000E94D7260E943F2770931502609314024F
:1037B00080911402909115026C01CC0CDD1C0D2C33
:1037C000000CEE08FF089C01990F440B550BAB96BB
:1037D0002CAF3DAF4EAF5FAFAB97E896CFAEE8975B
:1037E000E996DFAEE997EA96EFAEEA97EB96FFAE81
:1037F000EB97EC96CFAEEC97ED96DFAEED97EE96AD
:10380000EFAEEE97EF96FFAEEF97C158DF4FC8824D
:10381000CF57D040C058DF4FD882C058D040170192
:1038200083CEC501B4010E943F272B013C017CCE11
:10383000C8012CCFE114F10419F0C7010E94362809
:10384000D0922606C09225061093280600932706DC
:10385000B0922A06A092290680912506909126060C
:103860004091290650912A0620912706309128067A
:10387000281B390B359527956DE37FEC269F80013A
:10388000279F100D369F100D1124041B150B0230BD
:1038900011050CF054C0015011092AE2D22ED09E1D
:1038A0007001D19EF00C11244F5F5F4FD49E9001A8
:1038B000D59E300D1124A701BE016F5F7F4F820F8F
:1038C000931F0E94A82981E090E0801B910BD89E55
:1038D000A001D99E500D112461E070E06C0F7D1F96
:1038E0006E0D7F1D80912506909126060E94A829C5
:1038F0008091290690912A06019690932A0680933A
:103900002906CE01875B9F4FFDDAC058DF4F0FB607
:10391000F894DEBF0FBECDBFDF91CF911F910F9105
:10392000FF90EF90DF90CF90BF90AF909F908F90DF
:103930007F906F905F904F903F902F90089501E09F
:1039400010E0ABCF2F964EAD5FAD2F972B966EAD9F
:103950007FAD2B9780E295E00E94980184E592E08C
:103960000E94FE0ECECF1F920F920FB60F9211241F
:103970000BB60F922F933F934F935F936F937F9369
:103980008F939F93AF93BF93EF93FF9380E295E064
:103990000E940B02FF91EF91BF91AF919F918F9188
:1039A0007F916F915F914F913F912F910F900BBE3F
:1039B0000F900FBE0F901F9018951F920F920FB689
:1039C0000F9211240BB60F922F938F939F93EF9327
:1039D000FF93E0913005F09131058081E09136054B
:1039E000F091370582FD1DC09081809139058F5F70
:1039F0008F7320913A05821741F0E0913905F0E08C
:103A0000E05EFA4F958F80933905FF91EF919F917A
:103A10008F912F910F900BBE0F900FBE0F901F90A4
:103A200018958081F2CF1F920F920FB60F9211243A
:103A30002F933F938F939F93AF93BF9380911003E6
:103A400090911103A0911203B091130330910F03D1
:103A500023E0230F2D3758F50196A11DB11D2093AA
:103A60000F038093100390931103A0931203B0935C
:103A7000130380910B0390910C03A0910D03B0915F
:103A80000E030196A11DB11D80930B0390930C03AF
:103A9000A0930D03B0930E03BF91AF919F918F91AF
:103AA0003F912F910F900FBE0F901F90189526E811
:103AB000230F0296A11DB11DD2CF1F920F920FB6F8
:103AC0000F9211240BB60F920F931F932F933F93D6
:103AD0004F935F936F937F938F939F93AF93BF9316
:103AE000EF93FF9340910003509101036091020313
:103AF000709103038091190390911A03A0911B0305
:103B0000B0911C03481759076A077B0709F470C076
:103B10000091190310911A0320911B0330911C038B
:103B20008091000390910103A0910203B0910303DF
:103B300061E080179107A207B3070CF060E08CE109
:103B40000E94570380910602882341F14091190396
:103B500050911A0360911B0370911C038091000324
:103B600090910103A0910203B0910303841795077C
:103B7000A607B7078CF58091000390910103A091EF
:103B80000203B09103030196A11DB11D80930003B0
:103B900090930103A0930203B09303036091060284
:103BA00081E06827609306028AE10E945703FF9133
:103BB000EF91BF91AF919F918F917F916F915F91A5
:103BC0004F913F912F911F910F910F900BBE0F902E
:103BD0000FBE0F901F9018958091000390910103E4
:103BE000A0910203B09103030197A109B109CECFBF
:103BF00081E080930502DBCF1F920F920FB60F92E8
:103C000011240BB60F920F931F932F933F934F9353
:103C10005F936F937F938F939F93AF93BF93EF9334
:103C2000FF934091FC025091FD026091FE02709161
:103C3000FF028091150390911603A0911703B09194
:103C40001803481759076A077B0709F470C00091E9
:103C500015031091160320911703309118038091DA
:103C6000FC029091FD02A091FE02B091FF0261E082
:103C700080179107A207B3070CF060E080E30E9471
:103C8000570380910D02882341F140911503509113
:103C9000160360911703709118038091FC029091B4
:103CA000FD02A091FE02B091FF0284179507A607BE
:103CB000B7078CF58091FC029091FD02A091FE0265
:103CC000B091FF020196A11DB11D8093FC0290935B
:103CD000FD02A093FE02B093FF0260910D0281E00D
:103CE000682760930D028EE20E945703FF91EF91C7
:103CF000BF91AF919F918F917F916F915F914F9104
:103D00003F912F911F910F910F900BBE0F900FBEFF
:103D10000F901F9018958091FC029091FD02A09148
:103D2000FE02B091FF020197A109B109CECF81E057
:103D3000809304020E947A0FD9CF1F920F920FB680
:103D40000F9211240BB60F920F931F932F933F9353
:103D50004F935F936F937F938F939F93AF93BF9393
:103D6000EF93FF934091F8025091F9026091FA02AB
:103D70007091FB028091F4029091F502A091F602FD
:103D8000B091F702481759076A077B0709F470C01A
:103D90000091F4021091F5022091F6023091F702A1
:103DA0008091F8029091F902A091FA02B091FB0281
:103DB00061E080179107A207B3070CF060E08DE384
:103DC0000E94570380910E02882341F14091F40232
:103DD0005091F5026091F6027091F7028091F8021D
:103DE0009091F902A091FA02B091FB028417950715
:103DF000A607B7078CF58091F8029091F902A0917F
:103E0000FA02B091FB020196A11DB11D8093F80248
:103E10009093F902A093FA02B093FB0260910E0214
:103E200081E0682760930E028CE30E945703FF91A4
:103E3000EF91BF91AF919F918F917F916F915F9122
:103E40004F913F912F911F910F910F900BBE0F90AB
:103E50000FBE0F901F9018958091F8029091F90273
:103E6000A091FA02B091FB020197A109B109CECF4E
:103E700081E0809303020E947A0FD9CF1F920F92A4
:103E80000FB60F9211240BB60F920F931F932F931F
:103E90003F934F935F936F937F938F939F93AF93D2
:103EA000BF93EF93FF934091F0025091F102609124
:103EB000F2027091F3028091EC029091ED02A091D8
:103EC000EE02B091EF02481759076A077B0709F421
:103ED00070C00091EC021091ED022091EE02309141
:103EE000EF028091F0029091F102A091F202B09164
:103EF000F30261E080179107A207B3070CF060E0BE
:103F000087E30E94570380910F02882341F140917B
:103F1000EC025091ED026091EE027091EF028091FF
:103F2000F0029091F102A091F202B091F302841795
:103F30009507A607B7078CF58091F0029091F102E2
:103F4000A091F202B091F3020196A11DB11D8093E0
:103F5000F0029093F102A093F202B093F302609109
:103F60000F0281E0682760930F0286E30E945703E7
:103F7000FF91EF91BF91AF919F918F917F916F9141
:103F80005F914F913F912F911F910F910F900BBE19
:103F90000F900FBE0F901F9018958091F002909196
:103FA000F102A091F202B091F3020197A109B109C7
:103FB000CECF81E0809302020E947A0FD9CFCF92B8
:103FC000DF92EF92FF92CF93DF93E0E2F5E013826E
:103FD000128288EEC82E83E0D82EE12CF12CC48208
:103FE000D582E682F78280E292E09183808385EC3D
:103FF00090E09587848784EC90E09787868780ECB3
:1040000090E0918B808B81EC90E0938B828B82ECA3
:1040100090E0958B848B86EC90E0978B868B118E4D
:10402000128E138E148EEDEBF5E080E58083118205
:10403000EFEBF5E0158216821186138682E090E0A0
:10404000A0E0B0E084879587A687B78713A215A65E
:1040500014A682E392E093A782A717A6C3E2D6E054
:1040600080E592E09983888390E080E063D79B832A
:104070008A832FEF3FEF3F832E839D838C83E8E07D
:10408000F6E013821282C482D582E682F7828EE342
:1040900092E091838083128E118E1486DF91CF91EE
:1040A000FF90EF90DF90CF900895CF93DF93CDB73F
:1040B000DEB7C257D1090FB6F894DEBF0FBECDBF31
:1040C000789484B5826084BD84B5816084BD85B5F3
:1040D000826085BD85B5816085BD80916E008160FF
:1040E00080936E00109281008091810082608093A5
:1040F00081008091810081608093810080918000A7
:104100008160809380008091B10084608093B100D1
:104110008091B00081608093B000809191008260B6
:1041200080939100809191008160809391008091B3
:1041300090008160809390008091A10082608093C4
:10414000A1008091A10081608093A1008091A000D6
:1041500081608093A0008091210182608093210181
:1041600080912101816080932101809120018160F3
:104170008093200180917A00846080937A008091FE
:104180007A00826080937A0080917A0081608093C7
:104190007A0080917A00806880937A001092C10042
:1041A00061E086E30E94840361E087E30E94840368
:1041B00061E086E20E94840360E087E30E94570387
:1041C000109280001AE0109381001092820064E641
:1041D000E62EF12CF0928900E092880061E08CE3F9
:1041E0000E94840361E08DE30E94840361E088E320
:1041F0000E94840360E08DE30E94570310929000B8
:104200001093910010929200F0929900E092980021
:1042100061E08EE20E94840361E080E30E948403F7
:1042200061E08EE30E9484031092A0001093A1002D
:104230001092A200F092A900E092A80061E08AE149
:104240000E94840361E08CE10E94840361E088E1C4
:104250000E94840361E08CE10E94570310922001C8
:1042600010932101109222018CEA90E09093290191
:104270008093280162E083E00E94840362E08EE084
:104280000E94840362E082E10E94840361E089E08D
:104290000E94840361E084E00E94840360E08DE07A
:1042A0000E94840361E089E00E94570361E081E697
:1042B0000E94710EE0913005F091310582E080831B
:1042C000E0912C05F0912D051082E0912E05F091E2
:1042D0002F058FEC808310923805E0913405F09122
:1042E000350586E08083E0913205F09133058081C9
:1042F00080618083E0913205F09133058081886090
:104300008083E0913205F09133058081806880835D
:10431000E0913205F091330580818F7D808361E0EB
:1043200085E30E9484038091EE05882321F089EEC5
:1043300095E00E94A80A1092CA051092C805109232
:10434000C5051092C40584E08093C3050E94C00394
:104350008B0161E08091C3050E94840361E080913C
:10436000C3050E945703FFB6F8948091140381118E
:1043700027C0EEE2F2E08491E8EEF1E09491E82FBC
:10438000F0E0EE0FFF1FE756FE4FA591B491EC91C0
:10439000E92321F461E085E30E94570361E085E3AE
:1043A0000E9484038CB580618CBD8CB580648CBD0B
:1043B00061E084E30E94840361E083E30E9484035C
:1043C000809114038F5F80931403FFBE82E5809376
:1043D000BD051092BE058091BD059091BE050E945D
:1043E000FD034AE0F42E8FEF0E94DC03FA94F110F3
:1043F000FACF8FEB95E00E94000420E030E0A901A5
:1044000060E08FEB95E00E941404F82E8093C905BC
:1044100081E0F81689F00E94C003601B710B613DBA
:10442000774058F381E08093C4058FEB95E00E94BC
:10443000D2038BE792E07CC02AEA31E040E050E012
:1044400068E08FEB95E00E94140482FF2AC0F0928E
:10445000CA058091CA05C12CD12C7601823029F47D
:10446000C12CD12CE12C20E4F22E20E030E0A90177
:1044700067E38FEB95E00E941404A701960169E2BF
:104480008FEB95E00E9414048093C9058823D1F036
:104490000E94C003601B710B613D774030F388E0E0
:1044A000C2CF34E0F32E0E94E3038093C905FA944F
:1044B000F110F9CF8A3A11F082E0B5CF82E0809313
:1044C000CA05C7CF8091CA058230D1F420E030E020
:1044D000A9016AE38FEB95E00E941404882311F090
:1044E00086E0A1CF0E94E303807C803C19F483E046
:1044F0008093CA050E94E3030E94E3030E94E30342
:104500008FEB95E00E94D20380E58093BD05109269
:10451000BE0581E00E94E005882309F49FC089EE72
:1045200095E00E949208882309F483CF86E692E002
:104530000E946E0F1C821B8202E312E01A83098321
:104540001E82CE0101960E949208BE016F5F7F4FCE
:10455000CE01CB960E944B0C19A218A21F8F0E8F72
:104560001BA221968FAD219781117FC06C961FAE43
:104570001EAE6C9788EE93E0A0E0B0E0A0968CAF02
:104580009DAFAEAFBFAFA0978EE392E06A969FAFAC
:104590008EAF6A97E3961FAE1EAEE397A5961FAE49
:1045A000A5976C968EAD9FAD6C9790930B068093FC
:1045B0000A06A0968CAD9DADAEADBFADA097809321
:1045C0000C0690930D06A0930E06B0930F06A496CA
:1045D0008CAD9DADAEADBFADA4978093100690930A
:1045E0001106A0931206B0931306A8E5B0E0AC0F35
:1045F000BD1F1C96E4E1F6E08D91819386E0E132E7
:10460000F807D1F7E3968EAD9FADE397909322061E
:10461000809321068EE992E00E946E0FFF24F394AE
:104620000BE811E083E00E942F03892B09F43FC0BF
:10463000FF24F3940BE811E08EE00E942F03892BF6
:1046400009F041C060910E026F2560930E028CE369
:104650000E945703C8010197F1F7EECF80E00E9456
:10466000E005882309F4E5CE5ACF42E952E0BE01C5
:10467000655C7F4FCE014E960E94A116882309F4F7
:1046800075CFCE01CB960E94A80ABE01625E7F4F15
:10469000CE0101960E944B0C42E952E0BE016F5FD1
:1046A0007F4FCE01885A9F4F0E9417187ACF609192
:1046B0000F026F2560930F0286E30E945703C80123
:1046C0000197F1F7AFCF60E080E30E945703FF242A
:1046D000F3940BE811E082E10E942F03892B61F42F
:1046E00060910D026F2560930D028EE20E945703C8
:1046F000C8010197F1F7EFCF10920C0210920B0254
:1047000080910B0290910C0244970CF441C012E08E
:1047100080EDE82E87E0F82E90E4C92E9FE1D92E97
:104720000E948201BC01990F880B990B97FF3CC036
:104730000E944E0F84E592E00E94FE0E0E948201CC
:1047400061E0C3972CF40E948201889724F460E012
:1047500084E00E94570380E295E00E94F601892BD5
:1047600061F080E295E00E94D4018236910509F45F
:1047700049C0F4F48136910551F180912906909158
:104780002A06099714F40E940F190E949802C8CFB4
:104790000E940F1980910B0290910C020196909348
:1047A0000C0280930B02ACCF4AE00E940B0FC2CFE9
:1047B0008336910581F184369105F9F661E086E250
:1047C0000E94570361E088E30E945703D6CFD0923E
:1047D0002901C092280110937300809119039091D0
:1047E0001A03A0911B03B0911C0388519C4FAF4F3B
:1047F000BF4F8093190390931A03A0931B03B093A8
:104800001C03BBCF10936F001093710010937200C4
:1048100010937300B2CFF092A900E092A800109319
:1048200072008091150390911603A0911703B09127
:10483000180388519C4FAF4FBF4F8093150390933F
:104840001603A0931703B093180397CF83E296E063
:104850000C9487176627772700C08F929F92AF929C
:10486000BF92CF92DF92EF92FF920F931F93CF935D
:10487000DF935C017B016115710519F0DB018D93FC
:104880009C9385010F5F1F4FF501D0818D2F90E024
:1048900039D16C01892BA9F5DD32A9F50F5F1F4FC6
:1048A000D5011196DC91C1E05801F1E0AF1AB108D1
:1048B00043E050E06CEE70E0C5012CD1892B61F52E
:1048C000680182E0C80ED11C45E050E067EE70E060
:1048D000C60120D1892B21F4680197E0C90ED11CB3
:1048E000E114F10419F0D701CD92DC9260E070E0A0
:1048F00080E89FEFC111F9C060E070E080E89FE7B9
:10490000F4C05801BECFDB3229F485010E5F1F4F82
:10491000F501D181C0E0C8CF43E050E064EE70E023
:10492000C501F8D0892BE9F0F80110E000E020E0A3
:1049300030E0A9015F01B0ED8B2E8D0E89E0881566
:10494000C0F19C2E689491F88C2F8870C2FF16C01D
:10495000811102C00F5F1F4F3196D501DC91C92D27
:10496000E9CFE114F10429F00E5F1F4FF701118325
:10497000008360E070E080EC9FE7B7C0882311F00F
:1049800001501109A5E0B0E0F9D19B01AC01220F63
:10499000331F441F551F280D311D411D511D28393E
:1049A00099E93907490799E15907B0F2C6609C2E89
:1049B000D3CFAEEF8A1206C0C3FD3CC09C2E6894D4
:1049C00093F8CACFDF7DD534A9F580818D3239F4D3
:1049D000C061DF011296818162E070E006C0DF01F4
:1049E0008B32C1F3119661E070E080535D01A61A2D
:1049F000B70A8A30F8F4E0E8CE16ECE0DE065CF4A4
:104A0000B601660F771F660F771FC60ED71ECC0C38
:104A1000DD1CC80ED11C5D01FFEFAF1ABF0A8C91DF
:104A200080538A3098F1C4FF03C0D194C194D10857
:104A30000C0D1D1DC1FF09C0E114F10431F081E02E
:104A4000A81AB108D701AD92BC92CA01B9017ED0B3
:104A5000C370C33009F490584B015C0120E030E092
:104A6000A90170D0882309F43EC0CBE1D1E017FF43
:104A700005C0119501951109C3E0D1E06E01B8E1BF
:104A8000CB1AD10880E2E82EF12C0EC0D501B3CFAD
:104A9000FE0125913591459154910E191F09C501CB
:104AA000B401B5D04B015C01D501C4010E151F0541
:104AB0007CF72497F594E794CC16DD06A9F78A2FA6
:104AC000880F8B2F881F8F3F41F020E030E0A90135
:104AD000C501B40137D0811106C082E290E0909305
:104AE000560680935506C501B401DF91CF911F9101
:104AF0000F91FF90EF90DF90CF90BF90AF909F907D
:104B00008F9008959111E6C0803219F08950855038
:104B1000D0F70895FB01DC014150504088F08D91A1
:104B200081341CF08B350CF4805E659161341CF08F
:104B30006B350CF4605E861B611171F3990B08955F
:104B4000881BFCCF40D008F481E00895E89409C0A8
:104B500097FB3EF490958095709561957F4F8F4FB0
:104B60009F4F9923A9F0F92F96E9BB279395F695C6
:104B7000879577956795B795F111F8CFFAF4BB0F44
:104B800011F460FF1BC06F5F7F4F8F4F9F4F16C0A8
:104B9000882311F096E911C0772321F09EE8872F32
:104BA000762F05C0662371F096E8862F70E060E0EE
:104BB0002AF09A95660F771F881FDAF7880F969567
:104BC000879597F90895990F0008550FAA0BE0E80B
:104BD000FEEF16161706E807F907C0F012161306BF
:104BE000E407F50798F0621B730B840B950B39F4FF
:104BF0000A2661F0232B242B252B21F408950A2665
:104C000009F4A140A6958FEF811D811D08950BD059
:104C10007BC06CD028F071D018F0952309F05DC0EE
:104C200062C01124A5C081D0A0F3959FD1F3950F48
:104C300050E0551F629FF001729FBB27F00DB11D20
:104C4000639FAA27F00DB11DAA1F649F6627B00DB0
:104C5000A11D661F829F2227B00DA11D621F739F99
:104C6000B00DA11D621F839FA00D611D221F749FA7
:104C70003327A00D611D231F849F600D211D822FEE
:104C8000762F6A2F11249F5750408AF0E1F0882335
:104C90004AF0EE0FFF1FBB1F661F771F881F915042
:104CA0005040A9F79E3F510570F017C061C05F3FAB
:104CB000ECF3983EDCF3869577956795B795F79575
:104CC000E7959F5FC1F7FE2B880F911D96958795FD
:104CD00097F9089599278827089597F99F6780E89D
:104CE00070E060E008959FEF80EC089500240A943E
:104CF0001616170618060906089500240A941216B7
:104D00001306140605060895092E0394000C11F4E9
:104D1000882352F0BB0F40F4BF2B11F460FF04C096
:104D20006F5F7F4F8F4F9F4F089557FD9058440FEF
:104D3000551F59F05F3F71F04795880F97FB991FFA
:104D400061F09F3F79F087950895121613061406B7
:104D5000551FF2CF4695F1DF08C016161706180644
:104D6000991FF1CF86957105610508940895E8941F
:104D7000BB2766277727CB0197F9089509D0A59F10
:104D8000900DB49F900DA49F800D911D1124089546
:104D9000A29FB001B39FC001A39F700D811D11247C
:104DA000911DB29F700D811D1124911D08950CD08D
:104DB000ABCFA3DF40F09ADF30F021F45F3F19F072
:104DC0008CCF5111D5CF8FCFB0DF98F39923C9F392
:104DD0005523B1F3951B550BBB27AA276217730701
:104DE000840738F09F5F5F4F220F331F441FAA1FB5
:104DF000A9F333D00E2E3AF0E0E830D09150504075
:104E0000E695001CCAF729D0FE2F27D0660F771F22
:104E1000881FBB1F261737074807AB07B0E809F004
:104E2000BB0B802DBF01FF2793585F4F2AF09E3F99
:104E3000510568F052CF9CCF5F3FECF3983EDCF316
:104E4000869577956795B795F7959F5FC9F7880F12
:104E5000911D9695879597F90895E1E0660F771F64
:104E6000881FBB1F621773078407BA0720F0621BF5
:104E7000730B840BBA0BEE1F88F7E095089504D0EE
:104E80006894B11175CF089558DF88F09F5790F05E
:104E9000B92F9927B751A0F0D1F0660F771F881F5F
:104EA000991F1AF0BA95C9F712C0B13081F05FDFCF
:104EB000B1E008955CCF672F782F8827B85F39F06D
:104EC000B93FCCF3869577956795B395D9F73EF4BE
:104ED00090958095709561957F4F8F4F9F4F089566
:104EE000A1E21A2EAA1BBB1BFD010DC0AA1FBB1FEE
:104EF000EE1FFF1FA217B307E407F50720F0A21B60
:104F0000B30BE40BF50B661F771F881F991F1A94CC
:104F100069F760957095809590959B01AC01BD01F6
:104F2000CF010895EE0FFF1F881F8BBF0790F691EA
:104F3000E02D19940F931F93CF93DF938230910547
:104F400010F482E090E0E0915906F0915A0630E0CA
:104F500020E0B0E0A0E0309799F42115310509F484
:104F60004AC0281B390B24303105D8F58A819B8132
:104F70006115710589F1FB0193838283FE0111C0E4
:104F8000408151810281138148175907E0F0481789
:104F9000590799F4109761F012960C931297139693
:104FA0001C933296CF01DF91CF911F910F910895FD
:104FB0000093590610935A06F4CF2115310551F08C
:104FC0004217530738F0A901DB019A01BD01DF0147
:104FD000F801C1CFEF01F9CF90935A06809359069B
:104FE000CDCFFE01E20FF31F81939193225031093F
:104FF00039832883D7CF2091570630915806232B29
:1050000041F42091180230911902309358062093F0
:10501000570620911602309117022115310541F4EF
:105020002DB73EB740911A0250911B02241B350B3D
:10503000E0915706F0915806E217F307A0F42E1BF3
:105040003F0B2817390778F0AC014E5F5F4F2417EC
:10505000350748F04E0F5F1F509358064093570690
:10506000819391939FCFF0E0E0E09CCFCF93DF93CB
:105070000097E9F0FC01329713821282A091590641
:10508000B0915A06ED0130E020E01097A1F42081A4
:105090003181820F931F20915706309158062817AF
:1050A000390709F061C0F0935806E0935706DF9185
:1050B000CF910895EA01CE17DF07E8F54A815B81B9
:1050C0009E0141155105B1F7E901FB83EA8349913E
:1050D0005991C40FD51FEC17FD0761F480819181B0
:1050E0000296840F951FE9019983888382819381B9
:1050F0009B838A83F0E0E0E012968D919C91139758
:105100000097B9F52D913C911197CD010296820F30
:10511000931F20915706309158062817390739F602
:10512000309751F510925A0610925906B0935806CE
:10513000A0935706BCCFD383C28340815181840F93
:10514000951FC817D90761F44E5F5F4F8881998119
:10515000480F591F518340838A819B8193838283A7
:105160002115310509F0B0CFF0935A06E0935906A6
:105170009ECFFD01DC01C0CF13821282D7CF4F92A8
:105180005F926F927F928F929F92AF92BF92CF92D7
:10519000DF92EF92FF920F931F93CF93DF938C01D7
:1051A000009791F4CB01DF91CF911F910F91FF9068
:1051B000EF90DF90CF90BF90AF909F908F907F90B7
:1051C0006F905F904F90B6CEFC01E60FF71F9C01E9
:1051D00022503109E217F30708F4AAC0D901CD9192
:1051E000DC911197C617D70718F1C530D10570F0BB
:1051F000CE0104978617970748F0C61BD70B229756
:10520000C193D1936D937C93CF0130DFC801DF91BF
:10521000CF911F910F91FF90EF90DF90CF90BF90B3
:10522000AF909F908F907F906F905F904F90089578
:105230005B01AC1ABD0A4C018C0E9D1EA091590653
:10524000B0915A06512C412CF12CE12C109731F5DC
:1052500080915706909158068815990509F05CC011
:105260004616570608F058C0809116029091170212
:10527000009741F48DB79EB740911A0250911B02DE
:10528000841B950BE817F90708F052C0F0935806F5
:10529000E0935706F90171836083B8CF8D919C919B
:1052A000119712966C90129713967C901397A815ED
:1052B000B90559F56C0142E0C40ED11CCA14DB04D7
:1052C00020F1AC014A195B09DA011296159780F0BA
:1052D0006282738251834083D9016D937C93E11480
:1052E000F10471F0D7011396FC93EE9312978ECFD1
:1052F00022968C0F9D1FF90191838083F301EFCFDC
:10530000F0935A06E093590681CF4816590608F4DF
:105310002C017D01D3019ACFCB010CDE7C010097DB
:1053200039F0AE01B80114D0C801A0DE87016ECFFC
:1053300010E000E06BCFFB01DC0104C08D91019017
:10534000801921F441505040C8F7881B990B0895EB
:10535000FB01DC0102C001900D9241505040D8F792
:105360000895FB01DC0101900D920020E1F7089502
:10537000FB01DC014150504048F001900D920020AB
:10538000C9F701C01D9241505040E0F70895FB015C
:1053900051915523A9F0BF01DC014D9145174111F1
:1053A000E1F759F4CD010190002049F04D914015ED
:1053B0004111C9F3FB014111EFCF81E090E001976A
:1053C000089511E0C9E2D1E000E005C0802FFE01A0
:1053D000A9DD2196011DCA32D10780E00807B1F787
:0453E000F894FFCF6F
:1053E40001010101010101010000000100010101AD
:1053F400FFFFFFFFBC0200005B068000000000000E
:105404002D029801C5017902F601D401E8010000DA
:1054140000003B0C98016E0E9B0C00000000DF0C9A
:10542400C30C6E0E9C0CA30C120E4C0E000000005C
:10543400871793170D0A007570004700580059002C
:105444005A0045004600696E697469616C697A6145
:1054540074696F6E20646F6E652E00696E6974697D
:10546400616C697A6174696F6E206661696C6564E8
:10547400210073616D706C65332E747874007265ED
:04548400616400005F
:00000001FF
