:100000004FC100007EC100007CC100007AC1000029
:1000100078C1000076C1000074C1000072C1000008
:1000200070C100006EC100006CC100006AC1000018
:1000300068C1000066C1000064C1000062C1000028
:1000400060C100000C945F195CC100005AC100003F
:1000500058C1000056C1000054C100000C9404189F
:1000600050C100000C94CE170C94A4174AC1000094
:1000700048C1000046C1000044C1000042C1000068
:100080000C9410193EC100003CC100003AC10000B0
:1000900038C1000036C1000034C1000032C1000088
:1000A00030C100002EC100000C949A182AC1000033
:1000B00028C1000026C1000024C100000C944E1885
:1000C00020C100001EC100001CC100001AC10000B8
:1000D00018C1000016C1000014C1000012C10000C8
:1000E00010C10000084AD73B3BCE016E84BCBFFD67
:1000F000C12F3D6C74319ABD56833DDA3D00C77FF8
:1001000011BED9E4BB4C3E916BAAAABE0000008090
:100110003F05A84CCDB2D44EB93836A9020C50B91F
:10012000918688083CA6AAAA2ABE000000803F004B
:100130004E414E494E495459494E46CDCCCC3D0ACC
:10014000D7233C17B7D13877CC2B329595E6241FAF
:10015000B14F0A000020410000C84200401C462068
:10016000BCBE4CCA1B0E5AAEC59D740000200023B5
:1001700000260029002C002F00320000010000039F
:10018000010601090100000A0B02090C0D0E080707
:100190000304010000000000000000000000000057
:1001A000000000000000000000000000000000004F
:1001B000001211100000000000000000000000000C
:1001C00000000000000000000000007C3C3E5E2BB0
:1001D0003D3F2F5B5D3B2C2A225C00000022002566
:1001E0000028002B002E0031003400020100000521
:1001F0000108010B0100002100240027002A002D26
:10020000003000330001010000040107010A01056C
:10021000050505070508080808020202020A0A087F
:1002200008040404040101010101010101030303A5
:100230000303030303040707070C0C0C0C0C0C0C42
:100240000C0202020206060606060606060B0B0B49
:100250000B0B0B0B0B010210202008081020401084
:10026000204080020102010804020101020408107A
:100270002040808040201008040201800402018098
:1002800040201008040201080402010102040810C1
:10029000204080010204081020408000AE191B1B82
:1002A00011241FBECFEFD1E2DEBFCDBF00E00CBFF7
:1002B00025E0ACE9B2E001C01D92A53FB207E1F72D
:1002C00012E0A0E0B2E0E0E4F4E400E00BBF02C022
:1002D00007900D92AC39B107D9F711E0CFE4D1E026
:1002E00000E006C021970109802FFE010E94C01F77
:1002F000CE34D10780E00807A9F70E942E1A0C948B
:100300000F227ECE90E0FC01EB5AFD4F2491815FDD
:100310009D4FFC018491882399F090E0880F991FEC
:10032000FC01EB50FE4FA591B491FC01E552FE4F4C
:10033000859194918FB7F894EC91E22BEC938FBF59
:100340000895AF92BF92CF92DF92EF92FF920F93F8
:100350001F93CF93DF936C017B018B01040F151F5B
:10036000EB015E01AE18BF08C017D10759F06991C3
:10037000D601ED91FC910190F081E02DC601199517
:10038000892B79F7C501DF91CF911F910F91FF90D4
:10039000EF90DF90CF90BF90AF900895FC01538D08
:1003A000448D252F30E0842F90E0821B930B54174F
:1003B00010F0CF96089501970895FC01918D828DDC
:1003C000981761F0A28DAE0FBF2FB11D5D968C9175
:1003D000928D9F5F9F73928F90E008958FEF9FEFB4
:1003E0000895FC01918D828D981731F0828DE80F70
:1003F000F11D858D90E008958FEF9FEF0895FC012A
:10040000918D228D892F90E0805C9F4F821B9109F6
:100410008F739927089588EC94E0F1DF21E0892B10
:1004200009F420E0822F0895FC01A48DA80FB92FB4
:10043000B11DA35ABF4F2C91848D90E001968F730C
:100440009927848FA689B7892C93A089B1898C912B
:10045000837080648C93938D848D981306C002887A
:10046000F389E02D80818F7D80830895EF92FF9244
:100470000F931F93CF93DF93EC0181E0888F9B8DC7
:100480008C8D98131AC0E889F989808185FF15C081
:100490009FB7F894EE89FF896083E889F9898081A4
:1004A0008370806480839FBF81E090E0DF91CF9173
:1004B0001F910F91FF90EF900895F62E0B8D10E095
:1004C0000F5F1F4F0F731127E02E8C8D8E110BC005
:1004D0000FB607FCFACFE889F989808185FFF5CF4F
:1004E000CE01A2DFF2CFEB8DEC0FFD2FF11DE35A11
:1004F000FF4FF0829FB7F8940B8FEA89FB898081C8
:100500008062D0CFCF93DF93EC01888D8823B1F048
:10051000AA89BB89E889F9898C9185FD03C080810E
:1005200086FD0CC00FB607FCF7CF8C9185FFF2CF8C
:10053000808185FFEDCFCE0177DFEACFDF91CF91CC
:10054000089580E090E0892B21F065DF81110E9401
:10055000000080E090E0892B49F080E090E0892B5A
:1005600029F00E94000081110E94000080E090E0CC
:10057000892B49F080E090E0892B29F00E9400004F
:1005800081110E94000080E090E0892B49F080E01A
:1005900090E0892B29F00E94000081110C9400004A
:1005A00008958150823108F05AC0E82FF0E0882782
:1005B000E352FD4F8F4F0C94C01FFD020103EF0269
:1005C000F502F9022F0304030A030E0314031803B0
:1005D0001C03220326032F032A03300334038091D4
:1005E00080008F77809380000895809180008F7DB8
:1005F000F9CF80918000877FF5CF84B58F7784BD58
:10060000089584B58F7DFBCF8091B0008F77809364
:10061000B00008958091B0008F7DF9CF8091900057
:100620008F77809390000895809190008F7DF9CF0F
:1006300080919000877FF5CF8091A0008F77809385
:10064000A00008958091A0008F7DF9CF8091A00037
:10065000877FF5CF809120018F77809320010895C7
:10066000809120018F7DF9CF80912001877FF5CF88
:100670001F93CF93DF93282F30E0F901EB57FE4F04
:100680008491F901EB5AFD4FD491F901E15FFD4FDF
:10069000C491CC23A1F0162F811183DFEC2FF0E061
:1006A000EE0FFF1FE552FE4FA591B4918FB7F8945E
:1006B000EC91111108C0D095DE23DC938FBFDF9140
:1006C000CF911F910895DE2BF8CF2FB7F89460914A
:1006D000B9027091BA028091BB029091BC022FBF07
:1006E00008958FB7F8948091AF028FBF089561E0AD
:1006F000FC018481BDDF8091AE0281111092AE02B7
:1007000008958EBD00000DB407FEFDCF8EB508958F
:100710008FEFF7CF0F931F93CF93DF93EC01D5DFCC
:100720008B01F6DF8F3F61F0D0DF601B710B6C1720
:100730007D07B8F380E0DF91CF911F910F9108956D
:1007400081E0F9CF8CBD9DBD0895CF93DF93EC017F
:100750008091AE02811108C081E08093AE02809149
:10076000650590916605EEDF60E08C81DF91CF91A9
:100770007FCF8F929F92AF92BF92FF920F931F9362
:10078000CF93DF93EC01F62E49015A018E81882325
:1007900079F08F8198859C012F5F3F4F38872F8399
:1007A0008230924010F4B4DFF4CFCE01A0DF1E827D
:1007B000CE01CBDF8CE291E0ADDF8F2D8064A1DF35
:1007C00008E110E0D501C401002E04C0B695A7953C
:1007D000979587950A94D2F794DF08501109083F3E
:1007E0008FEF180779F785E9FF2021F028E087E8E7
:1007F000F2128FEF86DF10E08BDF8A8787FF04C05D
:100800001F3F11F01F5FF8CFDF91CF911F910F9124
:10081000FF90BF90AF909F908F900895AF92BF923E
:10082000CF92DF92EF92FF920F931F93CF93DF93BC
:10083000EC016901C801820F931F8130924048F595
:100840008E81882379F088819981AA81BB81841760
:100850009507A607B70731F48F819885C816D90682
:1008600008F03CC0488359836A837B838B8583303F
:1008700039F089E0440F551F661F771F8A95D1F71D
:100880009A01AB0161E1CE0174DF882381F083E03E
:100890008D83CE012CDF80E0DF91CF911F910F91EE
:1008A000FF90EF90DF90CF90BF90AF9008950DDF55
:1008B0005B012EDF8A878F3F59F407DF6A197B09B6
:1008C0006D327140B0F38FE08D83CE0110DFE1CF48
:1008D0008E3F81F418861F8281E08E838F819885F8
:1008E0008C159D0548F414DF8F81988501969887B3
:1008F0008F83F4CF8DE0E8CF6701E00EF11E08DFB3
:10090000F60181936F01EE15FF05C9F78F81988578
:10091000080F191F18870F838985882319F001157F
:10092000124090F08E81882379F08F8198859C0108
:100930002F5F3F4F38872F838230924010F4E8DEDC
:10094000F4CFCE01D4DE1E8281E0A6CFEF92FF92DB
:100950000F931F93CF93DF93EC01790182E141154F
:1009600051056105710591F08B85833039F089E07F
:10097000440F551F661F771F8A95D1F79A01AB0167
:1009800068E1CE01F6DE882319F084E08D8328C06B
:100990008EEFB7DE87018EEFF81AF80181918F0193
:1009A000B0DE0E151F05C9F78FEFABDE8FEFA9DEA6
:1009B000AFDE8A878F71853079F488E592E0AADE10
:1009C000882391F020E030E0A9016DE0CE01D1DE76
:1009D000882361F084E1DACF81E18D83CE0187DE67
:1009E000CE0185DE80E008C085E1D0CF91DE8111A7
:1009F000F1CFCE017CDE81E0DF91CF911F910F918D
:100A0000FF90EF900895CF93DF938091C5028823E4
:100A100099F1C091C604D091C70440910C02509145
:100A20000D0260910E0270910F0226EC32E0CE01B1
:100A30008DDF811104C080E0DF91CF910895409156
:100A4000B0025091B1026091B2027091B3024115AF
:100A500051056105710571F026EC32E0CE0176DFBB
:100A6000882349F31092B0021092B1021092B202A0
:100A70001092B3021092C50281E0DECF8F929F9256
:100A8000AF92BF92EF92FF920F931F93CF934B01C0
:100A90005C01C42F80910C0290910D02A0910E0276
:100AA000B0910F0288159905AA05BB0539F1ABDF96
:100AB00081110BC080E0CF911F910F91FF90EF90BB
:100AC000BF90AF909F908F90089586ECE82E82E0C3
:100AD000F82E00E012E030E020E0B501A4018091A2
:100AE000C6049091C7049ADE882321F380920C02F9
:100AF00090920D02A0920E02B0920F024091C50298
:100B00004C2B4093C50281E0D6CF8F929F92AF923B
:100B1000BF92CF92DF92EF92FF92CF9327E635E01C
:100B20003093C7042093C604882309F46BC040E0C7
:100B300060E070E0CB01A2DF81110BC080E0CF91BB
:100B4000FF90EF90DF90CF90BF90AF909F908F90ED
:100B50000895809184048F7789F780919004909113
:100B60009104A0919204B091930484369105A1055B
:100B7000B10520F3C0908C04D0908D04E0908E04D9
:100B8000F0908F04C114D104E104F104B9F240E003
:100B9000C701B60173DF882389F28091D102909159
:100BA000D2028115924051F6A091D602AA2331F2C9
:100BB0006091D4027091D5026115710509F4BECF20
:100BC0002091D302222309F4B9CFA0938505209365
:100BD000770590E080E030E0E1E0F0E0C82FAF0181
:100BE000082E02C0440F551F0A94E2F72417350758
:100BF00069F041E0480F01968930910579F74093FB
:100C000080059CCFC12CD12C7601C1CF809380056B
:100C10002091DC023091DD0250E040E021153105E9
:100C200041F42091EA023091EB024091EC025091A4
:100C3000ED02209378053093790540937A0550931F
:100C40007B0546015701860E971EA11CB11C8092A0
:100C5000860590928705A0928805B0928905E0915B
:100C6000D702F091D802F0938C05E0938B05B0E0A9
:100C70000E94B31DDC01CB01880D991DAA1DBB1D6F
:100C800080938D0590938E05A0938F05B09390056A
:100C900025E0EE0FFF1F2A95E1F7E150FE4FEF2F01
:100CA000FF27E6958E0F9F1FA11DB11D8093810523
:100CB00090938205A0938305B09384058090D90218
:100CC0009090DA02B12CA12C8114910441F480900F
:100CD000E6029090E702A090E802B090E902C81AFC
:100CE000D90AEA0AFB0AC80CD91CEA1CFB1C04C07E
:100CF000F694E794D794C794CA95D2F7C0927C052E
:100D0000D0927D05E0927E05F0927F0585EFC816B2
:100D10008FE0D806E104F10428F48CE080938A0582
:100D200081E00DCF80E125EFC2162FEFD206E1045E
:100D3000F104A0F38091F2029091F302A091F402E9
:100D4000B091F50280938D0590938E05A0938F0549
:100D5000B093900580E2E2CF4F925F926F927F92C4
:100D60008F929F92AF92BF92CF92DF92EF92FF92BB
:100D70000F931F93CF93DF93EC0142305105610530
:100D8000710590F480E0DF91CF911F910F91FF905A
:100D9000EF90DF90CF90BF90AF909F908F907F901B
:100DA0006F905F904F90089589859A85AB85BC853B
:100DB0000196A11DB11D84179507A607B70710F36B
:100DC000CB88DC88ED88FE888F89803109F042C0AD
:100DD000BB27A72F962F852F480159012A013B01D8
:100DE000C80ED91EEA1EFB1E80910C0290910D02C6
:100DF000A0910E02B0910F02C816D906EA06FB06B2
:100E000099F58F898031B9F5B301A201552766277D
:100E10007727440F551F4A535D4FFA019182808214
:100E20008091C50281608093C5028A89823080F0FA
:100E30008D819E81AF81B8858C0D9D1DAE1DBF1D1E
:100E40008093B0029093B102A093B202B093B30228
:100E500081E099CFDB01CA01E7E0B695A7959795A8
:100E60008795EA95D1F7B8CF40E0C701B60106DE15
:100E70008111C7CF87CFB301A2014F7755276627CE
:100E80007727440F551F440F551F4A535D4FFA01F2
:100E900080829182A282B382C3CF8F929F92AF92BF
:100EA000BF92CF92DF92EF92FF920F931F93CF9357
:100EB000DF93FC0181859285A385B4850196A11DF0
:100EC000B11D84179507A607B70770F480E0DF917E
:100ED000CF911F910F91FF90EF90DF90CF90BF9037
:100EE000AF909F908F90089583889488A588B68846
:100EF0008789803189F5BB27A72F962F852FE90198
:100F00006A017B018F01BC01CD01680D791D8A1D2D
:100F10009B1D80900C0290900D02A0900E02B0904C
:100F20000F0286169706A806B90601F5F80187890B
:100F3000803109F5DD24EE24FF24F601EE0FFF1FBA
:100F4000EA53FD4F80819181B0E0A0E088839983CE
:100F5000AA83BB8381E0BBCFDB01CA01C7E0B695A2
:100F6000A79597958795CA95D1F7C9CF40E086DDBB
:100F70008111DCCFABCFE894C7F8DD24EE24FF2449
:100F8000F601EE0FFF1FEE0FFF1FEA53FD4F8081AA
:100F90009181A281B381BF70D9CF4F925F926F923E
:100FA0007F92AF92BF92CF92DF92EF92FF920F9318
:100FB0001F93CF93DF9300D01F92CDB7DEB78C0184
:100FC00049835A836B837C835901C12CD12C7601D0
:100FD000412C82E0582E612C712C49815A816B8101
:100FE0007C819E012F5F3F4FC80157DF882339F175
:100FF000F8018585A301920104C0220F331F441F0D
:10100000551F8A95D2F7DA01C901C80ED91EEA1E0A
:10101000FB1E49815A816B817C818789803111F166
:1010200088EF9FEFAFEFBFE0481759076A077B07CC
:10103000A0F2F501C082D182E282F38281E00F90BA
:101040000F900F900F90DF91CF911F910F91FF9014
:10105000EF90DF90CF90BF90AF907F906F905F90B8
:101060004F90089588EF9FEFA0E0B0E0DDCFCF93E1
:10107000DF93FC012581222321F080E0DF91CF91D5
:101080000895EC0180918A05803159F582E08583CD
:10109000178A108E118E128E80918B0590918C057F
:1010A000B0E0A0E025E0880F991FAA1FBB1F2A957A
:1010B000D1F7838B948BA58BB68B83E795E09C8FC0
:1010C0008B8F81E08C831E821F82188619861A8678
:1010D0001B861C861D861E861F86188A198A1A8AF8
:1010E000CDCF803251F683E0858340918D055091BC
:1010F0008E0560918F0570919005478B508F618FA1
:10110000728F9F012D5E3F4F83E795E046DF81118F
:10111000D4CFB3CF8F929F92AF92BF92CF92DF92F4
:10112000EF92FF920F931F93CF93DF93EC018D818A
:1011300081110EC080E0DF91CF911F910F91FF9040
:10114000EF90DF90CF90BF90AF909F908F900895D9
:101150000B891C892D893E89041715072607370737
:1011600048F34A015B01823031F48A869B86AC8663
:10117000BD8681E0E0CF81149104A104B10449F45B
:101180001E821F82188619861A861B861C861D865B
:10119000F0CF0A851B852C853D85EB8DFC8D8585E3
:1011A00090E00996B901A8014150510961097109FE
:1011B000082E04C076956795579547950A94D2F7FF
:1011C00075016401E1E0CE1AD108E108F10804C01C
:1011D000F694E794D794C7948A95D2F7C416D506A7
:1011E000E606F70620F0012B022B032B09F58F8969
:1011F000988DA98DBA8D8E839F83A887B9878E011C
:101200000A5F1F4FC114D104E104F10409F4ADCF0A
:101210004E815F816885798598018B8D9C8D3DDE3F
:1012200091E0C91AD108E108F1088111EBCF82CF12
:10123000C41AD50AE60AF70AE2CF3F924F925F92AC
:101240006F927F928F929F92AF92BF92CF92DF92D6
:10125000EF92FF920F931F93CF93DF93CDB7DEB73B
:101260002C970FB6F894DEBF0FBECDBF5C01DC013A
:101270005B968D909C905C9716964D905D906D90CE
:101280007C901997411451046104710409F467C0FA
:10129000BFEF4B1A5B0A6B0A7B0A312CF401818584
:1012A0009285A385B4859C01AD012F5F3F4F4F4FC1
:1012B0005F4F29873A874B875C87730162011D82E4
:1012C0001E821F821886F40181859285A385B485CC
:1012D0002D813E814F815885281739074A075B07C2
:1012E00008F054C089859A85AB85BC858C159D0511
:1012F000AE05BF0550F482E0C82ED12CE12CF12CB4
:1013000092E0492E512C612C712C9E012F5F3F4F92
:10131000B701A601C401C1DD8823C1F189819A8189
:10132000AB81BC81892B8A2B8B2B09F126013701DC
:101330009FEF491A590A690A790A2D813E814F8126
:1013400058852F5F3F4F4F4F5F4F2D833E834F8315
:1013500058873FEFC31AD30AE30AF30AB4CFF40164
:1013600040805180628073803324339497CFC414BB
:10137000D504E604F70409F70FEF1FEF2FEF3FE066
:10138000B701A601C401E8DC811119C080E02C96E8
:101390000FB6F894DEBF0FBECDBFDF91CF911F9186
:1013A0000F91FF90EF90DF90CF90BF90AF909F9004
:1013B0008F907F906F905F904F903F900895F501D0
:1013C000468157816085718541155105610571051B
:1013D00031F097018601C401BFDC8823B9F2D50141
:1013E0001696CD92DD92ED92FC921997332051F032
:1013F000D701C6010196A11DB11DF401808391831F
:10140000A283B383F5018789908DA18DB28D892B3D
:101410008A2B8B2B39F4C78AD08EE18EF28E848191
:101420008068848381E0B3CFCF93DF93EC018D811B
:10143000882379F18C8187FF29C06E857F85888913
:10144000998941E01BDB882321F1EA8980E2E89F4A
:10145000F0011124EA53FD4F3097D9F08D8182308D
:1014600040F48B899C89AD89BE89848F958FA68F26
:10147000B78F8F89988D938F828F8F89988DA98D43
:10148000BA8DB58BA48B8C818F778C83DF91CF91B4
:10149000BACA80E0DF91CF910895CF93DF93EC013A
:1014A000C3DF882311F01D8281E0DF91CF91089581
:1014B0002F923F924F925F926F927F928F929F9264
:1014C000AF92BF92CF92DF92EF92FF920F931F9352
:1014D000CF93DF9300D01F92CDB7DEB78C015B01B5
:1014E0001A01DC0115968C911597813009F0C5C061
:1014F00014968C9181FFC1C082FDACC06101D801FE
:101500001A964D915D916D917C911D97C114D104F6
:1015100009F423C15B968D919C915C97FC017480CA
:101520002FEF270D2A013B0139E0769467945794F9
:1015300047943A95D1F7722E74207A01F1E0FF2298
:1015400071101FC0E114F104E1F416964D915D9104
:101550006D917C911997411551056105710509F04F
:1015600095C057968D919D910D90BC91A02D00979F
:10157000A105B10509F0ABC0C8015FDE882309F4FD
:101580007CC080E092E08E199F0946018C159D0574
:1015900008F44C01D8015B964D915C915C971696CE
:1015A0008D919D910D90BC91A02D0297A109B1093B
:1015B000FA01258504C0880F991FAA1FBB1F2A9511
:1015C000D2F74685578560897189840F951FA61FBC
:1015D000B71F9C01AD01270D311D411D511D290172
:1015E0003A01811432E0930609F077C080910C0231
:1015F00090910D02A0910E02B0910F0284159505F5
:10160000A605B70559F48FEF9FEFDC0180930C021C
:1016100090930D02A0930E02B0930F029501B301B7
:10162000A2018091C6049091C70490D9882329F122
:101630009EEFB91AC818D908F80182859385A48548
:10164000B585880D991DA11DB11D82879387A4873B
:10165000B58755CFF8014389548965897689828594
:101660009385A485B585481759076A077B0709F450
:1016700045CFC8014FDD811141CF81E090E0D80115
:1016800013969C938E93129780E006C09E012F5F65
:101690003F4F03DC811102C090E075C089819A81BF
:1016A000AB81BC81F801238D348DF901278948EF86
:1016B0005FEF60E070E0203121F048EF5FEF6FEF07
:1016C0007FE084179507A607B70708F055CFF80104
:1016D00086839783A087B18754CFE114F10489F5FD
:1016E000D8011A964D915D916D917C911D975396FD
:1016F0008D919D910D90BC91A02D481759076A07B7
:101700007B07F8F080D9882309F4B7CF40920C0208
:1017100050920D0260920E0270920F028091C502EB
:1017200081608093C50297012A533D4FD501C901BD
:10173000880D991DF9018E179F0751F04D91419326
:10174000FACF41E0C301B20199D98111ECCF95CF15
:10175000821B930BA80EB91E6DCFF8018389948963
:10176000A589B68984179507A607B70738F4848139
:10177000438B548B658B768B80688483F8018481DE
:1017800083FD18C0C1010F900F900F900F90DF9153
:10179000CF911F910F91FF90EF90DF90CF90BF906E
:1017A000AF909F908F907F906F905F904F903F9001
:1017B0002F900895C80138DE882309F45ECFE2CF68
:1017C000CF93DF931F92CDB7DEB7698341E050E03E
:1017D000BE016F5F7F4F6CDE0F90DF91CF91089558
:1017E000FC01DB0112968D919C9113979383828368
:1017F0008EE292E09183808314968C911497848377
:1018000015968C911597858316964D915D916D91E6
:101810007C91199746835783608771871A964D91FB
:101820005D916D917C911D97428753876487758781
:101830001E964D915D916D917C915197468757878A
:10184000608B718B52968C915297828B53964D91EF
:101850005D916D917C915697438B548B658B768B04
:1018600057964D915D916D917C915A97478B508F12
:10187000618F728F5B968D919C91948F838F089569
:101880000895FC01818D928D009709F0CDCD0895CA
:10189000DC015996ED91FC913097B9F083899489D8
:1018A000A589B6894285538564857585841B950B0A
:1018B000A60BB70B811520E89207A105B10538F0FA
:1018C0008FEF9FE7A0E0B0E0089590E080E00895FA
:1018D000CF93DF93EC01E98DFA8D309749F481E0E5
:1018E00090E09B838A8390E080E0DF91CF91089520
:1018F00013821282898D9A8DDBDDE98DFA8D22812A
:101900003381232B61F7F1CFCF93DF931F92CDB7B4
:10191000DEB76983DC01ED91FC910280F381E02D5B
:1019200041E050E0BE016F5F7F4F19950F90DF914E
:10193000CF9108952F923F924F925F926F927F9234
:101940008F929F92AF92BF92CF92DF92EF92FF92CF
:101950000F931F93CF93DF9300D0CDB7DEB7FC0179
:101960008581811118C08FEF9FEF0F900F900F901E
:10197000DF91CF911F910F91FF90EF90DF90CF906B
:10198000BF90AF909F908F907F906F905F904F909F
:101990003F902F900895848180FFE5CF438954893B
:1019A0006589768982859385A485B585312C212C1E
:1019B000481759076A077B0719F022242394312C12
:1019C0006F012101CE0101963C01DF011696BB8318
:1019D000AA834114510409F4C3C0F601428553851A
:1019E000648575854A01F1E09F22D6015B968D9151
:1019F0009C915C978A019B01E9E0369527951795A4
:101A00000795EA95D1F71596EC91E230E1F5FC01E6
:101A1000628D738D848D958D600F711F821F931F52
:101A2000A12C22E0B22EA818B9084A145B0408F4CD
:101A30005201F601248126FD04C0A114F2E0BF0684
:101A400071F400910C0210910D0220910E02309160
:101A50000F02061717072807390709F05CC040E096
:101A60000DD8882309F47FCFC4018A539D4FD30139
:101A70009C012A0D3B1DFC012E173F0709F46BC08A
:101A800041914D93F9CFDC011496BC90BA94B022E9
:101A90008114910479F4B1100DC0452B462B472BCE
:101AA00069F5F6018789908DA18DB28D8683978324
:101AB000A087B187D6015B96ED91FC915C97169655
:101AC0006D917D918D919C91199762507109810959
:101AD0009109258504C0660F771F881F991F2A95D5
:101AE000D2F70685178520893189600F711F821F03
:101AF000931F6B0D711D811D911D92CFD6011696FE
:101B00004D915D916D917C9119972A813B81C5D949
:101B10008111D0CF28CF730185019401AB01BC01A5
:101B20008091C6049091C7040E940E04882309F492
:101B30001ACF6A0C7B1CF60182859385A485B58536
:101B40008A0D9B1DA11DB11D82879387A487B58730
:101B50004A185B083ECF281B390B620E731EEBCF71
:101B60002A94232809F0FFCE898190E0FECEFC0163
:101B7000818D928D009709F0DDCE8FEF9FEF089554
:101B80000F931F930E9465036093DC057093DD053E
:101B90008093DE059093DF0584ED95E0E8DF97FF05
:101BA0001DC00E9465030091DC051091DD052091A8
:101BB000DE053091DF05601B710B820B930B0091EA
:101BC000D8051091D9052091DA053091DB05601711
:101BD00071078207930700F38FEF9FEF1F910F911B
:101BE00008950F931F93CF93DF93EC01898D9A8D06
:101BF00010E000E0009789F09DDE8C010F3F100798
:101C000061F0898D9A8DFC014285538564857585C7
:101C100041505109610971097DDAC801DF91CF9105
:101C20001F910F91089590E080E00895CF93883739
:101C300089F0C62F893744F4813609F1853641F49D
:101C400061E06C2788E109C0893751F08A3761F07B
:101C5000CF910895C1E06C2786E2CF910C943803B0
:101C600061E06C2788E3F9CF61E0C627C0930002EA
:101C70006C2F8EE30E9438036C2F8EE1EECF88E745
:101C8000D5DF6C2F89E7D2DF6C2F8AE7CFDFD8CF83
:101C90000F931F93CF93DF93EC0180E2689FF001D5
:101CA0001124EA53FD4F6A8B80910C0290910D0232
:101CB000A0910E02B0910F028E879F87A88BB98BDF
:101CC0000489158930E020E09801112700270F8B47
:101CD000188F298F3A8F828D938DB0E0A0E0AC01F0
:101CE000BD01402B512B622B732B4F8B588F698F6B
:101CF0007A8F83858871A9F4848D958DA68DB78D93
:101D00008B8B9C8BAD8BBE8B81E08D8381E08C8334
:101D10001E821F82188619861A861B861C861D86BF
:101D200003C0803131F080E0DF91CF911F910F919E
:101D300008959E012D5E3F4F8B8D9C8D2ED988235B
:101D400091F384E0E2CFCF93DF93FC010190002078
:101D5000E9F73197AF01481B590BBC0188EC94E0BF
:101D60000E94A101EC0142E050E060E572E088ECE5
:101D700094E00E94A1018C0F9D1FDF91CF910895E7
:101D8000FF920F931F93CF93DF93809103028823D9
:101D900009F4B2C080910502882309F4ADC0809196
:101DA000B6059091B705019609F4A6C083E592E0C7
:101DB000CADFE091B205F091B30580819181880F6F
:101DC000991F9093A00280939F0285819681880F2E
:101DD000991F9093A4028093A30282859385880F14
:101DE000991F9093A8028093A70287859089880FF6
:101DF000991F9093AC028093AB026281F780F092BE
:101E00000202048500930802118910930102C38124
:101E1000D481D093D305C093D205808591859093CA
:101E2000D1058093D005858596859093CF058093C5
:101E3000CE05828993899093CD058093CC0587E365
:101E40000E9438036F2D8DE30E943803602F80E3DA
:101E50000E943803612F82E20E943803D0938900E8
:101E6000C09388008091D0059091D10590939900FE
:101E7000809398008091CE059091CF059093A90012
:101E80008093A8008091CC059091CD059093290175
:101E900080932801109203021092050244E150E061
:101EA00030E020E08091B6059091B7058217930746
:101EB000ACF02F5F3F4F8217930784F0E091B2059B
:101EC000F091B305E40FF51FDF01549784E1019011
:101ED0000D928A95E1F74C5E5F4FE4CF01979093A6
:101EE000B7058093B60582E080936F008093710000
:101EF0008093720080937300DF91CF911F910F91B7
:101F0000FF900895AF92BF92CF92DF92EF92FF922F
:101F10000F931F93CF93DF9300D000D000D01F9278
:101F20001F92CDB7DEB76C01FE013196CE010C9643
:101F30007F0120E22193E817F907E1F7DA0120E0B9
:101F400037E09D91B92E9923A9F19E32B9F43A3028
:101F500091F480E02B960FB6F894DEBF0FBECDBF94
:101F6000DF91CF911F910F91FF90EF90DF90CF9075
:101F7000BF90AF90089528E03AE0E3CFEBECF1E0BA
:101F80008491882321F031969813FACFE2CF32174B
:101F900000F38FED890F8E35E0F68FE9890F8A31D6
:101FA00018F440EEB42EB90EF701E20FF11DB08225
:101FB0002F5FC7CF8981803261F28B01FB01838D56
:101FC000948DF601948F838FFB0116821782108601
:101FD00011861286138614861586F80182859385EC
:101FE000A485B585438954896589768984179507C1
:101FF000A607B70708F0ADCF25E0B695A79597954A
:1020000087952A95D1F7F82FFF70AF2EF8018581BB
:10201000823008F49ECFC8018DDC97FD9ACFF8017D
:1020200082859385A485B5854F96A11DB11D8287B4
:102030009387A487B587F0E2AF9EB00111246A535D
:102040007D4F6115710509F484CFFB0180818823E0
:1020500001F1853E19F4B11031C01DC04BE050E0D4
:10206000C7010E94C921892B09F0B7CF6A2DC6018B
:102070002B960FB6F894DEBF0FBECDBFDF91CF9188
:102080001F910F91FF90EF90DF90CF90BF90AF9096
:10209000FFCDB1105ECFF601A28A80910C02909123
:1020A0000D02A0910E02B0910F0286879787A08B38
:1020B000B18BFB018081882309F44BCFBB24B394FF
:1020C0008CCF4F925F926F927F928F929F92AF923E
:1020D000BF92CF92DF92EF92FF920F931F93CF9315
:1020E000DF93EC014A015B0128013901870120E0FF
:1020F00030E048EC52E4CB01B4010E94FC1C6B01BF
:102100007C0120E030E0A9010E948D1F18160CF020
:10211000D9C020E030E040E05FE3C701B6010E9493
:10212000CD1D0E94FE1E7983688320E030E048ECDC
:1021300052E4C301B2010E94FC1C6B017C0120E04F
:1021400030E0A9010E948D1F18160CF0C4C020E0D9
:1021500030E040E05FE3C701B6010E94CD1D0E9460
:10216000FE1E7E836D831B861A86188A1F8620E0DA
:1021700030E0A901C501B4010E94971C881F88277F
:10218000881FFF24F3948F258A8320E030E0A90183
:10219000C301B2010E94971C881F8827881F8F25C2
:1021A0008F83FC86F98A0230110504F1B801110F02
:1021B000880B990B0E949D1C20E030E040E752E420
:1021C0000E94961E20E030E048EC52E40E94FC1C85
:1021D0009B01AC0160E074E284E799E40E94961EE2
:1021E0000E94FE1E70931102609310020091100273
:1021F0001091110220E030E0A901C501B4010E9454
:10220000971C882309F478C020E030E0A901C301BD
:10221000B2010E94971C882309F46EC0A3019201A9
:10222000C501B4010E94401E6B017C010E94931EF7
:102230004B015C01B801110F880B990B0E949D1C8A
:102240002B013C01AC019B01C501B4010E94FC1CA7
:102250004B015C0120E030E0A9010E948D1F18169F
:102260000CF042C0C501B4010E94FE1E7C836B834A
:10227000C701B6010E94981F9B01AC01C301B201C6
:102280000E94FC1C6B017C0120E030E0A9010E944F
:102290008D1F18166CF5C701B6010E94FE1E7987C6
:1022A0006887DF91CF911F910F91FF90EF90DF90A2
:1022B000CF90BF90AF909F908F907F906F905F90E6
:1022C0004F900895A701960160E070E080E09FE3E1
:1022D0000E94CC1D26CFA701960160E070E080E04F
:1022E0009FE30E94CC1D3BCFC501B4019058BCCFE9
:1022F000C701B6019058D1CF1C830B83198708877B
:102300001E870D871B8B0A8BCCCFAF92BF92CF92CB
:10231000DF92EF92FF920F931F93CF93DF938C0185
:102320002091B6053091B705A9014E5F5F4FE0904F
:10233000B205F090B3058091B4059091B5058E1962
:102340009F099595879595958795EDECFCEC8E9F6B
:10235000B0018F9F700D9E9F700D1124641775073B
:102360000CF04DC0C9010196880F991F841795077D
:102370000CF4CA01281739073CF09C01215031099F
:102380003093B7052093B60524E1289FE001299FEB
:10239000D00D112487369640F0F08FEF9FEF0E940A
:1023A000C81F6C01C80FD91FA090B605B090B70523
:1023B000970150E040E0A416B5067CF064E1F90115
:1023C000DC0101900D926A95E1F74F5F5F4F2C5E43
:1023D0003F4F4496F0CFCE01E2CFE114F10419F063
:1023E000C7010E946420D092B305C092B205D09379
:1023F000B505C093B405B092B705A092B60580911B
:10240000B2059091B3054091B6055091B705209162
:10241000B4053091B505281B390B359527953595B1
:1024200027956DEC7CEC269FE001279FD00D369F11
:10243000D00D1124C41BD50BC230D105DCF521977A
:1024400024E1D22EDC9E7001DD9EF00C11244F5F42
:102450005F4FD49E9001D59E300D1124A701B80185
:10246000820F931F0E94D62181E090E08C1B9D0B70
:10247000D89EA001D99E500D1124B8016E0D7F1D6C
:102480008091B2059091B3050E94D6218091B60546
:102490009091B70501969093B7058093B605DF91AB
:1024A000CF911F910F91FF90EF90DF90CF90BF9051
:1024B000AF900895C1E0D0E0C3CFFC01808191814D
:1024C0000C9464202AE332E0FC0131832083828172
:1024D0009381009711F00C9464200895CF93DF93BB
:1024E000EC01F0DFCE01DF91CF910C9464200F93CB
:1024F0001F93CF93DF93EC0188819981009759F066
:102500002A813B812617370730F081E0DF91CF9198
:102510001F910F9108958B016F5F7F4F0E94ED20F7
:10252000009759F0998388831B830A832C813D810E
:10253000232B59F7FC011082E8CF80E0E7CFEF9220
:10254000FF920F931F93CF93DF93EC017B018A01DE
:10255000BA01CDDF28813981811114C021153105DF
:1025600019F0C9010E946420198218821D821C8200
:102570001B821A82CE01DF91CF911F910F91FF90A4
:10258000EF9008951D830C83B701C9010E94DF21DC
:10259000F1CFFB01DC0111961C921E9213961C9246
:1025A0001E92129715961C921E92149786179707E3
:1025B00041F0608171816115710519F04481558187
:1025C000BECF0895FC0111821082138212821582FF
:1025D0001482FB0101900020E9F73197AF01461BFF
:1025E000570BADCFEF92FF920F931F93CF93DF93D3
:1025F000EC017B018A011B821A8288EE93E0A0E045
:10260000B0E08C839D83AE83BF8382E492E09983A4
:1026100088838DE190E00E94C81F9A8F898F009770
:1026200079F02DE1F701DC0101900D922A95E1F797
:102630004CE050E0B801CE010C960E94E621188EC5
:10264000DF91CF911F910F91FF90EF9008956F92BE
:102650007F928F929F92AF92BF92CF92DF92EF9232
:10266000FF920F931F93CF93DF9300D000D0CDB78D
:10267000DEB7FC01848095808114910409F498C030
:10268000FB013C01A080B180FC01E080F180B5013C
:10269000C7010E94F521009709F48AC08C010E1928
:1026A0001F090F3F100709F483C0680108151905B9
:1026B00008F082C0F701E00FF11FE114F10421F4EA
:1026C00010929C02ECE9F2E08081803209F474C03F
:1026D0000F5F1F4FEACF8E199F097C012FEFE21A7F
:1026E000F20A0E151F0528F49E2D8F2D7801C92E94
:1026F000D82E62E572E0CE01019664DFF301048119
:102700001581E016F10618F5C016D10608F4860109
:10271000F30160817181FB01E00FF11FD080108215
:102720006E0D7F1D61157105B1F1FB010190002057
:10273000E9F73197AF01461B570BCE010196FFDE3B
:10274000F30180819181080F191FF801D0828981DE
:102750009A81C12CD12C7601009719F070D76B01AA
:102760007C01CE010196A9DEC701B60126960FB6FF
:10277000F894DEBF0FBECDBFDF91CF911F910F91B7
:10278000FF90EF90DF90CF90BF90AF909F908F9091
:102790007F906F90089589819A81009711F00E942F
:1027A00064201A8219821E821D821C821B82C8CF5D
:1027B000C12CD12C7601D8CFB501C7010E94F521DB
:1027C000009709F088CF8FEF9FEF87CF6F927F92AE
:1027D0008F929F92AF92BF92CF92DF92EF92FF9231
:1027E0000F931F93CF93DF93CDB7DEB762970FB6EA
:1027F000F894DEBF0FBECDBF4C015B016A01390109
:1028000062E572E0CE010D96DDDEBAD997FD1EC0FD
:102810008A309105D9F089831A82E988FA888FEF86
:10282000E81AF80AB701CE010D9661DE882369F334
:102830002D853E8589899A89BE016F5F7F4F820F02
:10284000931F0E94DF21FA8AE98ADFCF67E572E0F1
:10285000CE010796B7DEBE01635F7F4FCE010196C2
:1028600098DEBE01695F7F4FCE010196F0DEF40174
:102870006083718382839383CE0101961EDECE0135
:1028800007961BDE69E572E0CE0107969BDEBE016E
:10289000635F7F4FCE0101967CDEBE01695F7F4F93
:1028A000CE010196D4DEF501608371838283938328
:1028B000CE01019602DECE010796FFDD6BE572E0E8
:1028C000CE0107967FDEBE01635F7F4FCE0101968A
:1028D00060DEBE01695F7F4FCE010196B8DEF60172
:1028E0006083718382839383CE010196E6DDCE01FE
:1028F0000796E3DD6DE572E0CE01079663DEBE016B
:10290000635F7F4FCE01019644DEBE01695F7F4F5A
:10291000CE0101969CDEF3016083718382839383F1
:10292000CE010196CADDCE010796C7DD6FE572E0E4
:10293000CE01079647DEBE01635F7F4FCE01019651
:1029400028DEBE01695F7F4FCE01019680DEF8016F
:102950006083718382839383CE010196AEDDCE01C5
:102960000796ABDD81E692E0EED9CE010D96A5DDAE
:1029700062960FB6F894DEBF0FBECDBFDF91CF9148
:102980001F910F91FF90EF90DF90CF90BF90AF908D
:102990009F908F907F906F9008958F929F92AF92AB
:1029A000BF92CF92DF92EF92FF920F931F93CF933C
:1029B000DF93CDB7DEB7CE57D1090FB6F894DEBF9F
:1029C0000FBECDBF86E30E94820187E30E94820191
:1029D00086E20E948201109280001AE0109381002A
:1029E0001092820040E9E42EFF24F394F0928900D3
:1029F000E09288008CE30E9482018DE30E948201B4
:102A000088E30E948201109290001093910010922E
:102A10009200F0929900E09298008EE20E9482016A
:102A20008DE30E94820188E30E94820184E20E9479
:102A3000820182E20E9482018EE10E948201109254
:102A4000A0001093A1001092A200F092A900E092C1
:102A5000A8008AE10E9482018CE10E94820188E143
:102A60000E948201109220011093210110922201F4
:102A700080E293E0909329018093280161E081E650
:102A8000D5D885E30E94820180919605882321F0A4
:102A900081E995E00E944D0A10927205109270052E
:102AA00010926D0510926C0584E080936B050E9476
:102AB00065038B0180916B050E94820161E080912A
:102AC0006B050E943803FFB6F8948091AD02811126
:102AD00024C0E4E4F2E08491EAE8F2E09491E82F83
:102AE000F0E0EE0FFF1FEB50FE4FA591B491EC917B
:102AF000E92321F461E085E30E94380385E30E9425
:102B000082018CB580618CBD8CB580648CBD84E302
:102B10000E94820183E30E9482018091AD028F5F57
:102B20008093AD02FFBE82E5809365051092660535
:102B300080916505909166050E94A2032AE0F22E1D
:102B40008FEF0E948103FA94F110FACF87E695E0A7
:102B50000E94A50320E030E0A90160E087E695E04F
:102B60000E94B903F82E8093710581E0F81689F070
:102B70000E946503601B710B613D774058F381E053
:102B800080936C0587E695E00E94770389E792E0E1
:102B90007CC02AEA31E040E050E068E087E695E05A
:102BA0000E94B90382FF2AC0F092720580917205DB
:102BB000C12CD12C7601823029F4C12CD12CE12CEE
:102BC00080E4F82E20E030E0A90167E387E695E095
:102BD0000E94B903A701960169E287E695E00E9489
:102BE000B903809371058823D1F00E946503601BAF
:102BF000710B613D774030F388E0C2CF94E0F92E4D
:102C00000E94880380937105FA94F110F9CF8A3AF3
:102C100011F082E0B5CF82E080937205C7CF80913A
:102C200072058230D1F420E030E0A9016AE387E642
:102C300095E00E94B903882311F086E0A1CF0E949D
:102C40008803807C803C19F483E0809372050E94A5
:102C500088030E9488030E94880387E695E00E940B
:102C6000770380E5809365051092660581E00E94F8
:102C70008505882309F42AC181E995E00E94370877
:102C8000882309F483CF84E692E05DD8E091D804EC
:102C9000F091D90482E08083E091D404F091D504CE
:102CA0001082E091D604F091D7048FEC80831092CB
:102CB000E004E091DC04F091DD0486E08083E091A3
:102CC000DA04F091DB04808180618083E091DA0492
:102CD000F091DB04808188608083E091DA04F091D8
:102CE000DB04808180688083E091DA04F091DB046A
:102CF00080818F7D80831C821B820EE212E01A830A
:102D000009831E82CE0101960E943708BE016F5FC3
:102D10007F4FCE01CB960E94F00B19A218A21F8FF5
:102D20000E8F1BA221968FAD21978111D6C06C9674
:102D30001FAE1EAE6C9788EE93E0A0E0B0E0A096C8
:102D40008CAF9DAFAEAFBFAFA09782E492E06A9622
:102D50009FAF8EAF6A97E3961FAE1EAEE397A59620
:102D60001FAEA5976C968EAD9FAD6C979093D705CF
:102D70008093D605A0968CAD9DADAEADBFADA097AE
:102D80008093D8059093D905A093DA05B093DB051D
:102D9000A4968CAD9DADAEADBFADA4978093DC0580
:102DA0009093DD05A093DE05B093DF05A8E5B0E0C4
:102DB000AC0FBD1F1C96E0EEF5E08D91819385E090
:102DC000ED3EF807D1F7E3968EAD9FADE397909374
:102DD000EE058093ED0510920B0210920A0280918D
:102DE0000A0290910B0244970CF097C08E01055C8B
:102DF0001F4F9E01285A3F4FAE014D585F4FBE01F5
:102E000069587F4FCE0185589F4FE0DC6BAD7CAD9C
:102E10008DAD9EADF3D76B012091C1023091C202FE
:102E20004091C3025091C402EB966CAD7DAD8EAD66
:102E30009FADEB97B1D64B015C012091BD02309163
:102E4000BE024091BF025091C002EF966CAD7DADC5
:102E50008EAD9FADEF97A0D6AB01BC017601950179
:102E60008401CE014E962DD9EF968CAD9DADAEADC1
:102E7000BFADEF978093BD029093BE02A093BF02B7
:102E8000B093C002EB968CAD9DADAEADBFADEB97F0
:102E90008093C1029093C202A093C302B093C40274
:102EA00084E1FE017E96DE01119601900D928A95D5
:102EB000E1F7CE01019629DA80910A0290910B0286
:102EC000019690930B0280930A0289CF80E00E94C2
:102ED0008505882309F45ACECFCE40E952E0BE01E1
:102EE000655C7F4FCE014E960DD8882309F41FCF25
:102EF000CE01CB960E944D0ABE01625E7F4FCE018D
:102F000001960E94F00B40E952E0BE016F5F7F4FD7
:102F1000CE01885A9F4F66DB25CF82E080936F00F9
:102F2000C258DF4F0FB6F894DEBF0FBECDBFDF91A2
:102F3000CF911F910F91FF90EF90DF90CF90BF90B6
:102F4000AF909F908F9008951F920F920FB60F929F
:102F500011240BB60F922F933F934F935F936F9370
:102F60007F938F939F93AF93BF93EF93FF9388ECDF
:102F700094E00E941402FF91EF91BF91AF919F9155
:102F80008F917F916F915F914F913F912F910F9012
:102F90000BBE0F900FBE0F901F9018951F920F92AF
:102FA0000FB60F9211240BB60F922F938F939F930E
:102FB000EF93FF93E091D804F091D9048081E091E0
:102FC000DE04F091DF0482FD1DC090818091E10458
:102FD0008F5F8F732091E204821741F0E091E1044A
:102FE000F0E0E853FB4F958F8093E104FF91EF9160
:102FF0009F918F912F910F900BBE0F900FBE0F904E
:103000001F9018958081F2CF1F920F920FB60F92EA
:1030100011242F933F938F939F93AF93BF938091EE
:10302000B9029091BA02A091BB02B091BC0230915A
:10303000B80223E0230F2D3758F50196A11DB11DCD
:103040002093B8028093B9029093BA02A093BB0276
:10305000B093BC028091B4029091B502A091B602E7
:10306000B091B7020196A11DB11D8093B402909357
:10307000B502A093B602B093B702BF91AF919F91F2
:103080008F913F912F910F900FBE0F901F90189529
:1030900026E8230F0296A11DB11DD2CF1F920F92D9
:1030A0000FB60F9211240BB60F920F931F932F930D
:1030B0003F934F935F936F937F938F939F93AF93C0
:1030C000BF93CF93EF93FF930091A9021091AA02AF
:1030D0008091AB029091AC028017910741F1C091B1
:1030E000090281E0C827C09309026C2F8AE10E947F
:1030F0003803CC2331F00F5F1F4F1093AA020093C7
:10310000A902FF91EF91CF91BF91AF919F918F91C4
:103110007F916F915F914F913F912F911F910F91EF
:103120000F900BBE0F900FBE0F901F90189510922E
:103130007300E7CF1F920F920FB60F9211240BB6B8
:103140000F920F931F932F933F934F935F936F9320
:103150007F938F939F93AF93BF93CF93DF93EF931F
:10316000FF93C091A502D091A6028091A7029091F1
:10317000A8028C179D0709F450C0E7E9F1E084919B
:10318000E7E6F2E00491E1E2F2E01491112399F113
:1031900081110E94D102E12FF0E0EE0FFF1FE559EF
:1031A000FE4FA591B491EC91E02329F180910802A2
:1031B000811121C0109272001092A8021092A702F1
:1031C0001092A6021092A502FF91EF91DF91CF918C
:1031D000BF91AF919F918F917F916F915F914F912F
:1031E0003F912F911F910F910F900BBE0F900FBE2B
:1031F0000F901F9018951091070281E018271093E7
:103200000702612F84E20E9438031123E9F221961C
:10321000D093A602C093A502D7CF10927200D4CF4C
:103220001F920F920FB60F9211240BB60F922F938D
:103230003F934F935F936F937F938F939F93AF933E
:10324000BF93CF93DF93EF93FF93C091A102D091EF
:10325000A2028091A3029091A4028C179D0719F1FC
:103260006091060281E06827609306028CE30E9469
:1032700038032196D093A202C093A102FF91EF914F
:10328000DF91CF91BF91AF919F918F917F916F917E
:103290005F914F913F912F910F900BBE0F900FBEFA
:1032A0000F901F9018951092710081E08093050295
:1032B0001092A2021092A1020E94C00EDFCF1F92B4
:1032C0000F920FB60F9211240BB60F922F933F93CC
:1032D0004F935F936F937F938F939F93AF93BF931E
:1032E000CF93DF93EF93FF93C0919D02D0919E0205
:1032F00080919F029091A0028C179D0719F1609117
:10330000040281E068276093040286E30E94380388
:103310002196D0939E02C0939D02FF91EF91DF9181
:10332000CF91BF91AF919F918F917F916F915F915D
:103330004F913F912F910F900BBE0F900FBE0F90AA
:103340001F90189510926F0081E0809303021092F5
:103350009E0210929D020E94C00EDFCFCF93DF939A
:10336000E8ECF4E01382128288EE93E0A0E0B0E093
:1033700084839583A683B7832CE132E03183208355
:1033800025EC30E03587248724EC30E0378726872A
:1033900020EC30E0318B208B21EC30E0338B228B22
:1033A00022EC30E0358B248B26EC30E0378B268BFB
:1033B000118E128E138E148EE5E6F5E020E5208343
:1033C0001182E7E6F5E0158216821186138642E047
:1033D00050E060E070E0448755876687778713A2E6
:1033E00015A614A62EE232E033A722A717A6E4ED15
:1033F000F5E01382128284839583A683B78382E4E7
:1034000092E091838083128E118E14868091100237
:10341000909111029093D3058093D2059093D1059A
:103420008093D0059093CF058093CE059093CD05E2
:103430008093CC05C0EBD5E08AE392E09983888342
:1034400090E080E0A5D59B838A832FEF3FEF3F83F9
:103450002E839D838C83DF91CF910895CF93DF934B
:10346000CDB7DEB7EC970FB6F894DEBF0FBECDBF79
:10347000789484B5826084BD84B5816084BD85B54F
:10348000826085BD85B5816085BD80916E0081605B
:1034900080936E0010928100809181008260809301
:1034A0008100809181008160809381008091800003
:1034B0008160809380008091B10084608093B1002E
:1034C0008091B00081608093B00080919100826013
:1034D0008093910080919100816080939100809110
:1034E00090008160809390008091A1008260809321
:1034F000A1008091A10081608093A1008091A00033
:1035000081608093A00080912101826080932101DD
:10351000809121018160809321018091200181604F
:103520008093200180917A00846080937A0080915A
:103530007A00826080937A0080917A008160809323
:103540007A0080917A00806880937A001092C1009E
:1035500024DA8091B6059091B7054D970CF068C0BC
:103560008E01075D1F4F9E01235D3F4FAE014F5CF3
:103570005F4FBE016B5C7F4FCE01C99627D969A50D
:103580007AA58BA59CA53AD46B012091C1023091FC
:10359000C2024091C3025091C4026DA97EA98FA9B5
:1035A00098ADFAD24B015C012091BD023091BE0270
:1035B0004091BF025091C00269AD7AAD8BAD9CAD18
:1035C000EBD2AB01BC01760195018401CE01459699
:1035D0000E94611089AD9AADABADBCAD8093BD02C8
:1035E0009093BE02A093BF02B093C0028DA99EA982
:1035F000AFA9B8AD8093C1029093C202A093C30259
:10360000B093C40284E1FE017596DE01119601902B
:103610000D928A95E1F7CE0101960E948511809165
:103620000A0290910B02019690930B0280930A027A
:103630000E94A1028ECF80EB95E00C946212662767
:10364000772700C08F929F92AF92BF92CF92DF9266
:10365000EF92FF920F931F93CF93DF935C017B0157
:103660006115710519F0DB018D939C9385010F5F46
:103670001F4FF501D0818D2F90E039D16C01892B3E
:10368000A9F5DD32A9F50F5F1F4FD5011196DC9129
:10369000C1E05801F1E0AF1AB10843E050E068E33F
:1036A00071E0C5012CD1892B61F5680182E0C80E5B
:1036B000D11C45E050E063E371E0C60120D1892BC5
:1036C00021F4680197E0C90ED11CE114F10419F04E
:1036D000D701CD92DC9260E070E080E89FEFC111ED
:1036E000F9C060E070E080E89FE7F4C05801BECF09
:1036F000DB3229F485010E5F1F4FF501D181C0E057
:10370000C8CF43E050E060E371E0C501F8D0892BF9
:10371000E9F0F80110E000E020E030E0A9015F01ED
:10372000B0ED8B2E8D0E89E08815C0F19C2E68942B
:1037300091F88C2F8870C2FF16C0811102C00F5FF4
:103740001F4F3196D501DC91C92DE9CFE114F10469
:1037500029F00E5F1F4FF7011183008360E070E0D6
:1037600080EC9FE7B7C0882311F001501109A5E054
:10377000B0E0F9D19B01AC01220F331F441F551F4C
:10378000280D311D411D511D283999E93907490777
:1037900099E15907B0F2C6609C2ED3CFAEEF8A12E2
:1037A00006C0C3FD3CC09C2E689493F8CACFDF7D51
:1037B000D534A9F580818D3239F4C061DF011296CC
:1037C000818162E070E006C0DF018B32C1F31196A7
:1037D00061E070E080535D01A61AB70A8A30F8F400
:1037E000E0E8CE16ECE0DE065CF4B601660F771F6B
:1037F000660F771FC60ED71ECC0CDD1CC80ED11C61
:103800005D01FFEFAF1ABF0A8C9180538A3098F1A7
:10381000C4FF03C0D194C194D1080C0D1D1DC1FF7C
:1038200009C0E114F10431F081E0A81AB108D70110
:10383000AD92BC92CA01B9017ED0C370C33009F405
:1038400090584B015C0120E030E0A90170D0882342
:1038500009F43EC0C7E6D1E017FF05C011950195F8
:103860001109CFE4D1E06E01B8E1CB1AD10880E2B2
:10387000E82EF12C0EC0D501B3CFFE012591359174
:10388000459154910E191F09C501B401B5D04B01E2
:103890005C01D501C4010E151F057CF72497F59432
:1038A000E794CC16DD06A9F78A2F880F8B2F881F87
:1038B0008F3F41F020E030E0A901C501B40137D0CD
:1038C000811106C082E290E09093F0058093EF05AD
:1038D000C501B401DF91CF911F910F91FF90EF903F
:1038E000DF90CF90BF90AF909F908F9008959111EF
:1038F000E6C0803219F089508550D0F70895FB0159
:10390000DC014150504088F08D9181341CF08B35A2
:103910000CF4805E659161341CF06B350CF4605ED4
:10392000861B611171F3990B0895881BFCCF40D061
:1039300008F481E00895E89409C097FB3EF490955F
:103940008095709561957F4F8F4F9F4F9923A9F078
:10395000F92F96E9BB279395F69587957795679507
:10396000B795F111F8CFFAF4BB0F11F460FF1BC04B
:103970006F5F7F4F8F4F9F4F16C0882311F096E9DE
:1039800011C0772321F09EE8872F762F05C066238C
:1039900071F096E8862F70E060E02AF09A95660F45
:1039A000771F881FDAF7880F9695879597F90895FE
:1039B000990F0008550FAA0BE0E8FEEF1616170640
:1039C000E807F907C0F012161306E407F50798F0A8
:1039D000621B730B840B950B39F40A2661F0232BC1
:1039E000242B252B21F408950A2609F4A140A6953D
:1039F0008FEF811D811D08950BD07BC06CD028F006
:103A000071D018F0952309F05DC062C01124A5C0E3
:103A100081D0A0F3959FD1F3950F50E0551F629F81
:103A2000F001729FBB27F00DB11D639FAA27F00D17
:103A3000B11DAA1F649F6627B00DA11D661F829F3E
:103A40002227B00DA11D621F739FB00DA11D621F23
:103A5000839FA00D611D221F749F3327A00D611D40
:103A6000231F849F600D211D822F762F6A2F112422
:103A70009F5750408AF0E1F088234AF0EE0FFF1F75
:103A8000BB1F661F771F881F91505040A9F79E3FAC
:103A9000510570F017C061C05F3FECF3983EDCF356
:103AA000869577956795B795F795E7959F5FC1F7E9
:103AB000FE2B880F911D9695879597F90895992764
:103AC0008827089597F99F6780E870E060E008957F
:103AD0009FEF80EC089500240A9416161706180626
:103AE0000906089500240A94121613061406050602
:103AF0000895092E0394000C11F4882352F0BB0F93
:103B000040F4BF2B11F460FF04C06F5F7F4F8F4FF5
:103B10009F4F089557FD9058440F551F59F05F3F30
:103B200071F04795880F97FB991F61F09F3F79F0DF
:103B300087950895121613061406551FF2CF469561
:103B4000F1DF08C0161617061806991FF1CF8695E3
:103B50007105610508940895E894BB2766277727C7
:103B6000CB0197F9089509D0A59F900DB49F900DB2
:103B7000A49F800D911D11240895A29FB001B39FB1
:103B8000C001A39F700D811D1124911DB29F700D66
:103B9000811D1124911D08955058BB27AA270ED0CE
:103BA000A8CF99DF30F09EDF20F031F49F3F11F471
:103BB0001EF48ECF0EF4E095E7FB84CFE92FAADF49
:103BC00080F3BA17620773078407950718F071F43A
:103BD0009EF5C2CF0EF4E0950B2EBA2FA02D0B014F
:103BE000B90190010C01CA01A0011124FF27591B42
:103BF00099F0593F50F4503E68F11A16F040A22F48
:103C0000232F342F4427585FF3CF469537952795B8
:103C1000A795F0405395C9F77EF41F16BA0B620BB7
:103C2000730B840BBAF09150A1F0FF0FBB1F661FFE
:103C3000771F881FC2F70EC0BA0F621F731F841F41
:103C400048F4879577956795B795F7959E3F08F067
:103C5000B3CF9395880F08F09927EE0F9795879526
:103C6000089539DF58F080E891E009F49EEF3ADFDB
:103C700028F040E851E059F45EEF09C029CF6CCF3D
:103C8000E92FE07847DF68F3092E052AC1F32617EC
:103C900037074807590738F00E2E07F8E02569F076
:103CA000E025E0640AC0EF6307F8009407FADB013F
:103CB000B9019D01DC01CA01AD01EF9346D019DFC6
:103CC0000AD05F91552331F02BED3FE049E450FDE0
:103CD00049EC63CF0895DF93DD27B92FBF7740E824
:103CE0005FE31616170648075B0710F4D92F19D1A2
:103CF0009F938F937F936F9321D1E4EEF0E0AFD049
:103D0000F8DE2F913F914F915F9182DEDD2349F0E4
:103D10009058A2EA2AED3FE049EC5FE3D0785D27B6
:103D20004DDFDF91E6CEC1D0E395E6C00CD0E1CE09
:103D3000D9DE40F0D0DE30F021F45F3F19F0C2CE82
:103D400051110BCFC5CEE6DE98F39923C9F3552365
:103D5000B1F3951B550BBB27AA276217730784077E
:103D600038F09F5F5F4F220F331F441FAA1FA9F334
:103D700033D00E2E3AF0E0E830D091505040E69526
:103D8000001CCAF729D0FE2F27D0660F771F881F87
:103D9000BB1F261737074807AB07B0E809F0BB0B76
:103DA000802DBF01FF2793585F4F2AF09E3F51059A
:103DB00068F088CED2CE5F3FECF3983EDCF3869578
:103DC00077956795B795F7959F5FC9F7880F911D10
:103DD0009695879597F90895E1E0660F771F881FFC
:103DE000BB1F621773078407BA0720F0621B730BAF
:103DF000840BBA0BEE1F88F7E095089504D0689401
:103E0000B111ABCE08958EDE88F09F5790F0B92F98
:103E10009927B751A0F0D1F0660F771F881F991F1F
:103E20001AF0BA95C9F712C0B13081F095DEB1E051
:103E3000089592CE672F782F8827B85F39F0B93F61
:103E4000CCF3869577956795B395D9F73EF4909521
:103E50008095709561957F4F8F4F9F4F0895DF93A9
:103E6000CF931F930F93FF92EF92DF927B018C0110
:103E7000689405C0DA2EEF01CBDDFE01E894A59130
:103E80002591359145915591AEF3EF0197DEFE01F5
:103E90009701A801DA9479F7DF90EF90FF900F91E6
:103EA0001F91CF91DF91089513CE3CDEE8F3E894A3
:103EB000E0E0BB279F57F0F02AED3FE049EC06C059
:103EC000EE0FBB0F661F771F881F28F0B23A6207FC
:103ED0007307840728F0B25A620B730B840BE395C7
:103EE0009A9572F7803830F49A95BB0F661F771F4A
:103EF000881FD2F7904827C0EF93E0FF06C0A2EAE0
:103F00002AED3FE049EC5FEB59DEF3DD0F900394BF
:103F100001FC9058E1E1F1E022C04ADD08F48FEFA6
:103F200008959B01AC0160E070E080E89FE3FECE65
:103F30009F93BBDF0F9007FCEE5FDECF9B01AC01D0
:103F40005BCD9F3F31F0915020F487957795679531
:103F5000B795880F911D9695879597F908959F932A
:103F60008F937F936F93FF93EF939B01AC0144DD9D
:103F7000EF91FF9174DF2F913F914F915F913CCD75
:103F8000EE0FFF1F881F8BBF0790F691E02D19944D
:103F90000F931F93CF93DF938230910510F482E04B
:103FA00090E0E091F305F091F40530E020E0B0E01E
:103FB000A0E0309799F42115310509F44AC0281B77
:103FC000390B24303105D8F58A819B816115710543
:103FD00089F1FB0193838283FE0111C040815181ED
:103FE0000281138148175907E0F04817590799F4DF
:103FF000109761F012960C93129713961C933296B9
:10400000CF01DF91CF911F910F9108950093F30598
:104010001093F405F4CF2115310551F042175307E1
:1040200038F0A901DB019A01BD01DF01F801C1CF20
:10403000EF01F9CF9093F4058093F305CDCFFE0106
:10404000E20FF31F81939193225031093983288322
:10405000D7CF2091F1053091F205232B41F4209127
:104060001402309115023093F2052093F10520914E
:104070001202309113022115310541F42DB73EB7DC
:104080004091160250911702241B350BE091F10567
:10409000F091F205E217F307A0F42E1B3F0B28174F
:1040A000390778F0AC014E5F5F4F2417350748F0B1
:1040B0004E0F5F1F5093F2054093F105819391934A
:1040C0009FCFF0E0E0E09CCFCF93DF930097E9F043
:1040D000FC01329713821282A091F305B091F4058E
:1040E000ED0130E020E01097A1F420813181820FB2
:1040F000931F2091F1053091F2052817390709F037
:1041000061C0F093F205E093F105DF91CF9108953E
:10411000EA01CE17DF07E8F54A815B819E01411570
:104120005105B1F7E901FB83EA8349915991C40F25
:10413000D51FEC17FD0761F4808191810296840FF1
:10414000951FE90199838883828193819B838A8368
:10415000F0E0E0E012968D919C9113970097B9F5ED
:104160002D913C911197CD010296820F931F2091C2
:10417000F1053091F2052817390739F6309751F5D6
:104180001092F4051092F305B093F205A093F10597
:10419000BCCFD383C28340815181840F951FC81740
:1041A000D90761F44E5F5F4F88819981480F591F8D
:1041B000518340838A819B819383828321153105BA
:1041C00009F0B0CFF093F405E093F3059ECFFD0125
:1041D000DC01C0CF13821282D7CF4F925F926F92D1
:1041E0007F928F929F92AF92BF92CF92DF92EF9287
:1041F000FF920F931F93CF93DF938C01009791F45D
:10420000CB01DF91CF911F910F91FF90EF90DF9045
:10421000CF90BF90AF909F908F907F906F905F9066
:104220004F90B6CEFC01E60FF71F9C0122503109DA
:10423000E217F30708F4AAC0D901CD91DC911197D8
:10424000C617D70718F1C530D10570F0CE01049715
:104250008617970748F0C61BD70B2297C193D193B7
:104260006D937C93CF0130DFC801DF91CF911F9117
:104270000F91FF90EF90DF90CF90BF90AF909F9005
:104280008F907F906F905F904F9008955B01AC1A74
:10429000BD0A4C018C0E9D1EA091F305B091F40552
:1042A000512C412CF12CE12C109731F58091F10526
:1042B0009091F2058815990509F05CC046165706DD
:1042C00008F058C08091120290911302009741F4B7
:1042D0008DB79EB74091160250911702841B950B23
:1042E000E817F90708F052C0F093F205E093F105E2
:1042F000F90171836083B8CF8D919C9111971296CB
:104300006C90129713967C901397A815B90559F5E0
:104310006C0142E0C40ED11CCA14DB0420F1AC01D4
:104320004A195B09DA011296159780F0628273824E
:1043300051834083D9016D937C93E114F10471F0B2
:10434000D7011396FC93EE9312978ECF22968C0F83
:104350009D1FF90191838083F301EFCFF093F40562
:10436000E093F30581CF4816590608F42C017D012E
:10437000D3019ACFCB010CDE7C01009739F0AE015E
:10438000B80114D0C801A0DE87016ECF10E000E0B4
:104390006BCFFB01DC0104C08D910190801921F4E9
:1043A00041505040C8F7881B990B0895FB01DC0170
:1043B00002C001900D9241505040D8F70895FB0182
:1043C000DC0101900D920020E1F70895FB01DC0172
:1043D0004150504048F001900D920020C9F701C0B3
:1043E0001D9241505040E0F70895FB015191552333
:1043F000A9F0BF01DC014D9145174111E1F759F4D6
:10440000CD010190002049F04D9140154111C9F3B3
:10441000FB014111EFCF81E090E00197089511E099
:10442000CFE4D1E000E005C0802FFE01A9DD219698
:10443000011DC035D10780E00807B1F7F894FFCF20
:10444000010101010101010101010100FFFFFFFF65
:10445000BC020000F5058000000000003602A1014A
:10446000CE018202FF01DD01F10100000000E00B3E
:10447000A101130E400C0000000062126E12000039
:104480000000840C680C130E410C480CB70DF10DA4
:104490000D0A0072756E00580059005A004500461A
:1044A00000473100696E697469616C697A61746989
:1044B0006F6E20646F6E652E00696E697469616C41
:1044C000697A6174696F6E206661696C6564210048
:0C44D00073616D706C652E7478740000D0
:00000001FF
