:100000004FC100007EC100007CC100007AC1000029
:1000100078C1000076C1000074C1000072C1000008
:1000200070C100006EC100006CC100006AC1000018
:1000300068C1000066C1000064C1000062C1000028
:1000400060C100000C944A175CC100005AC1000056
:1000500058C1000056C1000054C100000C94EF15B7
:1000600050C100000C94B9150C948F154AC10000C2
:1000700048C1000046C1000044C1000042C1000068
:100080000C94FB163EC100003CC100003AC10000C8
:1000900038C1000036C1000034C1000032C1000088
:1000A00030C100002EC100000C9485162AC100004A
:1000B00028C1000026C1000024C100000C9439169C
:1000C00020C100001EC100001CC100001AC10000B8
:1000D00018C1000016C1000014C1000012C10000C8
:1000E00010C10000084AD73B3BCE016E84BCBFFD67
:1000F000C12F3D6C74319ABD56833DDA3D00C77FF8
:1001000011BED9E4BB4C3E916BAAAABE0000008090
:100110003F05A84CCDB2D44EB93836A9020C50B91F
:10012000918688083CA6AAAA2ABE000000803F004B
:100130004E414E494E495459494E46CDCCCC3D0ACC
:10014000D7233C17B7D13877CC2B329595E6241FAF
:10015000B14F0A000020410000C84200401C462068
:10016000BCBE4CCA1B0E5AAEC59D740000200023B5
:1001700000260029002C002F00320000010000039F
:10018000010601090100000A0B02090C0D0E080707
:100190000304010000000000000000000000000057
:1001A000000000000000000000000000000000004F
:1001B000001211100000000000000000000000000C
:1001C00000000000000000000000007C3C3E5E2BB0
:1001D0003D3F2F5B5D3B2C2A225C00000022002566
:1001E0000028002B002E0031003400020100000521
:1001F0000108010B0100002100240027002A002D26
:10020000003000330001010000040107010A01056C
:10021000050505070508080808020202020A0A087F
:1002200008040404040101010101010101030303A5
:100230000303030303040707070C0C0C0C0C0C0C42
:100240000C0202020206060606060606060B0B0B49
:100250000B0B0B0B0B010210202008081020401084
:10026000204080020102010804020101020408107A
:100270002040808040201008040201800402018098
:1002800040201008040201080402010102040810C1
:100290002040800102040810204080009917301B84
:1002A00011241FBECFEFD1E2DEBFCDBF00E00CBFF7
:1002B00025E0AAE9B2E001C01D92A33FB207E1F731
:1002C00012E0A0E0B2E0EEEAF4E400E00BBF02C00E
:1002D00007900D92AA39B107D9F711E0CFE4D1E028
:1002E00000E006C021970109802FFE010E94F71F40
:1002F000CE34D10780E00807A9F70E9423180C9498
:1003000046227ECE90E0FC01EB5AFD4F2491815FA6
:100310009D4FFC018491882399F090E0880F991FEC
:10032000FC01EB50FE4FA591B491FC01E552FE4F4C
:10033000859194918FB7F894EC91E22BEC938FBF59
:10034000089580917B00886080937B0085E4809392
:100350007C0080917A00806480937A0080917A009A
:1003600086FDFCCF80917800909179000895AF923E
:10037000BF92CF92DF92EF92FF920F931F93CF9392
:10038000DF936C017B018B01040F151FEB015E01F4
:10039000AE18BF08C017D10759F06991D601ED9189
:1003A000FC910190F081E02DC6011995892B79F718
:1003B000C501DF91CF911F910F91FF90EF90DF90DA
:1003C000CF90BF90AF900895FC01538D448D252FA1
:1003D00030E0842F90E0821B930B541710F0CF96DF
:1003E000089501970895FC01918D828D981761F011
:1003F000A28DAE0FBF2FB11D5D968C91928D9F5F28
:100400009F73928F90E008958FEF9FEF0895FC0106
:10041000918D828D981731F0828DE80FF11D858DB9
:1004200090E008958FEF9FEF0895FC01918D228D4C
:10043000892F90E0805C9F4F821B91098F739927D1
:10044000089586EC94E0F1DF21E0892B09F420E0A7
:10045000822F0895FC01A48DA80FB92FB11DA35AB6
:10046000BF4F2C91848D90E001968F739927848FD4
:10047000A689B7892C93A089B1898C9183708064F7
:100480008C93938D848D981306C00288F389E02D98
:1004900080818F7D80830895EF92FF920F931F9349
:1004A000CF93DF93EC0181E0888F9B8D8C8D981327
:1004B0001AC0E889F989808185FF15C09FB7F89433
:1004C000EE89FF896083E889F9898081837080647F
:1004D00080839FBF81E090E0DF91CF911F910F91CA
:1004E000FF90EF900895F62E0B8D10E00F5F1F4FD9
:1004F0000F731127E02E8C8D8E110BC00FB607FCE9
:10050000FACFE889F989808185FFF5CFCE01A2DF96
:10051000F2CFEB8DEC0FFD2FF11DE35AFF4FF08270
:100520009FB7F8940B8FEA89FB8980818062D0CFD6
:10053000CF93DF93EC01888D8823B1F0AA89BB8922
:10054000E889F9898C9185FD03C0808186FD0CC006
:100550000FB607FCF7CF8C9185FFF2CF808185FF26
:10056000EDCFCE0177DFEACFDF91CF91089580E024
:1005700090E0892B21F065DF81110E94000080E06E
:1005800090E0892B49F080E090E0892B29F00E94CF
:10059000000081110E94000080E090E0892B49F06A
:1005A00080E090E0892B29F00E94000081110E94D8
:1005B000000080E090E0892B49F080E090E0892BFA
:1005C00029F00E94000081110C94000008958150D0
:1005D000823108F05AC0E82FF0E08827ED50FD4F37
:1005E0008F4F0C94F71F1303170305030B030F031F
:1005F00045031A03200324032A032E03320338037E
:100600003C034503400346034A03809180008F77F3
:10061000809380000895809180008F7DF9CF809134
:100620008000877FF5CF84B58F7784BD089584B52A
:100630008F7DFBCF8091B0008F778093B0000895BD
:100640008091B0008F7DF9CF809190008F7780935B
:1006500090000895809190008F7DF9CF8091900057
:10066000877FF5CF8091A0008F778093A0000895B9
:100670008091A0008F7DF9CF8091A000877FF5CF7A
:10068000809120018F77809320010895809120012F
:100690008F7DF9CF80912001877FF5CF1F93CF9376
:1006A000DF93282F30E0F901EB57FE4F8491F901D9
:1006B000EB5AFD4FD491F901E15FFD4FC491CC237A
:1006C000A1F0162F811183DFEC2FF0E0EE0FFF1F5A
:1006D000E552FE4FA591B4918FB7F894EC911111AA
:1006E00008C0D095DE23DC938FBFDF91CF911F919F
:1006F0000895DE2BF8CF2FB7F8946091BE02709169
:10070000BF028091C0029091C1022FBF08958FB7A0
:10071000F8948091B4028FBF089561E0FC01848158
:10072000BDDF8091B30281111092B30208958EBD96
:1007300000000DB407FEFDCF8EB508958FEFF7CF03
:100740000F931F93CF93DF93EC01D5DF8B01F6DF7F
:100750008F3F61F0D0DF601B710B6C177D07B8F322
:1007600080E0DF91CF911F910F91089581E0F9CF43
:100770008CBD9DBD0895CF93DF93EC018091B302B2
:10078000811108C081E08093B3028091630590914C
:100790006405EEDF60E08C81DF91CF917FCF8F9297
:1007A0009F92AF92BF92FF920F931F93CF93DF93CD
:1007B000EC01F62E49015A018E81882379F08F8150
:1007C00098859C012F5F3F4F38872F83823092405E
:1007D00010F4B4DFF4CFCE01A0DF1E82CE01CBDF58
:1007E0008CE291E0ADDF8F2D8064A1DF08E110E0A5
:1007F000D501C401002E04C0B695A795979587959D
:100800000A94D2F794DF08501109083F8FEF1807B8
:1008100079F785E9FF2021F028E087E8F2128FEFD1
:1008200086DF10E08BDF8A8787FF04C01F3F11F04F
:100830001F5FF8CFDF91CF911F910F91FF90BF9075
:10084000AF909F908F900895AF92BF92CF92DF921A
:10085000EF92FF920F931F93CF93DF93EC01690107
:10086000C801820F931F8130924048F58E81882302
:1008700079F088819981AA81BB8184179507A607A1
:10088000B70731F48F819885C816D90608F03CC0A7
:10089000488359836A837B838B85833039F089E071
:1008A000440F551F661F771F8A95D1F79A01AB0138
:1008B00061E1CE0174DF882381F083E08D83CE0176
:1008C0002CDF80E0DF91CF911F910F91FF90EF908F
:1008D000DF90CF90BF90AF9008950DDF5B012EDFCA
:1008E0008A878F3F59F407DF6A197B096D3271409F
:1008F000B0F38FE08D83CE0110DFE1CF8E3F81F426
:1009000018861F8281E08E838F8198858C159D05C6
:1009100048F414DF8F819885019698878F83F4CFF0
:100920008DE0E8CF6701E00EF11E08DFF60181934C
:100930006F01EE15FF05C9F78F819885080F191F04
:1009400018870F838985882319F00115124090F0CC
:100950008E81882379F08F8198859C012F5F3F4F8E
:1009600038872F838230924010F4E8DEF4CFCE0136
:10097000D4DE1E8281E0A6CFEF92FF920F931F93E9
:10098000CF93DF93EC01790182E1411551056105B7
:10099000710591F08B85833039F089E0440F551F44
:1009A000661F771F8A95D1F79A01AB0168E1CE01E6
:1009B000F6DE882319F084E08D8328C08EEFB7DE41
:1009C00087018EEFF81AF80181918F01B0DE0E15C4
:1009D0001F05C9F78FEFABDE8FEFA9DEAFDE8A8789
:1009E0008F71853079F488E592E0AADE882391F052
:1009F00020E030E0A9016DE0CE01D1DE882361F076
:100A000084E1DACF81E18D83CE0187DECE0185DE00
:100A100080E008C085E1D0CF91DE8111F1CFCE0119
:100A20007CDE81E0DF91CF911F910F91FF90EF90DD
:100A30000895CF93DF938091C302882399F1C091E9
:100A4000C404D091C50440910C0250910D026091F4
:100A50000E0270910F0224EC32E0CE018DDF811185
:100A600004C080E0DF91CF9108954091B50250918C
:100A7000B6026091B7027091B80241155105610547
:100A8000710571F024EC32E0CE0176DF882349F362
:100A90001092B5021092B6021092B7021092B802EC
:100AA0001092C30281E0DECF8F929F92AF92BF92ED
:100AB000EF92FF920F931F93CF934B015C01C42FD2
:100AC00080910C0290910D02A0910E02B0910F0244
:100AD00088159905AA05BB0539F1ABDF81110BC05B
:100AE00080E0CF911F910F91FF90EF90BF90AF905A
:100AF0009F908F90089584ECE82E82E0F82E00E01D
:100B000012E030E020E0B501A4018091C40490918E
:100B1000C5049ADE882321F380920C0290920D0284
:100B2000A0920E02B0920F024091C3024C2B409350
:100B3000C30281E0D6CF8F929F92AF92BF92CF92A5
:100B4000DF92EF92FF92CF9325E635E03093C50414
:100B50002093C404882309F46BC040E060E070E097
:100B6000CB01A2DF81110BC080E0CF91FF90EF900D
:100B7000DF90CF90BF90AF909F908F90089580911D
:100B800082048F7789F780918E0490918F04A091D1
:100B90009004B091910484369105A105B10520F32C
:100BA000C0908A04D0908B04E0908C04F0908D0467
:100BB000C114D104E104F104B9F240E0C701B60167
:100BC00073DF882389F28091CF029091D002811542
:100BD000924051F6A091D402AA2331F26091D20240
:100BE0007091D3026115710509F4BECF2091D10235
:100BF000222309F4B9CFA09383052093750590E0D3
:100C000080E030E0E1E0F0E0C82FAF01082E02C044
:100C1000440F551F0A94E2F72417350769F041E0A5
:100C2000480F01968930910579F740937E059CCF56
:100C3000C12CD12C7601C1CF80937E052091DA02A0
:100C40003091DB0250E040E02115310541F4209164
:100C5000E8023091E9024091EA025091EB022093C0
:100C600076053093770540937805509379054601D2
:100C70005701860E971EA11CB11C8092840590928C
:100C80008505A0928605B0928705E091D502F09186
:100C9000D602F0938A05E0938905B0E00E94C81D52
:100CA000DC01CB01880D991DAA1DBB1D80938B050E
:100CB00090938C05A0938D05B0938E0525E0EE0FE3
:100CC000FF1F2A95E1F7E150FE4FEF2FFF27E69532
:100CD0008E0F9F1FA11DB11D80937F0590938005EE
:100CE000A0938105B09382058090D7029090D8029E
:100CF000B12CA12C8114910441F48090E4029090D5
:100D0000E502A090E602B090E702C81AD90AEA0A02
:100D1000FB0AC80CD91CEA1CFB1C04C0F694E7941F
:100D2000D794C794CA95D2F7C0927A05D0927B0522
:100D3000E0927C05F0927D0585EFC8168FE0D8061D
:100D4000E104F10428F48CE08093880581E00DCF64
:100D500080E125EFC2162FEFD206E104F104A0F3E3
:100D60008091F0029091F102A091F202B091F30211
:100D700080938B0590938C05A0938D05B0938E0581
:100D800080E2E2CF4F925F926F927F928F929F921A
:100D9000AF92BF92CF92DF92EF92FF920F931F9389
:100DA000CF93DF93EC01423051056105710590F45A
:100DB00080E0DF91CF911F910F91FF90EF90DF9036
:100DC000CF90BF90AF909F908F907F906F905F90EB
:100DD0004F90089589859A85AB85BC850196A11DA4
:100DE000B11D84179507A607B70710F3CB88DC88D9
:100DF000ED88FE888F89803109F042C0BB27A72F7C
:100E0000962F852F480159012A013B01C80ED91E92
:100E1000EA1EFB1E80910C0290910D02A0910E0221
:100E2000B0910F02C816D906EA06FB0699F58F891C
:100E30008031B9F5B301A201552766277727440F02
:100E4000551F4C535D4FFA01918280828091C302FD
:100E500081608093C3028A89823080F08D819E8177
:100E6000AF81B8858C0D9D1DAE1DBF1D8093B50251
:100E70009093B602A093B702B093B80281E099CFE5
:100E8000DB01CA01E7E0B695A79597958795EA95A6
:100E9000D1F7B8CF40E0C701B60106DE8111C7CF58
:100EA00087CFB301A2014F77552766277727440FD5
:100EB000551F440F551F4C535D4FFA01808291829C
:100EC000A282B382C3CF8F929F92AF92BF92CF92F2
:100ED000DF92EF92FF920F931F93CF93DF93FC016A
:100EE00081859285A385B4850196A11DB11D8417C6
:100EF0009507A607B70770F480E0DF91CF911F91A7
:100F00000F91FF90EF90DF90CF90BF90AF909F90A8
:100F10008F90089583889488A588B68887898031C2
:100F200089F5BB27A72F962F852FE9016A017B0141
:100F30008F01BC01CD01680D791D8A1D9B1D80901C
:100F40000C0290900D02A0900E02B0900F02861637
:100F50009706A806B90601F5F8018789803109F5D9
:100F6000DD24EE24FF24F601EE0FFF1FEC53FD4FAE
:100F700080819181B0E0A0E088839983AA83BB83BC
:100F800081E0BBCFDB01CA01C7E0B695A795979575
:100F90008795CA95D1F7C9CF40E086DD8111DCCFB6
:100FA000ABCFE894C7F8DD24EE24FF24F601EE0F62
:100FB000FF1FEE0FFF1FEC53FD4F80819181A28137
:100FC000B381BF70D9CF4F925F926F927F92AF92F1
:100FD000BF92CF92DF92EF92FF920F931F93CF9326
:100FE000DF9300D01F92CDB7DEB78C0149835A83BF
:100FF0006B837C835901C12CD12C7601412C82E07A
:10100000582E612C712C49815A816B817C819E0103
:101010002F5F3F4FC80157DF882339F1F8018585DD
:10102000A301920104C0220F331F441F551F8A954C
:10103000D2F7DA01C901C80ED91EEA1EFB1E49818A
:101040005A816B817C818789803111F188EF9FEF14
:10105000AFEFBFE0481759076A077B07A0F2F50119
:10106000C082D182E282F38281E00F900F900F90D4
:101070000F90DF91CF911F910F91FF90EF90DF9034
:10108000CF90BF90AF907F906F905F904F900895FA
:1010900088EF9FEFA0E0B0E0DDCFCF93DF93FC01BE
:1010A0002581222321F080E0DF91CF910895EC018A
:1010B00080918805803159F582E08583178A108EEA
:1010C000118E128E8091890590918A05B0E0A0E082
:1010D00025E0880F991FAA1FBB1F2A95D1F7838B84
:1010E000948BA58BB68B81E795E09C8F8B8F81E0ED
:1010F0008C831E821F82188619861A861B861C8680
:101100001D861E861F86188A198A1A8ACDCF8032BC
:1011100051F683E0858340918B0550918C05609159
:101120008D0570918E05478B508F618F728F9F0157
:101130002D5E3F4F81E795E046DF8111D4CFB3CFDD
:101140008F929F92AF92BF92CF92DF92EF92FF92D7
:101150000F931F93CF93DF93EC018D8181110EC00C
:1011600080E0DF91CF911F910F91FF90EF90DF9082
:10117000CF90BF90AF909F908F9008950B891C895E
:101180002D893E89041715072607370748F34A01BA
:101190005B01823031F48A869B86AC86BD8681E015
:1011A000E0CF81149104A104B10449F41E821F828E
:1011B000188619861A861B861C861D86F0CF0A851E
:1011C0001B852C853D85EB8DFC8D858590E00996F2
:1011D000B901A8014150510961097109082E04C0E3
:1011E00076956795579547950A94D2F775016401EE
:1011F000E1E0CE1AD108E108F10804C0F694E794C2
:10120000D794C7948A95D2F7C416D506E606F70692
:1012100020F0012B022B032B09F58F89988DA98DC6
:10122000BA8D8E839F83A887B9878E010A5F1F4F6F
:10123000C114D104E104F10409F4ADCF4E815F8102
:101240006885798598018B8D9C8D3DDE91E0C91A6A
:10125000D108E108F1088111EBCF82CFC41AD50A79
:10126000E60AF70AE2CF3F924F925F926F927F9227
:101270008F929F92AF92BF92CF92DF92EF92FF92A6
:101280000F931F93CF93DF93CDB7DEB72C970FB695
:10129000F894DEBF0FBECDBF5C01DC015B968D9084
:1012A0009C905C9716964D905D906D907C901997F0
:1012B000411451046104710409F467C0BFEF4B1A73
:1012C0005B0A6B0A7B0A312CF40181859285A38528
:1012D000B4859C01AD012F5F3F4F4F4F5F4F298772
:1012E0003A874B875C87730162011D821E821F82D1
:1012F0001886F40181859285A385B4852D813E8170
:101300004F815885281739074A075B0708F054C0F2
:1013100089859A85AB85BC858C159D05AE05BF0575
:1013200050F482E0C82ED12CE12CF12C92E0492E11
:10133000512C612C712C9E012F5F3F4FB701A601EC
:10134000C401C1DD8823C1F189819A81AB81BC814F
:10135000892B8A2B8B2B09F1260137019FEF491A24
:10136000590A690A790A2D813E814F8158852F5F7C
:101370003F4F4F4F5F4F2D833E834F8358873FEF43
:10138000C31AD30AE30AF30AB4CFF40140805180B0
:10139000628073803324339497CFC414D504E60459
:1013A000F70409F70FEF1FEF2FEF3FE0B701A6019A
:1013B000C401E8DC811119C080E02C960FB6F894C6
:1013C000DEBF0FBECDBFDF91CF911F910F91FF9078
:1013D000EF90DF90CF90BF90AF909F908F907F90D5
:1013E0006F905F904F903F900895F501468157812F
:1013F00060857185411551056105710531F09701D1
:101400008601C401BFDC8823B9F2D5011696CD92BE
:10141000DD92ED92FC921997332051F0D701C6016D
:101420000196A11DB11DF40180839183A283B38332
:10143000F5018789908DA18DB28D892B8A2B8B2BFD
:1014400039F4C78AD08EE18EF28E848180688483DD
:1014500081E0B3CFCF93DF93EC018D81882379F1C5
:101460008C8187FF29C06E857F858889998941E0B5
:101470001BDB882321F1EA8980E2E89FF001112437
:10148000EC53FD4F3097D9F08D81823040F48B8939
:101490009C89AD89BE89848F958FA68FB78F8F89E0
:1014A000988D938F828F8F89988DA98DBA8DB58BEA
:1014B000A48B8C818F778C83DF91CF91BACA80E027
:1014C000DF91CF910895CF93DF93EC01C3DF8823A1
:1014D00011F01D8281E0DF91CF9108952F923F920C
:1014E0004F925F926F927F928F929F92AF92BF9234
:1014F000CF92DF92EF92FF920F931F93CF93DF93E0
:1015000000D01F92CDB7DEB78C015B011A01DC0160
:1015100015968C911597813009F0C5C014968C9161
:1015200081FFC1C082FDACC06101D8011A964D9106
:101530005D916D917C911D97C114D10409F423C173
:101540005B968D919C915C97FC0174802FEF270D29
:101550002A013B0139E076946794579447943A9571
:10156000D1F7722E74207A01F1E0FF2271101FC0B2
:10157000E114F104E1F416964D915D916D917C9129
:101580001997411551056105710509F095C05796E8
:101590008D919D910D90BC91A02D0097A105B10555
:1015A00009F0ABC0C8015FDE882309F47CC080E08D
:1015B00092E08E199F0946018C159D0508F44C0197
:1015C000D8015B964D915C915C9716968D919D919B
:1015D0000D90BC91A02D0297A109B109FA012585B2
:1015E00004C0880F991FAA1FBB1F2A95D2F74685F2
:1015F000578560897189840F951FA61FB71F9C01AD
:10160000AD01270D311D411D511D29013A018114E4
:1016100032E0930609F077C080910C0290910D02A0
:10162000A0910E02B0910F0284159505A605B7058D
:1016300059F48FEF9FEFDC0180930C0290930D0221
:10164000A0930E02B0930F029501B301A201809105
:10165000C4049091C50490D9882329F19EEFB91A4A
:10166000C818D908F80182859385A485B585880DA9
:10167000991DA11DB11D82879387A487B58755CF7A
:10168000F801438954896589768982859385A48583
:10169000B585481759076A077B0709F445CFC80184
:1016A0004FDD811141CF81E090E0D80113969C93EA
:1016B0008E93129780E006C09E012F5F3F4F03DCA0
:1016C000811102C090E075C089819A81AB81BC8193
:1016D000F801238D348DF901278948EF5FEF60E031
:1016E00070E0203121F048EF5FEF6FEF7FE084176B
:1016F0009507A607B70708F055CFF80186839783AB
:10170000A087B18754CFE114F10489F5D8011A9666
:101710004D915D916D917C911D9753968D919D9109
:101720000D90BC91A02D481759076A077B07F8F068
:1017300080D9882309F4B7CF40920C0250920D0251
:1017400060920E0270920F028091C30281608093BA
:10175000C30297012C533D4FD501C901880D991D36
:10176000F9018E179F0751F04D914193FACF41E057
:10177000C301B20199D98111ECCF95CF821B930B94
:10178000A80EB91E6DCFF80183899489A589B68901
:1017900084179507A607B70738F48481438B548BC9
:1017A000658B768B80688483F801848183FD18C003
:1017B000C1010F900F900F900F90DF91CF911F916B
:1017C0000F91FF90EF90DF90CF90BF90AF909F90E0
:1017D0008F907F906F905F904F903F902F900895E3
:1017E000C80138DE882309F45ECFE2CFCF93DF93C0
:1017F0001F92CDB7DEB7698341E050E0BE016F5F55
:101800007F4F6CDE0F90DF91CF910895FC01DB01DB
:1018100012968D919C911397938382838EE292E02E
:101820009183808314968C911497848315968C9160
:101830001597858316964D915D916D917C911997C1
:1018400046835783608771871A964D915D916D919C
:101850007C911D9742875387648775871E964D91AB
:101860005D916D917C91519746875787608B718B05
:1018700052968C915297828B53964D915D916D91BA
:101880007C915697438B548B658B768B57964D91F5
:101890005D916D917C915A97478B508F618F728FBC
:1018A0005B968D919C91948F838F08950895FC0190
:1018B000818D928D009709F0CDCD0895DC01599668
:1018C000ED91FC913097B9F083899489A589B68907
:1018D0004285538564857585841B950BA60BB70BD4
:1018E000811520E89207A105B10538F08FEF9FE739
:1018F000A0E0B0E0089590E080E00895CF93DF93FA
:10190000EC01E98DFA8D309749F481E090E09B83FA
:101910008A8390E080E0DF91CF9108951382128254
:10192000898D9A8DDBDDE98DFA8D22813381232B20
:1019300061F7F1CFCF93DF931F92CDB7DEB7698305
:10194000DC01ED91FC910280F381E02D41E050E05B
:10195000BE016F5F7F4F19950F90DF91CF91089572
:101960002F923F924F925F926F927F928F929F92AF
:10197000AF92BF92CF92DF92EF92FF920F931F939D
:10198000CF93DF9300D0CDB7DEB7FC018581811105
:1019900018C08FEF9FEF0F900F900F90DF91CF91B6
:1019A0001F910F91FF90EF90DF90CF90BF90AF907D
:1019B0009F908F907F906F905F904F903F902F906F
:1019C0000895848180FFE5CF4389548965897689AC
:1019D00082859385A485B585312C212C481759071C
:1019E0006A077B0719F022242394312C6F0121010F
:1019F000CE0101963C01DF011696BB83AA834114F8
:101A0000510409F4C3C0F601428553856485758588
:101A10004A01F1E09F22D6015B968D919C915C97E3
:101A20008A019B01E9E03695279517950795EA9578
:101A3000D1F71596EC91E230E1F5FC01628D738DE2
:101A4000848D958D600F711F821F931FA12C22E042
:101A5000B22EA818B9084A145B0408F45201F60122
:101A6000248126FD04C0A114F2E0BF0671F40091A8
:101A70000C0210910D0220910E0230910F020617F8
:101A800017072807390709F05CC040E00DD8882304
:101A900009F47FCFC4018C539D4FD3019C012A0DC3
:101AA0003B1DFC012E173F0709F46BC041914D937C
:101AB000F9CFDC011496BC90BA94B0228114910441
:101AC00079F4B1100DC0452B462B472B69F5F60173
:101AD0008789908DA18DB28D86839783A087B187EA
:101AE000D6015B96ED91FC915C9716966D917D9178
:101AF0008D919C91199762507109810991092585F1
:101B000004C0660F771F881F991F2A95D2F7068594
:101B1000178520893189600F711F821F931F6B0DFC
:101B2000711D811D911D92CFD60116964D915D912B
:101B30006D917C9119972A813B81C5D98111D0CFB4
:101B400028CF730185019401AB01BC018091C404CD
:101B50009091C5040E942404882309F41ACF6A0CCA
:101B60007B1CF60182859385A485B5858A0D9B1D16
:101B7000A11DB11D82879387A487B5874A185B088A
:101B80003ECF281B390B620E731EEBCF2A942328FD
:101B900009F0FFCE898190E0FECEFC01818D928D0F
:101BA000009709F0DDCE8FEF9FEF08950F931F93FD
:101BB0000E947B036093B6057093B7058093B805C8
:101BC0009093B9058EEA95E0E8DF97FF1DC00E946B
:101BD0007B030091B6051091B7052091B8053091AF
:101BE000B905601B710B820B930B0091B20510912C
:101BF000B3052091B4053091B505601771078207D0
:101C0000930700F38FEF9FEF1F910F9108950F93AC
:101C10001F93CF93DF93EC01898D9A8D10E000E044
:101C2000009789F09DDE8C010F3F100761F0898DD0
:101C30009A8DFC0142855385648575854150510913
:101C4000610971097DDAC801DF91CF911F910F9170
:101C5000089590E080E00895FF920F931F93CF9333
:101C6000DF9380910302882309F4AFC080910502BD
:101C7000882309F4AAC08091CF059091D0050196E0
:101C800009F4A3C0E091CB05F091CC05808191814E
:101C9000880F991F90939D0280939C028581968165
:101CA000880F991F9093A1028093A002828593854B
:101CB000880F991F9093A5028093A402878590892D
:101CC000880F991F9093A9028093A8026281F780E0
:101CD000F092020204850093080211891093010218
:101CE000C381D481D093EC05C093EB0580859185A9
:101CF0009093EA058093E905858596859093E8059C
:101D00008093E705828993899093E6058093E505A2
:101D100087E30E944E036F2D8DE30E944E03602FD8
:101D200080E30E944E03612F82E20E944E03D09313
:101D30008900C09388008091E9059091EA0590930D
:101D40009900809398008091E7059091E805909321
:101D5000A9008093A8008091E5059091E6059093F5
:101D6000290180932801109203021092050244E198
:101D700050E030E020E08091CF059091D0058217AF
:101D80009307ACF02F5F3F4F8217930784F0E091E9
:101D9000CB05F091CC05E40FF51FDF01549784E1EA
:101DA00001900D928A95E1F74C5E5F4FE4CF019769
:101DB0009093D0058093CF0582E080936F0080934D
:101DC00071008093720080937300DF91CF911F9117
:101DD0000F91FF900895CF93883789F0C62F8937E8
:101DE00044F4813609F1853641F461E06C2788E1DD
:101DF00009C0893751F08A3761F0CF910895C1E069
:101E00006C2786E2CF910C944E0361E06C2788E347
:101E1000F9CF61E0C627C09300026C2F8EE30E94C9
:101E20004E036C2F8EE1EECF88E7D5DF6C2F89E76C
:101E3000D2DF6C2F8AE7CFDFD8CF0F931F93CF93DA
:101E4000DF93EC0180E2689FF0011124EC53FD4F19
:101E50006A8B80910C0290910D02A0910E02B091BC
:101E60000F028E879F87A88BB98B0489158930E074
:101E700020E09801112700270F8B188F298F3A8FA8
:101E8000828D938DB0E0A0E0AC01BD01402B512BC1
:101E9000622B732B4F8B588F698F7A8F8385887154
:101EA000A9F4848D958DA68DB78D8B8B9C8BAD8B76
:101EB000BE8B81E08D8381E08C831E821F82188619
:101EC00019861A861B861C861D8603C0803131F058
:101ED00080E0DF91CF911F910F9108959E012D5EBB
:101EE0003F4F8B8D9C8D6FD8882391F384E0E2CF98
:101EF000FC0101900020E9F73197AF01481B590B15
:101F0000BC0186EC94E00C94B7018F929F92AF9243
:101F1000BF920F931F93CF93DF93CDB7DEB7A197F7
:101F20000FB6F894DEBF0FBECDBF19A2423008F441
:101F30004AE08E010F5D1F4F842E912CB12CA12CF5
:101F4000A50194010E94D51FE62FB901CA01EA300C
:101F5000ECF4E05DD801EE938D01232B242B252B8F
:101F600079F790E080E0109711F0CD01C1DFA196E4
:101F70000FB6F894DEBF0FBECDBFDF91CF911F919A
:101F80000F91BF90AF909F908F900895E95CE2CF42
:101F9000CF93DF93ADDFEC0180E592E0A9DF8C0FFA
:101FA0009D1FDF91CF910895AF92BF92CF92DF92A4
:101FB000EF92FF920F931F93CF93DF9300D000D047
:101FC00000D01F921F92CDB7DEB76C01FE01319693
:101FD000CE010C967F0120E22193E817F907E1F783
:101FE000DA0120E037E09D91B92E9923A9F19E32C4
:101FF000B9F43A3091F480E02B960FB6F894DEBF36
:102000000FBECDBFDF91CF911F910F91FF90EF9049
:10201000DF90CF90BF90AF90089528E03AE0E3CFF3
:10202000EBECF1E08491882321F031969813FACFFC
:10203000E2CF321700F38FED890F8E35E0F68FE98E
:10204000890F8A3118F440EEB42EB90EF701E20F71
:10205000F11DB0822F5FC7CF8981803261F28B0181
:10206000FB01838D948DF601948F838FFB01168283
:102070001782108611861286138614861586F8013B
:1020800082859385A485B585438954896589768938
:1020900084179507A607B70708F0ADCF25E0B695DA
:1020A000A795979587952A95D1F7F82FFF70AF2EB2
:1020B000F8018581823008F49ECFC80151DC97FD7C
:1020C0009ACFF80182859385A485B5854F96A11D89
:1020D000B11D82879387A487B587F0E2AF9EB001D8
:1020E00011246C537D4F6115710509F484CFFB01F8
:1020F0008081882301F1853E19F4B11031C01DC0E3
:102100004BE050E0C7010E940022892B09F0B7CFB5
:102110006A2DC6012B960FB6F894DEBF0FBECDBF59
:10212000DF91CF911F910F91FF90EF90DF90CF90B3
:10213000BF90AF9082CEB1105ECFF601A28A80919F
:102140000C0290910D02A0910E02B0910F028687B1
:102150009787A08BB18BFB018081882309F44BCF3B
:10216000BB24B3948CCFFC01808191810C949B2083
:102170002CE432E0FC01318320838281938100973B
:1021800011F00C949B200895CF93DF93EC01F0DFC6
:10219000CE01DF91CF910C949B200F931F93CF938F
:1021A000DF93EC0188819981009759F02A813B8166
:1021B0002617370730F081E0DF91CF911F910F9103
:1021C00008958B016F5F7F4F0E942421009759F083
:1021D000998388831B830A832C813D81232B59F7A4
:1021E000FC011082E8CF80E0E7CFEF92FF920F93DF
:1021F0001F93CF93DF93EC017B018A01BA01CDDFFE
:1022000028813981811114C02115310519F0C901C6
:102210000E949B20198218821D821C821B821A82B6
:10222000CE01DF91CF911F910F91FF90EF90089514
:102230001D830C83B701C9010E941622F1CFFB0157
:10224000DC0111961C921E9213961C921E921297FC
:1022500015961C921E9214978617970741F060817D
:1022600071816115710519F044815581BECF0895C2
:10227000FC01118210821382128215821482FB01EA
:1022800001900020E9F73197AF01461B570BADCF06
:10229000EF92FF920F931F93CF93DF93EC017B019B
:1022A0008A011B821A8288EE93E0A0E0B0E08C8362
:1022B0009D83AE83BF838AE392E0998388838DE117
:1022C00090E00E94FF1F9A8F898F009779F02DE18F
:1022D000F701DC0101900D922A95E1F74CE050E006
:1022E000B801CE010C960E941D22188EDF91CF916D
:1022F0001F910F91FF90EF9008956F927F928F92B0
:102300009F92AF92BF92CF92DF92EF92FF920F9384
:102310001F93CF93DF9300D000D0CDB7DEB7FC0181
:10232000848095808114910409F499C0FB013C01DB
:10233000A080B180FC01E080F180B501C7010E945E
:102340002C22009709F48BC08C010E191F090F3F36
:10235000100709F484C068010815190508F083C046
:10236000F701E00FF11FE114F10421F41092AA0229
:10237000EAEAF2E08081803209F475C00F5F1F4FF6
:10238000EACF8E199F097C012FEFE21AF20A0E158F
:102390001F0528F49E2D8F2D7801C92ED82E62E5B9
:1023A00072E0CE01019664DFF30104811581E0162D
:1023B000F10618F5C016D10608F48601F301608114
:1023C0007181FB01E00FF11FD08010826E0D7F1D27
:1023D00061157105B9F1FB0101900020E9F7319712
:1023E000AF01461B570BCE010196FFDEF301808142
:1023F0009181080F191FF801D08289819A81C12C1F
:10240000D12C7601009721F00E94341B6B017C01D6
:10241000CE010196A8DEC701B60126960FB6F89444
:10242000DEBF0FBECDBFDF91CF911F910F91FF9007
:10243000EF90DF90CF90BF90AF909F908F907F9064
:102440006F90089589819A81009711F00E949B20D6
:102450001A8219821E821D821C821B82C7CFC12C48
:10246000D12C7601D8CFB501C7010E942C2200974C
:1024700009F087CF8FEF9FEF86CF2F923F924F9239
:102480005F926F927F928F929F92AF92BF92CF9204
:10249000DF92EF92FF920F931F93CF93DF93CDB70D
:1024A000DEB7AE970FB6F894DEBF0FBECDBF62E5C4
:1024B00072E0CE014B96DCDE79DB97FD1DC08A30E1
:1024C0009105D1F089831A820F8D18A10F5F1F4FDC
:1024D000B801CE014B9661DE882371F32B8D3C8DC4
:1024E0008F8D98A1BE016F5F7F4F820F931F0E9457
:1024F000162218A30F8FE0CF63E572E0CE01459658
:10250000B7DEBE01655E7F4FCE01019698DEBE014B
:102510006B5E7F4FCE010196F0DE0E94131F7AA3FF
:1025200069A3CE0101961FDECE0145961CDE29A1CE
:102530003AA12130310509F0E6C265E572E0CE012D
:10254000459696DEBE01655E7F4FCE01019677DE31
:10255000BE016B5E7F4FCE010196CFDE6B017C0129
:10256000CE01019600DECE014596FDDD67E572E005
:10257000CE0145967DDEBE01655E7F4FCE010196A0
:102580005EDEBE016B5E7F4FCE010196B6DE4B0173
:102590005C01CE010196E7DDCE014596E4DD69E5FB
:1025A00072E0CE01459664DEBE01655E7F4FCE01CE
:1025B000019645DEBE016B5E7F4FCE0101969DDE2A
:1025C000CE010196D0DDCE014596CDDD6BE572E002
:1025D000CE0145964DDEBE01655E7F4FCE01019670
:1025E0002EDEBE016B5E7F4FCE01019686DECE01F0
:1025F0000196B9DDCE014596B6DD6DE572E0CE01FE
:10260000459636DEBE01655E7F4FCE01019617DE30
:10261000BE016B5E7F4FCE0101966FDE2B013C0148
:10262000CE010196A0DDCE0145969DDDC301B2012C
:102630000E94131F6DA37EA38FA398A72DA03EA079
:1026400020E030E0A901B601C7010E94AC1C88233C
:10265000D9F02091AF023091B0024091B102509177
:10266000B202B601C7010E94E11D362F272FA60135
:10267000B7014093AF025093B0026093B1027093E0
:10268000B202C32ED22E7C0120E030E0A901B401B9
:10269000C5010E94AC1C8823D9F02091AB02309177
:1026A000AC024091AD025091AE02B401C5010E944E
:1026B000E11D362F272FA401B5014093AB025093A3
:1026C000AC026093AD027093AE02832E922E5C0139
:1026D00020E030E048EC52E4B601C7010E94111D31
:1026E0002B013C0120E030E0A9010E94A21F181636
:1026F0000CF05BC120E030E040E05FE3C301B201D9
:102700000E94E21D0E94131F7CA36BA320E030E017
:1027100048EC52E4B401C5010E94111D2B013C019B
:1027200020E030E0A9010E94A21F18160CF046C15B
:1027300020E030E040E05FE3C301B2010E94E21D0F
:102740000E94131F3B0120E030E0A901B601C70140
:102750000E94AC1C881F8827881F11E081278EA744
:1027600020E030E0A901B401C5010E94AC1C881F23
:102770008827881F81278DA732E0231631040CF4A7
:1027800040C04DA15EA1BA01550F880B990B0E9464
:10279000B21C20E030E040E752E40E94AB1E20E093
:1027A00030E048EC52E40E94111D9B01AC0160E056
:1027B00074E284E799E40E94AB1E9B01AC010E9485
:1027C000E21D0E94131F70931102609310021B01FF
:1027D000770F440855084AE0C201B10157FE0DC009
:1027E0006DE286EC94E00E944C0266277727CB01CD
:1027F00062197309840995094AE087DB80E592E054
:1028000077DB009110021091110220E030E0A90165
:10281000B601C7010E94AC1C882309F4E0C020E087
:1028200030E0A901B401C5010E94AC1C882309F461
:10283000D6C09401A501B601C7010E94551E4B01E7
:102840005C010E94A81E1B012C01B801110F880B0E
:10285000990B0E94B21C6B017C01AC019B01C2016F
:10286000B1010E94111D1B012C0120E030E0A901E3
:102870000E94A21F18160CF0AAC0C201B1010E944A
:10288000131F8B01C501B4010E94AD1F9B01AC0158
:10289000C701B6010E94111D6B017C0120E030E0F0
:1028A000A9010E94A21F18160CF095C0C701B6011D
:1028B0000E94131F262F872F4BA15CA15A834983A7
:1028C0005EA55B831D830C837F826E829DA59887A6
:1028D00029878A871C861B8681E08D872BA52E87FA
:1028E0003CA53F87198A188A8A8B49A54B8B5AA524
:1028F0005C8B2091CF053091D005A9014E5F5F4FD1
:10290000E090CB05F090CC058091CD059091CE055F
:102910008E199F099595879595958795EDECFCEC1B
:102920008E9FB0018F9F700D9E9F700D11246417B4
:1029300075070CF06FC0C9010196880F991F8417A5
:1029400095070CF4CA01281739073CF09C01215067
:1029500031093093D0052093CF0524E1289F8001D1
:10296000299F100D11248736964008F43FC08FEF41
:102970009FEF0E94FF1F6C01080F191FA090CF0549
:10298000B090D005970150E040E0A416B50684F160
:1029900064E1F901DC0101900D926A95E1F74F5F66
:1029A0005F4F2C5E3F4F4496F0CFA301920160E051
:1029B00070E080E09FE30E94E11DA4CEA30192019C
:1029C00060E070E080E09FE30E94E11DB9CEC201AB
:1029D000B101905854CFC701B601905869CF09A7EB
:1029E0001AA70BA71CA7202F812F66CFC801C1CF24
:1029F000E114F10419F0C7010E949B20D092CC058C
:102A0000C092CB051093CE050093CD05B092D005B2
:102A1000A092CF058091CB059091CC054091CF0538
:102A20005091D0052091CD053091CE05281B390B52
:102A30003595279535952795EDECFCEC2E9FB0014B
:102A40002F9F700D3E9F700D1124641B750B62301B
:102A500071052CF49B01215031093AA329A324E1EB
:102A6000F22E29A13AA1F29E8001F39E100D1124AD
:102A70004F5F5F4FF49E9001F59E300D1124A80129
:102A8000BE016F5F7F4F820F931F0E940D2281E076
:102A900090E049A15AA1841B950BF89EA001F99ED4
:102AA000500D112461E070E06C0F7D1F600F711FED
:102AB0008091CB059091CC050E940D228091CF058D
:102AC0009091D00501969093D0058093CF05CE01CB
:102AD0004B9649DBAE960FB6F894DEBF0FBECDBF66
:102AE000DF91CF911F910F91FF90EF90DF90CF90EA
:102AF000BF90AF909F908F907F906F905F904F901E
:102B00003F902F9008954F8D58A16B8D7C8D86EC52
:102B100094E00E94B70180E592E0EAD9D8CF1F92F5
:102B20000F920FB60F9211240BB60F922F933F9373
:102B30004F935F936F937F938F939F93AF93BF93C5
:102B4000EF93FF9386EC94E00E942A02FF91EF91AD
:102B5000BF91AF919F918F917F916F915F914F91B5
:102B60003F912F910F900BBE0F900FBE0F901F90B3
:102B700018951F920F920FB60F9211240BB60F9259
:102B80002F938F939F93EF93FF93E091D604F0914F
:102B9000D7048081E091DC04F091DD0482FD1DC04A
:102BA00090818091DF048F5F8F732091E004821702
:102BB00041F0E091DF04F0E0EA53FB4F958F809302
:102BC000DF04FF91EF919F918F912F910F900BBE9A
:102BD0000F900FBE0F901F9018958081F2CF1F921B
:102BE0000F920FB60F9211242F933F938F939F93C1
:102BF000AF93BF938091BE029091BF02A091C0029B
:102C0000B091C1023091BD0223E0230F2D3758F55A
:102C10000196A11DB11D2093BD028093BE02909329
:102C2000BF02A093C002B093C1028091B9029091FB
:102C3000BA02A091BB02B091BC020196A11DB11DC8
:102C40008093B9029093BA02A093BB02B093BC02E6
:102C5000BF91AF919F918F913F912F910F900FBE98
:102C60000F901F90189526E8230F0296A11DB11D05
:102C7000D2CF1F920F920FB60F9211240BB60F9264
:102C80000F931F932F933F934F935F936F937F9374
:102C90008F939F93AF93BF93CF93EF93FF93009145
:102CA000A6021091A7028091A8029091A902801714
:102CB000910741F1C091090281E0C827C093090240
:102CC0006C2F8AE10E944E03CC2331F00F5F1F4F1F
:102CD0001093A7020093A602FF91EF91CF91BF91AD
:102CE000AF919F918F917F916F915F914F913F91A4
:102CF0002F911F910F910F900BBE0F900FBE0F9051
:102D00001F90189510927300E7CF1F920F920FB685
:102D10000F9211240BB60F920F931F932F933F9393
:102D20004F935F936F937F938F939F93AF93BF93D3
:102D3000CF93DF93EF93FF93C091A202D091A302B0
:102D40008091A4029091A5028C179D0709F450C0B0
:102D5000E7E9F1E08491E7E6F2E00491E1E2F2E0F4
:102D60001491112399F181110E94E702E12FF0E003
:102D7000EE0FFF1FE559FE4FA591B491EC91E023B2
:102D800029F180910802811121C0109272001092E5
:102D9000A5021092A4021092A3021092A202FF9127
:102DA000EF91DF91CF91BF91AF919F918F917F91E3
:102DB0006F915F914F913F912F911F910F910F90C4
:102DC0000BBE0F900FBE0F901F9018951091070229
:102DD00081E0182710930702612F84E20E944E03BE
:102DE0001123E9F22196D093A302C093A202D7CF78
:102DF00010927200D4CF1F920F920FB60F9211242F
:102E00000BB60F922F933F934F935F936F937F93E4
:102E10008F939F93AF93BF93CF93DF93EF93FF93E2
:102E2000C0919E02D0919F028091A0029091A10238
:102E30008C179D0719F16091060281E06827609365
:102E400006028CE30E944E032196D0939F02C0930A
:102E50009E02FF91EF91DF91CF91BF91AF919F9132
:102E60008F917F916F915F914F913F912F910F9033
:102E70000BBE0F900FBE0F901F901895109271000F
:102E800081E08093050210929F0210929E020E94A0
:102E90002C0EDFCF1F920F920FB60F9211240BB69C
:102EA0000F922F933F934F935F936F937F938F93E3
:102EB0009F93AF93BF93CF93DF93EF93FF93C09113
:102EC0009A02D0919B0280919C0290919D028C1756
:102ED0009D0719F16091040281E068276093040264
:102EE00086E30E944E032196D0939B02C0939A02E0
:102EF000FF91EF91DF91CF91BF91AF919F918F9112
:102F00007F916F915F914F913F912F910F900BBEE9
:102F10000F900FBE0F901F90189510926F0081E0D8
:102F20008093030210929B0210929A020E942C0E30
:102F3000DFCFCF92DF92EF92FF92CF93DF93E6EC59
:102F4000F4E01382128288EEC82E83E0D82EE12CA2
:102F5000F12CC482D582E682F7828CE192E09183E3
:102F6000808385EC90E09587848784EC90E0978758
:102F7000868780EC90E0918B808B81EC90E0938B46
:102F8000828B82EC90E0958B848B86EC90E0978B23
:102F9000868B118E128E138E148EE3E6F5E080E59B
:102FA00080831182E5E6F5E015821682118613868C
:102FB00082E090E0A0E0B0E084879587A687B7879D
:102FC00013A215A614A68EE292E093A782A717A6D5
:102FD00080911002909111029093EC058093EB0583
:102FE0009093EA058093E9059093E8058093E705BF
:102FF0009093E6058093E505C9ECD5E08CE492E07A
:103000009983888390E080E0FAD79B838A832FEFAF
:103010003FEF3F832E839D838C83EEEAF5E013829E
:103020001282C482D582E682F7828AE392E091839B
:103030008083128E118E1486DF91CF91FF90EF90D6
:10304000DF90CF900895CF93DF93CDB7DEB7C2570F
:10305000D1090FB6F894DEBF0FBECDBF789484B50A
:10306000826084BD84B5816084BD85B5826085BD84
:1030700085B5816085BD80916E00816080936E0012
:103080001092810080918100826080938100809104
:1030900081008160809381008091800081608093B5
:1030A00080008091B10084608093B1008091B00075
:1030B00081608093B0008091910082608093910044
:1030C0008091910081608093910080919000816057
:1030D000809390008091A10082608093A1008091F4
:1030E000A10081608093A1008091A0008160809305
:1030F000A0008091210182608093210180912101B3
:103100008160809321018091200181608093200162
:1031100080917A00846080937A0080917A00826046
:1031200080937A0080917A00816080937A00809108
:103130007A00806880937A001092C10086E30E9432
:10314000820187E30E94820186E20E94820110923E
:1031500080001AE0109381001092820040E9E42E72
:10316000FF24F394F0928900E09288008CE30E949F
:1031700082018DE30E94820188E30E948201109205
:1031800090001093910010929200F0929900E092BA
:1031900098008EE20E9482018DE30E94820188E302
:1031A0000E94820184E20E94820182E20E948201E6
:1031B0008EE10E9482011092A0001093A100109253
:1031C000A200F092A900E092A8008AE10E94820188
:1031D0008CE10E94820188E10E948201109220010C
:1031E000109321011092220180E293E09093290133
:1031F000809328018AE00E94820189E00E94820176
:1032000061E089E00E944E0361E08AE00E944E0383
:1032100061E081E60E94EB0E85E30E9482018091CD
:103220009405882321F08FE895E00E94630A1092AC
:10323000700510926E0510926B0510926A0584E07D
:10324000809369050E947B038B01809169050E9430
:10325000820161E0809169050E944E03FFB6F894F7
:103260008091C202811124C0E4E4F2E08491EAE892
:10327000F2E09491E82FF0E0EE0FFF1FEB50FE4FCD
:10328000A591B491EC91E92321F461E085E30E94DA
:103290004E0385E30E9482018CB580618CBD8CB5A4
:1032A00080648CBD84E30E94820183E30E948201DA
:1032B0008091C2028F5F8093C202FFBE82E580933D
:1032C00063051092640580916305909164050E94E6
:1032D000B8032AE0F22E8FEF0E949703FA94F110C0
:1032E000FACF85E695E00E94BB0320E030E0A9011B
:1032F00060E085E695E00E94CF03F82E80936F058D
:1033000081E0F81689F00E947B03601B710B613D20
:10331000774058F381E080936A0585E695E00E9446
:103320008D0384E792E07CC02AEA31E040E050E07F
:1033300068E085E695E00E94CF0382FF2AC0F09204
:10334000700580917005C12CD12C7601823029F452
:10335000C12CD12CE12C80E4F82E20E030E0A90132
:1033600067E385E695E00E94CF03A701960169E235
:1033700085E695E00E94CF0380936F058823D1F006
:103380000E947B03601B710B613D774030F388E046
:10339000C2CF94E0F92E0E949E0380936F05FA94A9
:1033A000F110F9CF8A3A11F082E0B5CF82E0809334
:1033B0007005C7CF809170058230D1F420E030E0F5
:1033C000A9016AE385E695E00E94CF03882311F006
:1033D00086E0A1CF0E949E03807C803C19F483E0AC
:1033E000809370050E949E030E949E030E949E038C
:1033F00085E695E00E948D0380E580936305109239
:10340000640581E00E949B05882309F4C6C08FE80B
:1034100095E00E944D08882309F483CF8FE592E060
:103420000E94C80FE091D604F091D70482E0808317
:10343000E091D204F091D3041082E091D404F09191
:10344000D5048FEC80831092DE04E091DA04F091D1
:10345000DB0486E08083E091D804F091D904808178
:1034600080618083E091D804F091D90480818860E4
:103470008083E091D804F091D904808180688083B2
:10348000E091D804F091D90480818F7D80831C82E3
:103490001B820EE212E01A8309831E82CE0101967E
:1034A0000E944D08BE016F5F7F4FCE01CB960E94F8
:1034B000060C19A218A21F8F0E8F1BA221968FAD8A
:1034C0002197811171C06C961FAE1EAE6C9788EE6D
:1034D00093E0A0E0B0E0A0968CAF9DAFAEAFBFAFE1
:1034E000A0978AE392E06A969FAF8EAF6A97E396C1
:1034F0001FAE1EAEE397A5961FAEA5976C968EAD38
:103500009FAD6C979093B1058093B005A0968CAD5C
:103510009DADAEADBFADA0978093B2059093B305BE
:10352000A093B405B093B505A4968CAD9DADAEAD9A
:10353000BFADA4978093B6059093B705A093B80547
:10354000B093B905A8E5B0E0AC0FBD1F1C96EAEB3F
:10355000F5E08D91819385E0E73CF807D1F7E3969C
:103560008EAD9FADE3979093C8058093C7051092E9
:103570000B0210920A0280910A0290910B0244976A
:10358000ACF50E943D1280910A0290910B020196C7
:1035900090930B0280930A02EECF80E00E949B057D
:1035A000882309F4BECE33CF4BE852E0BE01655C00
:1035B0007F4FCE014E960E94D40F882309F483CF0B
:1035C000CE01CB960E94630ABE01625E7F4FCE01A0
:1035D00001960E94060C4BE852E0BE016F5F7F4FE0
:1035E000CE01885A9F4F0E94481188CF86E992E009
:1035F0000E94C80F8091CF059091D0054D9714F48B
:103600000E943D120E94A10161E0C3972CF40E9428
:10361000A101889724F460E08AE00E944E030E9492
:10362000A1016C01990FEE08FF084AE0C701B6013D
:10363000F7FE0DC06DE286EC94E00E944C02662716
:103640007727CB016C197D098E099F094AE00E94FA
:10365000850F80E592E00E94780F0E94B702CACFE2
:1036600089EC95E00C94B8106627772700C08F92FC
:103670009F92AF92BF92CF92DF92EF92FF920F9301
:103680001F93CF93DF935C017B016115710519F0E6
:10369000DB018D939C9385010F5F1F4FF501D08156
:1036A0008D2F90E039D16C01892BA9F5DD32A9F578
:1036B0000F5F1F4FD5011196DC91C1E05801F1E079
:1036C000AF1AB10843E050E068E371E0C5012CD1C6
:1036D000892B61F5680182E0C80ED11C45E050E0FD
:1036E00063E371E0C60120D1892B21F4680197E0E2
:1036F000C90ED11CE114F10419F0D701CD92DC926E
:1037000060E070E080E89FEFC111F9C060E070E018
:1037100080E89FE7F4C05801BECFDB3229F4850171
:103720000E5F1F4FF501D181C0E0C8CF43E050E0EC
:1037300060E371E0C501F8D0892BE9F0F80110E0F1
:1037400000E020E030E0A9015F01B0ED8B2E8D0E8E
:1037500089E08815C0F19C2E689491F88C2F8870B0
:10376000C2FF16C0811102C00F5F1F4F3196D501F5
:10377000DC91C92DE9CFE114F10429F00E5F1F4F50
:10378000F7011183008360E070E080EC9FE7B7C031
:10379000882311F001501109A5E0B0E0F9D19B0197
:1037A000AC01220F331F441F551F280D311D411D31
:1037B000511D283999E93907490799E15907B0F2AC
:1037C000C6609C2ED3CFAEEF8A1206C0C3FD3CC0AC
:1037D0009C2E689493F8CACFDF7DD534A9F58081FB
:1037E0008D3239F4C061DF011296818162E070E0B0
:1037F00006C0DF018B32C1F3119661E070E08053A7
:103800005D01A61AB70A8A30F8F4E0E8CE16ECE0BB
:10381000DE065CF4B601660F771F660F771FC60ED3
:10382000D71ECC0CDD1CC80ED11C5D01FFEFAF1AFA
:10383000BF0A8C9180538A3098F1C4FF03C0D194A1
:10384000C194D1080C0D1D1DC1FF09C0E114F10484
:1038500031F081E0A81AB108D701AD92BC92CA013B
:10386000B9017ED0C370C33009F490584B015C019C
:1038700020E030E0A90170D0882309F43EC0C7E6FB
:10388000D1E017FF05C0119501951109CFE4D1E0F2
:103890006E01B8E1CB1AD10880E2E82EF12C0EC0FF
:1038A000D501B3CFFE0125913591459154910E1963
:1038B0001F09C501B401B5D04B015C01D501C4019C
:1038C0000E151F057CF72497F594E794CC16DD06BA
:1038D000A9F78A2F880F8B2F881F8F3F41F020E098
:1038E00030E0A901C501B40137D0811106C082E2E0
:1038F00090E09093EE058093ED05C501B401DF9152
:10390000CF911F910F91FF90EF90DF90CF90BF90DC
:10391000AF909F908F9008959111E6C0803219F07A
:1039200089508550D0F70895FB01DC01415050408B
:1039300088F08D9181341CF08B350CF4805E65919C
:1039400061341CF06B350CF4605E861B611171F301
:10395000990B0895881BFCCF40D008F481E00895AE
:10396000E89409C097FB3EF4909580957095619519
:103970007F4F8F4F9F4F9923A9F0F92F96E9BB27CF
:103980009395F695879577956795B795F111F8CF4B
:10399000FAF4BB0F11F460FF1BC06F5F7F4F8F4FB6
:1039A0009F4F16C0882311F096E911C0772321F0AC
:1039B0009EE8872F762F05C0662371F096E8862F44
:1039C00070E060E02AF09A95660F771F881FDAF79B
:1039D000880F9695879597F90895990F0008550FC8
:1039E000AA0BE0E8FEEF16161706E807F907C0F085
:1039F00012161306E407F50798F0621B730B840B8D
:103A0000950B39F40A2661F0232B242B252B21F466
:103A100008950A2609F4A140A6958FEF811D811D06
:103A200008950BD07BC06CD028F071D018F095238E
:103A300009F05DC062C01124A5C081D0A0F3959F9C
:103A4000D1F3950F50E0551F629FF001729FBB2785
:103A5000F00DB11D639FAA27F00DB11DAA1F649F31
:103A60006627B00DA11D661F829F2227B00DA11DE4
:103A7000621F739FB00DA11D621F839FA00D611D6A
:103A8000221F749F3327A00D611D231F849F600D8B
:103A9000211D822F762F6A2F11249F5750408AF0C4
:103AA000E1F088234AF0EE0FFF1FBB1F661F771F50
:103AB000881F91505040A9F79E3F510570F017C0E4
:103AC00061C05F3FECF3983EDCF386957795679590
:103AD000B795F795E7959F5FC1F7FE2B880F911D6E
:103AE0009695879597F9089599278827089597F9C6
:103AF0009F6780E870E060E008959FEF80EC089594
:103B000000240A94161617061806090608950024BC
:103B10000A9412161306140605060895092E039436
:103B2000000C11F4882352F0BB0F40F4BF2B11F4AA
:103B300060FF04C06F5F7F4F8F4F9F4F089557FD09
:103B40009058440F551F59F05F3F71F04795880F0B
:103B500097FB991F61F09F3F79F0879508951216A2
:103B600013061406551FF2CF4695F1DF08C016164E
:103B700017061806991FF1CF8695710561050894FF
:103B80000895E894BB2766277727CB0197F9089516
:103B900009D0A59F900DB49F900DA49F800D911DFD
:103BA00011240895A29FB001B39FC001A39F700D7F
:103BB000811D1124911DB29F700D811D1124911D35
:103BC00008955058BB27AA270ED0A8CF99DF30F010
:103BD0009EDF20F031F49F3F11F41EF48ECF0EF4DF
:103BE000E095E7FB84CFE92FAADF80F3BA176207DD
:103BF00073078407950718F071F49EF5C2CF0EF491
:103C0000E0950B2EBA2FA02D0B01B90190010C01EC
:103C1000CA01A0011124FF27591B99F0593F50F404
:103C2000503E68F11A16F040A22F232F342F44275C
:103C3000585FF3CF469537952795A795F040539554
:103C4000C9F77EF41F16BA0B620B730B840BBAF024
:103C50009150A1F0FF0FBB1F661F771F881FC2F78F
:103C60000EC0BA0F621F731F841F48F487957795A3
:103C70006795B795F7959E3F08F0B3CF9395880F5A
:103C800008F09927EE0F97958795089539DF58F03A
:103C900080E891E009F49EEF3ADF28F040E851E037
:103CA00059F45EEF09C029CF6CCFE92FE07847DFE8
:103CB00068F3092E052AC1F3261737074807590765
:103CC00038F00E2E07F8E02569F0E025E0640AC020
:103CD000EF6307F8009407FADB01B9019D01DC01ED
:103CE000CA01AD01EF9346D019DF0AD05F91552389
:103CF00031F02BED3FE049E450FD49EC63CF0895EE
:103D0000DF93DD27B92FBF7740E85FE3161617066C
:103D100048075B0710F4D92F19D19F938F937F9396
:103D20006F9321D1E4EEF0E0AFD0F8DE2F913F9118
:103D30004F915F9182DEDD2349F09058A2EA2AED8F
:103D40003FE049EC5FE3D0785D274DDFDF91E6CEC1
:103D5000C1D0E395E6C00CD0E1CED9DE40F0D0DE94
:103D600030F021F45F3F19F0C2CE51110BCFC5CE18
:103D7000E6DE98F39923C9F35523B1F3951B550B50
:103D8000BB27AA2762177307840738F09F5F5F4F2E
:103D9000220F331F441FAA1FA9F333D00E2E3AF06F
:103DA000E0E830D091505040E695001CCAF729D089
:103DB000FE2F27D0660F771F881FBB1F26173707D8
:103DC0004807AB07B0E809F0BB0B802DBF01FF2708
:103DD00093585F4F2AF09E3F510568F088CED2CEAF
:103DE0005F3FECF3983EDCF3869577956795B79542
:103DF000F7959F5FC9F7880F911D9695879597F95D
:103E00000895E1E0660F771F881FBB1F62177307D5
:103E10008407BA0720F0621B730B840BBA0BEE1FEA
:103E200088F7E095089504D06894B111ABCE089559
:103E30008EDE88F09F5790F0B92F9927B751A0F0E8
:103E4000D1F0660F771F881F991F1AF0BA95C9F72E
:103E500012C0B13081F095DEB1E0089592CE672FA7
:103E6000782F8827B85F39F0B93FCCF386957795DE
:103E70006795B395D9F73EF49095809570956195C7
:103E80007F4F8F4F9F4F0895DF93CF931F930F93D3
:103E9000FF92EF92DF927B018C01689405C0DA2ECD
:103EA000EF01CBDDFE01E894A59125913591459177
:103EB0005591AEF3EF0197DEFE019701A801DA9468
:103EC00079F7DF90EF90FF900F911F91CF91DF91E5
:103ED000089513CE3CDEE8F3E894E0E0BB279F575B
:103EE000F0F02AED3FE049EC06C0EE0FBB0F661F75
:103EF000771F881F28F0B23A62077307840728F0FB
:103F0000B25A620B730B840BE3959A9572F7803863
:103F100030F49A95BB0F661F771F881FD2F7904821
:103F200027C0EF93E0FF06C0A2EA2AED3FE049EC8C
:103F30005FEB59DEF3DD0F90039401FC9058E1E153
:103F4000F1E022C04ADD08F48FEF08959B01AC0137
:103F500060E070E080E89FE3FECE9F93BBDF0F90B0
:103F600007FCEE5FDECF9B01AC015BCD9F3F31F0E4
:103F7000915020F4879577956795B795880F911D97
:103F80009695879597F908959F938F937F936F9355
:103F9000FF93EF939B01AC0144DDEF91FF9174DF40
:103FA0002F913F914F915F913CCDA1E21A2EAA1B18
:103FB000BB1BFD010DC0AA1FBB1FEE1FFF1FA217D9
:103FC000B307E407F50720F0A21BB30BE40BF50BD6
:103FD000661F771F881F991F1A9469F7609570955F
:103FE000809590959B01AC01BD01CF010895EE0F26
:103FF000FF1F881F8BBF0790F691E02D19940F9338
:104000001F93CF93DF938230910510F482E090E00C
:10401000E091F105F091F20530E020E0B0E0A0E0A1
:10402000309799F42115310509F44AC0281B390B42
:1040300024303105D8F58A819B816115710589F19C
:10404000FB0193838283FE0111C040815181028173
:10405000138148175907E0F04817590799F410974A
:1040600061F012960C93129713961C933296CF011F
:10407000DF91CF911F910F9108950093F105109357
:10408000F205F4CF2115310551F04217530738F0EE
:10409000A901DB019A01BD01DF01F801C1CFEF01E8
:1040A000F9CF9093F2058093F105CDCFFE01E20F99
:1040B000F31F819391932250310939832883D7CFFD
:1040C0002091EF053091F005232B41F4209114024B
:1040D000309115023093F0052093EF0520911202E4
:1040E000309113022115310541F42DB73EB74091AF
:1040F000160250911702241B350BE091EF05F09149
:10410000F005E217F307A0F42E1B3F0B2817390721
:1041100078F0AC014E5F5F4F2417350748F04E0F23
:104120005F1F5093F0054093EF05819391939FCFCC
:10413000F0E0E0E09CCFCF93DF930097E9F0FC0143
:10414000329713821282A091F105B091F205ED0130
:1041500030E020E01097A1F420813181820F931F7D
:104160002091EF053091F0052817390709F061C05B
:10417000F093F005E093EF05DF91CF910895EA0108
:10418000CE17DF07E8F54A815B819E014115510595
:10419000B1F7E901FB83EA8349915991C40FD51F17
:1041A000EC17FD0761F4808191810296840F951FC1
:1041B000E90199838883828193819B838A83F0E0DC
:1041C000E0E012968D919C9113970097B9F52D918F
:1041D0003C911197CD010296820F931F2091EF051C
:1041E0003091F0052817390739F6309751F51092BC
:1041F000F2051092F105B093F005A093EF05BCCF46
:10420000D383C28340815181840F951FC817D9077A
:1042100061F44E5F5F4F88819981480F591F518328
:1042200040838A819B81938382832115310509F024
:10423000B0CFF093F205E093F1059ECFFD01DC01D4
:10424000C0CF13821282D7CF4F925F926F927F922C
:104250008F929F92AF92BF92CF92DF92EF92FF9296
:104260000F931F93CF93DF938C01009791F4CB01B1
:10427000DF91CF911F910F91FF90EF90DF90CF9042
:10428000BF90AF909F908F907F906F905F904F9076
:10429000B6CEFC01E60FF71F9C0122503109E21750
:1042A000F30708F4AAC0D901CD91DC911197C61784
:1042B000D70718F1C530D10570F0CE0104978617E5
:1042C000970748F0C61BD70B2297C193D1936D93E4
:1042D0007C93CF0130DFC801DF91CF911F910F9107
:1042E000FF90EF90DF90CF90BF90AF909F908F9016
:1042F0007F906F905F904F9008955B01AC1ABD0A5C
:104300004C018C0E9D1EA091F105B091F205512C2F
:10431000412CF12CE12C109731F58091EF05909113
:10432000F0058815990509F05CC04616570608F097
:1043300058C08091120290911302009741F48DB7FA
:104340009EB74091160250911702841B950BE817F7
:10435000F90708F052C0F093F005E093EF05F9017A
:1043600071836083B8CF8D919C91119712966C9058
:10437000129713967C901397A815B90559F56C01FF
:1043800042E0C40ED11CCA14DB0420F1AC014A196E
:104390005B09DA011296159780F06282738251836D
:1043A0004083D9016D937C93E114F10471F0D7013E
:1043B0001396FC93EE9312978ECF22968C0F9D1F2F
:1043C000F90191838083F301EFCFF093F205E0933D
:1043D000F10581CF4816590608F42C017D01D3015F
:1043E0009ACFCB010CDE7C01009739F0AE01B80109
:1043F00014D0C801A0DE87016ECF10E000E06BCFC3
:10440000FB01DC0104C08D910190801921F4415021
:104410005040C8F7881B990B0895FB01DC0102C0CE
:1044200001900D9241505040D8F70895FB01DC01F6
:1044300001900D920020E1F70895FB01DC0141504D
:10444000504048F001900D920020C9F701C01D9224
:1044500041505040E0F70895FB0151915523A9F0D8
:10446000BF01DC014D9145174111E1F759F4CD0130
:104470000190002049F04D9140154111C9F3FB0115
:104480004111EFCF81E090E00197089511E0CFE472
:10449000D1E000E005C0802FFE01A9DD2196011DBD
:0E44A000C035D10780E00807B1F7F894FFCFD0
:1044AE00010101010101010101010100FFFFFFFFF7
:1044BE00BC020000F3058000000000004C02B701B2
:1044CE00E40198021502F301070200000000F60B4A
:1044DE00B701290E560C000000009A0C7E0C290E16
:1044EE00570C5E0CCD0D070E00000000B810C41066
:1044FE000D0A004700580059005A00450046006951
:10450E006E697469616C697A6174696F6E20646F2B
:10451E006E652E00696E697469616C697A61746981
:10452E006F6E206661696C6564210073616D706CDD
:0A453E00652E7478740072756E002B
:00000001FF
